S02B00002F55736572732F78696E79652F53696D706C696369747953747564696F2F76355F776F726B73706129
S113000000100020BD030000413E0000413E0000FE
S1130010413E0000413E0000413E0000413E0000E0
S1130020413E0000413E0000413E0000413E0000D0
S1130030413E0000413E0000413E0000413E0000C0
S1130040413E0000413E0000413E0000413E0000B0
S1130050413E0000413E0000413E0000413E0000A0
S1130060413E0000413E0000413E0000413E000090
S113007001310000413E0000413E0000413E0000CD
S1130080413E0000413E0000413E0000413E000070
S1130090413E00005D0A0000413E0000413E000078
S11300A0413E0000413E0000413E0000413E000050
S11300B0413E0000413E0000413E0000413E000040
S11300C0413E0000413E0000413E0000413E000030
S11300D0413E0000413E0000413E0000413E000020
S11300E0413E0000413E0000413E0000413E000010
S11300F0413E0000413E0000413E0000413E000000
S1130100413E0000413E0000413E0000413E0000EF
S1130110413E0000413E0000413E0000413E0000DF
S1130120413E0000413E0000413E0000413E0000CF
S1130130413E0000413E00004D3300004F420000AC
S1130140013800D0FCE770470348044B834202D0D7
S1130150034B03B118477047A4100020A4100020DB
S113016000000000064B0749C91A891048BF013135
S1130170491003D0044B0BB101481847704700BF26
S1130180A4100020A41000200000000010B5064CAC
S1130190237843B9FFF7D8FF044B13B10448AFF3F6
S11301A000800123237010BD9A1400200000000079
S11301B0544C000008B5054B1BB105490548AFF385
S11301C00080BDE80840FFF7CDBF00BF000000007D
S11301D0A4100020544C0000A3F5803A704700BFDF
S11301E0174B002B08BF134B9D46FFF7F5FF00216B
S11301F08B460F461348144A121A04F009F90E4BA1
S1130200002B00D098470D4B002B00D098470020BE
S1130210002104000D000D48002802D00C48AFF363
S1130220008003F0CDFB2000290004F012F803F055
S113023033FA00BF000008000000000000000000C6
S113024000100020A4100020C414002000000000AE
S1130250000000001022014B1A61704700D00350C7
S11302601022014B1A61704700E00350F0B5404D75
S113027089B001AC0FCD0FC495E8070084E80700EE
S1130280012401213A2000F011FF3A4F01212820D6
S113029000F00CFF384B384601A903938DF8124047
S11302A002F09CF8234604220021022001F032FED1
S11302B0224621460023022001F02CFE022123467F
S11302C00846042201F026FE04222346114600209B
S11302D001F020FE4FF00213284D0226C5F83036F7
S11302E0A3F58033C5F82C361C23C5F834664FF4C7
S11302F04870C5F81C3602F01DFF1420FFF7B0FF4C
S113030002F018FF2320FFF7A5FF02F013FFB92125
S11303103846FFF7A5FF03F050FEFFF79BFF0023CD
S113032030461A46194601F0F5FD002321461A46C7
S1130330304601F0EFFD234631463046002201F0FD
S1130340E9FD002223461046042101F0E3FD38466E
S113035002F00CF800212820C5F83016C5F82C1638
S1130360C5F83416C5F81C1600F0A0FE09B0F0BD9F
S1130370E046000000C0055000127A0000C003509F
S11303800346054A0549106803448B428CBF4FF06D
S1130390FF301360704700BF001000200080002071
S11303A00348044A0449121A921003F04ABD00BFDC
S11303B00C4D00000C4D0000C414002008B500F0E2
S11303C02FF8FFF7EDFF124B12498B4212D3002096
S11303D0114B12498B4218D3FFF702FF186850F8EB
S11303E02240586840F82240013298688242F5D38E
S11303F00C33EAE70022F8E71C6844F822000132D3
S11304005C68A242F8D30833E4E70022F8E700BFAF
S11304105C4C0000684C0000684C0000684C000014
S11304204FF400414FF0FF30124B134A10B59A605D
S1130430D3F8882042F47002C3F888200F4A9166EA
S113044001F1884101F5005210664FF6DF705066E5
S11304500220C3F8D000BFF34F8FBFF36F8F08247F
S11304604FF440330648C0F88041D36004600B6108
S113047010BD00BF00ED00E000000000009000503F
S113048000E100E0014B1868704700BF081000202D
S1130490084B1B6F03F00703022B04D0032B05D07A
S11304A0012B05D0FEE7044B18687047034BFBE7AC
S11304B003487047008000500810002010100020EE
S11304C0002D310108B5FFF7E3FF054B1B6FC3F3A4
S11304D003330133B0FBF3F0024B186008BD00BFD7
S11304E000800050041000200048704700B4C40489
S11304F0014B1868704700BF10100020054B1860AE
S1130500054B1B6F03F00703032B01D1FFF7DABF81
S1130510704700BF10100020008000500048704752
S1130520002D3101014B1868704700BF0C100020EA
S113053008B501213A2000F0B9FD0321012304226A
S1130540002001F0E7FC002003F02EFD0122214BE6
S11305504FF46070C3F8442400F0D2FD1E4B00F544
S1130560D520D3F8F02000F2FC4042F00102C3F899
S1130570F020D3F8FC2042F08072C3F8FC20174A24
S1130580A3F55D431A60164B0222B0FBF3F0154B42
S113059001381861C3F8F0204FF48072C3F80423C3
S11305A04FF06043104A0020C3F8B02F0F4AC3F83D
S11305B0802ED3F8002E42F48072C3F8002EFF225E
S11305C083F82020D3F8002E22F48072C3F8002E82
S11305D008BD00BF00D0035000ED00E0FF03004061
S11305E0F8590D00000004E055CEACC50900010027
S11305F04FF06043D3F8802E30B5D20715D50124CF
S11306000B4D8440D5F8FC2042F08072C5F8FC20E4
S1130610D3F8002E2243C3F8002E53F82020002ADA
S1130620F0D003F82010002030BD1120FCE700BFFB
S113063000ED00E02DE9F04F9A46564B85B01B784B
S113064006460F461546DDF83C909DF844B0DDF8AB
S11306505080002B00F09780072A00F296800E9BB2
S1130660002B00F09280B9F1000F00F08E80129BF5
S1130670B3F5006F00F38980012803D1109B002B90
S113068000F08380444B03EB05131B7B002B7ED0CF
S1130690424C10220021684603F0BAFE04EB4514D4
S11306A01022A7BB3946204603F0B2FE43F21003E2
S11306B06380BBF1000F03D1E37843F00303E370DD
S11306C0364A0E9B02EB451CCCE90193129B69014F
S11306D0581E9DF84C30C0F30A0003F003039B0638
S11306E043EA001E53582E48012E00EA03004EEA46
S11306F00003CDF800A0535017D0B8F1000F2ED14D
S11307009CF8023068F304138CF8023027E00021CF
S1130710204603F07DFE4FF444736380BBF1000F69
S1130720CED1E37843F03003C9E713230CF1100E64
S1130730CCF80C309CE80F008EE80F006FF003013A
S1130740DCF81C20109B61F39F02012FCCF81C20C5
S1130750CCF8143003D1CCF81890CCF8043000272E
S11307600D4A290102EB051342F80180159A284627
S11307705A60694622469F605E7301F09BFC3846CE
S113078005B0BDE8F08F0748FAE70748F8E70748DF
S1130790F6E700BF9B140020BC110020BC10002011
S11307A00F80FFF3028000F0018000F0078000F06A
S11307B038B5124B05461B78DBB1E0B103F0B4FB4E
S11307C00F4A00231146147B54B92B6001251A01EA
S11307D001EB03131D738C5003F0ACFB204638BDB2
S11307E00133082B02F11002EDD103F0A3FB0548FD
S11307F0F5E70548F3E70548F1E700BF9B1400203F
S1130800BC110020048000F0028000F0018000F0A0
S113081038B503F089FB002305460B4A147B6CB9F9
S11308200133082B02F11002F8D101F0BBFB074B96
S113083028461C7003F07EFB204603E0284603F0A4
S113084079FB034838BD00BFBC1100209B14002075
S1130850058000F00D4B10B51B78044693B10728B2
S113086012D803F061FB0A4B03EB04131A7B2AB181
S113087000241C7303F05EFB204610BD03F05AFBFA
S11308800448FAE70448F8E70448F6E79B14002014
S1130890BC110020068000F0028000F0018000F00E
S11308A0154B13B51868002301908DF8043003F03C
S11308B03BFB124B1C7824B103F03CFB104802B004
S11308C010BD01221A7003F035FB0E4B01A81C73F6
S11308D01C7783F82C4083F83C4083F84C4083F821
S11308E05C4083F86C4083F87C4008238DF8073023
S11308F001F096FB2046E2E7FC4600009B14002032
S1130900038000F0BC1100200A4A08B512785AB1DD
S113091007280BD8084A02EB00131B7B43B10021C4
S113092001F05EFB002008BD0448FCE70448FAE738
S11309300448F8E79B140020BC110020028000F05A
S1130940018000F0078000F00A4A08B512785AB115
S113095007280BD8084A02EB00131B7B43B1012183
S113096001F03EFB002008BD0448FCE70448FAE718
S11309700448F8E79B140020BC110020028000F01A
S1130980018000F0078000F00A4A08B5127852B1DD
S113099007280AD8084A02EB00131B7B3BB101F07D
S11309A009FC002008BD0548FCE70548FAE70548AE
S11309B0F8E700BF9B140020BC110020028000F067
S11309C0018000F0078000F00D4B1B7893B10728DD
S11309D012D889B10B4B03EB00131B7B73B10A4B89
S11309E01A6D01238340134214BF01230023002006
S11309F00B707047054870470548704705487047B5
S1130A009B140020BC11002000000450028000F060
S1130A10018000F0078000F00B4A10B512780C46F4
S1130A2062B107280CD859B1084A02EB00131B7BAA
S1130A3043B101F0DBFB2070002010BD0448FCE74B
S1130A400448FAE70448F8E79B140020BC1100208E
S1130A50028000F0018000F0078000F0184B2DE9BF
S1130A60F0411F6D5B6D1F4000D5FEE70126002598
S1130A70144CDFF85880374218D02368C8F8506007
S1130A80A3B1A168284601316268A1609847637BDD
S1130A90012B0BD150B90C4B03EB45131A7B60F3BC
S1130AA041021A731A7F60F341021A770135082D47
S1130AB04FEA460604F11004DDD1BDE8F08100BF21
S1130AC000000450BC110020BC1000200020045081
S1130AD02DE9F04304468A4F89B001AE0D460FCF8D
S1130AE00FC697E8070086E80700002C00F006818F
S1130AF01DB9844809B0BDE8F08384220021204652
S1130B0003F086FC2B68804A934200F0B68002F51D
S1130B1080429342EDD129204FF4A0224FF00108E6
S1130B207A4926462F46C4E90B12206546F8043B51
S1130B300FCF0FC697E80F0086E80F006B7E012BDE
S1130B4008BF8DF81230AB7E33B1012B40F09C808E
S1130B504FF40073ADF814302B7E0121012B03BF39
S1130B6000238DF811304FF4E133EB683A200393FE
S1130B7000F09CFA0121206D00F098FA2B691A1FED
S1130B800C2AB6D8033B286801A98DF8103001F06F
S1130B9025FCAB6923F47F0323F47F4323B9226844
S1130BA0936843F4803393602B7A2879697940EA17
S1130BB003406B7AAA7941EA0341AB7AEE7E42EABA
S1130BC00342534B4FEA48184344002E67D11D2675
S1130BD0C3F81C66C3F83406C3F82C16C3F83026D1
S1130BE0E97AEA7942EA0142C3F82026E37BE27A11
S1130BF0277F207A94F80980A57A217B94F80D90B8
S1130C00A67B84F8442084F84530002F51D13B461C
S1130C10042201F07FF93B4601224946404601F097
S1130C2079F9A37F0422012B94BF3B46012331466B
S1130C30284601F06FF9E37F3BB90123042294F8BD
S1130C40451094F8440001F065F903F06DF9314B57
S1130C501A78002A47D101221A7003F06BF902F0C6
S1130C60D7F8FFF71DFE002104F12400FFF7A0FDD3
S1130C70014600283AD028483CE728204FF4802237
S1130C804FF0000825494CE7022B02D14FF4807342
S1130C9060E7032B7FF42DAF4FF440735AE71C2514
S1130CA0C3F81C56C3F83406C3F82C16C3F8302610
S1130CB09CE70023012201F02DF900230422494678
S1130CC0404601F027F9A37F0222012B94BF0023A1
S1130CD001233146284601F01DF9E37F002BB4D1EE
S1130CE001230222ABE703F025F9BAE704F1280057
S1130CF0FFF75EFD00283FF4FDAEBCE70848F9E6C7
S1130D0000470000022000F000C00550020005006A
S1130D1000C003509C140020092000F002000400CD
S1130D20012000F0044BD3F88420D206FBD4D3F87E
S1130D308400C0F3811070470040005038B5104B58
S1130D400546D3F820310C4603F00303022B0BD0E5
S1130D50032B0DD0012B0FD1FFF794FB052305B115
S1130D60286004B1236038BDFFF7C2FB0323F6E714
S1130D70FFF7D4FB0223F2E701230020EFE700BFD3
S1130D8000800050F7B50027114B0197D3F880413C
S1130D90064604F00304012C0D4608D0022C12D0A0
S1130DA041F2B1310B4803F04AF83C4604E03946BD
S1130DB001A8FFF7C3FF0F240EB1019B336005B1F7
S1130DC02C6003B0F0BDFFF7A9FB0190F4E700BF6E
S1130DD0008000501C47000038B51A4B0546D3F874
S1130DE024010C4600F00700062821D8DFE800F0B3
S1130DF0280410181C0C1400FFF744FB052305B14C
S1130E00286004B1236038BDFFF73CFB0623F6E7F6
S1130E10FFF76EFB0323F2E7FFF76AFB0423EEE719
S1130E20FFF77CFB0223EAE703F016F80723E6E763
S1130E30054840F6A87103F002F800231846DEE7DF
S1130E400123DCE7008000501C47000038B5104B3C
S1130E500546D3F840310C4603F00303022B0BD0B4
S1130E60032B0DD0012B0FD102F0F8FF092305B19C
S1130E70286004B1236038BDFFF754FB0823F6E76C
S1130E8002F0EFFF0B23F2E701230020EFE700BF9E
S1130E900080005038B5164B0546D3F800020C46C6
S1130EA000F00700042819D8DFE800F020030B0F36
S1130EB0130002F0D3FF092305B1286004B12360B5
S1130EC038BDFFF72FFB0823F6E702F0CAFF0B2318
S1130ED0F2E7FFF7F7FA0E23800AEDE7054841F23F
S1130EE06F4102F0ACFF00231846E5E70123E3E776
S1130EF0008000501C47000038B5124B0546D3F85B
S1130F0040320C4603F00303022B0BD0032B0DD00D
S1130F10012B0FD102F0A2FF092305B1286004B10F
S1130F20236038BDFFF7FEFA0823F6E702F099FFC5
S1130F300B23F2E7044841F2FA3102F080FF002368
S1130F401846EAE7008000501C47000038B5104BF3
S1130F500546D3F860310C4603F00303022B0BD093
S1130F60032B0DD0012B0FD102F078FF092305B11B
S1130F70286004B1236038BDFFF7D4FA0823F6E7EC
S1130F8002F06FFF0B23F2E701230020EFE700BF1D
S1130F900080005010B40F4C0B46D4F8204204F0EB
S1130FA00304012C0ED0022C10D008B100210160E2
S1130FB00BB100221A6040F6D27107485DF8044B69
S1130FC002F03DBF5DF8044BFFF7B8BE5DF8044B7B
S1130FD0FFF73CBF008000501C470000B0F5207FA5
S1130FE010B534D009D8B0F5007F2AD003D898B111
S1130FF0B0F5C07F10D0002421E0B0F5607FFAD1B5
S1131000154BD3F88030C3F301149B0617D5032C7A
S113101015D040F295210FE00F4B1C6F230B13F0FA
S11310200E0FC4F303340AD0072C08D00F2C06D0BB
S1131030032C04D040F28521084802F000FF601C14
S113104010BD054BD3F89040C4F30464F7E7024B9A
S11310501C6FC4F38024F2E7008000501C4700009A
S11310604FF400320E4B10B504469A660020FFF789
S1131070B5FF604341F671320A4C0B4BA04294BF5A
S113108000200120D969DA639A6822F4401242EA06
S113109000529A60CA0344BF0022DA6310BD00BF45
S11310A000900050005A62020000035070B54609D7
S11310B004460D460ED140F22F310D4802F0BFFE1A
S11310C0334604F01F047DB103F580530122A2408E
S11310D01A6070BD012E05D0064B074A022E18BFB8
S11310E01346EEE7054BECE703F50053EEE700BFCC
S11310F01C470000688000506082005064800050EB
S1131100002330B5802885B00446019374D02AD8D2
S1131110002877D0A0F12004412C32D8412C30D8BB
S1131120DFE804F070737073888888887373923F63
S1131130A8653F7373732F2F2F2F2F2F8D57737322
S113114073B2AD732F2F2F2F2F2F2F2F2F2F2F2F22
S11311502F702F707070882F2F2F2F2F2F2F2F2F3E
S11311602F2F2F2F7070B0F5806F63D024D8B0F577
S1131170007F55D00BD8B0F5807F6AD0B0F5C07F22
S113118040D040F29441434802F059FE37E0B0F5B4
S1131190607F45D0F5D8B0F5207F36D0B0F5407FDC
S11311A0EFD1FFF78FF904464FF42070FFF716FFD5
S11311B0B4FBF0F4640831E0B0F5C06F5AD00DD838
S11311C0B0F5A06F3BD0B0F5B06F3DD0B0F5906FE7
S11311D0D7D1002101A8FFF7FFFD10E0B0F5E06FC3
S11311E04DD0B0F5F06F4FD0B0F5D06FC9D100211C
S11311F001A8FFF74FFE02E0FFF74AF901900198BA
S113120005B030BDFFF75EF9F8E7FFF75BF9044678
S11312104FF42070FFF7E2FEB4FBF0F40194EEE724
S1131220FFF736F905462046FFF7D8FEB5FBF0F583
S11312300195E4E7002101A8FFF780FDDFE7002125
S113124001A8FFF7A7FEDAE7002101A8FFF79AFD3E
S1131250D5E702934FF0E0231B695B0705D5FFF741
S113126031F90290029B0193C9E703A902A8FFF791
S1131270EDFDF7E7002101A8FFF7E8FDBFE7002136
S113128001A8FFF739FEBAE7002101A8FFF75EFEC7
S1131290B5E700BF1C47000008B58020FFF730FF0A
S11312A0034B98429EBF4FF48032024B1A6708BD2D
S11312B0005A620200A000501FB50023B0F5807FE1
S11312C001937FD027D8382800F09C800BD824388D
S11312D0092810D809280ED8DFE800F06F6F6F6F67
S11312E00D0D670D3685522867D007D83D283AD0B2
S11312F03E2800F08C8040F2795152E08028FAD1E7
S1131300454B1B6F03F00703013B032B47D8DFE872
S113131003F044413F75B0F5D06F64D019D8B0F5EF
S1131320A06F6FD00AD8B0F5806F46D0B0F5906F3B
S1131330E1D1002001A9FFF74FFD3AE0B0F5B06F0D
S113134033D0B0F5C06FD6D1002001A9FFF77EFDE0
S11313502FE0B0F5006FECD00AD8B0F5E06F56D0AE
S1131360B0F5F06FC7D1002001A9FFF7EFFD20E031
S1131370B0F5086FBFD1284BD3F8003103F0030355
S1131380022B35D0032B37D0012B39D1FFF7B0F81E
S1131390032300E0052301930BE00223FBE740F263
S11313A0C6411E4802F04BFD03E0002001A9FFF7EF
S11313B0E9FC019805B05DF804FB002001A9FFF7E2
S11313C0BDFCF6E702934FF0E0231B695B0705D5EC
S11313D0FFF778F80C230393039BDCE703A902A827
S11313E0FFF734FDF8E7002001A9FFF753FDE0E71C
S11313F0FFF798F80823CEE702F02EFD0723CAE78B
S11314000123C8E7002001A9FFF7C4FDD1E70020AC
S113141001A9FFF771FDCCE7008000501C470000D4
S11314204FF40022034B5A66012203F580439A626B
S1131430704700BF00900050F8B5036804460F2BB6
S113144004D940F66D316C4802F0F9FC63680F2B47
S113145004D94FF43761684802F0F1FCA3680F2BFC
S113146004D940F67331644802F0E9FC237B0F2B66
S113147004D940F67631604802F0E1FC637B0F2B1F
S113148004D940F679315C4802F0D9FCA37B3F2BA8
S113149004D940F67C31584802F0D1FCE37B3F2B61
S11314A004D940F67F31544802F0C9FC2369032B68
S11314B004D940F68231504802F0C1FC6369032B21
S11314C004D940F685314C4802F0B9FCE369012B9C
S11314D004D940F68831484802F0B1FC8020FFF777
S11314E0EBFE032800F087804FF40022434B0221D7
S11314F05A6645F60E03424AC2F88030414B99625F
S1131500012103F580539962936DD903FCD4D4E986
S113151000131B0543EA0163E17B94F820500B435D
S1131520217BE77E43EA0143617B6D0143EA01339A
S1131530A17B43EA811313619169D4E904031B0677
S113154043EA806301F000410B43A17E94F8230039
S11315500B43217E43EA0143617E43EA0123936105
S1131560136AE66923F00D0394F8221043EA870313
S1131570002E2DD11362966A94F8213045EA0313A4
S113158026F033052B4343F0010393621E4D1C4B9D
S11315909A6D35EA0202FBD102221A4DAA621A653B
S11315A09A6D5200FCD41A69A56822F4700242EACA
S11315B005521A614FF00042124B9A6119B9022286
S11315C003F580539A6278B90122104B9A620BE0BA
S11315D0334343F008031362936A23F03303034352
S11315E02B4343EA4103936294F824301BB1044B28
S11315F0074AC3F88020F8BD1C4700000090005043
S113160000C0005000D000500300014000E0005032
S1131610F1A7FFFF014B93F9000070479D140020D0
S1131620436810B5072B044604D940F6B3512A4841
S113163002F005FCA368032B04D940F6B5512648F3
S113164002F0FDFB2378032B04D940F6B75122485E
S113165002F0F5FB94F90130002B04DA40F6B9519D
S11316601D4802F0ECFB4FF480011C4A637851667C
S11316704FF4D151022002F5B832516218494F2B70
S113168048604FF0010028BF4F2301F580514860A6
S11316901169C903FCD4217843EA01235361D4E9D5
S11316A001131B0143EA0123617B0B43217B43EAC2
S11316B041039360E37BA17B1B0143EA4113617CFB
S11316C00B43217C43EA41035360A37C13B16FF4C1
S11316D0D153536210BD00BF1C470000009000505E
S11316E000100250014B1880704700BF9610002074
S11316F0014B1880704700BF94100020B0F5207F84
S113170010B565D00ED8B0F5007F4FD003D800B324
S1131710B0F5C07F1DD040F21231BDE8104034480E
S113172002F08DBBB0F5607FF5D14C1E012C06D9BB
S1131730042904D04FF43D712D4802F080FB2D4A5A
S1131740D2F8803023F0300343EA0413C2F8803027
S113175010BD4C1E012C0AD9102903D8264BCB40AE
S1131760DB0704D440F2C721214802F068FB02F0F1
S1131770ACFB02F0B8FB4FF48031204B1D4A1967D3
S1131780136F23F4704343EA04331367FEF79AFE9E
S11317900446FFF7C7FAC0F10201204602F09DFBA0
S11317A000F03EF8BDE81040FFF776BD4C1E1F2C3C
S11317B004D940F206310E4802F041FB0D4AD2F83A
S11317C0903023F0F85343EA0463C2F89030BFE743
S11317D04C1E012C04D94FF44371054802F02FFB31
S11317E0044A136F23F4806343EA84231367AFE747
S11317F01C470000008000501001010000900050C0
S113180008B50121022000F027F802F05EFB02F087
S11318106AFB4FF48032014B1A6708BD00900050F8
S113182008B54FF4C070FFF76BFCBDE808400449ED
S1131830884294BF012102214FF42070FFF75EBF5C
S113184080F0FA02034A0179D36E23F030030B438C
S1131850D366704700400050F8B50446244BD3F8D3
S11318608420D006FBD4D3F88430C3F381139C4284
S11318703CD0FEF70DFE012C05460BD11D4B9842C2
S113188004D940F292711C4802F0D9FA0121284689
S113189002F023FB02F041FB4FF00072174B0746A6
S11318A05A66204602F049FB4FF48063104E621ED4
S11318B093403367736E9A0103D4D6F884309B0641
S11318C00AD5384602F02DFB022C0FD12846BDE87C
S11318D0F840002102F001BBD6F884309906E9D51E
S11318E04FF4F461044802F0AAFAE3E7F8BD00BF3C
S11318F000400050005A6202674700000060005038
S113190010B50C4608B9FEF7C3FD074B21461B78FA
S11319103BB1064B984204D80120BDE81040FFF7C4
S11319209BBF0220F9E700BF9E140020005A620208
S11319304FF0004238B5264B26495A6601224A60C8
S11319404AF6CD3103F50B235D6C1964154030BBA9
S11319509968C9070BD4002401221F4B5A6015B1A2
S11319601E4B1F4A1A6402F0E9FA204638BD1A4990
S11319708A601C4AD96ACC0705D4904201D1072455
S1131980EAE70130F6E79042E5D1F8E70132DC6A94
S113199014F0080406D08A42F8D10724DFE70022B5
S11319A01049F4E78A42F8D020220B4B0B495A62C3
S11319B00122A3F580539A6023460A4A486A8006A6
S11319C003D49342E9D00133F8E79342C7D1E4E763
S11319D00090005000500950006009500040095028
S11319E03254FFFF40420F004FF0004238B5174B0E
S11319F0174C5A66012203F50C235A604AF6CD337C
S1131A00656C2364437893401343124AD363C378C9
S1131A108178A2689B0043EA011322F07402134305
S1131A20A3600279837943EA022323614279C3796B
S1131A3043EA022363610078FFF77AFFEB0744BFB0
S1131A40054B236402F07AFA012038BD009000505F
S1131A5000400950004000503254FFFF10B50446C6
S1131A6002F071FA002341F202020849E360A36024
S1131A70226104F50052E3616361A361236263623E
S1131A80E362A3645164A36210BD00BF7F370C01FD
S1131A9038B5154B044698420D4604D04FF4B37143
S1131AA0124802F0CCF925B92046BDE8384002F0CE
S1131AB04ABA012204F580535A6040F2FF7120466D
S1131AC005F00F0202F03BFA2263782102F037FAA4
S1131AD005F001036A0748BF43F00203226C02F0D9
S1131AE003029A42FAD138BD0000035AB2470000FB
S1131AF0F8B506460C46154622B94FF40971434819
S1131B0002F09DF9424B9E4202D184B938240AE086
S1131B1040F227213D4802F092F944B940F276316F
S1131B203A4802F08CF92046FFF7EAFA0446736853
S1131B30012B04D040F25921344802F080F9B368F3
S1131B4003F0E003402B42D009D893B1202B1AD0E4
S1131B5040F29B21BDE8F8402C4802F070B9602B9C
S1131B6042D0802BF4D105EB4503A34247D801238F
S1131B700DE0B5EB141F04D940F28121234802F093
S1131B805EF9102303E0B5EBD40F1AD808236B4396
S1131B906401B4FBF3F41F4F203CB7EBC40F4FEACE
S1131BA0C40504D240F2A621184802F048F9304690
S1131BB03D40012102F0C3F9B562BDE8F84002F0EE
S1131BC0BEB940F28621114802F039F9DEE7062356
S1131BD0B4FBF3F3AB4201D30623D8E740F28B21E5
S1131BE00A4802F02CF9F7E7B5EB940F01D8042367
S1131BF0CDE74FF42471054802F021F9F7E740F2EC
S1131C009521024802F01BF9B1E700BFB24700007A
S1131C100000035AF8FF7F00436870B504460D4680
S1131C2016461BB140F2FF7102F089F92046FFF716
S1131C3015FFE9896B7B22690B43298A22F44C52F4
S1131C400B4322F0030213432361A2682B7B297EFA
S1131C5022F0804222F0E2020B4313436A691343E9
S1131C60A360AB681BB9A36843F00043A360EB69AE
S1131C70002B57D0987A1A7A4004A16840EA82501F
S1131C803F4A0A4010439A8802F4C04210435A78EB
S1131C9040EA82005A7B40EAC2009A7B40EA021082
S1131CA09A7840EA8220A060E168D3E9042021F414
S1131CB0D81121F4C06102430A43997942EA81228E
S1131CC0D97942EA4122E2601A78012A05D1E26810
S1131CD042F00402E2602B4A06E0032A3ED1E268A5
S1131CE042F00402E260284A0121C2F8C0105A7A84
S1131CF004F580510A621AB1E26842F40062E260BB
S1131D00DA7A4AB1E268214942F40042E2601A7B7D
S1131D1002F00F02C1F88020E269DB7B22F00302AB
S1131D201343E36136B196F8203004F58051CBB10A
S1131D3001238B6105212046FFF7AAFEAA681AB188
S1131D4020466968FFF7D4FE20462978FFF7A0FEF5
S1131D50236CDB4313F4405FFAD170BD023A012ACD
S1131D60C1D9B8E7626996F8223096F8210022F0CA
S1131D7009020343134343F001034B61DAE700BF55
S1131D80E39BBDFF00E4035000D4035000900350D4
S1131D9038B5294B054698420C463FD119B98C21D8
S1131DA0264802F04CF83820FFF786FA083808284D
S1131DB03DD8234B0341DB0739D4637B032B03D981
S1131DC0AA211E4802F03BF8237B802B03D0AC21D0
S1131DD01A4802F034F86369B3F1804F03D0AE219E
S1131DE0164802F02CF8238A23F400539BB2B3F56F
S1131DF0805F03D0B021114802F021F8A368013BB1
S1131E00B3F5165F03D3B2210C4802F018F821464B
S1131E102846BDE838400022FFF7FEBE8A21074865
S1131E2002F00DF81CB98C21044802F008F89E2138
S1131E30024802F004F8C0E70000035AB247000069
S1131E40F4FEFFFF38B5114B054698420C4603D00B
S1131E5070210F4801F0F3FF1CB972210C4801F006
S1131E60EEFF237B802B03D17621094801F0E7FFA5
S1131E70637B032B03D97921054801F0E0FF214658
S1131E802846BDE838400022FFF7C6BE0000035ACA
S1131E90B2470000032838B504460D4605D80B4B5D
S1131EA033F81030CB40DB0704D440F22D4108480E
S1131EB001F0C5FF30220123544341F2100204F122
S1131EC0A044AB4004F57034A35038BD98480000DA
S1131ED000480000032838B504460D4605D80B4BCE
S1131EE033F81030CB40DB0704D440F2FE3108480D
S1131EF001F0A5FF30220123544342F2100204F101
S1131F00A044AB4004F57034A35038BD9848000099
S1131F10004800000328F8B504460D4616461F463F
S1131F2005D81C4B33F81030CB40DB0704D44FF4F6
S1131F30B071194801F083FF26B129462046CFB17C
S1131F40FFF7A8FF04EB4403072D4FF00F014FEAFE
S1131F50031312D8A80006FA00F281400F4818446F
S1131F6002F013F8AEB92946204677B1BDE8F8402F
S1131F70FFF790BFFFF7AEFFE4E7A5F1080080008C
S1131F8006FA00F281400648E9E7BDE8F840FFF7A9
S1131F90A1BFF8BD984800004C48000004C003509D
S1131FA00CC003504FF400120B4B10B5C3F8802043
S1131FB0BFF34F8FBFF36F8F0024FF22074B2146DF
S1131FC05C6520209A625C60FFF770F82146BDE8EA
S1131FD010402120FFF76AB800E100E0000004503F
S1131FE0072838B504460D4603DD7721084801F07B
S1131FF026FF1F2C03D99121064801F020FF064A31
S1132000064B002D08BF13460122A2401A6038BDBA
S1132010A0480000EC480000401004504020045048
S113202010B5044618B991211F4801F008FF237820
S11320301B0613F0604F03D092211B4801F0FFFEF2
S1132040E3780F2B03D9A321174801F0F8FE0121EF
S11320502020FFF72BF801212120FFF727F8012288
S1132060124B5A60227812069A606178A27842EA8A
S113207001429A61FF229A6200229A631A644FF025
S113208000425A654FF0FF324FF4001103F500533C
S11320901A65074AC2F88011E3781B01DBB282F8A3
S11320A01533116010BD00BFA048000000000450AB
S11320B000E100E02DE9F0410126C3B207280546FE
S11320C00C46904606FA03F603DDEC21354801F090
S11320D0B6FE1CB9ED21334801F0B1FE236823F4A8
S11320E07C1323F00F031BB1F0212E4801F0A7FE4F
S11320F0A37A1B0413F47C0F04D040F2091129487D
S113210001F09DFEE37A1B0513F07E6F04D040F2CC
S11321100B11244801F093FE237B5B0513F0FE5F53
S113212004D040F20D111F4801F089FE1E4B1F4FD1
S11321301E65226803F5005343F82520302202FB74
S11321400575637B2B66E37AA27A1B0543EA024397
S1132150227B43EA4253EB6528F003032B6701F02B
S1132160E3FE7B6D33437B65237A13B13B6C3343CE
S11321703B64637A13B1BB6B3343BB632279A379AA
S113218043EA0243084A93616179E37943EA0143EC
S113219007498B61054B56639E64BDE8F04101F02D
S11321A0C9BE00BFA0480000002004500000045035
S11321B00010045010B50124C3B2072804FA03F434
S11321C004DD40F29711074801F039FE01F0ACFE3E
S11321D0054B5A6D22EA04025A659C62BDE8104020
S11321E001F0A8BEA04800000000045010B501246E
S11321F0C3B2072804FA03F404DD40F2B5110A4817
S113220001F01DFE01F090FE084BDA6A224208D16B
S11322105B6B9C430CBF0124002401F08BFE204621
S113222010BD0024F9E700BFA048000000000450DE
S1132230022838B505460C4603D94C210C4801F058
S1132240FEFDE378627821785B0143EA8203227918
S11322500B4343EA02130C226A4302F1B0421363B4
S1132260012902BFA278034B43F8252038BD00BFE3
S113227037490000E880035008B54FF0B0435A686E
S11322806AB958B15B680BB101F08FFE01210D4BA7
S1132290596001F08AFE4FF0B043D96008BD5B6815
S11322A00BB101F082FE0028F0D101F07EFE4FF068
S11322B0B0430222DA6001F078FE0122024B5A6038
S11322C0ECE700BF00100058002000584FF0B04168
S11322D04B6810B50BB101F068FE01220B4BC478BA
S11322E05A608378934043EA84034478234304790F
S11322F043EA0413447943EAC4038B60044B5A60F1
S11323000378C3F10203CB6010BD00BF0020005866
S113231000100058024B1868C0F30740704700BF14
S11323200080E00F70B506460C46154622B940F20F
S11323308E210C4801F083FD24B94FF42070FEF780
S1132340DFFE04466D00013CB4FBF5F4064B2502A8
S113235013EA042304D040F2B321024801F06FFDD4
S1132360F56170BD83490000070080FF174B10B56D
S11323709842044608D003F58043984204D040F2C2
S11323804241134801F05BFD012204F580535A6079
S113239040F6AA6341F20502636100230D49A3607C
S11323A0E365E26004F500522361E361E364916450
S11323B00649A3658C4203D123650023636502E0CB
S11323C005498C42F8D00123536010BD00C005506C
S11323D083490000FFFF01000000065038B52F4B71
S11323E0044698420D4608D003F58043984204D031
S11323F040F269312A4801F022FD2046FFF7B6FF7A
S1132400012204F580535A602B8AA26843F0010329
S11324101343AA7B43EA8223A360A3682A7D43EA89
S11324204273A360AB7C5BB11C4AEB7C94422DD11C
S1132430A2F51032C2F88C31E36D43F08003E365FA
S11324402B7B2046D5E9011243F48053E360FFF768
S113245069FF6B7B0BB1102363616B7D1BB1A368B8
S113246043F48033A360AB7D1BB1A36843F4004302
S1132470A360EB7D2A7E1B07120503F0E04302F400
S1132480E0021343A3652B78636138BD054A944287
S113249004BFA2F52032C2F89C31CDE700C005503C
S11324A0834900000000065007B56B46054A1068D2
S11324B0516803C36846FFF797FA002003B05DF83C
S11324C004FB00BFD049000013B50024064A684647
S11324D0536F43F00103536700948DF80440FFF7F2
S11324E0B1F9204602B010BD0040005030B58BB0A9
S11324F06C46184D0FCD0FC40FCD0FC495E80300E3
S113250084E80300144BD3F84C2112031DD5A3F522
S1132510FE431C884FF6FF739C4208BF8C248DF841
S11325201940FFF777F8204480F308008DF818006D
S11325300A48FDF7E3FF6846FEF77EFF4FF4FA70A2
S1132540FFF7D6F800200BB030BDD3F85041E4B209
S1132550E5E700BFD84900000080E00F00F0490221
S113256030B5094D87B001AC0FCD0FC42B6801A85D
S113257023603F238DF80530FFF752F83220FFF730
S1132580B1F8002007B030BD004A00006FF004032A
S1132590502110B50A480B4C13F0800F03F10102CF
S11325A007D12344402A83F800131346F4D10020B2
S11325B010BD03F00F03043B034419761346EBE705
S11325C000ED00E000E100E010B5044601F0A5FCD8
S11325D0024B1C6001F0A5FC002010BD3C12002041
S11325E010B501F09AFC034B1C6801F09AFC2046DC
S11325F010BD00BF3C1200202DE9F0438DB01C46F5
S113260006AB064689461846904600211822149DBA
S113261001F0FEFE227903460AB18DF81820C8F8AD
S11326201C3063790127C3F10203DBB2CDE9033324
S1132630644B30460293644B4A4601930023294677
S11326400093624B8DF81E7000F0E2FA06460028F3
S113265040F09280A3683946EB63A3693A20EB64A7
S1132660237DDFF8749185F8483023696B64237BFC
S113267085F84030236A6B65237F85F85030A36A60
S1132680EB6594F8243085F858302368AB63FEF783
S11326900DFD3B4604222169207BFFF73BFC3B46B2
S11326A00222A169207DFFF735FC88F8006085F8D7
S11326B060603946A068FEF7F9FC6379394633BB9C
S11326C04FF4C060FEF7F2FCD9F82032414623F003
S11326D0030343F002032068C9F82032FFF758FBD4
S11326E002223B4B2169C3F8C020227B42EA01420B
S11326F0C3F8D020A169227D42EA0142C3F8CC206C
S11327002379032B5BD8DFE803F02E193B544FF4F5
S11327108060FEF7CBFCD9F82032414623F0030356
S113272043F00103C9F820322068FFF78BFB95F8CA
S1132730603043F0040385F86030D1E7002795F852
S1132740603043F0010385F8603002220023216ADF
S1132750207FFFF7DFFB226A237F43EA02431D4AFF
S1132760C2F8C43097B90422AB6B052103F580533A
S113277020689A64FFF78CF930460DB0BDE8F08309
S113278095F8603043F0020385F86030002304229A
S1132790A16A94F82400FFF7BDFB01230D4AA16A46
S11327A0C2F8C03094F8243043EA0143C2F8C83078
S11327B0D9E795F86030012743F00303C3E72326E4
S11327C0DAE700BF2140000091400000C140000052
S11327D000C4035000D403500080005010B5002002
S11327E0144601F0F4FB022804D018B1C3210248B6
S11327F001F025FB204610BD144A0000034B0222C1
S1132800186800238068194600F058BF441000205F
S1132810302238B5037A0446534303F1A04303F549
S11328208023DD6ED0E9032313449D4201D8AA42DC
S113283004D94FF43E71054801F001FBD4E90303C8
S113284003449D4218BF284638BD00BF7E4A00009D
S113285030B51446054687B01046FFF7D9FF6369C3
S1132860024683423CBFD4E903315B181B1AABB167
S11328701249049403910021CDE90131012300930D
S11328802846D4E9001301F006FB20B14FF434715B
S11328900B4801F0D4FA002007B030BD0122627663
S11328A094F82D20002AF6D084F835301321E369FA
S11328B0204698472046636A9847ECE75128000071
S11328C07E4A00002DE9F04788B004460F461646BC
S11328D0984601F029FB8146002E00F0AD80237E4E
S11328E003F0FF02002B00F0E0802046FFF790FF8A
S11328F063698246984206D1637E23B940F27F31F0
S11329006B4801F09CFA6569AA459DBFD4E903327E
S11329109B185D1BAAEB0505B54228BF354601F09F
S113292003FB94F82D308246002B40F096802A4613
S11329303846616901F077FD63692E462B44636173
S11329402CE06069037803F0FD01112940F08280D6
S1132950216B884205D1A3F111014B424B4184F80C
S11329603430013E6369216B01328B4203F1010370
S113297008BF236363619542E3D1D4E90323216B48
S11329801344994208BF2263216B8A4201D88B42C7
S113299004D84FF46D71464801F051FAD4E9032389
S11329A061691344994208BF626161698A4201D82E
S11329B08B4204D84FF471713D4801F040FA002372
S11329C0207A6376FDF7A0FF20B140F21131384838
S11329D001F035FA2046FFF71BFF636983423FD1BC
S11329E00023E568237694F82D30656103B12563EF
S11329F02046636A98472F4B049403930023029361
S1132A0023692A4601930123009363682168207A8D
S1132A1001F041FA20B140F22D31254801F00FFABE
S1132A20207AFDF791FF20B140F25131204801F0A6
S1132A3006FA504601F07EFA4846C8F8006001F0F4
S1132A4079FAD8F80030002B0CBF1B20002008B006
S1132A50BDE8F08707F8013B84E72E4600228AE7A9
S1132A600123207A23760DF11E01FDF7D5FF20B155
S1132A704FF450710E4801F0E2F99DF81E30207AAF
S1132A80002BCDD00DF11F01FDF79EFF20B140F2C8
S1132A904631074801F0D3F99DF81F10207A002928
S1132AA0BED12246FFF7D4FEBAE71646C4E700BFFC
S1132AB07E4A00005128000070B504460568FFF7FF
S1132AC08FFD844202D10020FFF77EFD95F9363058
S1132AD0002B11DB012203F01F015B099B0003F1B2
S1132AE060438A4003F56143C3F88021C3F8802022
S1132AF0BFF34F8FBFF36F8F287AFDF745FF20B1E7
S1132B004FF4ED71104801F09AF9287AFDF7A2FE0E
S1132B1020B14FF4EF710C4801F091F9FDF778FE04
S1132B2038B10A4B984204D04FF4F171064801F0D1
S1132B3086F900232846C4E90033C4E90433A360BA
S1132B40AB6ABDE8704018477E4A0000058000F07B
S1132B502DE9F84304460D4690F82C80DFF8AC903C
S1132B608E18AE4228D094F82D3083B101F0DCF9F0
S1132B70237E07461BBB226B63699A4204D040F252
S1132B80F911484601F05BF9384601F0D3F994F89D
S1132B903430002BE5D0B8F1000F06D02B780A2B87
S1132BA003D10D212046E36998472046E36915F8CF
S1132BB0011B98470028D4D00020BDE8F8832046A4
S1132BC0FFF726FEE1680138884238BF2069D4F84F
S1132BD030C03CBF00F1FF30401803469C450BD089
S1132BE013F80129112A01D0132A07D1A2F11103E4
S1132BF05A425A4184F834202063C5E7994282BF7F
S1132C00236903F1FF335B18E8E700BF7E4A000045
S1132C10F0B50C460646154687B0382200212046FA
S1132C201F4601F0F5FB95E8030000232A6923768B
S1132C30EB6884E80300C4E904232A7DE36084F894
S1132C402C20AA7D2363012384F8343084F83530A2
S1132C500C9B84F82D2023620D9BE76163620E9B1D
S1132C60A3622B7A84F83630204B34607360204B97
S1132C70B360204B3361204B7361204BF360FDF74D
S1132C800FFE30B11E4B984203D01024204607B0EB
S1132C90F0BD002104F10800FDF78AFD0028F4D1FD
S1132CA00127184B0494CDE902032369009701938B
S1132CB06368E2682168207A01F0EDF80446002890
S1132CC0E3D195F90830002B0BDB03F01F025B09FD
S1132CD09B0003F16043974003F56143C3F880719F
S1132CE01F603046FFF770FCD0E700BF512B000097
S1132CF0C52800007341000079410000B92A000092
S1132D00038000F05128000030B50E4C4161236867
S1132D108BB9206083600DE0891A9A681D46416171
S1132D206AB113465A698A42F6D935B1A860521A73
S1132D3083605A6130BD0025F4E72060F7E79860AE
S1132D408260F7E74812002038B501F01AFA00252E
S1132D50084B094C1A682368C31A2AB123B1516974
S1132D60994203D3C91A5161206038BD55615B1A79
S1132D709268F2E7481200204412002038B5134D3F
S1132D802B685B6993B1124A022014681C4401F059
S1132D90FFF9204600F062F900230E492A680B70FF
S1132DA0D088800709D501230B7038BD022001F0BB
S1132DB0EFF9022000F09CF9EEE79268002AF4D0C3
S1132DC050690344012BEBD9EFE700BF4812002000
S1132DD044120020A014002000220C490B687BB18F
S1132DE083420AD183687AB1936083681BB15A69BC
S1132DF041690A445A61002070471A469B68EEE70D
S1132E000028EFD0022070470B60EEE74812002044
S1132E1070B501F089F8144E05463478FCB9134BAB
S1132E201C60134B1C60134B1C8000F0D3F8012072
S1132E3001F0AEF901F0B8F90F4B0246186020B961
S1132E40284601F077F8232070BD234640F2E7318D
S1132E500A4800F091FA0A4B18600123337028469F
S1132E6001F068F80020EFE7A114002048120020C8
S1132E7044120020981400204C12002018FCFFFF7C
S1132E8040120020C2072DE9F04704460BD54D4AF5
S1132E90138801339BB21380FFF756FF4A4B1B681C
S1132EA00BB1FFF76BFFA30740F18A8001F03CF8F8
S1132EB04FF0000905464E46FFF746FFC846424F0D
S1132EC03C680CB163698BB10022404B012E1A702F
S1132ED003D119F0020F18BF1E70002C6CD0FFF73D
S1132EE04DFF2846BDE8F04701F024B823465A694F
S1132EF03AB91A792179914288BF1C469B68002B04
S1132F00F5D1284601F016F82569DDB101F039F94B
S1132F10A269A0EB02094FEAE9734D4578EB03037C
S1132F2011DA23691344A361E368B4F80690013607
S1132F3013B120462168984700F0F6FF0546FFF7D5
S1132F4003FFBDE7A94600F0EFFF82462046FFF7E6
S1132F5043FF504600F0EEFF2369002BE4D0B5EBAD
S1132F6009054FEAE97363EB4303002B04DA40F2EB
S1132F702B51174800F063FFA38B33B1E28B13444A
S1132F809BB2B3F57A7F0FD2E38300F0CDFF814685
S1132F9029462046FFF7B8FEA36922694846134430
S1132FA0A36100F0C7FFBFE7A3F57A73E383A369C6
S1132FB0013D013BA361E8E7022000F081F890E7BE
S1132FC0BDE8F08798140020481200209F140020C8
S1132FD0DE4A00001FB500241D4B012118689A88A1
S1132FE00290D3F806009B7A00903E20ADF80C20A6
S1132FF08DF80430FEF75AF88DF8084001F0BFF858
S11330008DF80C0002A8FFF761F9694601208DF8DC
S11330100040FFF70DF94FF0B04240F2FF319369E1
S113302023F47F7323F0030393610A4B5961936A7A
S113303013F00803FBD113620120FFF71DF94FF4CD
S11330408052054BC3F880211A6004B010BD00BF44
S11330503D4B00000020005800E100E010B504469C
S113306000F05BFF4FF0B042936A1907FCD4136A77
S1133070116C5269520604D4CA1A032A01D88B422D
S11330800ED1E21A022A98BFDC1CB4F1FF3F38BF0C
S1133090013C4FF0B0431C649A6942F040029A61CB
S11330A000F03FFF054A13783BB14FF0B041CB6BC2
S11330B043F00203CB630023137010BD981000206B
S11330C0820700F001030AD50121084A43F04003B6
S11330D011704FF0B041CA6B22F00302CA634FF083
S11330E0B0418A6922EA03038B617047981000207B
S11330F0830742BF4022014B5A61704700100058B9
S113310010B500F011FF4FF0B04304465B695A0656
S1133110074A03F0010003F0510348BF40F00200E6
S11331205361FFF7AFFE2046BDE8104000F002BF38
S11331300020005810B50446FDF7C4F94FF47A7224
S11331409042B0FBF2F105D23621BDE810400C48A4
S113315000F075BE0B4BB3FBF1F30B49884201D968
S11331603C21F2E702FB04F0B0FBF3F0022806D99D
S1133170BDE810400323B0FBF3F0FCF7E1BF10BD42
S1133180484B000040420F00E7CD9A3B10B5234C5A
S1133190FEF746F9FEF734FB236F23F0070343F0F1
S11331A00303236700F0A4FE1D4B00209B6A9B07CA
S11331B05EBF01221B4B9A62D4F8203123F0030333
S11331C043F00203C4F82031D4F8243123F0070378
S11331D043F00203C4F82431D4F8403123F003034C
S11331E043F00203C4F84031D4F8603123F0030300
S11331F043F00203C4F86031D4F8403223F00303EF
S113320043F00203C4F84032D4F8003223F0070339
S113321043F00203C4F8003210BD00BF0080005028
S113322000C0005000E0005008B5FFF773F8012813
S11332300ED1104B04205A6E4FF480230E495203D2
S113324058BF0E4A4B6601F51041086258BF5366D9
S1133250FFF79CF900F09BFDFFF726F9FFF780F9D3
S1133260FFF744F9FFF792FFFFF72EF9BDE8084096
S113327000F082BD008000500090005000A000507B
S113328030B52B4D9DB009AC0FCD0FC495E80F00A0
S113329084E80F004FF46133222200210DF14A002B
S11332A00B9301F0B5F8234B0124119338231393A6
S11332B005231593062317930823199307231B93B8
S11332C003230E2200210DF116008DF849408DF8DC
S11332D0483001F09DF84FF4801C174B1748CDE996
S11332E003C33E238DF814303F238DF81530144B5F
S11332F009AA069320230793124B03A9009311AB49
S11333008DF82140FFF778F9044618B17C210E4866
S113331000F095FD9DF822304FF46130002B0CBF76
S11333200321002100F07CFD20461DB030BD00BF0C
S1133330FC4B00000000035A3400035AB41200206E
S1133340A2140020501200209F4B0000014800F0FE
S1133350BDBE00BFB4120020024B03491868FDF73C
S1133360B7BB00BF3410002014100020014800F047
S1133370FDBA00BF1C4C000053B94AB9002908BF6C
S113338000281CBF4FF0FF314FF0FF3000F082B92E
S1133390ADF1080C6DE904CE00F006F8DDF804E0A8
S11333A0DDE9022304B070472DE9F04F099D0C4676
S11333B0002B4DD18A420F4684469646B2FA82F3D8
S11333C060D94BB102FA03FEC3F120029F4000FA18
S11333D003FC20FA02F217434FEA1E461FFA8EF44A
S11333E04FEA1C42B7FBF6F106FB117701FB04F030
S11333F042EA0742904208D91EEB020201F1FF376C
S113340002D2904200F231813946121A1FFA8CFC22
S1133410B2FBF6F006FB102200FB04F44CEA024C6B
S1133420644508D91EEB0C0C00F1FF3202D264454E
S113343000F21E81104640EA0140ACEB040C00216E
S113344025B12CFA03F30022C5E90032BDE8F08F60
S11334508B4205D90DB1C5E9000100210846F5E705
S1133460B3FA83F100294DD1A342C0F0F380904216
S113347080F0F080064623460846002DE6D0C5E9D4
S11334800063E3E7002B40F0A3808A1A4FEA1E474B
S11334901FFA8EF60121B2FBF7F407FB14204FEA62
S11334A01C4242EA004206FB04F090420FD91EEB94
S11334B0020204F1FF382CBF4FF001094FF000095C
S11334C0904203D9B9F1000F00F0CC804446121A9F
S11334D01FFA8CFCB2FBF7F007FB102200FB06F688
S11334E04CEA024C664508D91EEB0C0C00F1FF3285
S11334F002D2664500F2B3801046ACEB060C40EAFB
S113350004409DE7C1F120068B4004FA01FE22FA33
S113351006F720FA06FCF4408A401F434EEA0C03E7
S113352000FA01FE4FEA17484FEA13491FFA87FCD5
S1133530B4FBF8F008FB104449EA044400FB0CF91E
S1133540A1450ED93C1900F1FF3A2CBF4FF0010BF5
S11335504FF0000BA14503D9BBF1000F00F08B80A5
S11335605046A4EB09041FFA83F9B4FBF8F308FBF3
S1133570134403FB0CFC49EA0444A44506D93C1952
S113358003F1FF3801D2A4457BD8434643EA004007
S1133590A4EB0C04A0FB02984445CC46434602D35A
S11335A006D1CE4504D20138B9EB020C68EB07030F
S11335B0002D6CD0BEEB0C0264EB030422FA01F381
S11335C004FA06F6CC4000211E43C5E900643DE739
S11335D002FA03FEC3F1200104FA03F200FA03FC29
S11335E0CC404FEA1E4720FA01F11FFA8EF6B4FBD5
S11335F0F7F00A4307FB1044110C41EA044100FBB5
S113360006F48C420ED91EEB010100F1FF382CBFE9
S11336104FF001094FF000098C4202D9B9F1000FB3
S11336202CD04046091B92B2B1FBF7F407FB1411EE
S113363042EA014204FB06F1914207D91EEB020261
S113364004F1FF3801D291421ED84446521A44EA8A
S1133650004120E7861A64EB030301200DE7F444DC
S113366002384AE7023C724431E702397244CCE63C
S1133670F4440238DFE602383C4472E7023871440D
S1133680D0E7023B3C4481E7023C7244DEE7294632
S1133690DCE600BF704700BF08B5064B044613B113
S11336A00021AFF30080044B1B6803B19847204608
S11336B000F047FD00000000881400202DE9F743C6
S11336C01D46574B04460E461F68904627B13B6A79
S11336D013B9384600F032F9B8F1020F06D0B8F148
S11336E0010F00F29980002DC0F29680636ED90715
S11336F005D4A3899A0502D4A06D00F092FE214658
S1133700384600F020FF616B41B104F14403994253
S113371002D0384600F078F9002363630023A361E4
S11337206360A3891B0603D52169384600F06CF950
S1133730A389B8F1020F23F44A6323F00303A3819E
S113374060D001AB6A462146384600F0ABFDA38940
S11337501843A0812DBB009D284600F09FF9064622
S1133760002851D1DDF80090A9453FD14FF0FF3535
S1133770B4F90C3043F00202A2810022A26004F1E9
S113378047022260226101226261626ED60704D47C
S1133790980502D4A06D00F045FE284603B0BDE8AC
S11337A0F083002ED8D03B6A13B9384600F0C6F82F
S11337B0B8F1010F266002BFA38943F00103A3817E
S11337C0B4F90C3013F00802C4E904651ED0D9071B
S11337D045BF00226D42A560A26048BFA561626E2C
S11337E0D20701D49B0513D50025D6E7484600F03F
S11337F055F906460028B9D0A3894D4643F0800305
S1133800A381D0E70025B3E7A946F5E7A260E6E780
S1133810A06D00F007FEE7E74FF0FF35BDE700BFFE
S113382044100020002310B50446836081811946AA
S11338304366C28108228361C0E90033C0E90433CE
S11338405C3000F0E5FD0D4B246263620C4BA36217
S11338500C4BE3620C4B23630C4B9C4206D003F1EC
S11338606802944202D0D0339C4205D104F158003E
S1133870BDE8104000F0D4BD10BD00BF9745000066
S1133880B9450000F1450000154600005013002022
S1133890024A0349034800F0E7BC00BF3810002087
S11338A0474500004810002041680C4B994210B570
S11338B0044601D000F047FEA168094B994202D0AA
S11338C0204600F040FEE168064B994204D02046B1
S11338D0BDE8104000F037BE10BD00BF50130020FB
S11338E0B81300202014002010B50B4B04210B4CFE
S11338F00B4A20461A600022FFF794FF04F1680087
S113390001220921FFF78EFF04F1D00002221221C7
S1133910BDE81040FFF786BF881400205013002034
S113392091380000014800F07CBD00BFC3140020A2
S1133930014800F077BD00BFC314002010B5044651
S1133940FFF7F0FF236A1BB1BDE81040FFF7F0BF9B
S1133950044B2362044B1B68002BF5D1FFF7C4FF13
S1133960F2E700BFA938000088140020024B01468A
S1133970186800F0F8BC00BF4410002038B50023DC
S1133980064D0446084611462B6000F0DBFB431C41
S113399002D12B6803B1236038BD00BF941400200A
S11339A038B50023054D044608462B6000F0CFFBD4
S11339B0431C02D12B6803B1236038BD941400204A
S11339C070B50D4D00260D4C641BA410A64209D100
S11339D00B4D00260B4C00F063FE641BA410A642A2
S11339E005D170BD55F8043B01369847EEE755F80C
S11339F0043B01369847F2E79C1000209C100020FD
S1133A009C100020A010002038B50546002941D0A4
S1133A1051F8043C0C1F002BB8BFE41800F0E0F888
S1133A201D4A136833B9636014602846BDE8384002
S1133A3000F0DCB8A34208D9206821188B4201BFEA
S1133A4019685B6809182160EDE71A465B680BB1D9
S1133A50A342FAD911685018A0420BD1206801443E
S1133A60501811608342E0D118685B6808445360C1
S1133A701060DAE702D90C232B60D6E720682118FE
S1133A808B4202BF19685B680918636008BF216034
S1133A905460CAE738BD00BF90140020024B0146B1
S1133AA0186800F025B800BF4410002070B50F4E10
S1133AB00C460546316811B900F028F930602146FA
S1133AC0284600F023F9431C03D14FF0FF3420466D
S1133AD070BDC41C24F00304A042F8D0211A284667
S1133AE000F014F90130F2D1EFE700BF8C1400208C
S1133AF02DE9F041CD1C064625F0030508350C2DB3
S1133B0038BF0C25002D01DBA94204D90C233360F6
S1133B100020BDE8F081314F00F062F83B681C469C
S1133B2044BB29463046FFF7C1FF431C044650D12D
S1133B303C682146002941D1002C44D023683046FA
S1133B4004EB030800F0E2F880453CD121683046DC
S1133B506D1A2946FFF7AAFF013034D023682B449D
S1133B6023603B68002B36D05A68A24229D1002238
S1133B705A600EE02268521B1DD40B2A16D9611913
S1133B80A342256018BF5960636808BF3960625159
S1133B904B60304600F02AF804F10B00231D20F09E
S1133BA00700C21AB5D01B1AA350B2E7A342626839
S1133BB0DED13A60EDE723466468B1E70C46496814
S1133BC0B8E71346CEE70C233046336000F00EF816
S1133BD09EE70560DDE75B60FFDE00BF9014002018
S1133BE0014800F01EBC00BFC2140020014800F0D0
S1133BF019BC00BFC214002038B5294B05460C4639
S1133C00186818B1036A0BB9FFF798FEB4F90C30C1
S1133C10190722D4DA0607D409222A6043F04003A4
S1133C204FF0FF30A38133E0580712D5616B41B1E7
S1133C3004F14403994202D02846FFF7E5FE00232D
S1133C406363A38923F02403A381002363602369AE
S1133C502360A38943F00803A38123694BB9A38993
S1133C6003F42073B3F5007F03D02146284600F007
S1133C703EFBB4F90C3013F001020AD00022A2601A
S1133C8062695242A261226942B913F08000C5D12F
S1133C9038BD990758BF6269A260F4E70020F7E7CE
S1133CA04410002038B50023054D044608462B6017
S1133CB000F045FA431C02D12B6803B1236038BDE0
S1133CC09414002038B50446064D084611460022D7
S1133CD02A601A4600F03DFA431C02D12B6803B156
S1133CE0236038BD9414002038B50446064D0846B8
S1133CF0114600222A601A4600F02DFA431C02D114
S1133D002B6803B1236038BD9414002038B5002318
S1133D10054D044608462B60FCF732FB431C02D1D8
S1133D202B6803B1236038BD9414002038B50446D1
S1133D30064D0846114600222A601A46FEF74EFD3B
S1133D40431C02D12B6803B1236038BD94140020B6
S1133D50042208B5012311461846FEF7DBF80020BB
S1133D6008BDFFF7F5BF042208B511460023012062
S1133D70FEF7D0F8002008BD08B501213A20FDF770
S1133D8095F900F037FABDE80840FCF76FBA012155
S1133D903A20FDF78BB970B5002506462C46052C54
S1133DA020D8DFE804F003070B0F13175B2108206A
S1133DB0FCF71EFC0C210820FCF71AFCD12108207A
S1133DC0FCF716FC80210820FCF712FC00210820D7
S1133DD0FCF70EFC6C1C2946E4B208202546FCF7CF
S1133DE007FC0624A4F10E03012B05D85A21082050
S1133DF0FCF7FEFB0134D2E7102C05D1BDE870407E
S1133E005D210820FCF7F4BBB31F195DEFE708B58B
S1133E10082000F029F8BDE80840082000F02FB879
S1133E20012307B520F07F4040EA81700190684685
S1133E308DF80030FFF7AFFF03B05DF804FBFEE739
S1133E40FEE710B53AB1002350F8234041F823406F
S1133E5001339A42F8D110BD002070474FF400405E
S1133E6070474FF47A7070474FF060420123D2F8E4
S1133E70001E83400B430020C2F8003E70474FF001
S1133E8060410122D1F8003E824023EA020300206F
S1133E90C1F8003E704710B588B004460E980092F1
S1133EA007900D98224606909DF8300005900B98D7
S1133EB004909DF8280003900020CDE901300B46C2
S1133EC00121FCF7B7FB08B010BD08B5FCF70CFBEB
S1133ED0BDE808400021FDF7C3B80029CCBF01218B
S1133EE00021FDF7BDB802214FF42070FDF706BC98
S1133EF010B5FCF7E7FA0446FCF714FFC0F1020121
S1133F002046FFF7EAFF01210020FDF7F9FCFDF749
S1133F1087FCBDE81040FDF7BFB9EFF3108072B61F
S1133F20704700B962B67047EFF31180302383F312
S1133F301188704780F31188704770477047C36CCD
S1133F400B42FCD1704708B543680246DB0714D521
S1133F500A2350210363FFF7F2FF136C9907FCD186
S1133F60936A012110469362FFF7E9FF136C1B0665
S1133F7004D4012302F50052536008BD536BF5E7E6
S1133F80036C5B06FCD5C163704770B505461446E7
S1133F900E46FFF7C2FF2B685C4034405C402C6047
S1133FA0BDE87040FFF7BDBF70474FF0B0435A689B
S1133FB012B19A6A002AFAD1704783695A06FCD56D
S1133FC0C16383699B06FCD5406AC0B2704770B573
S1133FD00C46154610B9FEF703FB38B143682BB104
S1133FE02A462146BDE8704000681847232070BD6A
S1133FF0F7B50D4616461C4648B103B901AC8768AF
S11340005FB12346324629460068B84706E0FEF70A
S1134010E7FA04B901AC0028F1D1232003B0F0BDC4
S113402010B50446826B136C5906FCD50023616CF1
S11340301A4694F84000FDF76DFF0023E16C1A4620
S113404094F84800FDF766FF94F86030DA0706D567
S11340500023616D1A4694F85000FDF75BFF94F855
S113406060309B0706D50023E16D1A4694F858008A
S1134070FDF750FF0422A06B002100F500539A6461
S1134080FDF706FDE06B0021FDF710F8002010BDE0
S113409010B50446FFF741FF0421A36BBDE81040AF
S11340A01A6C12F0800F03F5805204BF03F500531D
S11340B059644FF0040318BF51649364FFF731BF90
S11340C008B5806BFFF75CFF002008BD70B504687D
S11340D0A06B436C5B0708D5042500F500535D64B1
S11340E0227E1AB99D640123237670BD627E002A64
S11340F0FBD094F82D2002B30026132184F83560F8
S1134100FFF73EFFA36B03F5805295645B6BDBB254
S1134110112B0DD1012384F834303022237A5343F8
S113412003F1A04303F58023DB6E013B2363DCE74B
S1134130132BDAD184F83460EFE79D64D5E70020CF
S11341407047FEE74FF4005300204B607047012096
S113415070470020704707B5002001AB0190FFF7BE
S113416047FF0198002808BF4FF0FF3003B05DF807
S113417004FB80F82C10704790F82C007047002046
S113418070474FF0B0439A6A1207FCD4186A70471C
S113419082074FF0B04200F00103916948BF43F039
S11341A040030B439361704708B53E20FCF7A8FF1A
S11341B00346FFF7E4FF23FA00F008BD08B5FFF754
S11341C033F800F026F800F02FF800F038F8BDE8D6
S11341D0084000F035B808B500F033F800F032F8C4
S11341E000F031F8BDE8084000F02EB8FFF7BEB883
S11341F000F039B8FFF7B7BD01213A2010B5FCF73C
S113420055FFBDE810400023042219460120FDF7A4
S113421081BE08B5FCF78CF9FFF7EEFFFFF79CF8B9
S1134220BDE80840FFF7F3BD08B5FFF79AFDFEF7B8
S1134230EFFDFEF7E3FABDE8084000F006B870476A
S113424070477047704770477047FFF719B8FFF71A
S11342507DB808B5FFF7B2FFFFF7C8FFFFF7BBFF54
S1134260FFF7C6FFFAE770472DE9F843074688468B
S113427014460026D4E90195B9F1010905D524684D
S1134280002CF7D13046BDE8F883AB89012B07D960
S1134290B5F90E30013303D029463846C0470643EA
S11342A06835E9E770B50C46B1F90E1096B01546BD
S11342B000291E460CDAA389002113F0800F14BFD5
S11342C040234FF48063002031602B6016B070BD32
S11342D06A46FFF753FB0028EDDB019901F47041B6
S11342E0A1F50053594259414FF48063EBE78B89A0
S11342F0F7B59D0706460C4607D504F1470323602E
S113430023610123636103B0F0BD01AB6A46FFF78B
S1134310C9FF009F054630463946FFF7E9FB48B917
S1134320B4F90C309A05EED423F0030343F00203EE
S1134330A381E2E7A389206043F08003A381019B6A
S1134340C4E904075BB1B4F90E103046FFF728FB4B
S113435028B1A38923F0030343F00103A381A389B4
S11343601D43A581CFE7036A70B505460E468468F0
S11343700BB9FFF7E3FA636EDB0705D4A38998054D
S113438002D4A06D00F04DF8A389190702D5236962
S1134390002B35D121462846FFF72EFC80B34FF081
S11343A0FF35636EDA0705D4A3899B0502D4A06D9B
S11343B000F038F8284670BD002B15DB23685A1C22
S11343C022601970A36816F8011F013BA36000293D
S11343D0F2D1002B16DA22460A21284600F01EF9F3
S11343E00130DCD00A25DCE7A2699A4201DC0A2903
S11343F0E4D12246284600F011F90130E2D1CEE79B
S1134400013EDFE723685A1C22600A221A70E9E79A
S113441002440346934200D1704703F8011BF9E7B5
S11344207047704770470A44431E914200D1704759
S113443010B511F8014B914203F8014FF9D110BDA9
S1134440B1F90C202DE9F041170705460C4656D466
S11344504B68002B02DC0B6C002B3DDDE66A002E62
S11344603AD0002312F480522F68216A2B6025D0A1
S1134470626DA389580705D56368D21A636B0BB1C3
S1134480236CD21A216A0023E66A2846B047411CED
S113449024D00023636023692360A389DA0400D550
S11344A06065616B2F60B9B104F14403994202D095
S11344B02846FFF7A9FA002363630DE00123284689
S11344C0B047461C0246D4D12B68002BD1D01D2BFB
S11344D001D0162B2AD12F6000202EE02A68B4F9CF
S11344E00C3042B11D2A01D0162A21D10023636069
S11344F023692360D5E7626022692260CEE70F69F1
S1134500002FE9D093070E680F600CBF4B6900239E
S1134510A6EB07088B60B8F1000FDDDD43463A4691
S1134520216A2846A66AB047002808DCB4F90C3092
S113453043F040034FF0FF30A381BDE8F08107440E
S1134540A8EB0008E7E738B50B6905460C4613B934
S11345500025284638BD18B1036A0BB9FFF7EEF9F8
S1134560B4F90C30002BF3D0626ED00704D4990553
S113457002D4A06DFFF755FF28462146FFF760FFE0
S1134580636E0546DA07E4D4A3899B05E1D4A06DE4
S1134590FFF748FFDDE710B50C46B1F90E10FFF741
S11345A0A3FB0028ABBF636DA3891B1823F48053BE
S11345B0ACBF6365A38110BD2DE9F0411F468B8913
S11345C005460C46DB05164605D502230022B1F943
S11345D00E10FFF777FBA3893246B4F90E10284674
S11345E023F48053A3813B46BDE8F041FFF79EBB13
S11345F010B50C46B1F90E10FFF764FB431CA389F8
S113460015BF606523F4805343F48053A38118BF1E
S1134610A38110BDB1F90E10FFF744BBF8B50E46E7
S11346201446054618B1036A0BB9FFF787F9A36965
S1134630A360A3891A0701D5236943B921462846F3
S1134640FFF7DAFA18B14FF0FF373846F8BD2368A0
S1134650F6B222693746981A6369834205DC21461B
S11346602846FFF770FF0028EDD1A368013BA36043
S113467023685A1C22601E70431C62699A4204D04B
S1134680A389DB07E1D50A2EDFD121462846FFF7AF
S11346905AFF0028D9D0D6E700000000000000002F
S11346A0F8B500BFF8BC08BC9E467047F8B500BF1B
S11346B0F8BC08BC9E4670470000000000000000E3
S11346C000000000000000000000000000000000E6
S11346D000000000000000000000000000000000D6
S11346E0050000000000000040420F00050100002A
S11346F00000000000000000000000001E00000395
S1134700050000000000000040420F000501000009
S11347100000000000000000000000002F55736539
S113472072732F78696E79652F53696D706C696344
S113473069747953747564696F2F53444B732F678D
S113474065636B6F5F73646B5F322F706C6174664B
S11347506F726D2F656D6C69622F7372632F656D57
S11347605F636D752E63002F55736572732F7869BF
S11347706E79652F53696D706C69636974795374CC
S11347807564696F2F53444B732F6765636B6F5F59
S113479073646B5F322F706C6174666F726D2F651A
S11347A06D6C69622F7372632F656D5F656D752E15
S11347B063002F55736572732F78696E79652F5373
S11347C0696D706C696369747953747564696F2F6A
S11347D053444B732F6765636B6F5F73646B5F3216
S11347E02F706C6174666F726D2F656D6C69622FCA
S11347F07372632F656D5F6575736172742E6300E8
S11348002F55736572732F78696E79652F53696DAF
S1134810706C696369747953747564696F2F534458
S11348204B732F6765636B6F5F73646B5F322F70BD
S11348306C6174666F726D2F656D6C69622F696E41
S1134840632F656D5F6770696F2E68002F55736500
S113485072732F78696E79652F53696D706C696313
S113486069747953747564696F2F53444B732F675C
S113487065636B6F5F73646B5F322F706C6174661A
S11348806F726D2F656D6C69622F7372632F656D26
S11348905F6770696F2E6300FF011F007F000F00C8
S11348A02F55736572732F78696E79652F53696D0F
S11348B0706C696369747953747564696F2F5344B8
S11348C04B732F6765636B6F5F73646B5F322F701D
S11348D06C6174666F726D2F656D6C69622F737293
S11348E0632F656D5F6C646D612E63002F55736576
S11348F072732F78696E79652F53696D706C696373
S113490069747953747564696F2F53444B732F67BB
S113491065636B6F5F73646B5F322F706C61746679
S11349206F726D2F656D6C69622F696E632F656D93
S11349305F6275732E68002F55736572732F7869E3
S11349406E79652F53696D706C69636974795374FA
S11349507564696F2F53444B732F6765636B6F5F87
S113496073646B5F322F706C6174666F726D2F6548
S11349706D6C69622F7372632F656D5F727463630C
S11349802E63002F55736572732F78696E79652FC6
S113499053696D706C696369747953747564696F74
S11349A02F53444B732F6765636B6F5F73646B5F47
S11349B0322F706C6174666F726D2F656D6C6962F5
S11349C02F7372632F656D5F75736172742E63004C
S11349D001030401010109030B0000000B000000A6
S11349E0020000000000202000000000030000007E
S11349F08C8C3C000000000000000000000000005F
S1134A000126000004000000000000000001000076
S1134A10000000002F55736572732F78696E7965F5
S1134A202F53696D706C6963697479537475646923
S1134A306F2F53444B732F6765636B6F5F73646BA6
S1134A405F322F706C6174666F726D2F736572764E
S1134A506963652F696F73747265616D2F73726317
S1134A602F736C5F696F73747265616D5F726574C7
S1134A7061726765745F737464696F2E63002F5588
S1134A80736572732F78696E79652F53696D706CD5
S1134A90696369747953747564696F2F53444B73F4
S1134AA02F6765636B6F5F73646B5F322F706C612C
S1134AB074666F726D2F736572766963652F696FA3
S1134AC073747265616D2F7372632F736C5F696F9A
S1134AD073747265616D5F756172742E63002F5516
S1134AE0736572732F78696E79652F53696D706C75
S1134AF0696369747953747564696F2F53444B7394
S1134B002F6765636B6F5F73646B5F322F706C61CB
S1134B1074666F726D2F736572766963652F736C3B
S1134B2065657074696D65722F7372632F736C5F42
S1134B30736C65657074696D65722E6300010000A5
S1134B4000050002000003002F55736572732F786F
S1134B50696E79652F53696D706C696369747953F3
S1134B60747564696F2F53444B732F6765636B6F60
S1134B705F73646B5F322F706C6174666F726D2F3C
S1134B80736572766963652F7564656C61792F73DB
S1134B9072632F736C5F7564656C61792E63002F8B
S1134BA055736572732F78696E79652F53696D70CB
S1134BB06C696369747953747564696F2F76355FB2
S1134BC0776F726B73706163652F746573742F6193
S1134BD075746F67656E2F736C5F696F737472653C
S1134BE0616D5F696E69745F6575736172745F6925
S1134BF06E7374616E6365732E63000005000000BC
S1134C000000000000C201000002000000100000CB
S1134C1000000000000000000000000057656C6305
S1134C206F6D6520746F2074686520535049445239
S1134C3056206578616D706C65206170706C696375
S1134C406174696F6E2C206D6173746572206D6F71
S1074C5064650D0086
S10B4C5484B5FF7F010000009C
S10F4C5C684C000000100020290000003B
S1134C68C8140020C0EA2101C0EA21010080000024
S1134C7800F0490200C005500202020200010203CA
S1134C8840420F000800000000000000000100007E
S1134C9800000000CC120020000000000300000007
S1134CA8501300204810002000000000501300207A
S1134CB8B8130020201400200000000000000000A9
S1134CC800000000000000000000000000000000D8
S1134CD800000000000000000000000000000000C8
S1134CE800000000000000000000000000000000B8
S1134CF800000000FFFFFFFF01000000B5010000F5
S1074D088D01000015
S90303BD3C
