:1000000000100020AD0800004173000041730000A3
:100010004173000041730000417300004173000010
:100020004173000041730000417300004173000000
:1000300041730000417300004173000041730000F0
:1000400041730000417300004173000041730000E0
:1000500041730000417300004173000041730000D0
:1000600041730000417300004173000041730000C0
:10007000653A0000417300004173000041730000C5
:1000800041730000417300004173000041730000A0
:10009000417300004D0F00004173000041730000E8
:1000A00041730000711000004D100000417300000A
:1000B0004173000041730000417300004173000070
:1000C0004173000041730000417300004173000060
:1000D0004173000041730000417300004173000050
:1000E0004173000041730000417300004173000040
:1000F0004173000041730000417300004173000030
:10010000417300004173000041730000417300001F
:10011000417300004173000041730000417300000F
:1001200041730000417300004173000041730000FF
:100130004173000041730000013D0000D7770000CB
:10014000013800D0FCE7704751EC110B43422DE918
:10015000F047034321F0004E634E4EEAD373B3429F
:1001600055EC104B3ED8634225F0004AA046A94604
:1001700023434AEAD373B34234D85C4B02460B4460
:1001800003433ED08F175AEA080807F0020747EAF0
:10019000D5772FD05EEA020237D0B64544D0B245BB
:1001A00033D0AAEB0E0ABAF1747F4FEA2A5338DA39
:1001B00000296ADA3C3368DA9FED3D0B012F50D0FD
:1001C000022F3DD0A7B151EC100B3BA3D3E9002384
:1001D00005F006FB3AA3D3E9002305F001FB41EC4F
:1001E000100B05E022462B4605F0FCFA41EC100B03
:1001F000BDE8F087022F0ED0032FF9D19FED320B0F
:10020000F6E7BDE8F04700F077B8B9F1000F05DB7D
:100210009FED2F0BECE79FED2A0BE9E79FED2E0BEF
:10022000E6E79FED2B0BC9E7F24507F1FF3721D039
:10023000022F27D82E4B03EBC70393ED000BD7E714
:100240001DA3D3E9002351EC100B05F0C9FA0246B7
:100250000B461BA1D1E9000105F0C2FA41EC100BDD
:10026000C6E710EE901A53EC102B01F1004343EC5B
:10027000102BBDE7022F15D81E4B03EBC70393EDE0
:10028000000BB5E79FED0A0BB2E702460B4620468E
:10029000294605F087FD41EC100B06F0BBFE00F08F
:1002A0002BF88BE79FED0E0BA2E700BFAFF30080AA
:1002B0000000000000000000075C143326A6A13CEB
:1002C000182D4454FB210940182D4454FB2109C02A
:1002D000182D4454FB21F93F182D4454FB21F9BF3C
:1002E000182D4454FB21E93F0000F07F000010C0AE
:1002F00028950000409500002DE9F84F55EC104B73
:10030000C34B25F00046AA469E4216D9C14B9E42D9
:1003100001D80AD14CB122462B462046294605F089
:1003200061FA41EC100BBDE8F88FBAF1000F40F311
:10033000BE809FED9B0BBDE8F88FB74B9E4200F24D
:10034000B980A3F1DE739E4240F2A0804FF0FF3BE4
:1003500022462B462046294605F0FAFB02460B466C
:100360008046894605F0F4FB06460F468EA3D3E986
:10037000002305F0EDFB8EA3D3E9002305F032FA4C
:1003800032463B4605F0E4FB8BA3D3E9002305F09E
:1003900029FA32463B4605F0DBFB89A3D3E900236B
:1003A00005F020FA32463B4605F0D2FB86A3D3E99E
:1003B000002305F017FA32463B4605F0C9FB84A33B
:1003C000D3E9002305F00EFA42464B4605F0C0FB88
:1003D00080468946304639467FA3D3E9002305F09D
:1003E000B7FB7FA3D3E9002305F0FAF932463B4679
:1003F00005F0AEFB7CA3D3E9002305F0F1F932460A
:100400003B4605F0A5FB7AA3D3E9002305F0E8F904
:1004100032463B4605F09CFB77A3D3E9002305F069
:10042000DFF932463B4605F093FBBBF1FF3F024646
:100430000B464046494661D0784E05F0D3F9224636
:100440002B4605F085FB764B06EBCB064FEACB0B34
:100450005B44D3E9002305F0C3F922462B4605F09F
:10046000BFF902460B46D6E9000105F0B9F9BAF129
:10047000000F41EC100BBFF656AF10EE901A02467B
:1004800001F1004343EC102BBDE8F88F5CA3D3E9E6
:1004900000232046294605F0A5F90022614B05F00E
:1004A000E7FD00283FF452AF45EC104B3BE79FEDD2
:1004B000560B38E706F0AEFD5B4B9E4255EC104BF9
:1004C0002CD8A3F550239E4255D90022554B2046E7
:1004D000294605F085F94FF0010B06460F462046E8
:1004E000294600224F4B05F07DF902460B46304667
:1004F000394605F057FC04460D4629E705F072F928
:1005000022462B4605F024FB02460B462046294690
:1005100005F066F941EC100BBDE8F88F434B9E42A5
:100520001ED20022424B2046294605F059F90246C8
:100530000B462046294614461D4600223C4B4FF0F0
:10054000020B05F005FB0022364B05F04BF9024685
:100550000B462046294605F025FC04460D46F7E6E5
:1005600022462B460020334905F01CFC4FF0030BBC
:1005700004460D46ECE622462B462046294605F069
:1005800031F90022274B4FF0000B05F029F900222A
:1005900006460F46204629464FF08043A3E700BF9A
:1005A000182D4454FB21F93F11DA22E33AAD903F74
:1005B000EB0D76244B7BA93F513DD0A0660DB13F9A
:1005C0006E204CC5CD45B73FFF8300922449C23F02
:1005D0000D5555555555D53F2F6C6A2C44B4A2BFC7
:1005E0009AFDDE522DDEAD3F6D9A74AFF2B0B33F8F
:1005F000711623FEC671BC3FC4EB98999999C93F07
:100600009C7500883CE4377E182D4454FB21F9BFCB
:10061000FFFF0F440000F07FFFFFDB3F78950000F5
:10062000589500000000F03FFFFFF23F00800340BC
:100630000000F83F0000F0BF0348044B834202D0A3
:10064000034B03B1184770477C1100207C11002038
:1006500000000000064B0749C91A891048BF013144
:10066000491003D0044B0BB101481847704700BF35
:100670007C1100207C1100200000000010B5064C09
:10068000237843B9FFF7D8FF044B13B10448AFF305
:1006900000800123237010BDAE2700200000000061
:1006A0009895000008B5054B1BB105490548AFF307
:1006B0000080BDE80840FFF7CDBF00BF000000008C
:1006C0007C11002098950000A3F5803A704700BF88
:1006D000174B002B08BF134B9D46FFF7F5FF00217A
:1006E0008B460F461348144A121A08F024F80E4B92
:1006F000002B00D098470D4B002B00D098470020CE
:10070000002104000D000D48002802D00C48AFF372
:10071000008006F03DF82000290007F05EF805F0A3
:1007200091FE00BF00000800000000000000000073
:10073000001000207C110020DC27002000000000B9
:10074000000000001022014B1A61704700D00350D6
:100750001022014B1A61704700E00350F0B5404D84
:1007600089B001AC0FCD0FC495E8070084E80700FD
:10077000012401213A2001F033F83A4F01212820C9
:1007800001F02EF8384B384601A903938DF812403A
:1007900002F0A6FA234604220021022002F03CF8CF
:1007A000224621460023022002F036F80221234689
:1007B0000846042202F030F80422234611460020A5
:1007C00002F02AF84FF00213284D0226C5F8303601
:1007D000A3F58033C5F82C361C23C5F834664FF4D6
:1007E0004870C5F81C3603F057F91420FFF7B0FF26
:1007F00003F052F92320FFF7A5FF03F04DF9B921CB
:100800003846FFF7A5FF06F089FEFFF79BFF0023A0
:1008100030461A46194601F0FFFF002321461A46CA
:10082000304601F0F9FF234631463046002201F000
:10083000F3FF002223461046042101F0EDFF384665
:1008400002F016FA00212820C5F83016C5F82C163B
:10085000C5F83416C5F81C1600F0C2FF09B0F0BD8B
:10086000608B000000C0055000127A0000C00350E9
:100870000346054A0549106803448B428CBF4FF07C
:10088000FF301360704700BF101000200080002070
:100890000348044A0449121A921006F052BD00BFE0
:1008A0002897000028970000DC27002008B500F0FA
:1008B0002FF8FFF7EDFF124B12498B4212D30020A5
:1008C000114B12498B4218D3FFF702FF186850F8FA
:1008D0002240586840F82240013298688242F5D39D
:1008E0000C33EAE70022F8E71C6844F822000132E2
:1008F0005C68A242F8D30833E4E70022F8E700BFBF
:10090000A0950000AC950000AC950000AC950000EF
:100910004FF400414FF0FF30124B134A10B59A606C
:10092000D3F8882042F47002C3F888200F4A9166F9
:1009300001F1884101F5005210664FF6DF705066F4
:100940000220C3F8D000BFF34F8FBFF36F8F08248E
:100950004FF440330648C0F88041D36004600B6117
:1009600010BD00BF00ED00E000000000009000504E
:1009700000E100E0014B1868704700BF181000202C
:10098000084B1B6F03F00703022B04D0032B05D089
:10099000012B05D0FEE7044B18687047034BFBE7BB
:1009A00003487047008000501810002020100020DD
:1009B000002D310108B5FFF7E3FF054B1B6FC3F3B3
:1009C00003330133B0FBF3F0024B186008BD00BFE6
:1009D00000800050141000200048704700B4C40488
:1009E000014B1868704700BF20100020054B1860AD
:1009F000054B1B6F03F00703032B01D1FFF7DABF91
:100A0000704700BF20100020008000500048704751
:100A1000002D3101014B1868704700BF1C100020E9
:100A200008B501213A2000F0DBFE03210123042256
:100A3000002001F0F1FE002006F067FD0122214BAD
:100A40004FF46070C3F8442400F0F4FE1E4B00F530
:100A5000D520D3F8F02000F2FC4042F00102C3F8A8
:100A6000F020D3F8FC2042F08072C3F8FC20174A33
:100A7000A3F55D431A60164B0222B0FBF3F0154B51
:100A800001381861C3F8F0204FF48072C3F80423D2
:100A90004FF06043104A0020C3F8B02F0F4AC3F84C
:100AA000802ED3F8002E42F48072C3F8002EFF226D
:100AB00083F82020D3F8002E22F48072C3F8002E91
:100AC00008BD00BF00D0035000ED00E0FF03004070
:100AD000F8590D00000004E055CEACC50900010036
:100AE0004FF06043D3F8802E30B5D20715D50124DE
:100AF0000B4D8440D5F8FC2042F08072C5F8FC20F4
:100B0000D3F8002E2243C3F8002E53F82020002AE9
:100B1000F0D003F82010002030BD1120FCE700BF0A
:100B200000ED00E02DE9F04F9A46564B85B01B785A
:100B300006460F461546DDF83C909DF844B0DDF8BA
:100B40005080002B00F09780072A00F296800E9BC1
:100B5000002B00F09280B9F1000F00F08E80129B04
:100B6000B3F5006F00F38980012803D1109B002B9F
:100B700000F08380444B03EB05131B7B002B7ED0DE
:100B8000424C10220021684607F0D5FD04EB4514C5
:100B90001022A7BB3946204607F0CDFD43F21003D3
:100BA0006380BBF1000F03D1E37843F00303E370EC
:100BB000364A0E9B02EB451CCCE90193129B69015E
:100BC000581E9DF84C30C0F30A0003F003039B0647
:100BD00043EA001E53582E48012E00EA03004EEA55
:100BE0000003CDF800A0535017D0B8F1000F2ED15C
:100BF0009CF8023068F304138CF8023027E00021DF
:100C0000204607F098FD4FF444736380BBF1000F5A
:100C1000CED1E37843F03003C9E713230CF1100E73
:100C2000CCF80C309CE80F008EE80F006FF0030149
:100C3000DCF81C20109B61F39F02012FCCF81C20D4
:100C4000CCF8143003D1CCF81890CCF8043000273D
:100C50000D4A290102EB051342F80180159A284636
:100C60005A60694622469F605E7301F0A5FE3846D1
:100C700005B0BDE8F08F0748FAE70748F8E70748EE
:100C8000F6E700BFAF270020941200209411002047
:100C90000F80FFF3028000F0018000F0078000F079
:100CA00038B5124B05461B78DBB1E0B106F0EDFB21
:100CB0000F4A00231146147B54B92B6001251A01F9
:100CC00001EB03131D738C5006F0E5FB204638BD85
:100CD0000133082B02F11002EDD106F0DCFB0548D0
:100CE000F5E70548F3E70548F1E700BFAF27002027
:100CF00094120020048000F0028000F0018000F0D7
:100D000038B506F0C2FB002305460B4A147B6CB9CC
:100D10000133082B02F11002F8D101F0C5FD074B99
:100D200028461C7006F0B7FB204603E0284606F074
:100D3000B2FB034838BD00BF94120020AF2700204B
:100D4000058000F00D4B10B51B78044693B10728C1
:100D500012D806F09AFB0A4B03EB04131A7B2AB154
:100D600000241C7306F097FB204610BD06F093FB91
:100D70000448FAE70448F8E70448F6E7AF270020FC
:100D800094120020068000F0028000F0018000F044
:100D9000154B13B51868002301908DF8043006F048
:100DA00074FB124B1C7824B106F075FB104802B09E
:100DB00010BD01221A7006F06EFB0E4B01A81C73C9
:100DC0001C7783F82C4083F83C4083F84C4083F830
:100DD0005C4083F86C4083F87C4008238DF8073032
:100DE00001F0A0FD2046E2E77C8B0000AF27002049
:100DF000038000F0941200200A4A08B512785AB114
:100E000007280BD8084A02EB00131B7B43B10021D3
:100E100001F068FD002008BD0448FCE70448FAE73B
:100E20000448F8E7AF27002094120020028000F069
:100E3000018000F0078000F00A4A08B512785AB124
:100E400007280BD8084A02EB00131B7B43B1012192
:100E500001F048FD002008BD0448FCE70448FAE71B
:100E60000448F8E7AF27002094120020028000F029
:100E7000018000F0078000F00A4A08B5127852B1EC
:100E800007280AD8084A02EB00131B7B3BB101F08C
:100E900013FE002008BD0548FCE70548FAE70548B1
:100EA000F8E700BFAF27002094120020028000F076
:100EB000018000F0078000F00D4B1B7893B10728EC
:100EC00012D889B10B4B03EB00131B7B73B10A4B98
:100ED0001A6D01238340134214BF01230023002015
:100EE0000B707047054870470548704705487047C4
:100EF000AF2700209412002000000450028000F070
:100F0000018000F0078000F00B4A10B512780C4603
:100F100062B107280CD859B1084A02EB00131B7BB9
:100F200043B101F0E5FD2070002010BD0448FCE74E
:100F30000448FAE70448F8E7AF270020941200209D
:100F4000028000F0018000F0078000F0184B2DE9CE
:100F5000F0411F6D5B6D1F4000D5FEE701260025A7
:100F6000144CDFF85880374218D02368C8F8506016
:100F7000A3B1A168284601316268A1609847637BEC
:100F8000012B0BD150B90C4B03EB45131A7B60F3CB
:100F900041021A731A7F60F341021A770135082D56
:100FA0004FEA460604F11004DDD1BDE8F08100BF30
:100FB00000000450941200209411002000200450DE
:100FC00070B5044601250B4E04B970BD94FAA4F027
:100FD000B0FA80F005FA00F306EB001224EA0304ED
:100FE0005368002BF0D0117B11B191689847EBE763
:100FF0009847E9E71413002008B5192000F0CEFF48
:1010000028B14FF00072074BC3F880211A601A20F4
:1010100000F0C4FF28B14FF08062024BC3F880217A
:101020001A6008BD00E100E038B505460C4606F040
:101030002CFA0022044B03EB05135C601A73BDE825
:10104000384006F028BA00BF14130020074BD3F82D
:101050002404D3F8202403F50053104000F0553049
:1010600020F05020C3F82004FFF7AABF00C00350AF
:10107000074BD3F82404D3F8202403F50053104081
:1010800000F0AA3020F0A020C3F82004FFF798BF9A
:1010900000C0035038B5144606F0F7F90023A364E6
:1010A00084F84C302364237F0546012B03D104F1DF
:1010B000600002F069FB636B1BB100212046E26B0C
:1010C0009847284606F0E7F9A36D002B03DCBB2107
:1010D000034806F034F9A36D0120013BA36538BD38
:1010E000808B000038B50546B0B1B9B1B2B1B2F5E8
:1010F000006F13DC06F0C9F995F84C3003F0FF04DB
:101100001BB106F0C8F9064838BD012385F84C30FC
:1011100006F0C1F92046F7E70248F5E70248F3E791
:10112000032000F0012000F0022000F02DE9F04340
:101130001E46002387B080F8543090F85C700E9BF8
:1011400004468846C66343633FBB4FF4406305686B
:101150006B614369092B23D905F12C034435012721
:101160004FF00109A16D0131A16512490494CDE947
:1011700002710196CDF80090216BA06A06F025F966
:101180000023CDE90167CDE90333CDF80090434654
:101190002A46E16A606A06F0FEF807B0BDE8F0830F
:1011A00003D105F120033835D9E705F124033C3597
:1011B000D6E700BF951000002DE9F04304468A4FA2
:1011C00089B001AE0D460FCF0FC697E8070086E83D
:1011D0000700002C00F006811DB9844809B0BDE865
:1011E000F08384220021204607F0A5FA2B68804A6C
:1011F000934200F0B68002F580429342EDD129205F
:101200004FF4A0224FF001087A4926462F46C4E940
:101210000B12206546F8043B0FCF0FC697E80F006E
:1012200086E80F006B7E012B08BF8DF81230AB7E75
:1012300033B1012B40F09C804FF40073ADF81430B3
:101240002B7E0121012B03BF00238DF811304FF4B9
:10125000E133EB683A20039300F0C2FA0121206DDC
:1012600000F0BEFA2B691A1F0C2AB6D8033B286877
:1012700001A98DF8103001F033FDAB6923F47F0331
:1012800023F47F4323B92268936843F48033936047
:101290002B7A2879697940EA03406B7AAA7941EA86
:1012A0000341AB7AEE7E42EA0342534B4FEA4818C1
:1012B0004344002E67D11D26C3F81C66C3F83406CC
:1012C000C3F82C16C3F83026E97AEA7942EA0142DB
:1012D000C3F82026E37BE27A277F207A94F80980FE
:1012E000A57A217B94F80D90A67B84F8442084F89D
:1012F0004530002F51D13B46042201F08DFA3B4688
:1013000001224946404601F087FAA37F0422012BBF
:1013100094BF3B4601233146284601F07DFAE37F26
:101320003BB90123042294F8451094F8440001F0DD
:1013300073FA06F0AAF8314B1A78002A47D1012235
:101340001A7006F0A8F802F0E5F9FFF721FD002178
:1013500004F12400FFF7A4FC014600283AD02848F5
:101360003CE728204FF480224FF0000825494CE745
:10137000022B02D14FF4807360E7032B7FF42DAF73
:101380004FF440735AE71C25C3F81C56C3F83406C3
:10139000C3F82C16C3F830269CE70023012201F085
:1013A0003BFA002304224946404601F035FAA37F68
:1013B0000222012B94BF002301233146284601F06D
:1013C0002BFAE37F002BB4D101230222ABE706F016
:1013D00062F8BAE704F12800FFF762FC00283FF446
:1013E000FDAEBCE70848F9E6D48B0000022000F00F
:1013F00000C005500200050000C00350B0270020C7
:10140000092000F002000400012000F0F7B51E469C
:10141000037F0446012B0F46154612D03246FFF7D4
:1014200061FE60B97DB1094B2A46394620460093DA
:101430003346FFF77BFE204605F0E6FFA06C03B0C5
:10144000F0BD0348FBE70348F9E700BFFF73000066
:10145000082000F0022000F0044BD3F88420D206CC
:10146000FBD4D3F88400C0F38110704700400050D3
:1014700038B5104B0546D3F820310C4603F0030372
:10148000022B0BD0032B0DD0012B0FD1FFF772FADB
:10149000052305B1286004B1236038BDFFF7A0FA29
:1014A0000323F6E7FFF7B2FA0223F2E70123002055
:1014B000EFE700BF00800050F7B50027114B019700
:1014C000D3F88041064604F00304012C0D4608D0F1
:1014D000022C12D041F2B1310B4805F030FF3C46EE
:1014E00004E0394601A8FFF7C3FF0F240EB1019BAA
:1014F000336005B12C6003B0F0BDFFF787FA0190AF
:10150000F4E700BF00800050F08B000038B51A4BA4
:101510000546D3F824010C4600F00700062821D820
:10152000DFE800F0280410181C0C1400FFF722FA62
:10153000052305B1286004B1236038BDFFF71AFA0E
:101540000623F6E7FFF74CFA0323F2E7FFF748FA22
:101550000423EEE7FFF75AFA0223EAE705F0FCFE60
:101560000723E6E7054840F6A87105F0E8FE0023EA
:101570001846DEE70123DCE700800050F08B000016
:1015800038B5104B0546D3F840310C4603F0030341
:10159000022B0BD0032B0DD0012B0FD105F0DEFE5B
:1015A000092305B1286004B1236038BDFFF732FA82
:1015B0000823F6E705F0D5FE0B23F2E70123002010
:1015C000EFE700BF0080005038B5164B0546D3F852
:1015D00000020C4600F00700042819D8DFE800F0EC
:1015E00020030B0F130005F0B9FE092305B1286095
:1015F00004B1236038BDFFF70DFA0823F6E705F0C4
:10160000B0FE0B23F2E7FFF7D5F90E23800AEDE7D2
:10161000054841F26F4105F092FE00231846E5E7C8
:101620000123E3E700800050F08B000038B5124B37
:101630000546D3F840320C4603F00303022B0BD0CF
:10164000032B0DD0012B0FD105F088FE092305B126
:10165000286004B1236038BDFFF7DCF90823F6E702
:1016600005F07FFE0B23F2E7044841F2FA3105F062
:1016700066FE00231846EAE700800050F08B000069
:1016800038B5104B0546D3F860310C4603F0030320
:10169000022B0BD0032B0DD0012B0FD105F05EFEDA
:1016A000092305B1286004B1236038BDFFF7B2F902
:1016B0000823F6E705F055FE0B23F2E7012300208F
:1016C000EFE700BF0080005010B40F4C0B46D4F879
:1016D000204204F00304012C0ED0022C10D008B1DB
:1016E000002101600BB100221A6040F6D271074858
:1016F0005DF8044B05F023BE5DF8044BFFF7B8BE60
:101700005DF8044BFFF73CBF00800050F08B0000F9
:10171000B0F5207F10B534D009D8B0F5007F2AD0BD
:1017200003D898B1B0F5C07F10D0002421E0B0F507
:10173000607FFAD1154BD3F88030C3F301149B06B8
:1017400017D5032C15D040F295210FE00F4B1C6FDD
:10175000230B13F00E0FC4F303340AD0072C08D068
:101760000F2C06D0032C04D040F28521084805F048
:10177000E6FD601C10BD054BD3F89040C4F3046433
:10178000F7E7024B1C6FC4F38024F2E7008000509F
:10179000F08B00004FF400320E4B10B504469A66F1
:1017A0000020FFF7B5FF604341F671320A4C0B4B46
:1017B000A04294BF00200120D969DA639A6822F41C
:1017C000401242EA00529A60CA0344BF0022DA6320
:1017D00010BD00BF00900050005A6202000003508C
:1017E00070B5460904460D460ED140F22F310D4822
:1017F00005F0A5FD334604F01F047DB103F58053C9
:101800000122A2401A6070BD012E05D0064B074A86
:10181000022E18BF1346EEE7054BECE703F5005325
:10182000EEE700BFF08B000068800050608200503F
:1018300064800050002330B5802885B004460193B1
:1018400074D02AD8002877D0A0F12004412C32D8B7
:10185000412C30D8DFE804F0707370738888888872
:101860007373923FA8653F7373732F2F2F2F2F2F02
:101870008D57737373B2AD732F2F2F2F2F2F2F2FE1
:101880002F2F2F2F2F702F707070882F2F2F2F2F0B
:101890002F2F2F2F2F2F2F2F7070B0F5806F63D029
:1018A00024D8B0F5007F55D00BD8B0F5807F6AD032
:1018B000B0F5C07F40D040F29441434805F03FFD71
:1018C00037E0B0F5607F45D0F5D8B0F5207F36D051
:1018D000B0F5407FEFD1FFF76DF804464FF420706C
:1018E000FFF716FFB4FBF0F4640831E0B0F5C06F09
:1018F0005AD00DD8B0F5A06F3BD0B0F5B06F3DD049
:10190000B0F5906FD7D1002101A8FFF7FFFD10E0DF
:10191000B0F5E06F4DD0B0F5F06F4FD0B0F5D06FAF
:10192000C9D1002101A8FFF74FFE02E0FFF728F818
:101930000190019805B030BDFFF73CF8F8E7FFF7DC
:1019400039F804464FF42070FFF7E2FEB4FBF0F4E0
:101950000194EEE7FFF714F805462046FFF7D8FE9E
:10196000B5FBF0F50195E4E7002101A8FFF780FD44
:10197000DFE7002101A8FFF7A7FEDAE7002101A8B1
:10198000FFF79AFDD5E702934FF0E0231B695B0751
:1019900005D5FFF70FF80290029B0193C9E703A951
:1019A00002A8FFF7EDFDF7E7002101A8FFF7E8FD2A
:1019B000BFE7002101A8FFF739FEBAE7002101A81F
:1019C000FFF75EFEB5E700BFF08B000008B5802092
:1019D000FFF730FF034B98429EBF4FF48032024B1B
:1019E0001A6708BD005A620200A000501FB500230C
:1019F000B0F5807F01937FD027D8382800F09C80F5
:101A00000BD82438092810D809280ED8DFE800F0B0
:101A10006F6F6F6F0D0D670D3685522867D007D831
:101A20003D283AD03E2800F08C8040F2795152E0B7
:101A30008028FAD1454B1B6F03F00703013B032BB2
:101A400047D8DFE803F044413F75B0F5D06F64D06C
:101A500019D8B0F5A06F6FD00AD8B0F5806F46D016
:101A6000B0F5906FE1D1002001A9FFF74FFD3AE0FA
:101A7000B0F5B06F33D0B0F5C06FD6D1002001A95A
:101A8000FFF77EFD2FE0B0F5006FECD00AD8B0F57F
:101A9000E06F56D0B0F5F06FC7D1002001A9FFF775
:101AA000EFFD20E0B0F5086FBFD1284BD3F800312F
:101AB00003F00303022B35D0032B37D0012B39D190
:101AC000FEF78EFF032300E0052301930BE00223C2
:101AD000FBE740F2C6411E4805F031FC03E0002060
:101AE00001A9FFF7E9FC019805B05DF804FB0020AF
:101AF00001A9FFF7BDFCF6E702934FF0E0231B6955
:101B00005B0705D5FEF756FF0C230393039BDCE729
:101B100003A902A8FFF734FDF8E7002001A9FFF7A9
:101B200053FDE0E7FEF776FF0823CEE705F014FC4F
:101B30000723CAE70123C8E7002001A9FFF7C4FD76
:101B4000D1E7002001A9FFF771FDCCE7008000502C
:101B5000F08B00004FF40022034B5A66012203F57C
:101B600080439A62704700BF00900050F8B5036848
:101B700004460F2B04D940F66D316C4805F0DFFBAD
:101B800063680F2B04D94FF43761684805F0D7FB21
:101B9000A3680F2B04D940F67331644805F0CFFBDE
:101BA000237B0F2B04D940F67631604805F0C7FB44
:101BB000637B0F2B04D940F679315C4805F0BFFBFD
:101BC000A37B3F2B04D940F67C31584805F0B7FB86
:101BD000E37B3F2B04D940F67F31544805F0AFFB3F
:101BE0002369032B04D940F68231504805F0A7FB46
:101BF0006369032B04D940F685314C4805F09FFBFF
:101C0000E369012B04D940F68831484805F097FB79
:101C10008020FFF7EBFE032800F087804FF40022BE
:101C2000434B02215A6645F60E03424AC2F8803001
:101C3000414B9962012103F580539962936DD90359
:101C4000FCD4D4E900131B0543EA0163E17B94F85B
:101C500020500B43217BE77E43EA0143617B6D010A
:101C600043EA0133A17B43EA811313619169D4E90B
:101C700004031B0643EA806301F000410B43A17E8D
:101C800094F823000B43217E43EA0143617E43EA3B
:101C900001239361136AE66923F00D0394F822107F
:101CA00043EA8703002E2DD11362966A94F82130FF
:101CB00045EA031326F033052B4343F001039362F7
:101CC0001E4D1C4B9A6D35EA0202FBD102221A4DC1
:101CD000AA621A659A6D5200FCD41A69A56822F4AA
:101CE000700242EA05521A614FF00042124B9A61AB
:101CF00019B9022203F580539A6278B90122104B78
:101D00009A620BE0334343F008031362936A23F0B3
:101D1000330303432B4343EA4103936294F8243093
:101D20001BB1044B074AC3F88020F8BDF08B0000BC
:101D30000090005000C0005000D00050030001404F
:101D400000E00050F1A7FFFF014B93F9000070473E
:101D5000B1270020436810B5072B044604D940F68C
:101D6000B3512A4805F0EBFAA368032B04D940F6D7
:101D7000B551264805F0E3FA2378032B04D940F641
:101D8000B751224805F0DBFA94F90130002B04DA50
:101D900040F6B9511D4805F0D2FA4FF480011C4AB3
:101DA000637851664FF4D151022002F5B832516286
:101DB00018494F2B48604FF0010028BF4F2301F511
:101DC000805148601169C903FCD4217843EA01239A
:101DD0005361D4E901131B0143EA0123617B0B43E7
:101DE000217B43EA41039360E37BA17B1B0143EA30
:101DF0004113617C0B43217C43EA41035360A37C84
:101E000013B16FF4D153536210BD00BFF08B0000CB
:101E10000090005000100250014B1880704700BF26
:101E20006E110020014B1880704700BF6C1100201C
:101E3000B0F5207F10B565D00ED8B0F5007F4FD03B
:101E400003D800B3B0F5C07F1DD040F21231BDE819
:101E50001040344805F073BAB0F5607FF5D14C1EE0
:101E6000012C06D9042904D04FF43D712D4805F00A
:101E700066FA2D4AD2F8803023F0300343EA041387
:101E8000C2F8803010BD4C1E012C0AD9102903D88D
:101E9000264BCB40DB0704D440F2C721214805F094
:101EA0004EFA05F0C3FA05F0CFFA4FF48031204B1B
:101EB0001D4A1967136F23F4704343EA0433136711
:101EC000FEF778FD0446FFF7C7FAC0F1020120468D
:101ED00005F0B4FA00F03EF8BDE81040FFF776BD1B
:101EE0004C1E1F2C04D940F206310E4805F027FA8B
:101EF0000D4AD2F8903023F0F85343EA0463C2F855
:101F00009030BFE74C1E012C04D94FF443710548B3
:101F100005F015FA044A136F23F4806343EA84231F
:101F20001367AFE7F08B0000008000501001010044
:101F30000090005008B50121022000F089F805F05A
:101F400075FA05F081FA4FF48032014B1A6708BD2B
:101F50000090005008B54FF4C070FFF76BFCBDE86F
:101F600008400449884294BF012102214FF42070A7
:101F7000FFF75EBF80F0FA020028ABBF00F16040BF
:101F8000054B00F5614000F00F00ACBF90F8000376
:101F9000185C0009704700BF14ED00E0C3B23F2B8E
:101FA00010B5044604D94FF44D71074805F0C7F940
:101FB000064B620953F8220004F01F04E040C043BE
:101FC00000F0010010BD00BF3B8C000000E100E00C
:101FD00000F10C03DBB24B2B10B5044604D940F2E0
:101FE000C221144805F0ABF9EFF31083DB0702D5EB
:101FF0000122104610BD2046FFF7D0FF0246002800
:10200000F6D12046FFF7B8FF0146EFF3118313B175
:10201000B0EB131FECD2084B5B68C3F30803002B33
:10202000E7D0103B58B2FFF7A7FF88428CBF0022D1
:102030000122DEE73B8C000000ED00E0034A01795D
:10204000D36E23F030030B43D3667047004000503B
:10205000F8B50446244BD3F88420D006FBD4D3F83B
:102060008430C3F381139C423CD0FEF789FC012CE1
:1020700005460BD11D4B984204D940F292711C4881
:1020800005F05DF90121284605F0D8F905F0F6F9CB
:102090004FF00072174B07465A66204605F0FEF9CE
:1020A0004FF48063104E621E93403367736E9A0143
:1020B00003D4D6F884309B060AD5384605F0E2F9F9
:1020C000022C0FD12846BDE8F840002105F0B6B932
:1020D000D6F884309906E9D54FF4F461044805F048
:1020E0002EF9E3E7F8BD00BF00400050005A62023D
:1020F000878C00000060005010B50C4608B9FEF750
:102100003FFC074B21461B783BB1064B984204D855
:102110000120BDE81040FFF79BBF0220F9E700BF98
:10212000B2270020005A62024FF0004238B5264B19
:1021300026495A6601224A604AF6CD3103F50B233F
:102140005D6C1964154030BB9968C9070BD4002435
:1021500001221F4B5A6015B11E4B1F4A1A6405F02D
:102160009EF9204638BD1A498A601C4AD96ACC07B4
:1021700005D4904201D10724EAE70130F6E7904206
:10218000E5D1F8E70132DC6A14F0080406D08A428F
:10219000F8D10724DFE700221049F4E78A42F8D09B
:1021A00020220B4B0B495A620122A3F580539A60FF
:1021B00023460A4A486A800603D49342E9D0013391
:1021C000F8E79342C7D1E4E700900050005009506F
:1021D00000600950004009503254FFFF40420F0098
:1021E0004FF0004238B5174B174C5A66012203F5E1
:1021F0000C235A604AF6CD33656C236443789340D0
:102200001343124AD363C3788178A2689B0043EAE0
:10221000011322F074021343A3600279837943EA25
:10222000022323614279C37943EA02236361007880
:10223000FFF77AFFEB0744BF054B236405F02FF946
:10224000012038BD0090005000400950004000506F
:102250003254FFFF10B5044605F026F9002341F281
:1022600002020849E360A360226104F50052E361C1
:102270006361A36123626362E362A3645164A36246
:1022800010BD00BF7F370C0138B5154B044698428E
:102290000D4604D04FF4B371124805F050F825B93B
:1022A0002046BDE8384005F0FFB8012204F5805310
:1022B0005A6040F2FF71204605F00F0205F0F0F879
:1022C0002263782105F0ECF805F001036A0748BFA6
:1022D00043F00203226C02F003029A42FAD138BDA5
:1022E0000000035AD28C0000F8B506460C4615468D
:1022F00022B94FF40971434805F021F8424B9E4240
:1023000002D184B938240AE040F227213D4805F083
:1023100016F844B940F276313A4805F010F82046F4
:10232000FFF788FA04467368012B04D040F2592164
:10233000344805F004F8B36803F0E003402B42D0C2
:1023400009D893B1202B1AD040F29B21BDE8F84068
:102350002C4804F0F4BF602B42D0802BF4D105EB65
:102360004503A34247D801230DE0B5EB141F04D960
:1023700040F28121234804F0E2FF102303E0B5EB93
:10238000D40F1AD808236B436401B4FBF3F41F4F36
:10239000203CB7EBC40F4FEAC40504D240F2A6219B
:1023A000184804F0CCFF30463D40012105F078F894
:1023B000B562BDE8F84005F073B840F286211148D7
:1023C00004F0BDFFDEE70623B4FBF3F3AB4201D319
:1023D0000623D8E740F28B210A4804F0B0FFF7E764
:1023E000B5EB940F01D80423CDE74FF424710548D1
:1023F00004F0A5FFF7E740F29521024804F09FFFA3
:10240000B1E700BFD28C00000000035AF8FF7F0044
:10241000436870B504460D4616461BB140F2FF7185
:1024200005F03EF82046FFF715FFE9896B7B22692E
:102430000B43298A22F44C520B4322F0030213432C
:102440002361A2682B7B297E22F0804222F0E202E7
:102450000B4313436A691343A360AB681BB9A368BA
:1024600043F00043A360EB69002B57D0987A1A7AA7
:102470004004A16840EA82503F4A0A4010439A88CB
:1024800002F4C04210435A7840EA82005A7B40EA84
:10249000C2009A7B40EA02109A7840EA8220A0604B
:1024A000E168D3E9042021F4D81121F4C06102438A
:1024B0000A43997942EA8122D97942EA4122E260CB
:1024C0001A78012A05D1E26842F00402E2602B4A40
:1024D00006E0032A3ED1E26842F00402E260284AA4
:1024E0000121C2F8C0105A7A04F580510A621AB16B
:1024F000E26842F40062E260DA7A4AB1E2682149B5
:1025000042F40042E2601A7B02F00F02C1F8802020
:10251000E269DB7B22F003021343E36136B196F8F4
:10252000203004F58051CBB101238B610521204679
:10253000FFF7AAFEAA681AB120466968FFF7D4FE21
:1025400020462978FFF7A0FE236CDB4313F4405F9D
:10255000FAD170BD023A012AC1D9B8E7626996F88A
:10256000223096F8210022F009020343134343F07E
:1025700001034B61DAE700BFE39BBDFF00E40350BA
:1025800000D403500090035038B5294B05469842BB
:102590000C463FD119B98C21264804F0D0FE3820D2
:1025A000FFF724FA083808283DD8234B0341DB07FE
:1025B00039D4637B032B03D9AA211E4804F0BFFE44
:1025C000237B802B03D0AC211A4804F0B8FE63694A
:1025D000B3F1804F03D0AE21164804F0B0FE238A39
:1025E00023F400539BB2B3F5805F03D0B0211148B0
:1025F00004F0A5FEA368013BB3F5165F03D3B22137
:102600000C4804F09CFE21462846BDE838400022D4
:10261000FFF7FEBE8A21074804F091FE1CB98C2109
:10262000044804F08CFE9E21024804F088FEC0E7B6
:102630000000035AD28C0000F4FEFFFF38B5114BA6
:10264000054698420C4603D070210F4804F077FEEF
:102650001CB972210C4804F072FE237B802B03D13D
:102660007621094804F06BFE637B032B03D97921A3
:10267000054804F064FE21462846BDE838400022A3
:10268000FFF7C6BE0000035AD28C00001F2970B5A8
:1026900004460D46164603D99121064804F04FFE24
:1026A0002EB104F580540123AB40236070BD04F5C6
:1026B0000054F8E7208D0000032838B504460D4685
:1026C00005D80B4B33F81030CB40DB0704D440F275
:1026D0002D41084804F033FE30220123544341F2D7
:1026E000100204F1A044AB4004F57034A35038BD8F
:1026F000048E00006B8D0000032838B504460D469B
:1027000005D80B4B33F81030CB40DB0704D440F234
:10271000FE31084804F013FE30220123544342F2F4
:10272000100204F1A044AB4004F57034A35038BD4E
:10273000048E00006B8D00002DE9F84F032807463A
:102740000E46144698469DF828A09DF82C9005D872
:10275000274B33F81030CB40DB0703D4BF2125488B
:1027600004F0EDFD86EA0403032B03D9C1212148BF
:1027700004F0E5FD072C4FF0030506F0030625D80D
:102780004FEA840B05FA0BF529461B4807FA0BF2B2
:1027900004F0ACFE2946194806FA0BF204F0A6FE36
:1027A000424621461648FFF771FF5246214615481A
:1027B000FFF76CFF0123144AA340C2F820342146DE
:1027C0004A46BDE8F84F1148FFF760BFA4F1080B77
:1027D0004FEA8B0B05FA0BF529460D4807FA0BF269
:1027E00004F084FE29460B4806FA0BF2D6E700BF38
:1027F000048E0000B78D000000C4035008C40350CD
:1028000010C4035014C4035000E0035024C4035008
:1028100004C403500CC403500328F8B504460D4605
:1028200016461F4605D81C4B33F81030CB40DB074B
:1028300004D44FF4B071194804F081FD26B1294643
:102840002046CFB1FFF738FF04EB4403072D4FF0CC
:102850000F014FEA031312D8A80006FA00F28140D4
:102860000F48184404F042FEAEB92946204677B11D
:10287000BDE8F840FFF720BFFFF73EFFE4E7A5F112
:102880000800800006FA00F281400648E9E7BDE84A
:10289000F840FFF731BFF8BD048E0000B78D00008F
:1028A00004C003500CC003504FF400120B4B10B582
:1028B000C3F88020BFF34F8FBFF36F8F0024FF2238
:1028C000074B21465C6520209A625C60FEF788FF1A
:1028D0002146BDE810402120FEF782BF00E100E064
:1028E00000000450072838B504460D4603DD772163
:1028F000084804F024FD1F2C03D99121064804F058
:102900001EFD064A064B002D08BF13460122A240B9
:102910001A6038BD0C8E0000208D0000401004505D
:102920004020045010B5044618B991211F4804F006
:1029300006FD23781B0613F0604F03D092211B483D
:1029400004F0FDFCE3780F2B03D9A321174804F012
:10295000F6FC01212020FEF743FF01212120FEF794
:102960003FFF0122124B5A60227812069A6061786A
:10297000A27842EA01429A61FF229A6200229A6397
:102980001A644FF000425A654FF0FF324FF40011C5
:1029900003F500531A65074AC2F88011E3781B015A
:1029A000DBB282F81533116010BD00BF0C8E000041
:1029B0000000045000E100E02DE9F0410126C3B21F
:1029C000072805460C46904606FA03F603DDEC217F
:1029D000354804F0B4FC1CB9ED21334804F0AFFCD9
:1029E000236823F47C1323F00F031BB1F0212E483E
:1029F00004F0A5FCA37A1B0413F47C0F04D040F26E
:102A00000911294804F09BFCE37A1B0513F07E6F43
:102A100004D040F20B11244804F091FC237B5B05A9
:102A200013F0FE5F04D040F20D111F4804F087FC44
:102A30001E4B1F4F1E65226803F5005343F82520E7
:102A4000302202FB0575637B2B66E37AA27A1B05B5
:102A500043EA0243227B43EA4253EB6528F0030337
:102A60002B6704F012FD7B6D33437B65237A13B132
:102A70003B6C33433B64637A13B1BB6B3343BB633F
:102A80002279A37943EA0243084A93616179E379A1
:102A900043EA014307498B61054B56639E64BDE8D9
:102AA000F04104F0F8BC00BF0C8E00000020045080
:102AB000000004500010045010B50124C3B20728D0
:102AC00004FA03F404DD40F29711074804F037FCE0
:102AD00004F0DBFC054B5A6D22EA04025A659C6245
:102AE000BDE8104004F0D7BC0C8E0000000004507C
:102AF00010B50124C3B2072804FA03F404DD40F240
:102B0000B5110A4804F01BFC04F0BFFC084BDA6A5C
:102B1000224208D15B6B9C430CBF0124002404F0CB
:102B2000BAFC204610BD0024F9E700BF0C8E00005F
:102B300000000450022838B505460C4603D94C2144
:102B40000C4804F0FCFBE378627821785B0143EAEF
:102B5000820322790B4343EA02130C226A4302F1F7
:102B6000B0421363012902BFA278034B43F825202A
:102B700038BD00BF588E0000E880035008B54FF004
:102B8000B0435A686AB958B15B680BB104F0BEFC37
:102B900001210D4B596004F0B9FC4FF0B043D960EE
:102BA00008BD5B680BB104F0B1FC0028F0D104F063
:102BB000ADFC4FF0B0430222DA6004F0A7FC012222
:102BC000024B5A60ECE700BF00100058002000588C
:102BD0004FF0B0414B6810B50BB104F097FC0122E7
:102BE0000B4BC4785A608378934043EA840344785B
:102BF0002343047943EA0413447943EAC4038B6012
:102C0000044B5A600378C3F10203CB6010BD00BFD0
:102C10000020005800100058024B1868C0F307400D
:102C2000704700BF0080E00F70B506460C461546A1
:102C300022B940F28E210C4804F081FB24B94FF4F4
:102C40002070FEF7F7FD04466D00013CB4FBF5F47F
:102C5000064B250213EA042304D040F2B3210248B4
:102C600004F06DFBF56170BDA48E0000070080FFCD
:102C7000174B10B59842044608D003F5804398429C
:102C800004D040F24241134804F059FB012204F5FC
:102C900080535A6040F6AA6341F205026361002343
:102CA0000D49A360E365E26004F500522361E3612E
:102CB000E36491640649A3658C4203D12365002334
:102CC000636502E005498C42F8D00123536010BDD2
:102CD00000C00550A48E0000FFFF01000000065058
:102CE00038B52F4B044698420D4608D003F5804373
:102CF000984204D040F269312A4804F020FB204673
:102D0000FFF7B6FF012204F580535A602B8AA268B0
:102D100043F001031343AA7B43EA8223A360A36821
:102D20002A7D43EA4273A360AB7C5BB11C4AEB7C17
:102D300094422DD1A2F51032C2F88C31E36D43F0EC
:102D40008003E3652B7B2046D5E9011243F48053D1
:102D5000E360FFF769FF6B7B0BB1102363616B7D51
:102D60001BB1A36843F48033A360AB7D1BB1A368A0
:102D700043F40043A360EB7D2A7E1B07120503F09A
:102D8000E04302F4E0021343A3652B78636138BD8E
:102D9000054A944204BFA2F52032C2F89C31CDE727
:102DA00000C00550A48E00000000065007B56B4619
:102DB000054A1068516803C36846FFF711FA0020FE
:102DC00003B05DF804FB00BFF18E000013B50024D2
:102DD000064A6846536F43F00103536700948DF829
:102DE0000440FFF72BF9204602B010BD0040005010
:102DF00030B58BB06C46184D0FCD0FC40FCD0FC43E
:102E000095E8030084E80300144BD3F84C21120327
:102E10001DD5A3F5FE431C884FF6FF739C4208BFE7
:102E20008C248DF81940FEF78FFF204480F30800B2
:102E30008DF818000A48FDF7D9FD6846FEF796FEA2
:102E40004FF4FA70FEF7EEFF00200BB030BDD3F860
:102E50005041E4B2E5E700BFFC8E00000080E00FC7
:102E600000F0490230B5094D87B001AC0FCD0FC459
:102E70002B6801A823603F238DF80530FEF76AFF19
:102E80003220FEF7C9FF002007B030BD248F0000BC
:102E90006FF00403502110B50A480B4C13F0800F5B
:102EA00003F1010207D12344402A83F8001313469B
:102EB000F4D1002010BD03F00F03043B0344197646
:102EC0001346EBE700ED00E000E100E010B504463A
:102ED00004F0D4FA024B1C6004F0D4FA002010BDB8
:102EE0001415002010B504F0C9FA034B1C6804F057
:102EF000C9FA204610BD00BF141500202DE9F0438B
:102F00008DB01C4606AB0646894618469046002101
:102F10001822149D05F00FFC227903460AB18DF8A2
:102F20001820C8F81C3063790127C3F10203DBB213
:102F3000CDE90333644B30460293644B4A46019318
:102F4000002329460093624B8DF81E7000F0E2FAD0
:102F50000646002840F09280A3683946EB63A369D7
:102F60003A20EB64237DDFF8749185F848302369BB
:102F70006B64237B85F84030236A6B65237F85F87B
:102F80005030A36AEB6594F8243085F858302368F4
:102F9000AB63FEF725FC3B4604222169207BFFF74B
:102FA0003BFC3B460222A169207DFFF735FC88F8F7
:102FB000006085F860603946A068FEF711FC63790F
:102FC000394633BB4FF4C060FEF70AFCD9F8203213
:102FD000414623F0030343F002032068C9F820327E
:102FE000FFF7D2FA02223B4B2169C3F8C020227BB3
:102FF00042EA0142C3F8D020A169227D42EA01429F
:10300000C3F8CC202379032B5BD8DFE803F02E191B
:103010003B544FF48060FEF7E3FBD9F82032414681
:1030200023F0030343F00103C9F820322068FFF7BF
:1030300005FB95F8603043F0040385F86030D1E774
:10304000002795F8603043F0010385F860300222D4
:103050000023216A207FFFF7DFFB226A237F43EAF8
:1030600002431D4AC2F8C43097B90422AB6B052154
:1030700003F5805320689A64FFF706F930460DB0D7
:10308000BDE8F08395F8603043F0020385F86030C6
:1030900000230422A16A94F82400FFF7BDFB01235A
:1030A0000D4AA16AC2F8C03094F8243043EA0143C3
:1030B000C2F8C830D9E795F86030012743F0030320
:1030C000C3E72326DAE700BF83750000F37500002D
:1030D0002376000000C4035000D403500080005049
:1030E00010B50020144604F023FA022804D018B1C9
:1030F000C321024804F023F9204610BD388F000098
:10310000034B0222186800238068194603F0ACB90B
:103110001C110020302238B5037A0446534303F1D2
:10312000A04303F58023DD6ED0E9032313449D42C1
:1031300001D8AA4204D94FF43E71054804F0FFF8C3
:10314000D4E9030303449D4218BF284638BD00BF9D
:10315000A28F000030B51446054687B01046FFF731
:10316000D9FF6369024683423CBFD4E903315B184F
:103170001B1AABB11249049403910021CDE901312E
:10318000012300932846D4E9001304F01EF920B16E
:103190004FF434710B4804F0D2F8002007B030BD72
:1031A0000122627694F82D20002AF6D084F835307A
:1031B0001321E369204698472046636A9847ECE765
:1031C00055310000A28F00002DE9F04788B0044679
:1031D0000F461646984604F058F98146002E00F036
:1031E000AD80237E03F0FF02002B00F0E08020463C
:1031F000FFF790FF63698246984206D1637E23B948
:1032000040F27F316B4804F09AF86569AA459DBF8A
:10321000D4E903329B185D1BAAEB0505B54228BF14
:10322000354604F032F994F82D308246002B40F0F8
:1032300096802A463846616905F088FA63692E4609
:103240002B4463612CE06069037803F0FD011129D0
:1032500040F08280216B884205D1A3F111014B42DD
:103260004B4184F83430013E6369216B01328B425B
:1032700003F1010308BF236363619542E3D1D4E9FD
:103280000323216B1344994208BF2263216B8A42B6
:1032900001D88B4204D84FF46D71464804F04FF8C2
:1032A000D4E9032361691344994208BF62616169EB
:1032B0008A4201D88B4204D84FF471713D4804F022
:1032C0003EF80023207A6376FDF796FD20B140F2A8
:1032D0001131384804F033F82046FFF71BFF6369CB
:1032E00083423FD10023E568237694F82D30656151
:1032F00003B125632046636A98472F4B04940393D8
:103300000023029323692A460193012300936368F3
:103310002168207A04F059F820B140F22D31254877
:1033200004F00DF8207AFDF787FD20B140F251310D
:10333000204804F004F8504604F0ADF84846C8F8B8
:10334000006004F0A8F8D8F80030002B0CBF1B2058
:10335000002008B0BDE8F08707F8013B84E72E465F
:1033600000228AE70123207A23760DF11E01FDF762
:10337000CBFD20B14FF450710E4803F0E0FF9DF8F3
:103380001E30207A002BCDD00DF11F01FDF794FDEA
:1033900020B140F24631074803F0D1FF9DF81F10DD
:1033A000207A0029BED12246FFF7D4FEBAE716469E
:1033B000C4E700BFA28F00005531000070B504467D
:1033C0000568FFF78FFD844202D10020FFF77EFDE4
:1033D00095F93630002B11DB012203F01F015B0948
:1033E0009B0003F160438A4003F56143C3F88021E9
:1033F000C3F88020BFF34F8FBFF36F8F287AFDF79C
:103400003BFD20B14FF4ED71104803F098FF287A8E
:10341000FDF798FC20B14FF4EF710C4803F08FFFDB
:10342000FDF76EFC38B10A4B984204D04FF4F171AD
:10343000064803F084FF00232846C4E90033C4E9AA
:103440000433A360AB6ABDE870401847A28F000048
:10345000058000F02DE9F84304460D4690F82C80D5
:10346000DFF8AC908E18AE4228D094F82D3083B19E
:1034700004F00BF8237E07461BBB226B63699A425C
:1034800004D040F2F911484603F059FF384604F0E1
:1034900002F894F83430002BE5D0B8F1000F06D0D4
:1034A0002B780A2B03D10D212046E369984720464B
:1034B000E36915F8011B98470028D4D00020BDE827
:1034C000F8832046FFF726FEE1680138884238BFBE
:1034D0002069D4F830C03CBF00F1FF3040180346EB
:1034E0009C450BD013F80129112A01D0132A07D1CA
:1034F000A2F111035A425A4184F834202063C5E7EF
:10350000994282BF236903F1FF335B18E8E700BFEC
:10351000A28F0000F0B50C460646154687B038224B
:10352000002120461F4605F006F995E80300002318
:103530002A692376EB6884E80300C4E904232A7D22
:10354000E36084F82C20AA7D2363012384F83430BF
:1035500084F835300C9B84F82D2023620D9BE761A5
:1035600063620E9BA3622B7A84F83630204B346062
:103570007360204BB360204B3361204B7361204B51
:10358000F360FDF705FC30B11E4B984203D01024C8
:10359000204607B0F0BD002104F10800FDF780FBD4
:1035A0000028F4D10127184B0494CDE902032369C4
:1035B000009701936368E2682168207A03F005FFB1
:1035C00004460028E3D195F90830002B0BDB03F00B
:1035D0001F025B099B0003F16043974003F56143C1
:1035E000C3F880711F603046FFF770FCD0E700BF62
:1035F00055340000C9310000D5760000DB760000AC
:10360000BD330000038000F05531000030B50E4C92
:10361000416123688BB9206083600DE0891A9A6844
:103620001D4641616AB113465A698A42F6D935B1DD
:10363000A860521A83605A6130BD0025F4E720600B
:10364000F7E798608260F7E72015002038B504F0AE
:1036500049F80025084B094C1A682368C31A2AB197
:1036600023B15169994203D3C91A5161206038BD11
:1036700055615B1A9268F2E7201500201C150020A6
:1036800038B5134D2B685B6993B1124A0220146858
:103690001C4404F02EF8204600F092F900230E4955
:1036A0002A680B70D088800709D501230B7038BDBC
:1036B000022004F01EF8022000F0CCF9EEE7926838
:1036C000002AF4D050690344012BEBD9EFE700BF87
:1036D000201500201C150020B427002000220C49D2
:1036E0000B687BB183420AD183687AB193608368A7
:1036F0001BB15A6941690A445A61002070471A4651
:103700009B68EEE70028EFD0022070470B60EEE7E1
:103710002015002070B503F0B8FE144E054634782D
:10372000FCB9134B1C60134B1C60134B1C8000F046
:1037300003F9012003F0DDFF03F0E7FF0F4B024622
:10374000186020B9284603F0A6FE232070BD23464A
:1037500040F2E7310A4802F0E5FC0A4B1860012309
:103760003370284603F097FE0020EFE7B5270020CE
:10377000201500201C150020AC2700202415002057
:1037800018FCFFFF1815002070B5044640B303F085
:1037900075FE144E0546FFF759FF3068A04209D068
:1037A0002046FFF79BFF0446B0B1284603F06AFEAF
:1037B000204670BDFFF792FF04460028F5D133681C
:1037C0003BB9022000F02EF9284603F05BFE0024EE
:1037D000EEE7FFF755FFF7E73368002BF4D1F0E78A
:1037E0002224E5E720150020C2072DE9F047044612
:1037F0000BD54D4A138801339BB21380FFF726FF88
:103800004A4B1B680BB1FFF73BFFA30740F18A80CF
:1038100003F03BFE4FF0000905464E46FFF716FF4A
:10382000C846424F3C680CB163698BB10022404BE3
:10383000012E1A7003D119F0020F18BF1E70002C50
:103840006CD0FFF71DFF2846BDE8F04703F023BE0C
:1038500023465A693AB91A792179914288BF1C46A0
:103860009B68002BF5D1284603F015FE2569DDB1D4
:1038700003F038FFA269A0EB02094FEAE9734D4556
:1038800078EB030311DA23691344A361E368B4F806
:103890000690013613B120462168984703F0F5FDE4
:1038A0000546FFF7D3FEBDE7A94603F0EEFD8246CD
:1038B0002046FFF713FF504603F0EDFD2369002B70
:1038C000E4D0B5EB09054FEAE97363EB4303002B42
:1038D00004DA40F22B51174803F031FDA38B33B1CA
:1038E000E28B13449BB2B3F57A7F0FD2E38303F0EC
:1038F000CCFD814629462046FFF788FEA369226950
:1039000048461344A36103F0C6FDBFE7A3F57A73ED
:10391000E383A369013D013BA361E8E7022000F0D6
:1039200081F890E7BDE8F087AC2700202015002043
:10393000B3270020029000001FB500241D4B012179
:1039400018689A880290D3F806009B7A00903E206F
:10395000ADF80C208DF80430FDF742FF8DF80840DB
:1039600003F0BEFE8DF80C0002A8FFF731F969469E
:1039700001208DF80040FFF7DDF84FF0B04240F233
:10398000FF31936923F47F7323F0030393610A4BA0
:103990005961936A13F00803FBD113620120FFF70A
:1039A000EDF84FF48052054BC3F880211A6004B043
:1039B00010BD00BF619000000020005800E100E051
:1039C00010B5044603F05AFD4FF0B042936A190750
:1039D000FCD4136A116C5269520604D4CA1A032A21
:1039E00001D88B420ED1E21A022A98BFDC1CB4F136
:1039F000FF3F38BF013C4FF0B0431C649A6942F06E
:103A000040029A6103F03EFD054A13783BB14FF046
:103A1000B041CB6B43F00203CB630023137010BDA6
:103A200070110020820700F001030AD50121084A25
:103A300043F0400311704FF0B041CA6B22F0030213
:103A4000CA634FF0B0418A6922EA03038B61704771
:103A500070110020830742BF4022014B5A6170471A
:103A60000010005810B503F010FD4FF0B0430446AD
:103A70005B695A06074A03F0010003F0510348BF8F
:103A800040F002005361FFF7AFFE2046BDE8104052
:103A900003F001BD0020005810B50446FCF78AFF72
:103AA0004FF47A729042B0FBF2F105D23621BDE8B4
:103AB00010400C4803F043BC0B4BB3FBF1F30B4934
:103AC000884201D93C21F2E702FB04F0B0FBF3F09D
:103AD000022806D9BDE810400323B0FBF3F0FCF741
:103AE0002FBB10BD6C90000040420F00E7CD9A3B09
:103AF00000B1FEE70123034A1360034AC2F82034F1
:103B0000704700BF2816002000E0035013B5FDF7F2
:103B100073FA00200849FDF787FA012400232146A3
:103B20001A462046CDE90044FEF706FE034BC3F8D3
:103B3000244402B010BD00BFF13A000000D0035091
:103B400010B5234CFEF706F8FEF7F4F9236F23F0C7
:103B5000070343F00303236703F07BFC1D4B0020A6
:103B60009B6A9B075EBF01221B4B9A62D4F82031EF
:103B700023F0030343F00203C4F82031D4F82431C6
:103B800023F0070343F00203C4F82431D4F8403192
:103B900023F0030343F00203C4F84031D4F860314A
:103BA00023F0030343F00203C4F86031D4F8403239
:103BB00023F0030343F00203C4F84032D4F8003288
:103BC00023F0070343F00203C4F8003210BD00BF26
:103BD0000080005000C0005000E0005008B5FFF722
:103BE0001BF801280ED1104B04205A6E4FF480238D
:103BF0000E49520358BF0E4A4B6601F51041086248
:103C000058BF5366FFF744F903F041FBFFF7CEF8C6
:103C1000FFF728F9FFF7ECF8FFF792FFFFF7D6F868
:103C2000BDE8084003F028BB008000500090005021
:103C300000A0005030B52B4D9DB009AC0FCD0FC486
:103C400095E80F0084E80F004FF461332222002131
:103C50000DF14A000B9304F06EFD234B01241193E8
:103C600038231393052315930623179308231993D9
:103C700007231B9303230E2200210DF116008DF85C
:103C800049408DF8483004F056FD4FF4801C174B26
:103C90001748CDE903C33E238DF814303F238DF838
:103CA0001530144B09AA069320230793124B03A93E
:103CB000009311AB8DF82140FFF720F9044618B1AD
:103CC0007C210E4803F03BFB9DF822304FF461301D
:103CD000002B0CBF0321002103F022FB20461DB066
:103CE00030BD00BF209100000000035A3400035A89
:103CF0008C150020B627002028150020C390000056
:103D0000014803F094BC00BF8C150020024B03490E
:103D10001868FDF751BA00BF44100020241000209D
:103D20000149024802F0F8BC4091000049910000AE
:103D300008B513460A46014605480068FDF766FBCC
:103D400028B1BDE808404621024803F0F8BA08BD92
:103D500044100020659100000422014B1A64704752
:103D600000E003500422014B1A64704700D0035056
:103D70000122014B1A64704700D003500122014B0D
:103D80001A64704700E00350014B1868704700BF89
:103D9000281600200022024B01201A60704700BF45
:103DA0002816002007B501A800F012FB10214FF4DF
:103DB000F872019BC3E90112134A14491A62144AAA
:103DC00099625A6240F2FF321A65124A12499A61A8
:103DD000124AD962126812495A6101221963596361
:103DE00010499A64C3F8B0100F4983F84C20C3F807
:103DF000B4100E491A64C3F8B8100D4983F8C220F4
:103E0000D96303B05DF804FB00401C4600007AC48F
:103E1000C3F5E83F0024744B00007A4430160020BC
:103E20000080A24400002041000048420000FA4304
:103E3000CDCC4C3E80B596B00024012504F099FB12
:103E400000F0FCFF4FF0011307A8CDE909550B93D3
:103E5000CDE9074404F08DFA0223CDE90D330423A4
:103E60000CA88DF8305010930F9404F036F8354BB1
:103E700001A8CDE90234019504F06CF82A464FF010
:103E8000FF31284604F0F4FA4FF0FF3004F008FB4D
:103E90002A462D49204604F0EBFA4FF0FF3004F09B
:103EA000FFFA2C231193072311A81293CDE9144490
:103EB000139404F025FB254B254D0593254B2946EE
:103EC00004A80693049401F0B5FB286801F0E8FD0E
:103ED00002460B46204802F01FFCFFF763FF4FF439
:103EE00080611E4800F0F2FA1D4803F083FC214671
:103EF000204600F077FADFF864801A4DFFF744FFA0
:103F00000028FBD0FFF746FF4FF4806300244046B3
:103F100011A91193114E00F0B9FCDFF84CA0DDF8A7
:103F200044904C45EAD02F6856F8040B7B1C2B605C
:103F300001F0B6FD02460B465046394602F0ECFB56
:103F40000134EEE7000001010082000200007A4423
:103F5000301600200024744BA2910000341600207B
:103F6000A08601002C160020B1910000F8B50D4686
:103F70002DED028B044600269FED0C8A0C4FAE42BD
:103F800002D1BDEC028BF8BD208897ED090A44F8F8
:103F9000040BB96C00F0B2FE97ED167AC0EE077A0A
:103FA00067EE887A013644ED017AE8E700007A444A
:103FB0004810002030B5584B93F8C21093F8C44015
:103FC000D3F8A020002972D093ED0A7AD3ED0B7AB2
:103FD000B4EEE77AF1EE10FAC4BF002183F8C01006
:103FE000012C12D0022C26D05CBBDFED4C7A93ED75
:103FF0000C7ADFED4B6A37EE677AC7EE267AFCEE75
:10400000E77A0121C3ED2F7A19E0996BB2EB510FDA
:1040100017D30221DFED417A93ED0D7ADFED406A8F
:1040200037EE677AC7EE267AFCEEE77A83F8C4109B
:10403000C3ED2F7A05E0996B914202D8052183F8F0
:10404000C41093F8C1100132C3F8A02093ED2B7A6D
:10405000D3ED297A93F8C020002953D01AB1D3EDBB
:104060002A6A77EEE67A37EE677A002283F8C12073
:10407000D3F8BC2083ED2B7A910107EE901AF8EE6D
:10408000677A77EE877AFCEEE77A17EE903A9942F4
:1040900040F6FF7188BF03F1FF333F2A28BF3F225C
:1040A0008B4228BF0B4643EA0233036030BD93F8CE
:1040B000C010042CC5D801A555F824F0EB3F000032
:1040C000D1400000D9400000F5400000374000001A
:1040D000996BB2EB910F9BE79C6BC4F35D04944228
:1040E000AFD8B1FA81F10324490983F8C44083F8B9
:1040F000C010A6E7996B01EB4101B2EB910FA0D381
:10410000042187E71AB137EE877A0122AEE7D3EDB3
:104110002A6A77EEE67AF6E7481000200000484366
:10412000998809422DE9F04F9D4C8BB0D4ED0A6A75
:10413000D4ED0B7A77EEE67A94ED2E6A37EEA77A15
:10414000C7EE067AFCEEE77A94F8C22017EE903AB2
:10415000C4ED0E7A12B95B00023BA363A36BB3F507
:104160007F7F03D98F4802F0E9FAFEE794F88800D0
:104170008D49012837D1A56E0B60A368E26F5B1BE8
:104180009B1A0F2B40F30881DFED887AD4ED2D5A6E
:1041900085EEA77AB5EEC07A854D083BDB102B6023
:1041A000A56FF1EE10FA2A44824D84ED297A2A6037
:1041B00002EB8302804BC6EE275A1A604FF00003D1
:1041C00086EEA77A7D4AC4ED2A5A1360D4BF1A46F8
:1041D000012284ED2B7A84F8C430C4F8A030784BE7
:1041E00084F8C02018700D68002D69D0704BDFF87E
:1041F000CC81D3F800902B464D4528BF4B46019308
:10420000EB1A0B60D8F80030002B5DD1694B1F68AA
:104210004FF0000B3B466A4E019A96F800A0013A17
:104220005A4553D84D4507EB820B7FD805A8FFF7B9
:10423000C1FE059BBAF1000F23F07F4343F04843D2
:1042400006934FF00A030CBF4FF073424FF07A42CF
:104250000BF10406079326F07F4323F480231343D6
:1042600043F480230893574B0422584606A9099328
:1042700003F0DFFE0023CDE9063308934FF001433E
:104280000422304606A9099303F0D3FED8F8003083
:10429000B3FA83F35B09C8F8003094F888307BB137
:1042A00000234D4584F8883071D800230422464805
:1042B000C4E92472C4F88C3084F8983003F0CDFE41
:1042C00000200BB0BDE8F08F3B4BA0E71A1D05A8FE
:1042D000CDE90223FFF76EFE059ABAF1000F22F036
:1042E0007F4242F0484206924FF00A020CBF4FF064
:1042F00073414FF07A41029B079223F07F4222F4F0
:1043000080220A4342F48022039B08922D4A1846D9
:10431000099206A9042203F08CFE33780BF1010BFD
:10432000B3FA83F35B093370029B75E7D8F800306A
:104330005BBB214B1B6805A80193FFF73BFE059A69
:10434000BAF1000F22F07F4242F0484206924FF04D
:104350000A0207920CBF4FF073424FF07A42019B62
:10436000584623F07F4323F48023134343F48023F0
:104370000893164B042206A9099303F05AFE3378DA
:10438000B3FA83F35B09337080E70A4BD2E7FFF798
:10439000C9FE002889D094E76FF0070091E700BFBD
:1043A00048100020C1910000442600209988093F50
:1043B000402600203C2600203826002034260020FD
:1043C00071110020010000C7D4100020010000A7D7
:1043D00018B1034B0360002070476FF00100704775
:1043E0004810002000B593B0032847D8DFE800F05C
:1043F000024D595E0A2004F0A9F80A285DD8304B16
:1044000093F85420002A3DD093F8C420052A39D0CF
:1044100093ED056AD3ED0F7ADFED2A6A66EE275A2F
:104420000320002185EEA67A0122BCEEC77ACDE9F1
:1044300000010221B7EE005ACDE90212049117EEF5
:10444000101A93ED2C7AC5EE075A9FED1F7A55EEA0
:10445000877A27EE867AC7EE267AFCEEE77A17EEA1
:10446000903A0139043B68468DF844200B920F9135
:1044700009920D930A920E9303F029FE002013B0C7
:104480005DF804FB6FF06300F9E70A2004F05EF8C2
:104490000A2812D8002003F0B9FE002003F0B6FE6F
:1044A000ECE70122064B83F8C320E7E70021012057
:1044B000FFF798FF00F0B4FDE0E76FF00800DEE7DB
:1044C0004810002000007A440000FA432DE9F04F24
:1044D0000546ADB00A20894604F038F80A2800F2F3
:1044E000CA8101224FF08073CDE905230023B14C2E
:1044F00005A8079303F02EFD94F854301BB12378E0
:10450000012B40F00481002D00F0B881B9F1000FBB
:1045100000F0B481236C0DF13008002B40F05E8177
:10452000636CA3650023E36500264946284684F8AA
:10453000546000F04BFA012000F068FA31469E48C2
:1045400003F05FFA9D4B08A80893013B09938DF88F
:104550002960ADF82A608DF82C6003F084FA94EDA0
:104560000C7ADFED977A032337EE677ADFED956AF1
:10457000189340F20113C7EE267AADF86830236C29
:10458000D4ED0A6AB3429FED907AFCEEE77A179376
:1045900042F2342318BF1423199317EE903AC6EE53
:1045A000877AFDEEE77A17EE902A4FF002094FF076
:1045B000140A4FF4807B9BB24046ADF84C3002EBBE
:1045C0008313ADF84A30CDE91596CDE90C66CDE9F7
:1045D0000E66CDE910A61496ADF848B003F0D9FBED
:1045E00044211BA803F067F921231B93A36C012727
:1045F0001D9394F84C301BA81E930A23CDF870909D
:10460000CDE91F368DF88C702197ADF8887003F0D6
:104610004EFC4FF0014000F0C3F9304600F0F6F9CF
:1046200004A903A800F0E6F90546002840F01F8120
:104630005146664803F03FF9049BA2689A4240F253
:10464000148103222266626860486266039AA36648
:10465000226784F86C7003F000FDD4ED066A94EDD7
:10466000077A94F84C30C6EE877A1D930A234146A8
:104670001BA8CDE91E35CDED227ACDE91B7700F0E0
:1046800077FA384600F0C2F9042003F017FD3946E6
:10469000802003F0B6F94FF4C86000F081F9394684
:1046A000584603F0AEF90C9820F0404000F078F93D
:1046B00029464FF4C07003F0A4F9284603F0FEFC2D
:1046C00003F037FF08A904A800F094F90546304626
:1046D00000F09CF9002D40F0CA8051463C4803F0A0
:1046E000EAF8A16E089AA3688818984280F0BD8005
:1046F000636E37480B44A367049BC4F87490C4F8F6
:104700008430E26784F8807003F0A7FC25700021F4
:10471000084603F00DFC00231E93236D01261F9312
:1047200002231BA8CDE91C338DF86C6003F0D5FB88
:104730004FF0FF3003F0B4FE84F88860FFF7F2FC1E
:104740000546002840F0938084F86C001F4803F071
:1047500084FC304603F051FC206E03F061FC4FF402
:104760000041012003F0A1FE0028F8D000264FF4FC
:10477000004003F095FE164884F8806003F06DFC5D
:10478000144884F8986003F068FC304603F035FC68
:10479000314642F2640000F0DDFA012003F02DFC06
:1047A000FFF7F8FA0321304603F057F9012384F8A4
:1047B00054305CE048100020E0FF390001010100A6
:1047C00000004843998809429988093FA8100020B1
:1047D000BC100020D41000200000003A1BA8382193
:1047E00003F069F8D4ED077AB5EE007AF3EE066AC5
:1047F00027EE877ACDED1E7AC7EE267A1FED0A7A6C
:1048000067EE877AB0EE087A00230122A16967EE8D
:10481000877A1D910921CDE9232328928DF89C20C8
:10482000226ACDE925131C92226C41461BA8CDE9D2
:104830002123CDED1B7A1F938DF8803000F00AFC08
:1048400098E803000F4B83E803000C9801F028F967
:1048500006460D980F4601F023F93246CDE90001D6
:104860003B46094801F058FF5EE66FF00705284611
:104870002DB0BDE8F08F6FF00805F8E76FF0010587
:10488000F5E700BFA01000200B920000F8B5044629
:104890000A200E4603F05AFE0A2846D8002003F0EC
:1048A00043FE0020306003F011FE820505461CD453
:1048B00015F0007722D003F046FB0146054620465E
:1048C00003F055F84FF0007003F0EAFD184B93F831
:1048D000C330012B02D1002003F098FC294620466A
:1048E000FFF744FB3560002007E04FF4007003F051
:1048F000D7FDFFF717FC0028DAD0F8BD2B04F2D55E
:1049000003F021FB05464FF4004003F0C9FD2946A2
:10491000204603F02CF829462046FFF727FB3946AE
:1049200035600120FFF75EFDDDE76FF00800E4E78A
:10493000481000200A4B30B5D3E903240023C0F30C
:1049400087009A4202D16FF0060005E014F8235068
:10495000854202D100200B6030BD0133F1E700BF7A
:10496000482600200D4B30B55A69DC685D68144458
:10497000A5420ED91C698008251F1D6104F8040C8E
:1049800054F8040C013261F31F2044F8040C5A61FE
:1049900030BD6FF003029A61FAE700BF482600209D
:1049A000094B10B5D9685A695C680A44944295BFAE
:1049B0006FF003029A689A6142F8210082BFDA68B8
:1049C0000132DA6010BD00BF4826002001290DD950
:1049D0000022074BC3E9011001F180410139C3E90D
:1049E000052200EB81001861DA601A70704700BF81
:1049F00048260020044B08B19A68026009B1DA68C1
:104A00000A609869704700BF48260020034B18B120
:104A100000220120DA609A61187070474826002051
:104A200030B5C3680446012B0D4687B020D103681A
:104A3000022B33D10522234B18681B7902908DF885
:104A40000C30214B18681B7904908DF814300DF14F
:104A50000703207902A902F0D1FE78B301209DF866
:104A6000073018336B4413F8083C2B7007B030BD87
:104A700023BB0368022BDDD1144B1A889B78ADF859
:104A800008208DF80A30124B1A889B78ADF8102058
:104A90008DF8123003220DF10703DAE70D4B0622E1
:104AA00018689B880290ADF80C300B4B18689B88F7
:104AB0000490ADF814300DF10703CAE70020287008
:104AC000D4E700BF179200001D920000239200005F
:104AD000279200002B9200003292000030B5C3688C
:104AE0000446012B0D4687B01CD10368022B28D148
:104AF00040F60733ADF8083040F20A530222ADF811
:104B000010300DF10703207902A902F077FE40B3BF
:104B100001209DF8073018336B4413F8083C2B70C4
:104B200007B030BDEBB90268022AE1D140F6093383
:104B3000ADF8083040F60F23ADF810300DF1070343
:104B4000E1E7094B062218689B880290ADF80C300B
:104B5000064B18689B880490ADF814300DF10703DC
:104B6000D1E700202870DBE7399200004092000076
:104B7000F0B5844600240F469BB05F4D0DAE0FCDBF
:104B80000FC60FCD0FC60FCD0FC655F8043B0294CC
:104B9000336003AE95E80F0086E80F003C60644682
:104BA00034B3DCF80C300B2B22D8DCF80820022AB6
:104BB0001ED8DCF8101003291AD8DCF800000428ED
:104BC00014D8DFE800F00317327349001422DCF830
:104BD00004309CED077A534307EE903AF8EE677A7B
:104BE00067EE877AFCEEE77ACDED027A029B3B60B6
:104BF0001BB0F0BD1421DCF80430DCED076A4B4338
:104C00001AA901EB820252F85C2C28335343143367
:104C100007EE903AB6EE007AF8EE677A07EEA67ADB
:104C2000BCEEC77A8DED027AE0E71AA901EB8303A7
:104C3000DCF8042053F8343C604602FB03330122C5
:104C40000133CCE9002302A9FFF792FF022323607E
:104C5000029B0F330293C9E79CF8181007A80A912A
:104C60000DF10601CDE90723FFF7DAFE054618B17D
:104C70009DF80650013DEDB20DF1070107A8FFF7C1
:104C80002DFF20B19DF80730013B2B44DDB20223FC
:104C90002360636820462B44636002A9FFF768FF26
:104CA0000423236063685B1B63609FE7DCF81430B8
:104CB000032B09D8DFE803F00F0D02160023236051
:104CC000204602A9FFF754FF03232360029B1933F8
:104CD000C0E70123F3E79CF81930002B0CBF042335
:104CE0000223ECE701231944CCF80030DCF804304F
:104CF0008B40CCF80430E3E7D8920000A0F50040E8
:104D000007EE900A0139F8EEE77A03290CD8DFE8BC
:104D100001F002071619B7EE087AC7EE877A03E0AA
:104D2000B6EE007A67EE877A67EE807A9FED077AB3
:104D30009FED070A67EE877A27EE800A7047B5EE87
:104D4000007AEFE7B2EE027AE7E700BF0000003832
:104D5000110E813FF7B5274F04463B780E46012BD5
:104D600026D1B0F5085F04D36FF00403BB6103B034
:104D7000F0BD01A9FFF7DEFDA50505F0FE4526F013
:104D80007F431D4345F0004568B9019A3B6953F8DC
:104D9000221066F31F2143F82210284603B0BDE815
:104DA000F040FFF7FDBD31462046FFF7DBFDF4E79D
:104DB000FEF7D2FF202002F04CFD204602F02BFD32
:104DC000FEF7D0FFFEF7C8FF2D2002F042FD42F2B1
:104DD0001403A4F58054A4B29C4207D8304602F0D4
:104DE0002AFD03B0BDE8F040FEF7BCBFB0B202F050
:104DF00012FDF6E74826002037B50F4D04462B7804
:104E0000012B14D101A9FFF795FD48B1204602F00E
:104E10002BFD01462046FFF7A5FD084603B030BD37
:104E20002B69019A53F82210C1F31721F5E703B05B
:104E3000BDE8304002F018BD4826002030B50024FF
:104E40009DB070222049684603F080FC1F4B6D46E0
:104E5000C3E90544DC601C70FEF784FF696828889C
:104E60000134FFF777FF0E2C05F10805F6D140F26B
:104E70000440FFF7C1FFA0F5AA43013B012B014607
:104E800006D9B0F5AA4F1CD0114801F045FCFEE749
:104E90000123104C1048237001F050FC21780F4A78
:104EA0000F4B104800290CBF1146194601F034FC85
:104EB0000123022200210C481DB0BDE8304001F062
:104EC0002BBC0023E5E700BF8493000048260020A8
:104ED0004D920000D62700207F9200004A920000E9
:104EE000479200008C920000A99200001FB5074B6A
:104EF00068460093013B01930123029300238DF840
:104F00000C3002F0B0FD05B05DF804FB01010100BA
:104F10000A29FFB405460B4627D8022909D90831CA
:104F2000C90011431DB342F2F40004B0F0BCFFF716
:104F300011BF6E460F4C04F1080C374620686168BB
:104F4000083403C764453E46F7D12068A17938602C
:104F5000A088042AB880B97107D803EB8303103303
:104F60006B44134413F8101CDAE7F821D9E742F236
:104F7000F800DAE7F4930000F5EE400A124B1B78D4
:104F8000012B0CBF1E221A22F1EE10FA1AD00123B7
:104F9000934007EE903AF8EEE77A27EE800AB6EEF5
:104FA000007AC0EE207A77EE877AFCEEE77A1A2A4A
:104FB000064817EE903A18BF6FF07F40984228BF1E
:104FC0001846704700207047D6270020FFFF0F00CB
:104FD00010B50446042003F063FA01210F4802F0E3
:104FE00010FD012002F006FC0421012003F05DFA0F
:104FF00050B14FF40250FFF7FFFE0446002107486E
:1050000002F0FFFC204610BD23685A1CE9D0013B8A
:105010002360002BE5D11C46F0E700BF0001010032
:1050200000B595B001A80D2102F045FC3C2105A872
:1050300002F041FC01A802F016FD05A802F0A9FE4D
:10504000034803F071FA15B05DF804EB03F071BA90
:10505000E5470A002DE9F04F2DED028B0446E7B03D
:10506000AD4E6C2289462EA8AC4909AD03F06EFB0B
:105070000FCE0FC533682B60002C00F0D78294ED63
:10508000018AB5EE408AF1EE10FA00F0CC82A369F5
:105090005A1E192A00F2C782B9F1000F00F0C68229
:1050A00094ED037ADFED9E7AB4EEE77AF1EE10FA32
:1050B00066AA02EB830318EE100ACCBF0126002675
:1050C00053F8E07C00F0ECFC0022964B00F040FD31
:1050D000824638468B4600F0C1FC0B4602465946D4
:1050E000504600F05FFE00F0CDFF9FED8F7A06EE98
:1050F000900AC6EE877ADFED8D6A67EEA67A77EEC4
:10510000A77AFCEEE77A17EE905A40F21653013573
:105110006D089D4228BF1D4607EE105A9FED846A18
:10512000B8EEC77A27EE067A87EE266ADFED816A47
:1051300007EE907A78EE266AF8EE677A86EE267A9F
:1051400027EE277AC7EE276A9FED7B6A66EE886AAC
:10515000C6EE267AF2EE026AF4EEE67AF1EE10FA84
:10516000D4ED008A80F2A381F1EE005AF4EEE57AE4
:10517000F1EE10FA80F29E81F0EE005AF4EEE57A3C
:10518000F1EE10FA80F29981F7EE085AF4EEE57A22
:10519000F1EE10FAACBF4FF0010B4FF0000BC6EE72
:1051A000077AF4EEE67AF1EE10FA80F28981B1EE38
:1051B000007AF4EEC77AF1EE10FA80F28481B0EE54
:1051C000007AF4EEC77AF1EE10FA80F27F81B7EE42
:1051D000087AF4EEC77AF1EE10FAACBF4FF0010A8C
:1051E0004FF0000A09AB03EB8A0103EB8B0291ED50
:1051F000007AD2ED007A4FF4005087EE278AFFF74D
:10520000FBFD019043F20C00FFF7F6FD01220621A1
:105210008046104603F02CF94FF0FF3003F040F9C0
:105220000021464802F0EDFBFFF760FE44211DA877
:1052300002F041FB032201272292626AA06A2192B6
:10524000226AE16A209228AA03C2206B86F0010636
:1052500010601DA82396ADF890708DF8947002F040
:1052600026FE3C210EA802F026FB22690026111E14
:105270001692E26918BF01211A9240F20112ADF8AC
:1052800070200422CDE90E1711211892A269CDE9F0
:1052900012161992227D2A49BA4214BF4FF4A07205
:1052A0004FF4B072149120210EA81B92ADF8541047
:1052B000CDE91077179602F06CFD742149A802F031
:1052C000FAFA22690521B2420CBF3A4602225D92E7
:1052D0004FF01F0260924FF00B02CDE96221CDE941
:1052E00064214FF0FF02F5EE408A4F9214BF8122F5
:1052F00041224FF40070CDE94927F1EE10FA4FF446
:105300001062CDE94D66CDE94B028DF884615E9661
:1053100040F0DF8016E000BFDC94000070940000D5
:105320000050C34B000099400080094500E0FF4455
:105330000000FA440000C84200803B45E0FF39000D
:10534000000100084FF0FF3249A807925C95509683
:10535000ADF8446102F086FC05F5006002F094FCB3
:1053600039464FF4994002F04CFB49A8499702F0A6
:10537000CFFB4FF47A7002F03DFA242214211DA8CD
:10538000CDE91D21CDF87CB002F00DFD322002F0F8
:1053900031FA07A8FFF71CFE07462069CDF87CA06C
:1053A000B0420BBF0225032521202220CDE91D0597
:1053B0001DA802F0F8FC322002F01CFA07A8FFF743
:1053C00007FE05462069B04214BF81204120499064
:1053D00049A802F09DFB4FF47A7002F00BFA2422E8
:1053E00014211DA8CDE91D21CDF87CB002F0DBFC15
:1053F000322002F0FFF907A8FFF7EAFD2369C01B7E
:10540000B3420BBF0222032221232223CDE903064C
:105410001DA8CDE91D32CDF87CA002F0C4FC3220DD
:1054200002F0E8F907A8FFF7D3FD401BCDE9050618
:10543000069B03A95B420693049B05A85B42049369
:1054400002F03DFA94ED017AC7EE087A27EE800A61
:1054500067EEA07A636B8DED070ACDED087A002B1D
:1054600040F0D68089ED000AC9ED017A18F00202F9
:1054700003D10221012002F0FBFF18F0040203D146
:105480000421012002F0F4FF00244FF400500199A0
:10549000FFF760FC49A8CDE94944CDE94B4402F04F
:1054A00037FB204667B0BDEC028BBDE8F08F4FF0B4
:1054B000040B74E64FF0030B71E64FF0020B6EE63F
:1054C0004FF0040A8EE64FF0030A8BE64FF0020A13
:1054D00088E6D4ED020A94ED000A5995FFF74CFDD9
:1054E0000225589049A8CDE95A665C965095ADF8CA
:1054F000446102F0B7FB284602F0D2FF39464FF470
:10550000406002F07EFA642002F074F92422142133
:105510001DA8CDE91D21CDF87CB002F044FC394630
:105520004FF4814002F06DFA192002F063F9394618
:105530004FF4014002F065FA0221012002F0B5FFAC
:105540000028F9D000214CF2801002F05AFA022013
:1055500002F0A6FF42F27800FFF74EFC03900646E9
:1055600042F27C00FFF748FC23690490002B0BBF3C
:10557000022203222123222305461DA8CDE91D3244
:10558000CDF87CA002F00FFC01214FF4814002F025
:1055900038FA192002F02EF901214FF4014002F0EF
:1055A00030FA0221012002F080FF0028F9D000210A
:1055B0004CF2801002F025FA022002F071FF42F254
:1055C0007800FFF719FC0746059042F27C00FFF7D0
:1055D00013FCB30342BF6FEA86366FEA9636039632
:1055E000A90342BF6FEA85356FEA95350495BA0382
:1055F00042BF6FEA87376FEA97370597830344BF47
:105600006FEA80336FEA9333069048BF06930FE743
:1056100007A802F077F907A889ED000A02F08AF9D5
:1056200089ED010A22E76FF001003BE76FF002000D
:1056300038E700BF2DE9F0412DED028B0E46044600
:105640009EB0002800F0BA80002900F0B78090EDED
:10565000017AF7EE007AB4EEE77AF1EE10FA00F193
:10566000B08004A802F0AEFC43F20C00FFF7C4FBCC
:105670000122012500274FF400418046104602F028
:10568000F7FE4FF0FF3002F00BFF01A8CDE9015506
:10569000039702F05FFC4C4B07A80B932368079716
:1056A000089309958DF8285002F0D7FC236807A8C5
:1056B0002B440893454BB6EE008A0B93079502F0F6
:1056C000CCFC94ED017ADFED427A07EE278A0423C1
:1056D000BCEEC88A199318EE103A053B15930323C4
:1056E0001A934FF0FF330CA81693CDE90D758DF882
:1056F00074700C9502F0EBFC4FF4004002F0D0FE09
:10570000284602F083FD4FF40041012002F0CDFE57
:105710000028F8D002F0D7FC0746002002F076FD02
:1057200004220020114602F085FD236807A80133FA
:10573000089302230993274B0B9302F08EFC012060
:1057400002F05BFC4FF4004002F0AAFE012002F0E0
:105750005DFD4FF40041012002F0A7FE0028F8D0C3
:1057600002F0B1FC4FF400410546002002F09DFE1E
:10577000002002F04BFD04A802F0ECFB4FF40041C6
:105780000120C8F3C03202F073FE4FF4004002F073
:1057900087FED4ED027AB8EE488AED1B28EE278A00
:1057A00007EE905AF8EE677A88EE277A002086EDA9
:1057B000007A1EB0BDEC028BBDE8F0816FF00200F4
:1057C000F7E76FF00100F4E7D4920000D0920000F8
:1057D00000000042C892000081F0004102E000BFDA
:1057E00083F0004330B54FEA41044FEA430594EAA1
:1057F000050F08BF90EA020F1FBF54EA000C55EADC
:10580000020C7FEA645C7FEA655C00F0E2804FEAAC
:105810005454D4EB5555B8BF6D420CDD2C4480EA8E
:10582000020281EA030382EA000083EA010180EABE
:10583000020281EA0303362D88BF30BD11F0004F0C
:105840004FEA01314FF4801C4CEA113102D0404242
:1058500061EB410113F0004F4FEA03334CEA13337D
:1058600002D0524263EB430394EA050F00F0A78095
:10587000A4F10104D5F1200E0DDB02FA0EFC22FA90
:1058800005F2801841F1000103FA0EF2801843FA84
:1058900005F359410EE0A5F120050EF1200E012A75
:1058A00003FA0EFC28BF4CF0020C43FA05F3C018B3
:1058B00051EBE37101F0004507D54FF0000EDCF12C
:1058C000000C7EEB00006EEB0101B1F5801F1BD3D5
:1058D000B1F5001F0CD349085FEA30004FEA3C0CD9
:1058E00004F101044FEA445212F5800F80F09A80CF
:1058F000BCF1004F08BF5FEA500C50F1000041EBD3
:10590000045141EA050130BD5FEA4C0C404141EBD6
:105910000101013C28BFB1F5801FE9D291F0000FD1
:1059200004BF01460020B1FA81F308BF2033A3F180
:105930000B03B3F120020CDA0C3208DD02F1140C77
:10594000C2F10C0201FA0CF021FA02F10CE002F1B2
:105950001402D8BFC2F1200C01FA02F120FA0CFCAB
:10596000DCBF41EA0C019040E41AA2BF01EB0451F4
:10597000294330BD6FEA04041F3C1CDA0C340EDCF2
:1059800004F11404C4F1200220FA04F001FA02F335
:1059900040EA030021FA04F345EA030130BDC4F1F3
:1059A0000C04C4F1200220FA02F001FA04F340EAE8
:1059B0000300294630BD21FA04F0294630BD94F099
:1059C000000F83F4801306BF81F480110134013D80
:1059D0004EE77FEA645C18BF7FEA655C29D094EAF1
:1059E000050F08BF90EA020F05D054EA000C04BF6F
:1059F0001946104630BD91EA030F1EBF002100205A
:105A000030BD5FEA545C05D14000494128BF41F0F8
:105A1000004130BD14F580043CBF01F5801130BD5C
:105A200001F0004545F0FE4141F470014FF00000E7
:105A300030BD7FEA645C1ABF194610467FEA655C98
:105A40001CBF0B46024650EA013406BF52EA03353A
:105A500091EA030F41F4002130BD00BF90F0000F28
:105A600004BF0021704730B54FF4806404F1320464
:105A70004FF000054FF0000150E700BF90F0000F1D
:105A800004BF0021704730B54FF4806404F1320444
:105A900010F0004548BF40424FF000013EE700BF14
:105AA00042004FEAE2014FEA31014FEA02701FBFA4
:105AB00012F07F4393F07F4F81F06051704732F0D6
:105AC0007F4208BF704793F07F4F04BF41F400212D
:105AD000704730B54FF4607401F0004521F000418B
