:1000000000100020AD080000D5720000D57200007D
:10001000D5720000D5720000D5720000D5720000C4
:10002000D5720000D5720000D5720000D5720000B4
:10003000D5720000D5720000D5720000D5720000A4
:10004000D5720000D5720000D5720000D572000094
:10005000D5720000D5720000D5720000D572000084
:10006000D5720000D5720000D5720000D572000074
:10007000D1390000D5720000D5720000D5720000A1
:10008000D5720000D5720000D5720000D572000054
:10009000D57200004D0F0000D5720000D57200002F
:1000A000D5720000711000004D100000D5720000E4
:1000B000D5720000D5720000D5720000D572000024
:1000C000D5720000D5720000D5720000D572000014
:1000D000D5720000D5720000D5720000D572000004
:1000E000D5720000D5720000D5720000D5720000F4
:1000F000D5720000D5720000D5720000D5720000E4
:10010000D5720000D5720000D5720000D5720000D3
:10011000D5720000D5720000D5720000D5720000C3
:10012000D5720000D5720000D5720000D5720000B3
:10013000D5720000D57200006D3C00003D770000D4
:10014000013800D0FCE7704751EC110B43422DE918
:10015000F047034321F0004E634E4EEAD373B3429F
:1001600055EC104B3ED8634225F0004AA046A94604
:1001700023434AEAD373B34234D85C4B02460B4460
:1001800003433ED08F175AEA080807F0020747EAF0
:10019000D5772FD05EEA020237D0B64544D0B245BB
:1001A00033D0AAEB0E0ABAF1747F4FEA2A5338DA39
:1001B00000296ADA3C3368DA9FED3D0B012F50D0FD
:1001C000022F3DD0A7B151EC100B3BA3D3E9002384
:1001D00005F0D0FA3AA3D3E9002305F0CBFA41ECBD
:1001E000100B05E022462B4605F0C6FA41EC100B39
:1001F000BDE8F087022F0ED0032FF9D19FED320B0F
:10020000F6E7BDE8F04700F077B8B9F1000F05DB7D
:100210009FED2F0BECE79FED2A0BE9E79FED2E0BEF
:10022000E6E79FED2B0BC9E7F24507F1FF3721D039
:10023000022F27D82E4B03EBC70393ED000BD7E714
:100240001DA3D3E9002351EC100B05F093FA0246ED
:100250000B461BA1D1E9000105F08CFA41EC100B13
:10026000C6E710EE901A53EC102B01F1004343EC5B
:10027000102BBDE7022F15D81E4B03EBC70393EDE0
:10028000000BB5E79FED0A0BB2E702460B4620468E
:10029000294605F051FD41EC100B06F085FE00F0FB
:1002A0002BF88BE79FED0E0BA2E700BFAFF30080AA
:1002B0000000000000000000075C143326A6A13CEB
:1002C000182D4454FB210940182D4454FB2109C02A
:1002D000182D4454FB21F93F182D4454FB21F9BF3C
:1002E000182D4454FB21E93F0000F07F000010C0AE
:1002F00088940000A09400002DE9F84F55EC104BB5
:10030000C34B25F00046AA469E4216D9C14B9E42D9
:1003100001D80AD14CB122462B462046294605F089
:100320002BFA41EC100BBDE8F88FBAF1000F40F347
:10033000BE809FED9B0BBDE8F88FB74B9E4200F24D
:10034000B980A3F1DE739E4240F2A0804FF0FF3BE4
:1003500022462B462046294605F0C4FB02460B46A2
:100360008046894605F0BEFB06460F468EA3D3E9BC
:10037000002305F0B7FB8EA3D3E9002305F0FCF9B9
:1003800032463B4605F0AEFB8BA3D3E9002305F0D4
:10039000F3F932463B4605F0A5FB89A3D3E90023D8
:1003A00005F0EAF932463B4605F09CFB86A3D3E90B
:1003B000002305F0E1F932463B4605F093FB84A3A8
:1003C000D3E9002305F0D8F942464B4605F08AFBF5
:1003D00080468946304639467FA3D3E9002305F09D
:1003E00081FB7FA3D3E9002305F0C4F932463B46E5
:1003F00005F078FB7CA3D3E9002305F0BBF9324676
:100400003B4605F06FFB7AA3D3E9002305F0B2F970
:1004100032463B4605F066FB77A3D3E9002305F09F
:10042000A9F932463B4605F05DFBBBF1FF3F0246B2
:100430000B464046494661D0784E05F09DF922466C
:100440002B4605F04FFB764B06EBCB064FEACB0B6A
:100450005B44D3E9002305F08DF922462B4605F0D5
:1004600089F902460B46D6E9000105F083F9BAF195
:10047000000F41EC100BBFF656AF10EE901A02467B
:1004800001F1004343EC102BBDE8F88F5CA3D3E9E6
:1004900000232046294605F06FF90022614B05F044
:1004A000B1FD00283FF452AF45EC104B3BE79FED08
:1004B000560B38E706F078FD5B4B9E4255EC104B2F
:1004C0002CD8A3F550239E4255D90022554B2046E7
:1004D000294605F04FF94FF0010B06460F4620461E
:1004E000294600224F4B05F047F902460B4630469D
:1004F000394605F021FC04460D4629E705F03CF994
:1005000022462B4605F0EEFA02460B4620462946C7
:1005100005F030F941EC100BBDE8F88F434B9E42DB
:100520001ED20022424B2046294605F023F90246FE
:100530000B462046294614461D4600223C4B4FF0F0
:10054000020B05F0CFFA0022364B05F015F90246F2
:100550000B462046294605F0EFFB04460D46F7E61C
:1005600022462B460020334905F0E6FB4FF0030BF3
:1005700004460D46ECE622462B462046294605F069
:10058000FBF80022274B4FF0000B05F0F3F8002298
:1005900006460F46204629464FF08043A3E700BF9A
:1005A000182D4454FB21F93F11DA22E33AAD903F74
:1005B000EB0D76244B7BA93F513DD0A0660DB13F9A
:1005C0006E204CC5CD45B73FFF8300922449C23F02
:1005D0000D5555555555D53F2F6C6A2C44B4A2BFC7
:1005E0009AFDDE522DDEAD3F6D9A74AFF2B0B33F8F
:1005F000711623FEC671BC3FC4EB98999999C93F07
:100600009C7500883CE4377E182D4454FB21F9BFCB
:10061000FFFF0F440000F07FFFFFDB3FD894000096
:10062000B89400000000F03FFFFFF23F008003405D
:100630000000F83F0000F0BF0348044B834202D0A3
:10064000034B03B1184770477C1100207C11002038
:1006500000000000064B0749C91A891048BF013144
:10066000491003D0044B0BB101481847704700BF35
:100670007C1100207C1100200000000010B5064C09
:10068000237843B9FFF7D8FF044B13B10448AFF305
:1006900000800123237010BDAE2700200000000061
:1006A000F894000008B5054B1BB105490548AFF3A8
:1006B0000080BDE80840FFF7CDBF00BF000000008C
:1006C0007C110020F8940000A3F5803A704700BF29
:1006D000174B002B08BF134B9D46FFF7F5FF00217A
:1006E0008B460F461348144A121A07F0D7FF0E4BD9
:1006F000002B00D098470D4B002B00D098470020CE
:10070000002104000D000D48002802D00C48AFF372
:10071000008006F007F82000290007F011F805F026
:100720005BFE00BF000008000000000000000000A9
:10073000001000207C110020DC27002000000000B9
:10074000000000001022014B1A61704700D00350D6
:100750001022014B1A61704700E00350F0B5404D84
:1007600089B001AC0FCD0FC495E8070084E80700FD
:10077000012401213A2001F031F83A4F01212820CB
:1007800001F02CF8384B384601A903938DF812403C
:1007900002F05CFA234604220021022001F0F2FF5D
:1007A000224621460023022001F0ECFF02212346CD
:1007B0000846042201F0E6FF0422234611460020E9
:1007C00001F0E0FF4FF00213284D0226C5F8303645
:1007D000A3F58033C5F82C361C23C5F834664FF4D6
:1007E0004870C5F81C3603F00DF91420FFF7B0FF70
:1007F00003F008F92320FFF7A5FF03F003F9B9215F
:100800003846FFF7A5FF06F03CFEFFF79BFF0023ED
:1008100030461A46194601F0B5FF002321461A4614
:10082000304601F0AFFF234631463046002201F04A
:10083000A9FF002223461046042101F0A3FF3846F9
:1008400002F0CCF900212820C5F83016C5F82C1686
:10085000C5F83416C5F81C1600F0C0FF09B0F0BD8D
:10086000C08A000000C0055000127A0000C003508A
:100870000346054A0549106803448B428CBF4FF07C
:10088000FF301360704700BF101000200080002070
:100890000348044A0449121A921006F01CBD00BF16
:1008A0008896000088960000DC27002008B500F03C
:1008B0002FF8FFF7EDFF124B12498B4212D30020A5
:1008C000114B12498B4218D3FFF702FF186850F8FA
:1008D0002240586840F82240013298688242F5D39D
:1008E0000C33EAE70022F8E71C6844F822000132E2
:1008F0005C68A242F8D30833E4E70022F8E700BFBF
:10090000009500000C9500000C9500000C9500006F
:100910004FF400414FF0FF30124B134A10B59A606C
:10092000D3F8882042F47002C3F888200F4A9166F9
:1009300001F1884101F5005210664FF6DF705066F4
:100940000220C3F8D000BFF34F8FBFF36F8F08248E
:100950004FF440330648C0F88041D36004600B6117
:1009600010BD00BF00ED00E000000000009000504E
:1009700000E100E0014B1868704700BF181000202C
:10098000084B1B6F03F00703022B04D0032B05D089
:10099000012B05D0FEE7044B18687047034BFBE7BB
:1009A00003487047008000501810002020100020DD
:1009B000002D310108B5FFF7E3FF054B1B6FC3F3B3
:1009C00003330133B0FBF3F0024B186008BD00BFE6
:1009D00000800050141000200048704700B4C40488
:1009E000014B1868704700BF20100020054B1860AD
:1009F000054B1B6F03F00703032B01D1FFF7DABF91
:100A0000704700BF20100020008000500048704751
:100A1000002D3101014B1868704700BF1C100020E9
:100A200008B501213A2000F0D9FE03210123042258
:100A3000002001F0A7FE002006F01AFD0122214B44
:100A40004FF46070C3F8442400F0F2FE1E4B00F532
:100A5000D520D3F8F02000F2FC4042F00102C3F8A8
:100A6000F020D3F8FC2042F08072C3F8FC20174A33
:100A7000A3F55D431A60164B0222B0FBF3F0154B51
:100A800001381861C3F8F0204FF48072C3F80423D2
:100A90004FF06043104A0020C3F8B02F0F4AC3F84C
:100AA000802ED3F8002E42F48072C3F8002EFF226D
:100AB00083F82020D3F8002E22F48072C3F8002E91
:100AC00008BD00BF00D0035000ED00E0FF03004070
:100AD000F8590D00000004E055CEACC50900010036
:100AE0004FF06043D3F8802E30B5D20715D50124DE
:100AF0000B4D8440D5F8FC2042F08072C5F8FC20F4
:100B0000D3F8002E2243C3F8002E53F82020002AE9
:100B1000F0D003F82010002030BD1120FCE700BF0A
:100B200000ED00E02DE9F04F9A46564B85B01B785A
:100B300006460F461546DDF83C909DF844B0DDF8BA
:100B40005080002B00F09780072A00F296800E9BC1
:100B5000002B00F09280B9F1000F00F08E80129B04
:100B6000B3F5006F00F38980012803D1109B002B9F
:100B700000F08380444B03EB05131B7B002B7ED0DE
:100B8000424C10220021684607F088FD04EB451412
:100B90001022A7BB3946204607F080FD43F2100320
:100BA0006380BBF1000F03D1E37843F00303E370EC
:100BB000364A0E9B02EB451CCCE90193129B69015E
:100BC000581E9DF84C30C0F30A0003F003039B0647
:100BD00043EA001E53582E48012E00EA03004EEA55
:100BE0000003CDF800A0535017D0B8F1000F2ED15C
:100BF0009CF8023068F304138CF8023027E00021DF
:100C0000204607F04BFD4FF444736380BBF1000FA7
:100C1000CED1E37843F03003C9E713230CF1100E73
:100C2000CCF80C309CE80F008EE80F006FF0030149
:100C3000DCF81C20109B61F39F02012FCCF81C20D4
:100C4000CCF8143003D1CCF81890CCF8043000273D
:100C50000D4A290102EB051342F80180159A284636
:100C60005A60694622469F605E7301F05BFE38461B
:100C700005B0BDE8F08F0748FAE70748F8E70748EE
:100C8000F6E700BFAF270020941200209411002047
:100C90000F80FFF3028000F0018000F0078000F079
:100CA00038B5124B05461B78DBB1E0B106F0A0FB6E
:100CB0000F4A00231146147B54B92B6001251A01F9
:100CC00001EB03131D738C5006F098FB204638BDD2
:100CD0000133082B02F11002EDD106F08FFB05481D
:100CE000F5E70548F3E70548F1E700BFAF27002027
:100CF00094120020048000F0028000F0018000F0D7
:100D000038B506F075FB002305460B4A147B6CB919
:100D10000133082B02F11002F8D101F07BFD074BE3
:100D200028461C7006F06AFB204603E0284606F0C1
:100D300065FB034838BD00BF94120020AF27002098
:100D4000058000F00D4B10B51B78044693B10728C1
:100D500012D806F04DFB0A4B03EB04131A7B2AB1A1
:100D600000241C7306F04AFB204610BD06F046FB2B
:100D70000448FAE70448F8E70448F6E7AF270020FC
:100D800094120020068000F0028000F0018000F044
:100D9000154B13B51868002301908DF8043006F048
:100DA00027FB124B1C7824B106F028FB104802B038
:100DB00010BD01221A7006F021FB0E4B01A81C7316
:100DC0001C7783F82C4083F83C4083F84C4083F830
:100DD0005C4083F86C4083F87C4008238DF8073032
:100DE00001F056FD2046E2E7DC8A0000AF27002034
:100DF000038000F0941200200A4A08B512785AB114
:100E000007280BD8084A02EB00131B7B43B10021D3
:100E100001F01EFD002008BD0448FCE70448FAE785
:100E20000448F8E7AF27002094120020028000F069
:100E3000018000F0078000F00A4A08B512785AB124
:100E400007280BD8084A02EB00131B7B43B1012192
:100E500001F0FEFC002008BD0448FCE70448FAE766
:100E60000448F8E7AF27002094120020028000F029
:100E7000018000F0078000F00A4A08B5127852B1EC
:100E800007280AD8084A02EB00131B7B3BB101F08C
:100E9000C9FD002008BD0548FCE70548FAE70548FC
:100EA000F8E700BFAF27002094120020028000F076
:100EB000018000F0078000F00D4B1B7893B10728EC
:100EC00012D889B10B4B03EB00131B7B73B10A4B98
:100ED0001A6D01238340134214BF01230023002015
:100EE0000B707047054870470548704705487047C4
:100EF000AF2700209412002000000450028000F070
:100F0000018000F0078000F00B4A10B512780C4603
:100F100062B107280CD859B1084A02EB00131B7BB9
:100F200043B101F09BFD2070002010BD0448FCE798
:100F30000448FAE70448F8E7AF270020941200209D
:100F4000028000F0018000F0078000F0184B2DE9CE
:100F5000F0411F6D5B6D1F4000D5FEE701260025A7
:100F6000144CDFF85880374218D02368C8F8506016
:100F7000A3B1A168284601316268A1609847637BEC
:100F8000012B0BD150B90C4B03EB45131A7B60F3CB
:100F900041021A731A7F60F341021A770135082D56
:100FA0004FEA460604F11004DDD1BDE8F08100BF30
:100FB00000000450941200209411002000200450DE
:100FC00070B5044601250B4E04B970BD94FAA4F027
:100FD000B0FA80F005FA00F306EB001224EA0304ED
:100FE0005368002BF0D0117B11B191689847EBE763
:100FF0009847E9E71413002008B5192000F0BAFF5C
:1010000028B14FF00072074BC3F880211A601A20F4
:1010100000F0B0FF28B14FF08062024BC3F880218E
:101020001A6008BD00E100E038B505460C4606F040
:10103000DFF90022044B03EB05135C601A73BDE873
:10104000384006F0DBB900BF14130020074BD3F87B
:101050002404D3F8202403F50053104000F0553049
:1010600020F05020C3F82004FFF7AABF00C00350AF
:10107000074BD3F82404D3F8202403F50053104081
:1010800000F0AA3020F0A020C3F82004FFF798BF9A
:1010900000C0035038B5144606F0AAF90023A36433
:1010A00084F84C302364237F0546012B03D104F1DF
:1010B000600002F01FFB636B1BB100212046E26B56
:1010C0009847284606F09AF9A36D002B03DCBB2154
:1010D000034806F0FEF8A36D0120013BA36538BD6F
:1010E000E08A000038B50546B0B1B9B1B2B1B2F589
:1010F000006F13DC06F07CF995F84C3003F0FF0428
:101100001BB106F07BF9064838BD012385F84C3049
:1011100006F074F92046F7E70248F5E70248F3E7DE
:10112000032000F0012000F0022000F02DE9F04340
:101130001E46002387B080F8543090F85C700E9BF8
:1011400004468846C66343633FBB4FF4406305686B
:101150006B614369092B23D905F12C034435012721
:101160004FF00109A16D0131A16512490494CDE947
:1011700002710196CDF80090216BA06A06F0EFF89D
:101180000023CDE90167CDE90333CDF80090434654
:101190002A46E16A606A06F0C8F807B0BDE8F08345
:1011A00003D105F120033835D9E705F124033C3597
:1011B000D6E700BF951000002DE9F04304468A4FA2
:1011C00089B001AE0D460FCF0FC697E8070086E83D
:1011D0000700002C00F006811DB9844809B0BDE865
:1011E000F08384220021204607F058FA2B68804AB9
:1011F000934200F0B68002F580429342EDD129205F
:101200004FF4A0224FF001087A4926462F46C4E940
:101210000B12206546F8043B0FCF0FC697E80F006E
:1012200086E80F006B7E012B08BF8DF81230AB7E75
:1012300033B1012B40F09C804FF40073ADF81430B3
:101240002B7E0121012B03BF00238DF811304FF4B9
:10125000E133EB683A20039300F0C0FA0121206DDE
:1012600000F0BCFA2B691A1F0C2AB6D8033B286879
:1012700001A98DF8103001F0E9FCAB6923F47F037C
:1012800023F47F4323B92268936843F48033936047
:101290002B7A2879697940EA03406B7AAA7941EA86
:1012A0000341AB7AEE7E42EA0342534B4FEA4818C1
:1012B0004344002E67D11D26C3F81C66C3F83406CC
:1012C000C3F82C16C3F83026E97AEA7942EA0142DB
:1012D000C3F82026E37BE27A277F207A94F80980FE
:1012E000A57A217B94F80D90A67B84F8442084F89D
:1012F0004530002F51D13B46042201F043FA3B46D2
:1013000001224946404601F03DFAA37F0422012B09
:1013100094BF3B4601233146284601F033FAE37F70
:101320003BB90123042294F8451094F8440001F0DD
:1013300029FA06F05DF8314B1A78002A47D10122CC
:101340001A7006F05BF802F09BF9FFF721FD00210F
:1013500004F12400FFF7A4FC014600283AD02848F5
:101360003CE728204FF480224FF0000825494CE745
:10137000022B02D14FF4807360E7032B7FF42DAF73
:101380004FF440735AE71C25C3F81C56C3F83406C3
:10139000C3F82C16C3F830269CE70023012201F085
:1013A000F1F9002304224946404601F0EBF9A37FFE
:1013B0000222012B94BF002301233146284601F06D
:1013C000E1F9E37F002BB4D101230222ABE706F061
:1013D00015F8BAE704F12800FFF762FC00283FF493
:1013E000FDAEBCE70848F9E6348B0000022000F0AF
:1013F00000C005500200050000C00350B0270020C7
:10140000092000F002000400012000F02DE9F34162
:101410001F46037F0546012B8846164611D03A46E3
:10142000FFF760FE044640B96EB1089B3246009358
:1014300041463B462846FFF779FE204602B0BDE80C
:10144000F081024CF9E7024CF7E700BF082000F0FA
:10145000022000F0044BD3F88420D206FBD4D3F84A
:101460008400C0F3811070470040005038B5104B25
:101470000546D3F820310C4603F00303022B0BD0B2
:10148000032B0DD0012B0FD1FFF774FA052305B103
:10149000286004B1236038BDFFF7A2FA0323F6E702
:1014A000FFF7B4FA0223F2E701230020EFE700BFC1
:1014B00000800050F7B50027114B0197D3F8804109
:1014C000064604F00304012C0D4608D0022C12D06D
:1014D00041F2B1310B4805F0FCFE3C4604E03946D0
:1014E00001A8FFF7C3FF0F240EB1019B336005B1C4
:1014F0002C6003B0F0BDFFF789FA0190F4E700BF5C
:1015000000800050508B000038B51A4B0546D3F8C8
:1015100024010C4600F00700062821D8DFE800F07F
:10152000280410181C0C1400FFF724FA052305B139
:10153000286004B1236038BDFFF71CFA0623F6E7E4
:10154000FFF74EFA0323F2E7FFF74AFA0423EEE728
:10155000FFF75CFA0223EAE705F0C8FE0723E6E797
:10156000054840F6A87105F0B4FE00231846DEE7F2
:101570000123DCE700800050508B000038B5104B91
:101580000546D3F840310C4603F00303022B0BD081
:10159000032B0DD0012B0FD105F0AAFE092305B1B5
:1015A000286004B1236038BDFFF734FA0823F6E75A
:1015B00005F0A1FE0B23F2E701230020EFE700BFB7
:1015C0000080005038B5164B0546D3F800020C4693
:1015D00000F00700042819D8DFE800F020030B0F03
:1015E000130005F085FE092305B1286004B12360CE
:1015F00038BDFFF70FFA0823F6E705F07CFE0B2352
:10160000F2E7FFF7D7F90E23800AEDE7054841F22C
:101610006F4105F05EFE00231846E5E70123E3E78E
:1016200000800050508B000038B5124B0546D3F8AF
:1016300040320C4603F00303022B0BD0032B0DD0DA
:10164000012B0FD105F054FE092305B1286004B128
:10165000236038BDFFF7DEF90823F6E705F04BFEFF
:101660000B23F2E7044841F2FA3105F032FE002381
:101670001846EAE700800050508B000038B5104B48
:101680000546D3F860310C4603F00303022B0BD060
:10169000032B0DD0012B0FD105F02AFE092305B134
:1016A000286004B1236038BDFFF7B4F90823F6E7DA
:1016B00005F021FE0B23F2E701230020EFE700BF36
:1016C0000080005010B40F4C0B46D4F8204204F0B8
:1016D0000304012C0ED0022C10D008B100210160AF
:1016E0000BB100221A6040F6D27107485DF8044B36
:1016F00005F0EFBD5DF8044BFFF7B8BE5DF8044B95
:10170000FFF73CBF00800050508B0000B0F5207FF9
:1017100010B534D009D8B0F5007F2AD003D898B1DD
:10172000B0F5C07F10D0002421E0B0F5607FFAD181
:10173000154BD3F88030C3F301149B0617D5032C47
:1017400015D040F295210FE00F4B1C6F230B13F0C7
:101750000E0FC4F303340AD0072C08D00F2C06D088
:10176000032C04D040F28521084805F0B2FD601C2E
:1017700010BD054BD3F89040C4F30464F7E7024B67
:101780001C6FC4F38024F2E700800050508B0000EF
:101790004FF400320E4B10B504469A660020FFF756
:1017A000B5FF604341F671320A4C0B4BA04294BF27
:1017B00000200120D969DA639A6822F4401242EAD3
:1017C00000529A60CA0344BF0022DA6310BD00BF12
:1017D00000900050005A62020000035070B54609A4
:1017E00004460D460ED140F22F310D4805F071FD33
:1017F000334604F01F047DB103F580530122A2405B
:101800001A6070BD012E05D0064B074A022E18BF84
:101810001346EEE7054BECE703F50053EEE700BF98
:10182000508B00006880005060820050648000503F
:10183000002330B5802885B00446019374D02AD89F
:10184000002877D0A0F12004412C32D8412C30D888
:10185000DFE804F070737073888888887373923F30
:10186000A8653F7373732F2F2F2F2F2F8D577373EF
:1018700073B2AD732F2F2F2F2F2F2F2F2F2F2F2FEF
:101880002F702F707070882F2F2F2F2F2F2F2F2F0B
:101890002F2F2F2F7070B0F5806F63D024D8B0F544
:1018A000007F55D00BD8B0F5807F6AD0B0F5C07FEF
:1018B00040D040F29441434805F00BFD37E0B0F5CD
:1018C000607F45D0F5D8B0F5207F36D0B0F5407FA9
:1018D000EFD1FFF76FF804464FF42070FFF716FFC3
:1018E000B4FBF0F4640831E0B0F5C06F5AD00DD805
:1018F000B0F5A06F3BD0B0F5B06F3DD0B0F5906FB4
:10190000D7D1002101A8FFF7FFFD10E0B0F5E06F8F
:101910004DD0B0F5F06F4FD0B0F5D06FC9D10021E8
:1019200001A8FFF74FFE02E0FFF72AF801900198A7
:1019300005B030BDFFF73EF8F8E7FFF73BF8044687
:101940004FF42070FFF7E2FEB4FBF0F40194EEE7F1
:10195000FFF716F805462046FFF7D8FEB5FBF0F571
:101960000195E4E7002101A8FFF780FDDFE70021F2
:1019700001A8FFF7A7FEDAE7002101A8FFF79AFD0B
:10198000D5E702934FF0E0231B695B0705D5FFF70E
:1019900011F80290029B0193C9E703A902A8FFF77F
:1019A000EDFDF7E7002101A8FFF7E8FDBFE7002103
:1019B00001A8FFF739FEBAE7002101A8FFF75EFE94
:1019C000B5E700BF508B000008B58020FFF730FF5F
:1019D000034B98429EBF4FF48032024B1A6708BDFA
:1019E000005A620200A000501FB50023B0F5807FAE
:1019F00001937FD027D8382800F09C800BD824385A
:101A0000092810D809280ED8DFE800F06F6F6F6F33
:101A10000D0D670D3685522867D007D83D283AD07E
:101A20003E2800F08C8040F2795152E08028FAD1B3
:101A3000454B1B6F03F00703013B032B47D8DFE83F
:101A400003F044413F75B0F5D06F64D019D8B0F5BC
:101A5000A06F6FD00AD8B0F5806F46D0B0F5906F08
:101A6000E1D1002001A9FFF74FFD3AE0B0F5B06FDA
:101A700033D0B0F5C06FD6D1002001A9FFF77EFDAD
:101A80002FE0B0F5006FECD00AD8B0F5E06F56D07B
:101A9000B0F5F06FC7D1002001A9FFF7EFFD20E0FE
:101AA000B0F5086FBFD1284BD3F8003103F0030322
:101AB000022B35D0032B37D0012B39D1FEF790FF05
:101AC000032300E0052301930BE00223FBE740F230
:101AD000C6411E4805F0FDFB03E0002001A9FFF709
:101AE000E9FC019805B05DF804FB002001A9FFF7AF
:101AF000BDFCF6E702934FF0E0231B695B0705D5B9
:101B0000FEF758FF0C230393039BDCE703A902A80D
:101B1000FFF734FDF8E7002001A9FFF753FDE0E7E8
:101B2000FEF778FF0823CEE705F0E0FB0723CAE7BE
:101B30000123C8E7002001A9FFF7C4FDD1E7002079
:101B400001A9FFF771FDCCE700800050508B000029
:101B50004FF40022034B5A66012203F580439A6238
:101B6000704700BF00900050F8B5036804460F2B83
:101B700004D940F66D316C4805F0ABFB63680F2B60
:101B800004D94FF43761684805F0A3FBA3680F2B15
:101B900004D940F67331644805F09BFB237B0F2B7F
:101BA00004D940F67631604805F093FB637B0F2B38
:101BB00004D940F679315C4805F08BFBA37B3F2BC1
:101BC00004D940F67C31584805F083FBE37B3F2B7A
:101BD00004D940F67F31544805F07BFB2369032B81
:101BE00004D940F68231504805F073FB6369032B3A
:101BF00004D940F685314C4805F06BFBE369012BB5
:101C000004D940F68831484805F063FB8020FFF78F
:101C1000EBFE032800F087804FF40022434B0221A3
:101C20005A6645F60E03424AC2F88030414B99622B
:101C3000012103F580539962936DD903FCD4D4E953
:101C400000131B0543EA0163E17B94F820500B432A
:101C5000217BE77E43EA0143617B6D0143EA013367
:101C6000A17B43EA811313619169D4E904031B0644
:101C700043EA806301F000410B43A17E94F8230006
:101C80000B43217E43EA0143617E43EA01239361D2
:101C9000136AE66923F00D0394F8221043EA8703E0
:101CA000002E2DD11362966A94F8213045EA031371
:101CB00026F033052B4343F0010393621E4D1C4B6A
:101CC0009A6D35EA0202FBD102221A4DAA621A6508
:101CD0009A6D5200FCD41A69A56822F4700242EA97
:101CE00005521A614FF00042124B9A6119B9022253
:101CF00003F580539A6278B90122104B9A620BE087
:101D0000334343F008031362936A23F0330303431E
:101D10002B4343EA4103936294F824301BB1044BF4
:101D2000074AC3F88020F8BD508B00000090005097
:101D300000C0005000D000500300014000E00050FF
:101D4000F1A7FFFF014B93F900007047B127002076
:101D5000436810B5072B044604D940F6B3512A480E
:101D600005F0B7FAA368032B04D940F6B55126480D
:101D700005F0AFFA2378032B04D940F6B751224877
:101D800005F0A7FA94F90130002B04DA40F6B951B6
:101D90001D4805F09EFA4FF480011C4A6378516695
:101DA0004FF4D151022002F5B832516218494F2B3D
:101DB00048604FF0010028BF4F2301F58051486073
:101DC0001169C903FCD4217843EA01235361D4E9A2
:101DD00001131B0143EA0123617B0B43217B43EA8F
:101DE00041039360E37BA17B1B0143EA4113617CC8
:101DF0000B43217C43EA41035360A37C13B16FF48E
:101E0000D153536210BD00BF508B000000900050B2
:101E100000100250014B1880704700BF6E11002067
:101E2000014B1880704700BF6C110020B0F5207F77
:101E300010B565D00ED8B0F5007F4FD003D800B3F1
:101E4000B0F5C07F1DD040F21231BDE810403448DB
:101E500005F03FBAB0F5607FF5D14C1E012C06D9D4
:101E6000042904D04FF43D712D4805F032FA2D4A73
:101E7000D2F8803023F0300343EA0413C2F88030F4
:101E800010BD4C1E012C0AD9102903D8264BCB407B
:101E9000DB0704D440F2C721214805F01AFA05F007
:101EA00078FA05F084FA4FF48031204B1D4A196707
:101EB000136F23F4704343EA04331367FEF77AFD8C
:101EC0000446FFF7C7FAC0F10201204605F069FA9F
:101ED00000F03EF8BDE81040FFF776BD4C1E1F2C09
:101EE00004D940F206310E4805F0F3F90D4AD2F854
:101EF000903023F0F85343EA0463C2F89030BFE710
:101F00004C1E012C04D94FF44371054805F0E1F94A
:101F1000044A136F23F4806343EA84231367AFE713
:101F2000508B000000800050100101000090005014
:101F300008B50121022000F041F805F02AFA05F069
:101F400036FA4FF48032014B1A6708BD00900050FA
:101F500008B54FF4C070FFF76BFCBDE808400449BA
:101F6000884294BF012102214FF42070FFF75EBF29
:101F700080F0FA02C3B23F2B10B5044604D94FF4E7
:101F80004D71074805F0A5F9064B620953F8220088
:101F900004F01F04E040C04300F0010010BD00BF8A
:101FA0009B8B000000E100E0034A0179D36E23F02F
:101FB00030030B43D366704700400050F8B5044629
:101FC000244BD3F88420D006FBD4D3F88430C3F359
:101FD00081139C423CD0FEF7D3FC012C05460BD16B
:101FE0001D4B984204D940F292711C4805F071F9DA
:101FF0000121284605F0D5F905F0F3F94FF00072FC
:10200000174B07465A66204605F0FBF94FF48063EC
:10201000104E621E93403367736E9A0103D4D6F854
:1020200084309B060AD5384605F0DFF9022C0FD123
:102030002846BDE8F840002105F0B3B9D6F8843051
:102040009906E9D54FF4F461044805F042F9E3E755
:10205000F8BD00BF00400050005A6202E78B00004C
:102060000060005010B50C4608B9FEF789FC074B1C
:1020700021461B783BB1064B984204D80120BDE8AD
:102080001040FFF79BBF0220F9E700BFB2270020F6
:10209000005A62024FF0004238B5264B26495A6674
:1020A00001224A604AF6CD3103F50B235D6C1964B9
:1020B000154030BB9968C9070BD4002401221F4B7F
:1020C0005A6015B11E4B1F4A1A6405F09BF9204651
:1020D00038BD1A498A601C4AD96ACC0705D4904297
:1020E00001D10724EAE70130F6E79042E5D1F8E7AD
:1020F0000132DC6A14F0080406D08A42F8D10724C1
:10210000DFE700221049F4E78A42F8D020220B4B87
:102110000B495A620122A3F580539A6023460A4A6A
:10212000486A800603D49342E9D00133F8E793422A
:10213000C7D1E4E7009000500050095000600950FA
:10214000004009503254FFFF40420F004FF0004260
:1021500038B5174B174C5A66012203F50C235A6009
:102160004AF6CD33656C2364437893401343124A97
:10217000D363C3788178A2689B0043EA011322F0FD
:1021800074021343A3600279837943EA0223236133
:102190004279C37943EA022363610078FFF77AFF4B
:1021A000EB0744BF054B236405F02CF9012038BD33
:1021B0000090005000400950004000503254FFFF92
:1021C00010B5044605F023F9002341F20202084944
:1021D000E360A360226104F50052E3616361A361DF
:1021E00023626362E362A3645164A36210BD00BF13
:1021F0007F370C0138B5154B044698420D4604D084
:102200004FF4B371124805F064F825B92046BDE8D3
:10221000384005F0FCB8012204F580535A6040F2C2
:10222000FF71204605F00F0205F0EDF822637821DA
:1022300005F0E9F805F001036A0748BF43F002031F
:10224000226C02F003029A42FAD138BD0000035A10
:10225000328C0000F8B506460C46154622B94FF4FC
:102260000971434805F035F8424B9E4202D184B9CA
:1022700038240AE040F227213D4805F02AF844B905
:1022800040F276313A4805F024F82046FFF7D0FABC
:1022900004467368012B04D040F25921344805F0FC
:1022A00018F8B36803F0E003402B42D009D893B18B
:1022B000202B1AD040F29B21BDE8F8402C4805F0B5
:1022C00008B8602B42D0802BF4D105EB4503A34224
:1022D00047D801230DE0B5EB141F04D940F281214A
:1022E000234804F0F6FF102303E0B5EBD40F1AD80F
:1022F00008236B436401B4FBF3F41F4F203CB7EB9E
:10230000C40F4FEAC40504D240F2A621184804F0D5
:10231000E0FF30463D40012105F075F8B562BDE8AB
:10232000F84005F070B840F28621114804F0D1FF62
:10233000DEE70623B4FBF3F3AB4201D30623D8E771
:1023400040F28B210A4804F0C4FFF7E7B5EB940F85
:1023500001D80423CDE74FF42471054804F0B9FFF8
:10236000F7E740F29521024804F0B3FFB1E700BF60
:10237000328C00000000035AF8FF7F00436870B5FC
:1023800004460D4616461BB140F2FF7105F03BF8BE
:102390002046FFF715FFE9896B7B22690B43298AE9
:1023A00022F44C520B4322F0030213432361A26830
:1023B0002B7B297E22F0804222F0E2020B43134362
:1023C0006A691343A360AB681BB9A36843F0004379
:1023D000A360EB69002B57D0987A1A7A4004A16861
:1023E00040EA82503F4A0A4010439A8802F4C042B1
:1023F00010435A7840EA82005A7B40EAC2009A7B36
:1024000040EA02109A7840EA8220A060E168D3E9AD
:10241000042021F4D81121F4C06102430A439979C0
:1024200042EA8122D97942EA4122E2601A78012AFD
:1024300005D1E26842F00402E2602B4A06E0032A7A
:102440003ED1E26842F00402E260284A0121C2F86B
:10245000C0105A7A04F580510A621AB1E26842F457
:102460000062E260DA7A4AB1E268214942F400424D
:10247000E2601A7B02F00F02C1F88020E269DB7B88
:1024800022F003021343E36136B196F8203004F5DD
:102490008051CBB101238B6105212046FFF7AAFEB5
:1024A000AA681AB120466968FFF7D4FE2046297849
:1024B000FFF7A0FE236CDB4313F4405FFAD170BD3D
:1024C000023A012AC1D9B8E7626996F8223096F833
:1024D000210022F009020343134343F001034B613F
:1024E000DAE700BFE39BBDFF00E4035000D40350D4
:1024F0000090035038B5294B054698420C463FD111
:1025000019B98C21264804F0E4FE3820FFF76CFA54
:10251000083808283DD8234B0341DB0739D4637BB7
:10252000032B03D9AA211E4804F0D3FE237B802B62
:1025300003D0AC211A4804F0CCFE6369B3F1804F9C
:1025400003D0AE21164804F0C4FE238A23F40053BE
:102550009BB2B3F5805F03D0B021114804F0B9FEFF
:10256000A368013BB3F5165F03D3B2210C4804F016
:10257000B0FE21462846BDE838400022FFF7FEBEE7
:102580008A21074804F0A5FE1CB98C21044804F0F8
:10259000A0FE9E21024804F09CFEC0E70000035A02
:1025A000328C0000F4FEFFFF38B5114B054698420F
:1025B0000C4603D070210F4804F08BFE1CB9722129
:1025C0000C4804F086FE237B802B03D1762109483A
:1025D00004F07FFE637B032B03D97921054804F0C7
:1025E00078FE21462846BDE838400022FFF7C6BEE7
:1025F0000000035A328C00001F2970B504460D46B6
:10260000164603D99121064804F063FE2EB104F565
:1026100080540123AB40236070BD04F50054F8E7FB
:10262000808C0000032838B504460D4605D80B4BB6
:1026300033F81030CB40DB0704D440F22D4108487A
:1026400004F047FE30220123544341F2100204F10A
:10265000A044AB4004F57034A35038BD648D000035
:10266000CB8C0000032838B504460D4605D80B4B2B
:1026700033F81030CB40DB0704D440F2FE31084879
:1026800004F027FE30220123544342F2100204F1E9
:10269000A044AB4004F57034A35038BD648D0000F5
:1026A000CB8C00002DE9F84F032807460E46144650
:1026B00098469DF828A09DF82C9005D8274B33F814
:1026C0001030CB40DB0703D4BF21254804F001FEC6
:1026D00086EA0403032B03D9C121214804F0F9FD44
:1026E000072C4FF0030506F0030625D84FEA840BAC
:1026F00005FA0BF529461B4807FA0BF204F0A9FE70
:102700002946194806FA0BF204F0A3FE4246214678
:102710001648FFF771FF524621461548FFF76CFF38
:102720000123144AA340C2F8203421464A46BDE89A
:10273000F84F1148FFF760BFA4F1080B4FEA8B0B6D
:1027400005FA0BF529460D4807FA0BF204F081FE55
:1027500029460B4806FA0BF2D6E700BF648D00004D
:10276000178D000000C4035008C4035010C4035068
:1027700014C4035000E0035024C4035004C40350A5
:102780000CC403500328F8B504460D4616461F46F0
:1027900005D81C4B33F81030CB40DB0704D44FF482
:1027A000B071194804F095FD26B129462046CFB1F5
:1027B000FFF738FF04EB4403072D4FF00F014FEAFA
:1027C000031312D8A80006FA00F281400F481844FB
:1027D00004F03FFEAEB92946204677B1BDE8F84087
:1027E000FFF720BFFFF73EFFE4E7A5F108008000F8
:1027F00006FA00F281400648E9E7BDE8F840FFF735
:1028000031BFF8BD648D0000178D000004C0035077
:102810000CC003504FF400120B4B10B5C3F88020CE
:10282000BFF34F8FBFF36F8F0024FF22074B21466A
:102830005C6520209A625C60FEF7D0FF2146BDE80F
:1028400010402120FEF7CABF00E100E00000045064
:10285000072838B504460D4603DD7721084804F003
:1028600038FD1F2C03D99121064804F032FD064A99
:10287000064B002D08BF13460122A2401A6038BD46
:102880006C8D0000808C00004010045040200450EB
:1028900010B5044618B991211F4804F01AFD237899
:1028A0001B0613F0604F03D092211B4804F011FD6A
:1028B000E3780F2B03D9A321174804F00AFD012167
:1028C0002020FEF78BFF01212120FEF787FF012248
:1028D000124B5A60227812069A606178A27842EA16
:1028E00001429A61FF229A6200229A631A644FF0B1
:1028F00000425A654FF0FF324FF4001103F50053C8
:102900001A65074AC2F88011E3781B01DBB282F82E
:102910001533116010BD00BF6C8D00000000045025
:1029200000E100E02DE9F0410126C3B20728054689
:102930000C46904606FA03F603DDEC21354804F018
:10294000C8FC1CB9ED21334804F0C3FC236823F410
:102950007C1323F00F031BB1F0212E4804F0B9FCC7
:10296000A37A1B0413F47C0F04D040F20911294808
:1029700004F0AFFCE37A1B0513F07E6F04D040F245
:102980000B11244804F0A5FC237B5B0513F0FE5FCC
:1029900004D040F20D111F4804F09BFC1E4B1F4F4A
:1029A0001E65226803F5005343F82520302202FB00
:1029B0000575637B2B66E37AA27A1B0543EA024323
:1029C000227B43EA4253EB6528F003032B6704F0B4
:1029D0000FFD7B6D33437B65237A13B13B6C33432F
:1029E0003B64637A13B1BB6B3343BB632279A37936
:1029F00043EA0243084A93616179E37943EA014378
:102A000007498B61054B56639E64BDE8F04104F0B5
:102A1000F5BC00BF6C8D0000002004500000045085
:102A20000010045010B50124C3B2072804FA03F4BF
:102A300004DD40F29711074804F04BFC04F0D8FC89
:102A4000054B5A6D22EA04025A659C62BDE81040AB
:102A500004F0D4BC6C8D00000000045010B50124BB
:102A6000C3B2072804FA03F404DD40F2B5110A48A2
:102A700004F02FFC04F0BCFC084BDA6A224208D1B7
:102A80005B6B9C430CBF0124002404F0B7FC204680
:102A900010BD0024F9E700BF6C8D00000000045059
:102AA000022838B505460C4603D94C210C4804F0E1
:102AB00010FCE378627821785B0143EA8203227993
:102AC0000B4343EA02130C226A4302F1B042136340
:102AD000012902BFA278034B43F8252038BD00BF6F
:102AE000B88D0000E880035008B54FF0B0435A6835
:102AF0006AB958B15B680BB104F0BBFC01210D4B06
:102B0000596004F0B6FC4FF0B043D96008BD5B6873
:102B10000BB104F0AEFC0028F0D104F0AAFC4FF099
:102B2000B0430222DA6004F0A4FC0122024B5A6096
:102B3000ECE700BF00100058002000584FF0B041F3
:102B40004B6810B50BB104F094FC01220B4BC47818
:102B50005A608378934043EA84034478234304799A
:102B600043EA0413447943EAC4038B60044B5A607C
:102B70000378C3F10203CB6010BD00BF00200058F2
:102B800000100058024B1868C0F30740704700BFA0
:102B90000080E00F70B506460C46154622B940F29B
:102BA0008E210C4804F095FB24B94FF42070FEF7F9
:102BB0003FFE04466D00013CB4FBF5F4064B2502D4
:102BC00013EA042304D040F2B321024804F081FB4D
:102BD000F56170BD048E0000070080FF174B10B533
:102BE0009842044608D003F58043984204D040F24E
:102BF0004241134804F06DFB012204F580535A60F2
:102C000040F6AA6341F20502636100230D49A36007
:102C1000E365E26004F500522361E361E3649164DB
:102C20000649A3658C4203D123650023636502E056
:102C300005498C42F8D00123536010BD00C00550F7
:102C4000048E0000FFFF01000000065038B52F4B36
:102C5000044698420D4608D003F58043984204D0BC
:102C600040F269312A4804F034FB2046FFF7B6FFF2
:102C7000012204F580535A602B8AA26843F00103B5
:102C80001343AA7B43EA8223A360A3682A7D43EA15
:102C90004273A360AB7C5BB11C4AEB7C94422DD1A8
:102CA000A2F51032C2F88C31E36D43F08003E36586
:102CB0002B7B2046D5E9011243F48053E360FFF7F4
:102CC00069FF6B7B0BB1102363616B7D1BB1A36844
:102CD00043F48033A360AB7D1BB1A36843F400438E
:102CE000A360EB7D2A7E1B07120503F0E04302F48C
:102CF000E0021343A3652B78636138BD054A944213
:102D000004BFA2F52032C2F89C31CDE700C00550C7
:102D1000048E00000000065007B56B46054A106897
:102D2000516803C36846FFF711FA002003B05DF84D
:102D300004FB00BF518E000013B50024064A68460C
:102D4000536F43F00103536700948DF80440FFF77D
:102D50002BF9204602B010BD0040005030B58BB0BA
:102D60006C46184D0FCD0FC40FCD0FC495E803006E
:102D700084E80300144BD3F84C2112031DD5A3F5AE
:102D8000FE431C884FF6FF739C4208BF8C248DF8CD
:102D90001940FEF7D7FF204480F308008DF8180093
:102DA0000A48FDF723FE6846FEF7DEFE4FF4FA7090
:102DB000FFF736F800200BB030BDD3F85041E4B235
:102DC000E5E700BF5C8E00000080E00F00F04902E4
:102DD00030B5094D87B001AC0FCD0FC42B6801A8E9
:102DE00023603F238DF80530FEF7B2FF3220FFF756
:102DF00011F8002007B030BD848E00006FF004038E
:102E0000502110B50A480B4C13F0800F03F101025A
:102E100007D12344402A83F800131346F4D100203D
:102E200010BD03F00F03043B034419761346EBE790
:102E300000ED00E000E100E010B5044604F0D1FA36
:102E4000024B1C6004F0D1FA002010BD14150020C4
:102E500010B504F0C6FA034B1C6804F0C6FA20460D
:102E600010BD00BF141500202DE9F0438DB01C46A5
:102E700006AB064689461846904600211822149D46
:102E800005F00CFC227903460AB18DF81820C8F829
:102E90001C3063790127C3F10203DBB2CDE90333B0
:102EA000644B30460293644B4A4601930023294603
:102EB0000093624B8DF81E7000F0E2FA064600287F
:102EC00040F09280A3683946EB63A3693A20EB6433
:102ED000237DDFF8749185F8483023696B64237B88
:102EE00085F84030236A6B65237F85F85030A36AEC
:102EF000EB6594F8243085F858302368AB63FEF70F
:102F00006DFC3B4604222169207BFFF73BFC3B46DE
:102F10000222A169207DFFF735FC88F8006085F862
:102F200060603946A068FEF759FC6379394633BBC7
:102F30004FF4C060FEF752FCD9F82032414623F02E
:102F4000030343F002032068C9F82032FFF7D2FAE6
:102F500002223B4B2169C3F8C020227B42EA014296
:102F6000C3F8D020A169227D42EA0142C3F8CC20F7
:102F70002379032B5BD8DFE803F02E193B544FF481
:102F80008060FEF72BFCD9F82032414623F0030382
:102F900043F00103C9F820322068FFF705FB95F8DC
:102FA000603043F0040385F86030D1E7002795F8DE
:102FB000603043F0010385F8603002220023216A6B
:102FC000207FFFF7DFFB226A237F43EA02431D4A8B
:102FD000C2F8C43097B90422AB6B052103F58053C6
:102FE00020689A64FFF706F930460DB0BDE8F0831B
:102FF00095F8603043F0020385F860300023042226
:10300000A16A94F82400FFF7BDFB01230D4AA16AD1
:10301000C2F8C03094F8243043EA0143C2F8C83003
:10302000D9E795F86030012743F00303C3E723266F
:10303000DAE700BFE97400005975000089750000E7
:1030400000C4035000D403500080005010B500208D
:10305000144604F020FA022804D018B1C321024813
:1030600004F037F9204610BD988E0000034B022271
:10307000186800238068194603F0C0B91C110020AD
:10308000302238B5037A0446534303F1A04303F5D5
:103090008023DD6ED0E9032313449D4201D8AA4268
:1030A00004D94FF43E71054804F013F9D4E9030341
:1030B00003449D4218BF284638BD00BF028F000060
:1030C00030B51446054687B01046FFF7D9FF63694F
:1030D000024683423CBFD4E903315B181B1AABB1F3
:1030E0001249049403910021CDE901310123009399
:1030F0002846D4E9001304F032F920B14FF43471BA
:103100000B4804F0E6F8002007B030BD01226276DB
:1031100094F82D20002AF6D084F835301321E36985
:10312000204698472046636A9847ECE7C130000084
:10313000028F00002DE9F04788B004460F4616467E
:10314000984604F055F98146002E00F0AD80237EAC
:1031500003F0FF02002B00F0E0802046FFF790FF15
:1031600063698246984206D1637E23B940F27F317B
:103170006B4804F0AEF86569AA459DBFD4E90332F7
:103180009B185D1BAAEB0505B54228BF354604F028
:103190002FF994F82D308246002B40F096802A4675
:1031A0003846616905F085FA63692E462B446361F0
:1031B0002CE06069037803F0FD01112940F0828062
:1031C000216B884205D1A3F111014B424B4184F898
:1031D0003430013E6369216B01328B4203F10103FC
:1031E00008BF236363619542E3D1D4E90323216BD4
:1031F0001344994208BF2263216B8A4201D88B4253
:1032000004D84FF46D71464804F063F8D4E9032301
:1032100061691344994208BF626161698A4201D8B9
:103220008B4204D84FF471713D4804F052F80023EA
:10323000207A6376FDF7E0FD20B140F21131384885
:1032400004F047F82046FFF71BFF636983423FD134
:103250000023E568237694F82D30656103B125637A
:103260002046636A98472F4B0494039300230293EC
:1032700023692A4601930123009363682168207A19
:1032800004F06DF820B140F22D31254804F021F80A
:10329000207AFDF7D1FD20B140F25131204804F0F1
:1032A00018F8504604F0AAF84846C8F8006004F040
:1032B000A5F8D8F80030002B0CBF1B20002008B068
:1032C000BDE8F08707F8013B84E72E4600228AE735
:1032D0000123207A23760DF11E01FDF715FE20B1A2
:1032E0004FF450710E4803F0F4FF9DF81E30207A21
:1032F000002BCDD00DF11F01FDF7DEFD20B140F216
:103300004631074803F0E5FF9DF81F10207A002999
:10331000BED12246FFF7D4FEBAE71646C4E700BF87
:10332000028F0000C130000070B504460568FFF749
:103330008FFD844202D10020FFF77EFD95F93630E3
:10334000002B11DB012203F01F015B099B0003F13D
:1033500060438A4003F56143C3F88021C3F88020AD
:10336000BFF34F8FBFF36F8F287AFDF785FD20B134
:103370004FF4ED71104803F0ACFF287AFDF7E2FC42
:1033800020B14FF4EF710C4803F0A3FFFDF7B8FC38
:1033900038B10A4B984204D04FF4F171064803F05B
:1033A00098FF00232846C4E90033C4E90433A3602E
:1033B000AB6ABDE870401847028F0000058000F03E
:1033C0002DE9F84304460D4690F82C80DFF8AC90C8
:1033D0008E18AE4228D094F82D3083B104F008F84E
:1033E000237E07461BBB226B63699A4204D040F2DE
:1033F000F911484603F06DFF384603F0FFFF94F8DB
:103400003430002BE5D0B8F1000F06D02B780A2B12
:1034100003D10D212046E36998472046E36915F85A
:10342000011B98470028D4D00020BDE8F88320462F
:10343000FFF726FEE1680138884238BF2069D4F8DA
:1034400030C03CBF00F1FF30401803469C450BD014
:1034500013F80129112A01D0132A07D1A2F111036F
:103460005A425A4184F834202063C5E7994282BF0A
:10347000236903F1FF335B18E8E700BF028F000008
:10348000F0B50C460646154687B038220021204686
:103490001F4605F003F995E8030000232A69237607
:1034A000EB6884E80300C4E904232A7DE36084F820
:1034B0002C20AA7D2363012384F8343084F835302E
:1034C0000C9B84F82D2023620D9BE76163620E9BA9
:1034D000A3622B7A84F83630204B34607360204B23
:1034E000B360204B3361204B7361204BF360FDF7D9
:1034F0004FFC30B11E4B984203D01024204607B039
:10350000F0BD002104F10800FDF7CAFB0028F4D14A
:103510000127184B0494CDE9020323690097019316
:103520006368E2682168207A03F019FF04460028E6
:10353000E3D195F90830002B0BDB03F01F025B0988
:103540009B0003F16043974003F56143C3F880712A
:103550001F603046FFF770FCD0E700BFC1330000AA
:10356000353100003B760000417600002933000031
:10357000038000F0C130000030B50E4C416123687B
:103580008BB9206083600DE0891A9A681D464161FD
:103590006AB113465A698A42F6D935B1A860521AFF
:1035A00083605A6130BD0025F4E72060F7E798603A
:1035B0008260F7E72015002038B504F046F80025B2
:1035C000084B094C1A682368C31A2AB123B1516900
:1035D000994203D3C91A5161206038BD55615B1A05
:1035E0009268F2E7201500201C15002038B5134D15
:1035F0002B685B6993B1124A022014681C4404F0E2
:103600002BF8204600F092F900230E492A680B702F
:10361000D088800709D501230B7038BD022004F043
:103620001BF8022000F0CCF9EEE79268002AF4D0F3
:1036300050690344012BEBD9EFE700BF20150020B0
:103640001C150020B427002000220C490B687BB118
:1036500083420AD183687AB1936083681BB15A6947
:1036600041690A445A61002070471A469B68EEE798
:103670000028EFD0022070470B60EEE720150020F5
:1036800070B503F0B5FE144E05463478FCB9134B03
:103690001C60134B1C60134B1C8000F003F90120CD
:1036A00003F0DAFF03F0E4FF0F4B0246186020B985
:1036B000284603F0A3FE232070BD234640F2E731E5
:1036C0000A4802F0F9FC0A4B1860012333702846BF
:1036D00003F094FE0020EFE7B5270020201500201E
:1036E0001C150020AC2700202415002018FCFFFF2B
:1036F0001815002070B5044640B303F072FE144E56
:103700000546FFF759FF3068A04209D02046FFF771
:103710009BFF0446B0B1284603F067FE204670BD0B
:10372000FFF792FF04460028F5D133683BB9022029
:1037300000F02EF9284603F058FE0024EEE7FFF7CC
:1037400055FFF7E73368002BF4D1F0E72224E5E7D3
:1037500020150020C2072DE9F04704460BD54D4A3D
:10376000138801339BB21380FFF726FF4A4B1B6877
:103770000BB1FFF73BFFA30740F18A8003F038FE4F
:103780004FF0000905464E46FFF716FFC846424F68
:103790003C680CB163698BB10022404B012E1A705A
:1037A00003D119F0020F18BF1E70002C6CD0FFF768
:1037B0001DFF2846BDE8F04703F020BE23465A69A6
:1037C0003AB91A792179914288BF1C469B68002B2F
:1037D000F5D1284603F012FE2569DDB103F035FF6F
:1037E000A269A0EB02094FEAE9734D4578EB0303A8
:1037F00011DA23691344A361E368B4F80690013633
:1038000013B120462168984703F0F2FD0546FFF703
:10381000D3FEBDE7A94603F0EBFD82462046FFF745
:1038200013FF504603F0EAFD2369002BE4D0B5EB0B
:1038300009054FEAE97363EB4303002B04DA40F216
:103840002B51174803F045FDA38B33B1E28B134492
:103850009BB2B3F57A7F0FD2E38303F0C9FD8146B3
:1038600029462046FFF788FEA3692269484613448B
:10387000A36103F0C3FDBFE7A3F57A73E383A369F4
:10388000013D013BA361E8E7022000F081F890E7E9
:10389000BDE8F087AC27002020150020B3270020CA
:1038A000628F00001FB500241D4B012118689A8803
:1038B0000290D3F806009B7A00903E20ADF80C20D1
:1038C0008DF80430FDF78AFF8DF8084003F0BBFE49
:1038D0008DF80C0002A8FFF731F9694601208DF838
:1038E0000040FFF7DDF84FF0B04240F2FF3193693E
:1038F00023F47F7323F0030393610A4B5961936AA6
:1039000013F00803FBD113620120FFF7EDF84FF429
:103910008052054BC3F880211A6004B010BD00BF6F
:10392000C18F00000020005800E100E010B50446FF
:1039300003F057FD4FF0B042936A1907FCD4136AA5
:10394000116C5269520604D4CA1A032A01D88B4258
:103950000ED1E21A022A98BFDC1CB4F1FF3F38BF37
:10396000013C4FF0B0431C649A6942F040029A61F6
:1039700003F03BFD054A13783BB14FF0B041CB6BF0
:1039800043F00203CB630023137010BD70110020BD
:10399000820700F001030AD50121084A43F04003E1
:1039A00011704FF0B041CA6B22F00302CA634FF0AE
:1039B000B0418A6922EA03038B61704770110020CD
:1039C000830742BF4022014B5A61704700100058E4
:1039D00010B503F00DFD4FF0B04304465B695A0685
:1039E000074A03F0010003F0510348BF40F0020012
:1039F0005361FFF7AFFE2046BDE8104003F0FEBC68
:103A00000020005810B50446FCF7D4FF4FF47A723A
:103A10009042B0FBF2F105D23621BDE810400C48CF
:103A200003F057BC0B4BB3FBF1F30B49884201D9B0
:103A30003C21F2E702FB04F0B0FBF3F0022806D9C8
:103A4000BDE810400323B0FBF3F0FCF779BB10BDD9
:103A5000CC8F000040420F00E7CD9A3B00B1FEE75B
:103A60000123034A1360034AC2F82034704700BFA1
:103A70002816002000E0035013B5FDF7BDFA002022
:103A80000849FDF7D1FA0124002321461A462046B1
:103A9000CDE90044FEF706FE034BC3F8244402B010
:103AA00010BD00BF5D3A000000D0035010B5234C9C
:103AB000FEF74EF8FEF73CFA236F23F0070343F0BE
:103AC0000303236703F078FC1D4B00209B6A9B07D0
:103AD0005EBF01221B4B9A62D4F8203123F003030E
:103AE00043F00203C4F82031D4F8243123F0070353
:103AF00043F00203C4F82431D4F8403123F0030327
:103B000043F00203C4F84031D4F8603123F00303DA
:103B100043F00203C4F86031D4F8403223F00303C9
:103B200043F00203C4F84032D4F8003223F0070314
:103B300043F00203C4F8003210BD00BF0080005003
:103B400000C0005000E0005008B5FFF71BF8012846
:103B50000ED1104B04205A6E4FF480230E495203AD
:103B600058BF0E4A4B6601F51041086258BF5366B4
:103B7000FFF744F903F055FBFFF7CEF8FFF728F9FC
:103B8000FFF7ECF8FFF792FFFFF7D6F8BDE8084023
:103B900003F03CBB008000500090005000A000509B
:103BA00030B52B4D9DB009AC0FCD0FC495E80F007B
:103BB00084E80F004FF46133222200210DF14A0006
:103BC0000B9304F06BFD234B0124119338231393C3
:103BD00005231593062317930823199307231B9393
:103BE00003230E2200210DF116008DF849408DF8B7
:103BF000483004F053FD4FF4801C174B1748CDE9B3
:103C000003C33E238DF814303F238DF81530144B39
:103C100009AA069320230793124B03A9009311AB23
:103C20008DF82140FFF720F9044618B17C210E4899
:103C300003F04FFB9DF822304FF46130002B0CBF96
:103C40000321002103F036FB20461DB030BD00BF2C
:103C5000809000000000035A3400035A8C150020A5
:103C6000B62700202815002023900000014803F00B
:103C700091BC00BF8C150020024B03491868FDF76A
:103C80009BBA00BF441000202410002001490248C4
:103C900002F00CBDA0900000A990000011B9012213
:103CA000014B1A70704700BFD62700201346002230
:103CB00013B50A4C22700A4A00920A460146094886
:103CC0000068FDF7A3FB18B14621074803F001FB8C
:103CD0002378002BFCD002B010BD00BFD6270020F7
:103CE0009D3C000044100020C59000000422014BC0
:103CF0001A64704700E003500422014B1A647047B5
:103D000000D003500122014B1A64704700D00350C9
:103D10000122014B1A64704700E00350014B186800
:103D2000704700BF281600200022024B01201A60B5
:103D3000704700BF2816002007B501A800F012FB4D
:103D400010214FF4F872019BC3E90112144A1A6260
:103D5000144A5A6240F2FF321A65134A9A61134AB2
:103D600012685A6101229A6483F84C20104A9A62C0
:103D70000022DA620F4A1A635A630F4AC3F8B0206E
:103D80000E4AC3F8B4200E4AC3F8B8200D4ADA63CD
:103D900002221A64002283F8C22003B05DF804FBFB
:103DA00000401C46C3F5E83F0024744B3016002049
:103DB0000000C8C30080A24400803B4400001643BA
:103DC0000000A040CDCC4C3E80B596B0002401252B
:103DD00004F082FB00F0FCFF4FF0011307A8CDE9CF
:103DE00009550B93CDE9074404F076FA0223CDE997
:103DF0000D3304230CA88DF8305010930F9404F069
:103E00001FF8354B01A8CDE90234019504F055F8AF
:103E10002A464FF0FF31284604F0DDFA4FF0FF301C
:103E200004F0F1FA2A462D49204604F0D4FA4FF066
:103E3000FF3004F0E8FA2C231193072311A8129302
:103E4000CDE91444139404F00EFB254B254D059346
:103E5000254B294604A80693049401F0B5FB286875
:103E600001F0E8FD02460B46204802F01FFCFFF778
:103E700063FF4FF480611E4800F0F2FA1D4803F022
:103E80006CFC2146204600F077FADFF864801A4D7A
:103E9000FFF744FF0028FBD0FFF746FF4FF4806395
:103EA0000024404611A91193114E00F0B9FCDFF82F
:103EB0004CA0DDF844904C45EAD02F6856F8040B2E
:103EC0007B1C2B6001F0B6FD02460B46504639467E
:103ED00002F0ECFB0134EEE7000001010082000279
:103EE00000007A44301600200024744B0291000038
:103EF00034160020A08601002C160020119100002D
:103F0000F8B50D462DED028B044600269FED0C8A78
:103F10000C4FAE4202D1BDEC028BF8BD208897ED6C
:103F2000090A44F8040BB96C00F0B2FE97ED167A5A
:103F3000C0EE077A67EE887A013644ED017AE8E749
:103F400000007A444810002030B5584B93F8C21056
:103F500093F8C440D3F8A020002972D093ED0A7AD8
:103F6000D3ED0B7AB4EEE77AF1EE10FAC4BF00217C
:103F700083F8C010012C12D0022C26D05CBBDFEDE0
:103F80004C7A93ED0C7ADFED4B6A37EE677AC7EE29
:103F9000267AFCEEE77A0121C3ED2F7A19E0996BBE
:103FA000B2EB510F17D30221DFED417A93ED0D7A79
:103FB000DFED406A37EE677AC7EE267AFCEEE77AE5
:103FC00083F8C410C3ED2F7A05E0996B914202D8B3
:103FD000052183F8C41093F8C1100132C3F8A02062
:103FE00093ED2B7AD3ED297A93F8C020002953D092
:103FF0001AB1D3ED2A6A77EEE67A37EE677A0022B5
:1040000083F8C120D3F8BC2083ED2B7A910107EE11
:10401000901AF8EE677A77EE877AFCEEE77A17EE79
:10402000903A994240F6FF7188BF03F1FF333F2A6F
:1040300028BF3F228B4228BF0B4643EA023303606E
:1040400030BD93F8C010042CC5D801A555F824F054
:104050007F3F0000654000006D4000008940000087
:10406000CB3F0000996BB2EB910F9BE79C6BC4F3C5
:104070005D049442AFD8B1FA81F10324490983F871
:10408000C44083F8C010A6E7996B01EB4101B2EB85
:10409000910FA0D3042187E71AB137EE877A012266
:1040A000AEE7D3ED2A6A77EEE67AF6E7481000200D
:1040B00000004843998809422DE9F04F9D4C8BB090
:1040C000D4ED0A6AD4ED0B7A77EEE67A94ED2E6A97
:1040D00037EEA77AC7EE067AFCEEE77A94F8C220AC
:1040E00017EE903AC4ED0E7A12B95B00023BA3635F
:1040F000A36BB3F57F7F03D98F4802F0E9FAFEE79F
:1041000094F888008D49012837D1A56E0B60A3680B
:10411000E26F5B1B9B1A0F2B40F30881DFED887A5F
:10412000D4ED2D5A85EEA77AB5EEC07A854D083BC1
:10413000DB102B60A56FF1EE10FA2A44824D84ED5E
:10414000297A2A6002EB8302804BC6EE275A1A6056
:104150004FF0000386EEA77A7D4AC4ED2A5A136019
:10416000D4BF1A46012284ED2B7A84F8C430C4F8F7
:10417000A030784B84F8C02018700D68002D69D0ED
:10418000704BDFF8CC81D3F800902B464D4528BF0B
:104190004B460193EB1A0B60D8F80030002B5DD131
:1041A000694B1F684FF0000B3B466A4E019A96F828
:1041B00000A0013A5A4553D84D4507EB820B7FD8F2
:1041C00005A8FFF7C1FE059BBAF1000F23F07F435E
:1041D00043F0484306934FF00A030CBF4FF073427D
:1041E0004FF07A420BF10406079326F07F4323F445
:1041F0008023134343F480230893574B04225846EB
:1042000006A9099303F0C8FE0023CDE906330893FD
:104210004FF001430422304606A9099303F0BCFE87
:10422000D8F80030B3FA83F35B09C8F8003094F88B
:1042300088307BB100234D4584F8883071D8002345
:1042400004224648C4E92472C4F88C3084F89830BB
:1042500003F0B6FE00200BB0BDE8F08F3B4BA0E7AB
:104260001A1D05A8CDE90223FFF76EFE059ABAF1E3
:10427000000F22F07F4242F0484206924FF00A02BD
:104280000CBF4FF073414FF07A41029B079223F02D
:104290007F4222F480220A4342F48022039B089248
:1042A0002D4A1846099206A9042203F075FE3378B8
:1042B0000BF1010BB3FA83F35B093370029B75E7D3
:1042C000D8F800305BBB214B1B6805A80193FFF7B2
:1042D0003BFE059ABAF1000F22F07F4242F04842BD
:1042E00006924FF00A0207920CBF4FF073424FF054
:1042F0007A42019B584623F07F4323F480231343E3
:1043000043F480230893164B042206A9099303F073
:1043100043FE3378B3FA83F35B09337080E70A4BCB
:10432000D2E7FFF7C9FE002889D094E76FF00700B5
:1043300091E700BF48100020239100004426002090
:104340009988093F402600203C260020382600207E
:104350003426002071110020010000C7D410002075
:10436000010000A718B1034B0360002070476FF0F5
:10437000010070474810002000B593B0032847D8CB
:10438000DFE800F0024D595E0A2004F092F80A2896
:104390005DD8304B93F85420002A3DD093F8C420C8
:1043A000052A39D093ED056AD3ED0F7ADFED2A6A3D
:1043B00066EE275A0320002185EEA67A0122BCEE84
:1043C000C77ACDE900010221B7EE005ACDE9021209
:1043D000049117EE101A93ED2C7AC5EE075A9FED53
:1043E0001F7A55EE877A27EE867AC7EE267AFCEE9C
:1043F000E77A17EE903A0139043B68468DF844207D
:104400000B920F9109920D930A920E9303F012FEF4
:10441000002013B05DF804FB6FF06300F9E70A2099
:1044200004F047F80A2812D8002003F0A2FE00206A
:1044300003F09FFEECE70122064B83F8C320E7E779
:1044400000210120FFF798FF00F0B4FDE0E76FF0D6
:104450000800DEE74810002000007A440000FA431C
:104460002DE9F04F0546ADB00A20894604F021F849
:104470000A2800F2CA8101224FF08073CDE905239A
:104480000023B14C05A8079303F017FD94F85430AE
:104490001BB12378012B40F00481002D00F0B8817E
:1044A000B9F1000F00F0B481236C0DF13008002B3E
:1044B00040F05E81636CA3650023E36500264946F6
:1044C000284684F8546000F04BFA012000F068FAA6
:1044D00031469E4803F048FA9D4B08A80893013BDB
:1044E00009938DF82960ADF82A608DF82C6003F0EF
:1044F0006DFA94ED0C7ADFED977A032337EE677A45
:10450000DFED956A189340F20113C7EE267AADF8F5
:104510006830236CD4ED0A6AB3429FED907AFCEECA
:10452000E77A179342F2342318BF1423199317EE36
:10453000903AC6EE877AFDEEE77A17EE902A4FF0B2
:1045400002094FF0140A4FF4807B9BB24046ADF84D
:104550004C3002EB8313ADF84A30CDE91596CDE926
:104560000C66CDE90E66CDE910A61496ADF848B0FC
:1045700003F0C2FB44211BA803F050F921231B9335
:10458000A36C01271D9394F84C301BA81E930A239B
:10459000CDF87090CDE91F368DF88C702197ADF86D
:1045A000887003F037FC4FF0014000F0C3F930464B
:1045B00000F0F6F904A903A800F0E6F90546002882
:1045C00040F01F815146664803F028F9049BA26819
:1045D0009A4240F214810322226662686048626651
:1045E000039AA366226784F86C7003F0E9FCD4EDAB
:1045F000066A94ED077A94F84C30C6EE877A1D93DC
:104600000A2341461BA8CDE91E35CDED227ACDE91E
:104610001B7700F077FA384600F0C2F9042003F067
:1046200000FD3946802003F09FF94FF4C86000F088
:1046300081F93946584603F097F90C9820F040402C
:1046400000F078F929464FF4C07003F08DF9284640
:1046500003F0E7FC03F020FF08A904A800F094F998
:104660000546304600F09CF9002D40F0CA805146C6
:104670003C4803F0D3F8A16E089AA36888189842C2
:1046800080F0BD80636E37480B44A367049BC4F879
:104690007490C4F88430E26784F8807003F090FC72
:1046A00025700021084603F0F6FB00231E93236DBE
:1046B00001261F9302231BA8CDE91C338DF86C60E3
:1046C00003F0BEFB4FF0FF3003F09DFE84F88860DE
:1046D000FFF7F2FC0546002840F0938084F86C0058
:1046E0001F4803F06DFC304603F03AFC206E03F0E7
:1046F0004AFC4FF40041012003F08AFE0028F8D064
:1047000000264FF4004003F07EFE164884F88060D7
:1047100003F056FC144884F8986003F051FC3046CE
:1047200003F01EFC314642F2640000F0DDFA012085
:1047300003F016FCFFF7F8FA0321304603F040F9C6
:10474000012384F854305CE048100020E0FF390079
:104750000101010000004843998809429988093FF6
:10476000A8100020BC100020D41000200000003A47
:104770001BA8382103F052F8D4ED077AB5EE007A81
:10478000F3EE066A27EE877ACDED1E7AC7EE267A1B
:104790001FED0A7A67EE877AB0EE087A00230122CD
:1047A000A16967EE877A1D910921CDE9232328921B
:1047B0008DF89C20226ACDE925131C92226C41467B
:1047C0001BA8CDE92123CDED1B7A1F938DF88030F6
:1047D00000F00AFC98E803000F4B83E803000C98F4
:1047E00001F028F906460D980F4601F023F93246EC
:1047F000CDE900013B46094801F058FF5EE66FF045
:10480000070528462DB0BDE8F08F6FF00805F8E7E2
:104810006FF00105F5E700BFA01000206D910000CA
:10482000F8B504460A200E4603F043FE0A2846D88F
:10483000002003F02CFE0020306003F0FAFD82051A
:1048400005461CD415F0007722D003F02FFB01465B
:104850000546204603F03EF84FF0007003F0D3FD0C
:10486000184B93F8C330012B02D1002003F081FCD8
:1048700029462046FFF744FB3560002007E04FF44F
:10488000007003F0C0FDFFF717FC0028DAD0F8BD78
:104890002B04F2D503F00AFB05464FF4004003F069
:1048A000B2FD2946204603F015F829462046FFF7B9
:1048B00027FB394635600120FFF75EFDDDE76FF02D
:1048C0000800E4E7481000200A4B30B5D3E9032480
:1048D0000023C0F387009A4202D16FF0060005E082
:1048E00014F82350854202D100200B6030BD013303
:1048F000F1E700BF482600200D4B30B55A69DC684F
:104900005D681444A5420ED91C698008251F1D61ED
:1049100004F8040C54F8040C013261F31F2044F82D
:10492000040C5A6130BD6FF003029A61FAE700BFD0
:1049300048260020094B10B5D9685A695C680A44BA
:10494000944295BF6FF003029A689A6142F8210081
:1049500082BFDA680132DA6010BD00BF482600204D
:1049600001290DD90022074BC3E9011001F1804153
:104970000139C3E9052200EB81001861DA601A7081
:10498000704700BF48260020044B08B19A680260B7
:1049900009B1DA680A609869704700BF48260020AC
:1049A000034B18B100220120DA609A611870704739
:1049B0004826002030B5C3680446012B0D4687B059
:1049C00020D10368022B33D10522234B18681B79B1
:1049D00002908DF80C30214B18681B7904908DF8EB
:1049E00014300DF10703207902A902F0BAFE78B362
:1049F00001209DF8073018336B4413F8083C2B70E6
:104A000007B030BD23BB0368022BDDD1144B1A88DD
:104A10009B78ADF808208DF80A30124B1A889B78E5
:104A2000ADF810208DF8123003220DF10703DAE7FC
:104A30000D4B062218689B880290ADF80C300B4B8A
:104A400018689B880490ADF814300DF10703CAE78D
:104A500000202870D4E700BF799100007F9100000A
:104A600085910000899100008D91000094910000D3
:104A700030B5C3680446012B0D4687B01CD10368CE
:104A8000022B28D140F60733ADF8083040F20A5324
:104A90000222ADF810300DF10703207902A902F0CF
:104AA00060FE40B301209DF8073018336B4413F8C3
:104AB000083C2B7007B030BDEBB90268022AE1D187
:104AC00040F60933ADF8083040F60F23ADF810304A
:104AD0000DF10703E1E7094B062218689B88029055
:104AE000ADF80C30064B18689B880490ADF8143074
:104AF0000DF10703D1E700202870DBE79B91000050
:104B0000A2910000F0B5844600240F469BB05F4D93
:104B10000DAE0FCD0FC60FCD0FC60FCD0FC655F87A
:104B2000043B0294336003AE95E80F0086E80F0063
:104B30003C60644634B3DCF80C300B2B22D8DCF834
:104B40000820022A1ED8DCF8101003291AD8DCF835
:104B50000000042814D8DFE800F00317327349007E
:104B60001422DCF804309CED077A534307EE903AA8
:104B7000F8EE677A67EE877AFCEEE77ACDED027A97
:104B8000029B3B601BB0F0BD1421DCF80430DCED6F
:104B9000076A4B431AA901EB820252F85C2C2833B6
:104BA0005343143307EE903AB6EE007AF8EE677A84
:104BB00007EEA67ABCEEC77A8DED027AE0E71AA975
:104BC00001EB8303DCF8042053F8343C604602FB1D
:104BD000033301220133CCE9002302A9FFF792FF3E
:104BE00002232360029B0F330293C9E79CF818103D
:104BF00007A80A910DF10601CDE90723FFF7DAFEB8
:104C0000054618B19DF80650013DEDB20DF10701C2
:104C100007A8FFF72DFF20B19DF80730013B2B447B
:104C2000DDB202232360636820462B44636002A93F
:104C3000FFF768FF0423236063685B1B63609FE7E3
:104C4000DCF81430032B09D8DFE803F00F0D02164F
:104C500000232360204602A9FFF754FF03232360AB
:104C6000029B1933C0E70123F3E79CF81930002BAE
:104C70000CBF04230223ECE701231944CCF80030D5
:104C8000DCF804308B40CCF80430E3E738920000C5
:104C9000A0F5004007EE900A0139F8EEE77A032903
:104CA0000CD8DFE801F002071619B7EE087AC7EE54
:104CB000877A03E0B6EE007A67EE877A67EE807A4D
:104CC0009FED077A9FED070A67EE877A27EE800A45
:104CD0007047B5EE007AEFE7B2EE027AE7E700BF81
:104CE00000000038110E813FF7B5274F04463B788E
:104CF0000E46012B26D1B0F5085F04D36FF00403F4
:104D0000BB6103B0F0BD01A9FFF7DEFDA50505F00D
:104D1000FE4526F07F431D4345F0004568B9019AE2
:104D20003B6953F8221066F31F2143F822102846EE
:104D300003B0BDE8F040FFF7FDBD31462046FFF768
:104D4000DBFDF4E7FEF7D2FF202002F035FD204620
:104D500002F014FDFEF7D0FFFEF7C8FF2D2002F091
:104D60002BFD42F21403A4F58054A4B29C4207D850
:104D7000304602F013FD03B0BDE8F040FEF7BCBFC3
:104D8000B0B202F0FBFCF6E74826002037B50F4D25
:104D900004462B78012B14D101A9FFF795FD48B1EA
:104DA000204602F014FD01462046FFF7A5FD084607
:104DB00003B030BD2B69019A53F82210C1F31721BB
:104DC000F5E703B0BDE8304002F001BD4826002001
:104DD00030B500249DB070222049684603F069FC7C
:104DE0001F4B6D46C3E90544DC601C70FEF784FF71
:104DF000696828880134FFF777FF0E2C05F1080554
:104E0000F6D140F20440FFF7C1FFA0F5AA43013BF1
:104E1000012B014606D9B0F5AA4F1CD0114801F06C
:104E200045FCFEE70123104C1048237001F050FCB4
:104E300021780F4A0F4B104800290CBF1146194624
:104E400001F034FC0123022200210C481DB0BDE812
:104E5000304001F02BBC0023E5E700BFE4920000E6
:104E600048260020AF910000D7270020E1910000E4
:104E7000AC910000A9910000EE9100000B9200009F
:104E80001FB5074B68460093013B01930123029332
:104E900000238DF80C3002F099FD05B05DF804FB9D
:104EA000010101000A29FFB405460B4627D8022953
:104EB00009D90831C90011431DB342F2F40004B00E
:104EC000F0BCFFF711BF6E460F4C04F1080C3746DB
:104ED00020686168083403C764453E46F7D12068FE
:104EE000A1793860A088042AB880B97107D803EB8B
:104EF000830310336B44134413F8101CDAE7F821D2
:104F0000D9E742F2F800DAE754930000F5EE400AE0
:104F1000124B1B78012B0CBF1E221A22F1EE10FA45
:104F20001AD00123934007EE903AF8EEE77A27EE85
:104F3000800AB6EE007AC0EE207A77EE877AFCEE31
:104F4000E77A1A2A064817EE903A18BF6FF07F40AA
:104F5000984228BF1846704700207047D727002086
:104F6000FFFF0F0010B50446042003F04CFA0121A6
:104F70000F4802F0F9FC012002F0EFFB04210120B0
:104F800003F046FA50B14FF40250FFF7FFFE04461B
:104F90000021074802F0E8FC204610BD23685A1C97
:104FA000E9D0013B2360002BE5D11C46F0E700BFB0
:104FB0000001010000B595B001A80D2102F02EFC02
:104FC0003C2105A802F02AFC01A802F0FFFC05A87C
:104FD00002F092FE034803F05AFA15B05DF804EBB4
:104FE00003F05ABAE5470A002DE9F04F2DED028B88
:104FF0000446E7B0AD4E6C2289462EA8AC4909ADF7
:1050000003F057FB0FCE0FC533682B60002C00F068
:10501000D78294ED018AB5EE408AF1EE10FA00F0E5
:10502000CC82A3695A1E192A00F2C782B9F1000F77
:1050300000F0C68294ED037ADFED9E7AB4EEE77A53
:10504000F1EE10FA66AA02EB830318EE100ACCBF49
:105050000126002653F8E07C00F0ECFC0022964B81
:1050600000F040FD824638468B4600F0C1FC0B46FE
:1050700002465946504600F05FFE00F0CDFF9FED1E
:105080008F7A06EE900AC6EE877ADFED8D6A67EEBC
:10509000A67A77EEA77AFCEEE77A17EE905A40F2FE
:1050A000165301356D089D4228BF1D4607EE105A64
:1050B0009FED846AB8EEC77A27EE067A87EE266AF5
:1050C000DFED816A07EE907A78EE266AF8EE677A6D
:1050D00086EE267A27EE277AC7EE276A9FED7B6A4F
:1050E00066EE886AC6EE267AF2EE026AF4EEE67A98
:1050F000F1EE10FAD4ED008A80F2A381F1EE005AAD
:10510000F4EEE57AF1EE10FA80F29E81F0EE005AAC
:10511000F4EEE57AF1EE10FA80F29981F7EE085A92
:10512000F4EEE57AF1EE10FAACBF4FF0010B4FF060
:10513000000BC6EE077AF4EEE67AF1EE10FA80F292
:105140008981B1EE007AF4EEC77AF1EE10FA80F2BE
:105150008481B0EE007AF4EEC77AF1EE10FA80F2B4
:105160007F81B7EE087AF4EEC77AF1EE10FAACBFA1
:105170004FF0010A4FF0000A09AB03EB8A0103EB81
:105180008B0291ED007AD2ED007A4FF4005087EE59
:10519000278AFFF7FBFD019043F20C00FFF7F6FDB5
:1051A000012206218046104603F015F94FF0FF302A
:1051B00003F029F90021464802F0D6FBFFF760FE14
:1051C00044211DA802F02AFB032201272292626AD1
:1051D000A06A2192226AE16A209228AA03C2206B67
:1051E00086F0010610601DA82396ADF890708DF82A
:1051F000947002F00FFE3C210EA802F00FFB226912
:105200000026111E1692E26918BF01211A9240F27F
:105210000112ADF870200422CDE90E171121189269
:10522000A269CDE912161992227D2A49BA4214BF09
:105230004FF4A0724FF4B072149120210EA81B926B
:10524000ADF85410CDE91077179602F055FD742192
:1052500049A802F0E3FA22690521B2420CBF3A469E
:1052600002225D924FF01F0260924FF00B02CDE9D7
:105270006221CDE964214FF0FF02F5EE408A4F92A2
:1052800014BF812241224FF40070CDE94927F1EE8D
:1052900010FA4FF41062CDE94D66CDE94B028DF85E
:1052A00084615E9640F0DF8016E000BF3C94000011
:1052B000D09300000050C34B000099400080094586
:1052C00000E0FF440000FA440000C84200803B4573
:1052D000E0FF3900000100084FF0FF3249A80792B3
:1052E0005C955096ADF8446102F06FFC05F50060E6
:1052F00002F07DFC39464FF4994002F035FB49A895
:10530000499702F0B8FB4FF47A7002F026FA242293
:1053100014211DA8CDE91D21CDF87CB002F0F6FCCA
:10532000322002F01AFA07A8FFF71CFE0746206990
:10533000CDF87CA0B0420BBF0225032521202220FE
:10534000CDE91D051DA802F0E1FC322002F005FAAE
:1053500007A8FFF707FE05462069B04214BF812069
:105360004120499049A802F086FB4FF47A7002F080
:10537000F4F9242214211DA8CDE91D21CDF87CB01B
:1053800002F0C4FC322002F0E8F907A8FFF7EAFDBA
:105390002369C01BB3420BBF022203222123222315
:1053A000CDE903061DA8CDE91D32CDF87CA002F0A1
:1053B000ADFC322002F0D1F907A8FFF7D3FD401B66
:1053C000CDE90506069B03A95B420693049B05A84D
:1053D0005B42049302F026FA94ED017AC7EE087A54
:1053E00027EE800A67EEA07A636B8DED070ACDED9C
:1053F000087A002B40F0D68089ED000AC9ED017AC9
:1054000018F0020203D10221012002F0E4FF18F09B
:10541000040203D10421012002F0DDFF00244FF437
:1054200000500199FFF760FC49A8CDE94944CDE956
:105430004B4402F020FB204667B0BDEC028BBDE878
:10544000F08F4FF0040B74E64FF0030B71E64FF052
:10545000020B6EE64FF0040A8EE64FF0030A8BE66D
:105460004FF0020A88E6D4ED020A94ED000A59953D
:10547000FFF74CFD0225589049A8CDE95A665C9685
:105480005095ADF8446102F0A0FB284602F0BBFF46
:1054900039464FF4406002F067FA642002F05DF98B
:1054A000242214211DA8CDE91D21CDF87CB002F0E5
:1054B0002DFC39464FF4814002F056FA192002F0D3
:1054C0004CF939464FF4014002F04EFA0221012016
:1054D00002F09EFF0028F9D000214CF2801002F06B
:1054E00043FA022002F08FFF42F27800FFF74EFCF1
:1054F0000390064642F27C00FFF748FC23690490C3
:10550000002B0BBF022203222123222305461DA8C4
:10551000CDE91D32CDF87CA002F0F8FB01214FF45B
:10552000814002F021FA192002F017F901214FF40D
:10553000014002F019FA0221012002F069FF00285F
:10554000F9D000214CF2801002F00EFA022002F095
:105550005AFF42F27800FFF719FC0746059042F225
:105560007C00FFF713FCB30342BF6FEA86366FEA95
:1055700096360396A90342BF6FEA85356FEA9535E3
:105580000495BA0342BF6FEA87376FEA97370597EA
:10559000830344BF6FEA80336FEA9333069048BFBA
:1055A00006930FE707A802F060F907A889ED000A43
:1055B00002F073F989ED010A22E76FF001003BE781
:1055C0006FF0020038E700BF2DE9F0412DED028BAE
:1055D0000E4604469EB0002800F0BA80002900F074
:1055E000B78090ED017AF7EE007AB4EEE77AF1EE4B
:1055F00010FA00F1B08004A802F097FC43F20C000E
:10560000FFF7C4FB0122012500274FF4004180462B
:10561000104602F0E0FE4FF0FF3002F0F4FE01A869
:10562000CDE90155039702F048FC4C4B07A80B93BA
:1056300023680797089309958DF8285002F0C0FC5D
:10564000236807A82B440893454BB6EE008A0B93BA
:10565000079502F0B5FC94ED017ADFED427A07EE92
:10566000278A0423BCEEC88A199318EE103A053B2A
:10567000159303231A934FF0FF330CA81693CDE92B
:105680000D758DF874700C9502F0D4FC4FF4004049
:1056900002F0B9FE284602F06CFD4FF400410120F3
:1056A00002F0B6FE0028F8D002F0C0FC0746002049
:1056B00002F05FFD04220020114602F06EFD236817
:1056C00007A80133089302230993274B0B9302F099
:1056D00077FC012002F044FC4FF4004002F093FEFE
:1056E000012002F046FD4FF40041012002F090FE3F
:1056F0000028F8D002F09AFC4FF400410546002043
:1057000002F086FE002002F034FD04A802F0D5FB72
:105710004FF400410120C8F3C03202F05CFE4FF4A8
:10572000004002F070FED4ED027AB8EE488AED1B1C
:1057300028EE278A07EE905AF8EE677A88EE277AE5
:10574000002086ED007A1EB0BDEC028BBDE8F08132
:105750006FF00200F7E76FF00100F4E73492000009
:1057600030920000000000422892000081F00041C9
:1057700002E000BF83F0004330B54FEA41044FEA36
:10578000430594EA050F08BF90EA020F1FBF54EAD1
:10579000000C55EA020C7FEA645C7FEA655C00F06D
:1057A000E2804FEA5454D4EB5555B8BF6D420CDD3E
:1057B0002C4480EA020281EA030382EA000083EAC1
:1057C000010180EA020281EA0303362D88BF30BD61
:1057D00011F0004F4FEA01314FF4801C4CEA1131B7
:1057E00002D0404261EB410113F0004F4FEA033316
:1057F0004CEA133302D0524263EB430394EA050FA1
:1058000000F0A780A4F10104D5F1200E0DDB02FA0F
:105810000EFC22FA05F2801841F1000103FA0EF2A3
:10582000801843FA05F359410EE0A5F120050EF169
:10583000200E012A03FA0EFC28BF4CF0020C43FA9A
:1058400005F3C01851EBE37101F0004507D54FF0A7
:10585000000EDCF1000C7EEB00006EEB0101B1F5F7
:10586000801F1BD3B1F5001F0CD349085FEA30003D
:105870004FEA3C0C04F101044FEA445212F5800F48
:1058800080F09A80BCF1004F08BF5FEA500C50F1E5
:10589000000041EB045141EA050130BD5FEA4C0CC8
:1058A000404141EB0101013C28BFB1F5801FE9D225
:1058B00091F0000F04BF01460020B1FA81F308BF48
:1058C0002033A3F10B03B3F120020CDA0C3208DD14
:1058D00002F1140CC2F10C0201FA0CF021FA02F1EF
:1058E0000CE002F11402D8BFC2F1200C01FA02F15F
:1058F00020FA0CFCDCBF41EA0C019040E41AA2BF84
:1059000001EB0451294330BD6FEA04041F3C1CDA4B
:105910000C340EDC04F11404C4F1200220FA04F06B
:1059200001FA02F340EA030021FA04F345EA030115
:1059300030BDC4F10C04C4F1200220FA02F001FAD7
:1059400004F340EA0300294630BD21FA04F0294659
:1059500030BD94F0000F83F4801306BF81F48011F2
:105960000134013D4EE77FEA645C18BF7FEA655C65
:1059700029D094EA050F08BF90EA020F05D054EA37
:10598000000C04BF1946104630BD91EA030F1EBF3C
:105990000021002030BD5FEA545C05D14000494140
:1059A00028BF41F0004130BD14F580043CBF01F533
:1059B000801130BD01F0004545F0FE4141F4700119
:1059C0004FF0000030BD7FEA645C1ABF19461046F4
:1059D0007FEA655C1CBF0B46024650EA013406BFF5
:1059E00052EA033591EA030F41F4002130BD00BFB4
:1059F00090F0000F04BF0021704730B54FF4806471
:105A000004F132044FF000054FF0000150E700BFF1
:105A100090F0000F04BF0021704730B54FF4806450
:105A200004F1320410F0004548BF40424FF000013D
:105A30003EE700BF42004FEAE2014FEA31014FEA80
:105A400002701FBF12F07F4393F07F4F81F06051CF
:105A5000704732F07F4208BF704793F07F4F04BF1A
:105A600041F40021704730B54FF4607401F00045F7
:105A700021F000411CE700BF50EA010208BF704757
:105A800030B54FF000050AE050EA010208BF704748
:105A900030B511F0004502D5404261EB41014FF4B1
:105AA000806404F132045FEA915C3FF4D8AE4FF0B9
:105AB00003025FEADC0C18BF03325FEADC0C18BF9C
:105AC000033202EBDC02C2F1200300FA03FC20FAED
:105AD00002F001FA03FE40EA0E0021FA02F114443A
