:1000000000100020BD030000154B0000154B000040
:10001000154B0000154B0000154B0000154B000060
:10002000154B0000154B0000154B0000154B000050
:10003000154B0000154B0000154B0000154B000040
:10004000154B0000154B0000154B0000154B000030
:10005000154B0000154B0000154B0000154B000020
:10006000154B0000154B0000154B0000154B000010
:1000700001360000154B0000154B0000154B000029
:10008000154B0000154B0000154B0000154B0000F0
:10009000154B00005D0A0000154B0000154B0000D9
:1000A000154B0000810B00005D0B0000154B00009C
:1000B000154B0000154B0000154B0000154B0000C0
:1000C000154B0000154B0000154B0000154B0000B0
:1000D000154B0000154B0000154B0000154B0000A0
:1000E000154B0000154B0000154B0000154B000090
:1000F000154B0000154B0000154B0000154B000080
:10010000154B0000154B0000154B0000154B00006F
:10011000154B0000154B0000154B0000154B00005F
:10012000154B0000154B0000154B0000154B00004F
:10013000154B0000154B000091380000BF4F000028
:10014000013800D0FCE770470348044B834202D0DB
:10015000034B03B118477047A4100020A4100020DF
:1001600000000000064B0749C91A891048BF013139
:10017000491003D0044B0BB101481847704700BF2A
:10018000A4100020A41000200000000010B5064CB0
:10019000237843B9FFF7D8FF044B13B10448AFF3FA
:1001A00000800123237010BD9E1600200000000077
:1001B000CC5D000008B5054B1BB105490548AFF300
:1001C0000080BDE80840FFF7CDBF00BF0000000081
:1001D000A4100020CC5D0000A3F5803A704700BF5A
:1001E000174B002B08BF134B9D46FFF7F5FF00216F
:1001F0008B460F461348144A121A04F0C0FF0E4BE8
:10020000002B00D098470D4B002B00D098470020C2
:10021000002104000D000D48002802D00C48AFF367
:10022000008003F0F7FE2000290004F0CAFE03F06E
:100230002BFD00BF000008000000000000000000CF
:1002400000100020A4100020EC1600200000000088
:10025000000000001022014B1A61704700D00350CB
:100260001022014B1A61704700E00350F0B5404D79
:1002700089B001AC0FCD0FC495E8070084E80700F2
:10028000012401213A2001F031F83A4F01212820C0
:1002900001F02CF8384B384601A903938DF8124031
:1002A00002F05CFA234604220021022001F0F2FF52
:1002B000224621460023022001F0ECFF02212346C2
:1002C0000846042201F0E6FF0422234611460020DE
:1002D00001F0E0FF4FF00213284D0226C5F830363A
:1002E000A3F58033C5F82C361C23C5F834664FF4CB
:1002F0004870C5F81C3603F09DF91420FFF7B0FFD5
:1003000003F098F92320FFF7A5FF03F093F9B92133
:100310003846FFF7A5FF04F0D4FCFFF79BFF00234E
:1003200030461A46194601F0B5FF002321461A4609
:10033000304601F0AFFF234631463046002201F03F
:10034000A9FF002223461046042101F0A3FF3846EE
:1003500002F0CCF900212820C5F83016C5F82C167B
:10036000C5F83416C5F81C1600F0C0FF09B0F0BD82
:100370000057000000C0055000127A0000C0035072
:100380000346054A0549106803448B428CBF4FF071
:10039000FF301360704700BF001000200080002075
:1003A0000348044A0449121A921004F0B4BB00BF77
:1003B000845E0000845E0000EC16002008B500F0AA
:1003C0002FF8FFF7EDFF124B12498B4212D300209A
:1003D000114B12498B4218D3FFF702FF186850F8EF
:1003E0002240586840F82240013298688242F5D392
:1003F0000C33EAE70022F8E71C6844F822000132D7
:100400005C68A242F8D30833E4E70022F8E700BFB3
:10041000D45D0000E05D0000E05D0000E05D0000F4
:100420004FF400414FF0FF30124B134A10B59A6061
:10043000D3F8882042F47002C3F888200F4A9166EE
:1004400001F1884101F5005210664FF6DF705066E9
:100450000220C3F8D000BFF34F8FBFF36F8F082483
:100460004FF440330648C0F88041D36004600B610C
:1004700010BD00BF00ED00E0000000000090005043
:1004800000E100E0014B1868704700BF0810002031
:10049000084B1B6F03F00703022B04D0032B05D07E
:1004A000012B05D0FEE7044B18687047034BFBE7B0
:1004B00003487047008000500810002010100020F2
:1004C000002D310108B5FFF7E3FF054B1B6FC3F3A8
:1004D00003330133B0FBF3F0024B186008BD00BFDB
:1004E00000800050041000200048704700B4C4048D
:1004F000014B1868704700BF10100020054B1860B2
:10050000054B1B6F03F00703032B01D1FFF7DABF85
:10051000704700BF10100020008000500048704756
:10052000002D3101014B1868704700BF0C100020EE
:1005300008B501213A2000F0D9FE0321012304224D
:10054000002001F0A7FE002004F0B2FB0122214BA5
:100550004FF46070C3F8442400F0F2FE1E4B00F527
:10056000D520D3F8F02000F2FC4042F00102C3F89D
:10057000F020D3F8FC2042F08072C3F8FC20174A28
:10058000A3F55D431A60164B0222B0FBF3F0154B46
:1005900001381861C3F8F0204FF48072C3F80423C7
:1005A0004FF06043104A0020C3F8B02F0F4AC3F841
:1005B000802ED3F8002E42F48072C3F8002EFF2262
:1005C00083F82020D3F8002E22F48072C3F8002E86
:1005D00008BD00BF00D0035000ED00E0FF03004065
:1005E000F8590D00000004E055CEACC5090001002B
:1005F0004FF06043D3F8802E30B5D20715D50124D3
:100600000B4D8440D5F8FC2042F08072C5F8FC20E8
:10061000D3F8002E2243C3F8002E53F82020002ADE
:10062000F0D003F82010002030BD1120FCE700BFFF
:1006300000ED00E02DE9F04F9A46564B85B01B784F
:1006400006460F461546DDF83C909DF844B0DDF8AF
:100650005080002B00F09780072A00F296800E9BB6
:10066000002B00F09280B9F1000F00F08E80129BF9
:10067000B3F5006F00F38980012803D1109B002B94
:1006800000F08380444B03EB05131B7B002B7ED0D3
:10069000424C10220021684604F071FD04EB451421
:1006A0001022A7BB3946204604F069FD43F210032F
:1006B0006380BBF1000F03D1E37843F00303E370E1
:1006C000364A0E9B02EB451CCCE90193129B690153
:1006D000581E9DF84C30C0F30A0003F003039B063C
:1006E00043EA001E53582E48012E00EA03004EEA4A
:1006F0000003CDF800A0535017D0B8F1000F2ED151
:100700009CF8023068F304138CF8023027E00021D3
:10071000204604F034FD4FF444736380BBF1000FB6
:10072000CED1E37843F03003C9E713230CF1100E68
:10073000CCF80C309CE80F008EE80F006FF003013E
:10074000DCF81C20109B61F39F02012FCCF81C20C9
:10075000CCF8143003D1CCF81890CCF80430002732
:100760000D4A290102EB051342F80180159A28462B
:100770005A60694622469F605E7301F05BFE384610
:1007800005B0BDE8F08F0748FAE70748F8E70748E3
:10079000F6E700BF9F160020BC110020BC1000200F
:1007A0000F80FFF3028000F0018000F0078000F06E
:1007B00038B5124B05461B78DBB1E0B104F038FACE
:1007C0000F4A00231146147B54B92B6001251A01EE
:1007D00001EB03131D738C5004F030FA204638BD32
:1007E0000133082B02F11002EDD104F027FA05487D
:1007F000F5E70548F3E70548F1E700BF9F1600203D
:10080000BC110020048000F0028000F0018000F0A4
:1008100038B504F00DFA002305460B4A147B6CB979
:100820000133082B02F11002F8D101F07BFD074BD8
:1008300028461C7004F002FA204603E0284604F023
:10084000FDF9034838BD00BFBC1100209F160020F1
:10085000058000F00D4B10B51B78044693B10728B6
:1008600012D804F0E5F90A4B03EB04131A7B2AB102
:1008700000241C7304F0E2F9204610BD04F0DEF9F8
:100880000448FAE70448F8E70448F6E79F16002012
:10089000BC110020068000F0028000F0018000F012
:1008A000154B13B51868002301908DF8043004F03F
:1008B000BFF9124B1C7824B104F0C0F9104802B003
:1008C00010BD01221A7004F0B9F90E4B01A81C7377
:1008D0001C7783F82C4083F83C4083F84C4083F825
:1008E0005C4083F86C4083F87C4008238DF8073027
:1008F00001F056FD2046E2E71C5700009F1600203D
:10090000038000F0BC1100200A4A08B512785AB1E1
:1009100007280BD8084A02EB00131B7B43B10021C8
:1009200001F01EFD002008BD0448FCE70448FAE77A
:100930000448F8E79F160020BC110020028000F058
:10094000018000F0078000F00A4A08B512785AB119
:1009500007280BD8084A02EB00131B7B43B1012187
:1009600001F0FEFC002008BD0448FCE70448FAE75B
:100970000448F8E79F160020BC110020028000F018
:10098000018000F0078000F00A4A08B5127852B1E1
:1009900007280AD8084A02EB00131B7B3BB101F081
:1009A000C9FD002008BD0548FCE70548FAE70548F1
:1009B000F8E700BF9F160020BC110020028000F065
:1009C000018000F0078000F00D4B1B7893B10728E1
:1009D00012D889B10B4B03EB00131B7B73B10A4B8D
:1009E0001A6D01238340134214BF0123002300200A
:1009F0000B707047054870470548704705487047B9
:100A00009F160020BC11002000000450028000F05E
:100A1000018000F0078000F00B4A10B512780C46F8
:100A200062B107280CD859B1084A02EB00131B7BAE
:100A300043B101F09BFD2070002010BD0448FCE78D
:100A40000448FAE70448F8E79F160020BC1100208C
:100A5000028000F0018000F0078000F0184B2DE9C3
:100A6000F0411F6D5B6D1F4000D5FEE7012600259C
:100A7000144CDFF85880374218D02368C8F850600B
:100A8000A3B1A168284601316268A1609847637BE1
:100A9000012B0BD150B90C4B03EB45131A7B60F3C0
:100AA00041021A731A7F60F341021A770135082D4B
:100AB0004FEA460604F11004DDD1BDE8F08100BF25
:100AC00000000450BC110020BC1000200020045085
:100AD00070B5044601250B4E04B970BD94FAA4F01C
:100AE000B0FA80F005FA00F306EB001224EA0304E2
:100AF0005368002BF0D0117B11B191689847EBE758
:100B00009847E9E73C12002008B5192000F0BAFF29
:100B100028B14FF00072074BC3F880211A601A20E9
:100B200000F0B0FF28B14FF08062024BC3F8802183
:100B30001A6008BD00E100E038B505460C4604F037
:100B400077F80022044B03EB05135C601A73BDE8D1
:100B5000384004F073B800BF3C120020074BD3F8B4
:100B60002404D3F8202403F50053104000F055303E
:100B700020F05020C3F82004FFF7AABF00C00350A4
:100B8000074BD3F82404D3F8202403F50053104076
:100B900000F0AA3020F0A020C3F82004FFF798BF8F
:100BA00000C0035038B5144604F042F80023A36493
:100BB00084F84C302364237F0546012B03D104F1D4
:100BC000600002F063FB636B1BB100212046E26B07
:100BD0009847284604F032F8A36D002B03DCBB21B4
:100BE000034803F096FFA36D0120013BA36538BDC8
:100BF0002057000038B50546B0B1B9B1B2B1B2F571
:100C0000006F13DC04F014F895F84C3003F0FF0487
:100C10001BB104F013F8064838BD012385F84C30A9
:100C200004F00CF82046F7E70248F5E70248F3E73E
:100C3000032000F0012000F0022000F02DE9F04335
:100C40001E46002387B080F8543090F85C700E9BED
:100C500004468846C66343633FBB4FF44063056860
:100C60006B614369092B23D905F12C034435012716
:100C70004FF00109A16D0131A16512490494CDE93C
:100C800002710196CDF80090216BA06A03F087FFF6
:100C90000023CDE90167CDE90333CDF80090434649
:100CA0002A46E16A606A03F060FF07B0BDE8F0839E
:100CB00003D105F120033835D9E705F124033C358C
:100CC000D6E700BFA50B00002DE9F04304468A4F8C
:100CD00089B001AE0D460FCF0FC697E8070086E832
:100CE0000700002C00F006811DB9844809B0BDE85A
:100CF000F08384220021204604F041FA2B68804AC8
:100D0000934200F0B68002F580429342EDD1292053
:100D10004FF4A0224FF001087A4926462F46C4E935
:100D20000B12206546F8043B0FCF0FC697E80F0063
:100D300086E80F006B7E012B08BF8DF81230AB7E6A
:100D400033B1012B40F09C804FF40073ADF81430A8
:100D50002B7E0121012B03BF00238DF811304FF4AE
:100D6000E133EB683A20039300F0C0FA0121206DD3
:100D700000F0BCFA2B691A1F0C2AB6D8033B28686E
:100D800001A98DF8103001F0E9FCAB6923F47F0371
:100D900023F47F4323B92268936843F4803393603C
:100DA0002B7A2879697940EA03406B7AAA7941EA7B
:100DB0000341AB7AEE7E42EA0342534B4FEA4818B6
:100DC0004344002E67D11D26C3F81C66C3F83406C1
:100DD000C3F82C16C3F83026E97AEA7942EA0142D0
:100DE000C3F82026E37BE27A277F207A94F80980F3
:100DF000A57A217B94F80D90A67B84F8442084F892
:100E00004530002F51D13B46042201F043FA3B46C6
:100E100001224946404601F03DFAA37F0422012BFE
:100E200094BF3B4601233146284601F033FAE37F65
:100E30003BB90123042294F8451094F8440001F0D2
:100E400029FA03F0F5FE314B1A78002A47D1012226
:100E50001A7003F0F3FE02F0DFF9FFF721FD002125
:100E600004F12400FFF7A4FC014600283AD02848EA
:100E70003CE728204FF480224FF0000825494CE73A
:100E8000022B02D14FF4807360E7032B7FF42DAF68
:100E90004FF440735AE71C25C3F81C56C3F83406B8
:100EA000C3F82C16C3F830269CE70023012201F07A
:100EB000F1F9002304224946404601F0EBF9A37FF3
:100EC0000222012B94BF002301233146284601F062
:100ED000E1F9E37F002BB4D101230222ABE703F059
:100EE000ADFEBAE704F12800FFF762FC00283FF4EA
:100EF000FDAEBCE70848F9E674570000022000F098
:100F000000C005500200050000C00350A0160020DC
:100F1000092000F002000400012000F02DE9F34157
:100F20001F46037F0546012B8846164611D03A46D8
:100F3000FFF760FE044640B96EB1089B324600934D
:100F400041463B462846FFF779FE204602B0BDE801
:100F5000F081024CF9E7024CF7E700BF082000F0EF
:100F6000022000F0044BD3F88420D206FBD4D3F83F
:100F70008400C0F3811070470040005038B5104B1A
:100F80000546D3F820310C4603F00303022B0BD0A7
:100F9000032B0DD0012B0FD1FFF774FA052305B1F8
:100FA000286004B1236038BDFFF7A2FA0323F6E7F7
:100FB000FFF7B4FA0223F2E701230020EFE700BFB6
:100FC00000800050F7B50027114B0197D3F88041FE
:100FD000064604F00304012C0D4608D0022C12D062
:100FE00041F2B1310B4803F094FD3C4604E0394630
:100FF00001A8FFF7C3FF0F240EB1019B336005B1B9
:101000002C6003B0F0BDFFF789FA0190F4E700BF50
:10101000008000509057000038B51A4B0546D3F8B1
:1010200024010C4600F00700062821D8DFE800F074
:10103000280410181C0C1400FFF724FA052305B12E
:10104000286004B1236038BDFFF71CFA0623F6E7D9
:10105000FFF74EFA0323F2E7FFF74AFA0423EEE71D
:10106000FFF75CFA0223EAE703F060FD0723E6E7F7
:10107000054840F6A87103F04CFD00231846DEE752
:101080000123DCE7008000509057000038B5104B7A
:101090000546D3F840310C4603F00303022B0BD076
:1010A000032B0DD0012B0FD103F042FD092305B115
:1010B000286004B1236038BDFFF734FA0823F6E74F
:1010C00003F039FD0B23F2E701230020EFE700BF17
:1010D0000080005038B5164B0546D3F800020C4688
:1010E00000F00700042819D8DFE800F020030B0FF8
:1010F000130003F01DFD092305B1286004B123602E
:1011000038BDFFF70FFA0823F6E703F014FD0B23B1
:10111000F2E7FFF7D7F90E23800AEDE7054841F221
:101120006F4103F0F6FC00231846E5E70123E3E7EF
:10113000008000509057000038B5124B0546D3F898
:1011400040320C4603F00303022B0BD0032B0DD0CF
:10115000012B0FD103F0ECFC092305B1286004B189
:10116000236038BDFFF7DEF90823F6E703F0E3FC60
:101170000B23F2E7044841F2FA3103F0CAFC0023E2
:101180001846EAE7008000509057000038B5104B31
:101190000546D3F860310C4603F00303022B0BD055
:1011A000032B0DD0012B0FD103F0C2FC092305B195
:1011B000286004B1236038BDFFF7B4F90823F6E7CF
:1011C00003F0B9FC0B23F2E701230020EFE700BF97
:1011D0000080005010B40F4C0B46D4F8204204F0AD
:1011E0000304012C0ED0022C10D008B100210160A4
:1011F0000BB100221A6040F6D27107485DF8044B2B
:1012000003F087BC5DF8044BFFF7B8BE5DF8044BF4
:10121000FFF73CBF0080005090570000B0F5207FE2
:1012200010B534D009D8B0F5007F2AD003D898B1D2
:10123000B0F5C07F10D0002421E0B0F5607FFAD176
:10124000154BD3F88030C3F301149B0617D5032C3C
:1012500015D040F295210FE00F4B1C6F230B13F0BC
:101260000E0FC4F303340AD0072C08D00F2C06D07D
:10127000032C04D040F28521084803F04AFC601C8E
:1012800010BD054BD3F89040C4F30464F7E7024B5C
:101290001C6FC4F38024F2E70080005090570000D8
:1012A0004FF400320E4B10B504469A660020FFF74B
:1012B000B5FF604341F671320A4C0B4BA04294BF1C
:1012C00000200120D969DA639A6822F4401242EAC8
:1012D00000529A60CA0344BF0022DA6310BD00BF07
:1012E00000900050005A62020000035070B5460999
:1012F00004460D460ED140F22F310D4803F009FC93
:10130000334604F01F047DB103F580530122A2404F
:101310001A6070BD012E05D0064B074A022E18BF79
:101320001346EEE7054BECE703F50053EEE700BF8D
:101330009057000068800050608200506480005028
:10134000002330B5802885B00446019374D02AD894
:10135000002877D0A0F12004412C32D8412C30D87D
:10136000DFE804F070737073888888887373923F25
:10137000A8653F7373732F2F2F2F2F2F8D577373E4
:1013800073B2AD732F2F2F2F2F2F2F2F2F2F2F2FE4
:101390002F702F707070882F2F2F2F2F2F2F2F2F00
:1013A0002F2F2F2F7070B0F5806F63D024D8B0F539
:1013B000007F55D00BD8B0F5807F6AD0B0F5C07FE4
:1013C00040D040F29441434803F0A3FB37E0B0F52E
:1013D000607F45D0F5D8B0F5207F36D0B0F5407F9E
:1013E000EFD1FFF76FF804464FF42070FFF716FFB8
:1013F000B4FBF0F4640831E0B0F5C06F5AD00DD8FA
:10140000B0F5A06F3BD0B0F5B06F3DD0B0F5906FA8
:10141000D7D1002101A8FFF7FFFD10E0B0F5E06F84
:101420004DD0B0F5F06F4FD0B0F5D06FC9D10021DD
:1014300001A8FFF74FFE02E0FFF72AF8019001989C
:1014400005B030BDFFF73EF8F8E7FFF73BF804467C
:101450004FF42070FFF7E2FEB4FBF0F40194EEE7E6
:10146000FFF716F805462046FFF7D8FEB5FBF0F566
:101470000195E4E7002101A8FFF780FDDFE70021E7
:1014800001A8FFF7A7FEDAE7002101A8FFF79AFD00
:10149000D5E702934FF0E0231B695B0705D5FFF703
:1014A00011F80290029B0193C9E703A902A8FFF774
:1014B000EDFDF7E7002101A8FFF7E8FDBFE70021F8
:1014C00001A8FFF739FEBAE7002101A8FFF75EFE89
:1014D000B5E700BF9057000008B58020FFF730FF48
:1014E000034B98429EBF4FF48032024B1A6708BDEF
:1014F000005A620200A000501FB50023B0F5807FA3
:1015000001937FD027D8382800F09C800BD824384E
:10151000092810D809280ED8DFE800F06F6F6F6F28
:101520000D0D670D3685522867D007D83D283AD073
:101530003E2800F08C8040F2795152E08028FAD1A8
:10154000454B1B6F03F00703013B032B47D8DFE834
:1015500003F044413F75B0F5D06F64D019D8B0F5B1
:10156000A06F6FD00AD8B0F5806F46D0B0F5906FFD
:10157000E1D1002001A9FFF74FFD3AE0B0F5B06FCF
:1015800033D0B0F5C06FD6D1002001A9FFF77EFDA2
:101590002FE0B0F5006FECD00AD8B0F5E06F56D070
:1015A000B0F5F06FC7D1002001A9FFF7EFFD20E0F3
:1015B000B0F5086FBFD1284BD3F8003103F0030317
:1015C000022B35D0032B37D0012B39D1FEF790FFFA
:1015D000032300E0052301930BE00223FBE740F225
:1015E000C6411E4803F095FA03E0002001A9FFF769
:1015F000E9FC019805B05DF804FB002001A9FFF7A4
:10160000BDFCF6E702934FF0E0231B695B0705D5AD
:10161000FEF758FF0C230393039BDCE703A902A802
:10162000FFF734FDF8E7002001A9FFF753FDE0E7DD
:10163000FEF778FF0823CEE703F078FA0723CAE71E
:101640000123C8E7002001A9FFF7C4FDD1E700206E
:1016500001A9FFF771FDCCE7008000509057000012
:101660004FF40022034B5A66012203F580439A622D
:10167000704700BF00900050F8B5036804460F2B78
:1016800004D940F66D316C4803F043FA63680F2BC0
:1016900004D94FF43761684803F03BFAA3680F2B75
:1016A00004D940F67331644803F033FA237B0F2BDF
:1016B00004D940F67631604803F02BFA637B0F2B98
:1016C00004D940F679315C4803F023FAA37B3F2B21
:1016D00004D940F67C31584803F01BFAE37B3F2BDA
:1016E00004D940F67F31544803F013FA2369032BE1
:1016F00004D940F68231504803F00BFA6369032B9A
:1017000004D940F685314C4803F003FAE369012B14
:1017100004D940F68831484803F0FBF98020FFF7F0
:10172000EBFE032800F087804FF40022434B022198
:101730005A6645F60E03424AC2F88030414B996220
:10174000012103F580539962936DD903FCD4D4E948
:1017500000131B0543EA0163E17B94F820500B431F
:10176000217BE77E43EA0143617B6D0143EA01335C
:10177000A17B43EA811313619169D4E904031B0639
:1017800043EA806301F000410B43A17E94F82300FB
:101790000B43217E43EA0143617E43EA01239361C7
:1017A000136AE66923F00D0394F8221043EA8703D5
:1017B000002E2DD11362966A94F8213045EA031366
:1017C00026F033052B4343F0010393621E4D1C4B5F
:1017D0009A6D35EA0202FBD102221A4DAA621A65FD
:1017E0009A6D5200FCD41A69A56822F4700242EA8C
:1017F00005521A614FF00042124B9A6119B9022248
:1018000003F580539A6278B90122104B9A620BE07B
:10181000334343F008031362936A23F03303034313
:101820002B4343EA4103936294F824301BB1044BE9
:10183000074AC3F88020F8BD905700000090005080
:1018400000C0005000D000500300014000E00050F4
:10185000F1A7FFFF014B93F900007047A11600208C
:10186000436810B5072B044604D940F6B3512A4803
:1018700003F04FF9A368032B04D940F6B55126486D
:1018800003F047F92378032B04D940F6B7512248D7
:1018900003F03FF994F90130002B04DA40F6B95116
:1018A0001D4803F036F94FF480011C4A63785166F5
:1018B0004FF4D151022002F5B832516218494F2B32
:1018C00048604FF0010028BF4F2301F58051486068
:1018D0001169C903FCD4217843EA01235361D4E997
:1018E00001131B0143EA0123617B0B43217B43EA84
:1018F00041039360E37BA17B1B0143EA4113617CBD
:101900000B43217C43EA41035360A37C13B16FF482
:10191000D153536210BD00BF90570000009000509B
:1019200000100250014B1880704700BF9610002035
:10193000014B1880704700BF94100020B0F5207F45
:1019400010B565D00ED8B0F5007F4FD003D800B3E6
:10195000B0F5C07F1DD040F21231BDE810403448D0
:1019600003F0D7B8B0F5607FF5D14C1E012C06D935
:10197000042904D04FF43D712D4803F0CAF82D4AD4
:10198000D2F8803023F0300343EA0413C2F88030E9
:1019900010BD4C1E012C0AD9102903D8264BCB4070
:1019A000DB0704D440F2C721214803F0B2F803F06A
:1019B00010F903F01CF94FF48031204B1D4A1967D0
:1019C000136F23F4704343EA04331367FEF77AFD81
:1019D0000446FFF7C7FAC0F10201204603F001F9FF
:1019E00000F03EF8BDE81040FFF776BD4C1E1F2CFE
:1019F00004D940F206310E4803F08BF80D4AD2F8B4
:101A0000903023F0F85343EA0463C2F89030BFE704
:101A10004C1E012C04D94FF44371054803F079F8AA
:101A2000044A136F23F4806343EA84231367AFE708
:101A300090570000008000501001010000900050FD
:101A400008B50121022000F041F803F0C2F803F0CC
:101A5000CEF84FF48032014B1A6708BD0090005059
:101A600008B54FF4C070FFF76BFCBDE808400449AF
:101A7000884294BF012102214FF42070FFF75EBF1E
:101A800080F0FA02C3B23F2B10B5044604D94FF4DC
:101A90004D71074803F03DF8064B620953F82200E8
:101AA00004F01F04E040C04300F0010010BD00BF7F
:101AB000DB57000000E100E0034A0179D36E23F018
:101AC00030030B43D366704700400050F8B504461E
:101AD000244BD3F88420D006FBD4D3F88430C3F34E
:101AE00081139C423CD0FEF7D3FC012C05460BD160
:101AF0001D4B984204D940F292711C4803F009F83A
:101B00000121284603F06DF803F08BF84FF00072C6
:101B1000174B07465A66204603F093F84FF480634C
:101B2000104E621E93403367736E9A0103D4D6F849
:101B300084309B060AD5384603F077F8022C0FD183
:101B40002846BDE8F840002103F04BB8D6F88430B1
:101B50009906E9D54FF4F461044802F0DAFFE3E7AF
:101B6000F8BD00BF00400050005A62022758000034
:101B70000060005010B50C4608B9FEF789FC074B11
:101B800021461B783BB1064B984204D80120BDE8A2
:101B90001040FFF79BBF0220F9E700BFA21600200C
:101BA000005A62024FF0004238B5264B26495A6669
:101BB00001224A604AF6CD3103F50B235D6C1964AE
:101BC000154030BB9968C9070BD4002401221F4B74
:101BD0005A6015B11E4B1F4A1A6403F033F82046B1
:101BE00038BD1A498A601C4AD96ACC0705D490428C
:101BF00001D10724EAE70130F6E79042E5D1F8E7A2
:101C00000132DC6A14F0080406D08A42F8D10724B5
:101C1000DFE700221049F4E78A42F8D020220B4B7C
:101C20000B495A620122A3F580539A6023460A4A5F
:101C3000486A800603D49342E9D00133F8E793421F
:101C4000C7D1E4E7009000500050095000600950EF
:101C5000004009503254FFFF40420F004FF0004255
:101C600038B5174B174C5A66012203F50C235A60FE
:101C70004AF6CD33656C2364437893401343124A8C
:101C8000D363C3788178A2689B0043EA011322F0F2
:101C900074021343A3600279837943EA0223236128
:101CA0004279C37943EA022363610078FFF77AFF40
:101CB000EB0744BF054B236402F0C4FF012038BD8D
:101CC0000090005000400950004000503254FFFF87
:101CD00010B5044602F0BBFF002341F2020208499E
:101CE000E360A360226104F50052E3616361A361D4
:101CF00023626362E362A3645164A36210BD00BF08
:101D00007F370C0138B5154B044698420D4604D078
:101D10004FF4B371124802F0FCFE25B92046BDE82D
:101D2000384002F094BF012204F580535A6040F21B
:101D3000FF71204605F00F0202F085FF2263782133
:101D400002F081FF05F001036A0748BF43F0020378
:101D5000226C02F003029A42FAD138BD0000035A05
:101D600072580000F8B506460C46154622B94FF4E5
:101D70000971434802F0CDFE424B9E4202D184B924
:101D800038240AE040F227213D4802F0C2FE44B95F
:101D900040F276313A4802F0BCFE2046FFF7D0FA16
:101DA00004467368012B04D040F25921344802F0F4
:101DB000B0FEB36803F0E003402B42D009D893B1E2
:101DC000202B1AD040F29B21BDE8F8402C4802F0AD
:101DD000A0BE602B42D0802BF4D105EB4503A3427B
:101DE00047D801230DE0B5EB141F04D940F281213F
:101DF000234802F08EFE102303E0B5EBD40F1AD86F
:101E000008236B436401B4FBF3F41F4F203CB7EB92
:101E1000C40F4FEAC40504D240F2A621184802F0CC
:101E200078FE30463D40012102F00DFFB562BDE86D
:101E3000F84002F008BF40F28621114802F069FE26
:101E4000DEE70623B4FBF3F3AB4201D30623D8E766
:101E500040F28B210A4802F05CFEF7E7B5EB940FE5
:101E600001D80423CDE74FF42471054802F051FE58
:101E7000F7E740F29521024802F04BFEB1E700BFC0
:101E8000725800000000035AF8FF7F00436870B5E5
:101E900004460D4616461BB140F2FF7102F0D3FE18
:101EA0002046FFF715FFE9896B7B22690B43298ADE
:101EB00022F44C520B4322F0030213432361A26825
:101EC0002B7B297E22F0804222F0E2020B43134357
:101ED0006A691343A360AB681BB9A36843F000436E
:101EE000A360EB69002B57D0987A1A7A4004A16856
:101EF00040EA82503F4A0A4010439A8802F4C042A6
:101F000010435A7840EA82005A7B40EAC2009A7B2A
:101F100040EA02109A7840EA8220A060E168D3E9A2
:101F2000042021F4D81121F4C06102430A439979B5
:101F300042EA8122D97942EA4122E2601A78012AF2
:101F400005D1E26842F00402E2602B4A06E0032A6F
:101F50003ED1E26842F00402E260284A0121C2F860
:101F6000C0105A7A04F580510A621AB1E26842F44C
:101F70000062E260DA7A4AB1E268214942F4004242
:101F8000E2601A7B02F00F02C1F88020E269DB7B7D
:101F900022F003021343E36136B196F8203004F5D2
:101FA0008051CBB101238B6105212046FFF7AAFEAA
:101FB000AA681AB120466968FFF7D4FE204629783E
:101FC000FFF7A0FE236CDB4313F4405FFAD170BD32
:101FD000023A012AC1D9B8E7626996F8223096F828
:101FE000210022F009020343134343F001034B6134
:101FF000DAE700BFE39BBDFF00E4035000D40350C9
:102000000090035038B5294B054698420C463FD105
:1020100019B98C21264802F07CFD3820FFF76CFAB4
:10202000083808283DD8234B0341DB0739D4637BAC
:10203000032B03D9AA211E4802F06BFD237B802BC2
:1020400003D0AC211A4802F064FD6369B3F1804FFC
:1020500003D0AE21164802F05CFD238A23F400531E
:102060009BB2B3F5805F03D0B021114802F051FD5F
:10207000A368013BB3F5165F03D3B2210C4802F00D
:1020800048FD21462846BDE838400022FFF7FEBE45
:102090008A21074802F03DFD1CB98C21044802F05A
:1020A00038FD9E21024802F034FDC0E70000035ACB
:1020B00072580000F4FEFFFF38B5114B05469842F8
:1020C0000C4603D070210F4802F023FD1CB9722189
:1020D0000C4802F01EFD237B802B03D1762109489A
:1020E00002F017FD637B032B03D97921054802F029
:1020F00010FD21462846BDE838400022FFF7C6BE45
:102100000000035A725800001F2970B504460D469E
:10211000164603D99121064802F0FBFC2EB104F5C6
:1021200080540123AB40236070BD04F50054F8E7F0
:10213000C0580000032838B504460D4605D80B4B9F
:1021400033F81030CB40DB0704D440F22D4108486F
:1021500002F0DFFC30220123544341F2100204F16B
:10216000A044AB4004F57034A35038BDA45900001E
:102170000B590000032838B504460D4605D80B4B13
:1021800033F81030CB40DB0704D440F2FE3108486E
:1021900002F0BFFC30220123544342F2100204F14A
:1021A000A044AB4004F57034A35038BDA4590000DE
:1021B0000B5900002DE9F84F032807460E46144638
:1021C00098469DF828A09DF82C9005D8274B33F809
:1021D0001030CB40DB0703D4BF21254802F099FC27
:1021E00086EA0403032B03D9C121214802F091FCA4
:1021F000072C4FF0030506F0030625D84FEA840BA1
:1022000005FA0BF529461B4807FA0BF202F041FDCF
:102210002946194806FA0BF202F03BFD42462146D8
:102220001648FFF771FF524621461548FFF76CFF2D
:102230000123144AA340C2F8203421464A46BDE88F
:10224000F84F1148FFF760BFA4F1080B4FEA8B0B62
:1022500005FA0BF529460D4807FA0BF202F019FDB5
:1022600029460B4806FA0BF2D6E700BFA459000036
:102270005759000000C4035008C4035010C4035051
:1022800014C4035000E0035024C4035004C403509A
:102290000CC403500328F8B504460D4616461F46E5
:1022A00005D81C4B33F81030CB40DB0704D44FF477
:1022B000B071194802F02DFC26B129462046CFB155
:1022C000FFF738FF04EB4403072D4FF00F014FEAEF
:1022D000031312D8A80006FA00F281400F481844F0
:1022E00002F0D7FCAEB92946204677B1BDE8F840E8
:1022F000FFF720BFFFF73EFFE4E7A5F108008000ED
:1023000006FA00F281400648E9E7BDE8F840FFF729
:1023100031BFF8BDA45900005759000004C0035054
:102320000CC003504FF400120B4B10B5C3F88020C3
:10233000BFF34F8FBFF36F8F0024FF22074B21465F
:102340005C6520209A625C60FEF7D0FF2146BDE804
:1023500010402120FEF7CABF00E100E00000045059
:10236000072838B504460D4603DD7721084802F0FA
:10237000D0FB1F2C03D99121064802F0CAFB064A64
:10238000064B002D08BF13460122A2401A6038BD3B
:10239000AC590000C05800004010045040200450C8
:1023A00010B5044618B991211F4802F0B2FB2378FA
:1023B0001B0613F0604F03D092211B4802F0A9FBCB
:1023C000E3780F2B03D9A321174802F0A2FB0121C8
:1023D0002020FEF78BFF01212120FEF787FF01223D
:1023E000124B5A60227812069A606178A27842EA0B
:1023F00001429A61FF229A6200229A631A644FF0A6
:1024000000425A654FF0FF324FF4001103F50053BC
:102410001A65074AC2F88011E3781B01DBB282F823
:102420001533116010BD00BFAC590000000004500E
:1024300000E100E02DE9F0410126C3B2072805467E
:102440000C46904606FA03F603DDEC21354802F00F
:1024500060FB1CB9ED21334802F05BFB236823F4D9
:102460007C1323F00F031BB1F0212E4802F051FB27
:10247000A37A1B0413F47C0F04D040F209112948FD
:1024800002F047FBE37A1B0513F07E6F04D040F2A5
:102490000B11244802F03DFB237B5B0513F0FE5F2C
:1024A00004D040F20D111F4802F033FB1E4B1F4FAA
:1024B0001E65226803F5005343F82520302202FBF5
:1024C0000575637B2B66E37AA27A1B0543EA024318
:1024D000227B43EA4253EB6528F003032B6702F0AB
:1024E000A7FB7B6D33437B65237A13B13B6C33438E
:1024F0003B64637A13B1BB6B3343BB632279A3792B
:1025000043EA0243084A93616179E37943EA01436C
:1025100007498B61054B56639E64BDE8F04102F0AC
:102520008DBB00BFAC5900000020045000000450D7
:102530000010045010B50124C3B2072804FA03F4B4
:1025400004DD40F29711074802F0E3FA02F070FB55
:10255000054B5A6D22EA04025A659C62BDE81040A0
:1025600002F06CBBAC5900000000045010B501240F
:10257000C3B2072804FA03F404DD40F2B5110A4897
:1025800002F0C7FA02F054FB084BDA6A224208D183
:102590005B6B9C430CBF0124002402F04FFB2046E0
:1025A00010BD0024F9E700BFAC5900000000045042
:1025B000022838B505460C4603D94C210C4802F0D8
:1025C000A8FAE378627821785B0143EA82032279F2
:1025D0000B4343EA02130C226A4302F1B042136335
:1025E000012902BFA278034B43F8252038BD00BF64
:1025F000F8590000E880035008B54FF0B0435A681E
:102600006AB958B15B680BB102F053FB01210D4B65
:10261000596002F04EFB4FF0B043D96008BD5B68D3
:102620000BB102F046FB0028F0D102F042FB4FF064
:10263000B0430222DA6002F03CFB0122024B5A60F6
:10264000ECE700BF00100058002000584FF0B041E8
:102650004B6810B50BB102F02CFB01220B4BC47878
:102660005A608378934043EA84034478234304798F
:1026700043EA0413447943EAC4038B60044B5A6071
:102680000378C3F10203CB6010BD00BF00200058E7
:1026900000100058024B1868C0F30740704700BF95
:1026A0000080E00F70B506460C46154622B940F290
:1026B0008E210C4802F02DFA24B94FF42070FEF759
:1026C0003FFE04466D00013CB4FBF5F4064B2502C9
:1026D00013EA042304D040F2B321024802F019FAAD
:1026E000F56170BD445A0000070080FF174B10B51C
:1026F0009842044608D003F58043984204D040F243
:102700004241134802F005FA012204F580535A6051
:1027100040F6AA6341F20502636100230D49A360FC
:10272000E365E26004F500522361E361E3649164D0
:102730000649A3658C4203D123650023636502E04B
:1027400005498C42F8D00123536010BD00C00550EC
:10275000445A0000FFFF01000000065038B52F4B1F
:10276000044698420D4608D003F58043984204D0B1
:1027700040F269312A4802F0CCF92046FFF7B6FF53
:10278000012204F580535A602B8AA26843F00103AA
:102790001343AA7B43EA8223A360A3682A7D43EA0A
:1027A0004273A360AB7C5BB11C4AEB7C94422DD19D
:1027B000A2F51032C2F88C31E36D43F08003E3657B
:1027C0002B7B2046D5E9011243F48053E360FFF7E9
:1027D00069FF6B7B0BB1102363616B7D1BB1A36839
:1027E00043F48033A360AB7D1BB1A36843F4004383
:1027F000A360EB7D2A7E1B07120503F0E04302F481
:10280000E0021343A3652B78636138BD054A944207
:1028100004BFA2F52032C2F89C31CDE700C00550BC
:10282000445A00000000065007B56B46054A106880
:10283000516803C36846FFF711FA002003B05DF842
:1028400004FB00BF915A000013B50024064A6846F5
:10285000536F43F00103536700948DF80440FFF772
:102860002BF9204602B010BD0040005030B58BB0AF
:102870006C46184D0FCD0FC40FCD0FC495E8030063
:1028800084E80300144BD3F84C2112031DD5A3F5A3
:10289000FE431C884FF6FF739C4208BF8C248DF8C2
:1028A0001940FEF7D7FF204480F308008DF8180088
:1028B0000A48FDF723FE6846FEF7DEFE4FF4FA7085
:1028C000FFF736F800200BB030BDD3F85041E4B22A
:1028D000E5E700BF9C5A00000080E00F00F04902CD
:1028E00030B5094D87B001AC0FCD0FC42B6801A8DE
:1028F00023603F238DF80530FEF7B2FF3220FFF74B
:1029000011F8002007B030BDC45A00006FF0040376
:10291000502110B50A480B4C13F0800F03F101024F
:1029200007D12344402A83F800131346F4D1002032
:1029300010BD03F00F03043B034419761346EBE785
:1029400000ED00E000E100E010B5044602F069F996
:10295000024B1C6002F069F9002010BD3C140020FD
:1029600010B502F05EF9034B1C6802F05EF92046D8
:1029700010BD00BF3C1400202DE9F0438DB01C4673
:1029800006AB064689461846904600211822149D3B
:1029900002F0F5FB227903460AB18DF81820C8F839
:1029A0001C3063790127C3F10203DBB2CDE90333A5
:1029B000644B30460293644B4A46019300232946F8
:1029C0000093624B8DF81E7000F0E2FA0646002874
:1029D00040F09280A3683946EB63A3693A20EB6428
:1029E000237DDFF8749185F8483023696B64237B7D
:1029F00085F84030236A6B65237F85F85030A36AE1
:102A0000EB6594F8243085F858302368AB63FEF703
:102A10006DFC3B4604222169207BFFF73BFC3B46D3
:102A20000222A169207DFFF735FC88F8006085F857
:102A300060603946A068FEF759FC6379394633BBBC
:102A40004FF4C060FEF752FCD9F82032414623F023
:102A5000030343F002032068C9F82032FFF7D2FADB
:102A600002223B4B2169C3F8C020227B42EA01428B
:102A7000C3F8D020A169227D42EA0142C3F8CC20EC
:102A80002379032B5BD8DFE803F02E193B544FF476
:102A90008060FEF72BFCD9F82032414623F0030377
:102AA00043F00103C9F820322068FFF705FB95F8D1
:102AB000603043F0040385F86030D1E7002795F8D3
:102AC000603043F0010385F8603002220023216A60
:102AD000207FFFF7DFFB226A237F43EA02431D4A80
:102AE000C2F8C43097B90422AB6B052103F58053BB
:102AF00020689A64FFF706F930460DB0BDE8F08310
:102B000095F8603043F0020385F86030002304221A
:102B1000A16A94F82400FFF7BDFB01230D4AA16AC6
:102B2000C2F8C03094F8243043EA0143C2F8C830F8
:102B3000D9E795F86030012743F00303C3E7232664
:102B4000DAE700BF294D0000994D0000C94D000093
:102B500000C4035000D403500080005010B5002082
:102B6000144602F0B8F8022804D018B1C321024874
:102B700001F0CFFF204610BDD85A0000034B0222BF
:102B8000186800238068194601F090B844100020AE
:102B9000302238B5037A0446534303F1A04303F5CA
:102BA0008023DD6ED0E9032313449D4201D8AA425D
:102BB00004D94FF43E71054801F0ABFFD4E903039B
:102BC00003449D4218BF284638BD00BF425B000049
:102BD00030B51446054687B01046FFF7D9FF636944
:102BE000024683423CBFD4E903315B181B1AABB1E8
:102BF0001249049403910021CDE90131012300938E
:102C00002846D4E9001301F0CAFF20B14FF4347113
:102C10000B4801F07EFF002007B030BD0122627634
:102C200094F82D20002AF6D084F835301321E3697A
:102C3000204698472046636A9847ECE7D12B00006E
:102C4000425B00002DE9F04788B004460F46164667
:102C5000984601F0EDFF8146002E00F0AD80237E06
:102C600003F0FF02002B00F0E0802046FFF790FF0A
:102C700063698246984206D1637E23B940F27F3170
:102C80006B4801F046FF6569AA459DBFD4E9033250
:102C90009B185D1BAAEB0505B54228BF354601F020
:102CA000C7FF94F82D308246002B40F096802A46CC
:102CB0003846616902F06EFA63692E462B446361FF
:102CC0002CE06069037803F0FD01112940F0828057
:102CD000216B884205D1A3F111014B424B4184F88D
:102CE0003430013E6369216B01328B4203F10103F1
:102CF00008BF236363619542E3D1D4E90323216BC9
:102D00001344994208BF2263216B8A4201D88B4247
:102D100004D84FF46D71464801F0FBFED4E903235B
:102D200061691344994208BF626161698A4201D8AE
:102D30008B4204D84FF471713D4801F0EAFE002344
:102D4000207A6376FDF7E0FD20B140F2113138487A
:102D500001F0DFFE2046FFF71BFF636983423FD18E
:102D60000023E568237694F82D30656103B125636F
:102D70002046636A98472F4B0494039300230293E1
:102D800023692A4601930123009363682168207A0E
:102D900001F005FF20B140F22D31254801F0B9FEC8
:102DA000207AFDF7D1FD20B140F25131204801F0E9
:102DB000B0FE504601F042FF4846C8F8006001F0FE
:102DC0003DFFD8F80030002B0CBF1B20002008B0BE
:102DD000BDE8F08707F8013B84E72E4600228AE72A
:102DE0000123207A23760DF11E01FDF715FE20B197
:102DF0004FF450710E4801F08CFE9DF81E30207A81
:102E0000002BCDD00DF11F01FDF7DEFD20B140F20A
:102E10004631074801F07DFE9DF81F10207A0029F9
:102E2000BED12246FFF7D4FEBAE71646C4E700BF7C
:102E3000425B0000D12B000070B504460568FFF727
:102E40008FFD844202D10020FFF77EFD95F93630D8
:102E5000002B11DB012203F01F015B099B0003F132
:102E600060438A4003F56143C3F88021C3F88020A2
:102E7000BFF34F8FBFF36F8F287AFDF785FD20B129
:102E80004FF4ED71104801F044FE287AFDF7E2FCA2
:102E900020B14FF4EF710C4801F03BFEFDF7B8FC98
:102EA00038B10A4B984204D04FF4F171064801F052
:102EB00030FE00232846C4E90033C4E90433A3608C
:102EC000AB6ABDE870401847425B0000058000F027
:102ED0002DE9F84304460D4690F82C80DFF8AC90BD
:102EE0008E18AE4228D094F82D3083B101F0A0FEA8
:102EF000237E07461BBB226B63699A4204D040F2D3
:102F0000F911484601F005FE384601F097FE94F8A5
:102F10003430002BE5D0B8F1000F06D02B780A2B07
:102F200003D10D212046E36998472046E36915F84F
:102F3000011B98470028D4D00020BDE8F883204624
:102F4000FFF726FEE1680138884238BF2069D4F8CF
:102F500030C03CBF00F1FF30401803469C450BD009
:102F600013F80129112A01D0132A07D1A2F1110364
:102F70005A425A4184F834202063C5E7994282BFFF
:102F8000236903F1FF335B18E8E700BF425B0000F1
:102F9000F0B50C460646154687B03822002120467B
:102FA0001F4602F0ECF895E8030000232A69237617
:102FB000EB6884E80300C4E904232A7DE36084F815
:102FC0002C20AA7D2363012384F8343084F8353023
:102FD0000C9B84F82D2023620D9BE76163620E9B9E
:102FE000A3622B7A84F83630204B34607360204B18
:102FF000B360204B3361204B7361204BF360FDF7CE
:103000004FFC30B11E4B984203D01024204607B02D
:10301000F0BD002104F10800FDF7CAFB0028F4D13F
:103020000127184B0494CDE902032369009701930B
:103030006368E2682168207A01F0B1FD0446002847
:10304000E3D195F90830002B0BDB03F01F025B097D
:103050009B0003F16043974003F56143C3F880711F
:103060001F603046FFF770FCD0E700BFD12E000094
:10307000452C00007B4E0000814E0000392E0000E0
:10308000038000F0D12B000030B50E4C4161236865
:103090008BB9206083600DE0891A9A681D464161F2
:1030A0006AB113465A698A42F6D935B1A860521AF4
:1030B00083605A6130BD0025F4E72060F7E798602F
:1030C0008260F7E74814002038B501F005FF0025BD
:1030D000084B094C1A682368C31A2AB123B15169F5
:1030E000994203D3C91A5161206038BD55615B1AFA
:1030F0009268F2E7481400204414002038B5134DBC
:103100002B685B6993B1124A022014681C4401F0D9
:10311000EAFE204600F022FA00230E492A680B70CE
:10312000D088800709D501230B7038BD022001F03B
:10313000DAFE022000F05CFAEEE79268002AF4D092
:1031400050690344012BEBD9EFE700BF481400207E
:1031500044140020A416002070B516469DF81420D3
:10316000C0E903360271049ABDF8183002600022EB
:1031700004460D468260C380EEB901F0ADFE2844DE
:10318000A0619DB12E4601F04CFD0546FFF79CFF66
:1031900031462046FFF778FF104B1B68A34201D150
:1031A000FFF7ACFF284601F040FD02E0E3686561EF
:1031B0007BB9002070BD01F08FFE3044A061002D6E
:1031C000E0D1E3686561002BDDD020462168984797
:1031D000D9E7204621689847EBE700BF4814002054
:1031E00000220C490B687BB183420AD183687AB113
:1031F000936083681BB15A6941690A445A6100208F
:1032000070471A469B68EEE70028EFD0022070470F
:103210000B60EEE74814002070B501F009FD144E74
:1032200005463478FCB9134B1C60134B1C60134BE0
:103230001C8000F04FF9012001F055FE01F05FFE07
:103240000F4B0246186020B9284601F0F7FC2320F6
:1032500070BD234640F2E7310A4800F085FB0A4B77
:10326000186001233370284601F0E8FC0020EFE7E6
:10327000A516002048140020441400209C160020AD
:103280004C14002018FCFFFF4014002070B50446C9
:1032900040B301F0C6FC144E0546FFF715FF306839
:1032A000A04209D02046FFF79BFF0446B0B1284654
:1032B00001F0BBFC204670BDFFF792FF04460028DA
:1032C000F5D133683BB9022000F07AF9284601F0C5
:1032D000ACFC0024EEE7FFF711FFF7E73368002BA3
:1032E000F4D1F0E72224E5E74814002038B50C4675
:1032F0000546A8B1A1B100230B7001F099FC012192
:10330000084B1B6833B901F099FC002038BD9D4281
:1033100004D121702278002AF9D0F4E79B68F1E704
:103320002220F3E74814002038B50021044640F27B
:10333000E730054B4FF47A721D680023E5FB04016A
:1033400000F012FB38BD00BF4C140020012300B573
:103350008DB08DF80F30FFF7E7FF00230146CDE970
:103360000033074A0DF10F0304A801F08FFD18B9CF
:103370009DF80F30002BFBD10DB05DF804FB00BFB2
:10338000874E0000C2072DE9F04704460BD54D4A91
:10339000138801339BB21380FFF796FE4A4B1B68DC
:1033A0000BB1FFF7ABFEA30740F18A8001F040FCB0
:1033B0004FF0000905464E46FFF786FEC846424FCD
:1033C0003C680CB163698BB10022404B012E1A702E
:1033D00003D119F0020F18BF1E70002C6CD0FFF73C
:1033E0008DFE2846BDE8F04701F028BC23465A6907
:1033F0003AB91A792179914288BF1C469B68002B03
:10340000F5D1284601F01AFC2569DDB101F064FD13
:10341000A269A0EB02094FEAE9734D4578EB03037B
:1034200011DA23691344A361E368B4F80690013606
:1034300013B120462168984701F0FAFB0546FFF7D3
:1034400043FEBDE7A94601F0F3FB82462046FFF7A5
:10345000C7FE504601F0F2FB2369002BE4D0B5EB28
:1034600009054FEAE97363EB4303002B04DA40F2EA
:103470002B51174801F04DFBA38B33B1E28B134462
:103480009BB2B3F57A7F0FD2E38301F0D1FB814683
:1034900029462046FFF7F8FDA369226948461344F0
:1034A000A36101F0CBFBBFE7A3F57A73E383A369C4
:1034B000013D013BA361E8E7022000F081F890E7BD
:1034C000BDE8F0879C16002048140020A3160020B9
:1034D000A25B00001FB500241D4B012118689A88CB
:1034E0000290D3F806009B7A00903E20ADF80C20A5
:1034F0008DF80430FDF7FAFE8DF8084001F0EAFC83
:103500008DF80C0002A8FFF7A1F8694601208DF89C
:103510000040FFF74DF84FF0B04240F2FF319369A1
:1035200023F47F7323F0030393610A4B5961936A79
:1035300013F00803FBD113620120FFF75DF84FF48D
:103540008052054BC3F880211A6004B010BD00BF43
:10355000015C00000020005800E100E010B50446C6
:1035600001F05FFB4FF0B042936A1907FCD4136A75
:10357000116C5269520604D4CA1A032A01D88B422C
:103580000ED1E21A022A98BFDC1CB4F1FF3F38BF0B
:10359000013C4FF0B0431C649A6942F040029A61CA
:1035A00001F043FB054A13783BB14FF0B041CB6BC0
:1035B00043F00203CB630023137010BD981000206A
:1035C000820700F001030AD50121084A43F04003B5
:1035D00011704FF0B041CA6B22F00302CA634FF082
:1035E000B0418A6922EA03038B617047981000207A
:1035F000830742BF4022014B5A61704700100058B8
:1036000010B501F015FB4FF0B04304465B695A0654
:10361000074A03F0010003F0510348BF40F00200E5
:103620005361FFF7AFFE2046BDE8104001F006BB36
:103630000020005810B50446FCF744FF4FF47A729E
:103640009042B0FBF2F105D23621BDE810400C48A3
:1036500001F05FBA0B4BB3FBF1F30B49884201D980
:103660003C21F2E702FB04F0B0FBF3F0022806D99C
:10367000BDE810400323B0FBF3F0FCF761BD10BDC3
:103680000C5C000040420F00E7CD9A3B00B1FEE722
:10369000014800F095BC00BF635C000013B5FDF766
:1036A00033FA00200849FDF747FA01240023214698
:1036B0001A462046CDE90044FEF77CFD034BC3F8D3
:1036C000244402B010BD00BF8D36000000D003506E
:1036D00010B5234CFDF7C4FFFEF7B2F9236F23F0BA
:1036E000070343F00303236701F086FA1D4B002014
:1036F0009B6A9B075EBF01221B4B9A62D4F8203164
:1037000023F0030343F00203C4F82031D4F824313A
:1037100023F0070343F00203C4F82431D4F8403106
:1037200023F0030343F00203C4F84031D4F86031BE
:1037300023F0030343F00203C4F86031D4F84032AD
:1037400023F0030343F00203C4F84032D4F80032FC
:1037500023F0070343F00203C4F8003210BD00BF9A
:103760000080005000C0005000E0005008B5FEF797
:1037700091FF01280ED1104B04205A6E4FF4802384
:103780000E49520358BF0E4A4B6601F510410862BC
:1037900058BF5366FFF7BAF801F063F9FFF744F832
:1037A000FFF79EF8FFF762F8FFF792FFFFF74CF87C
:1037B000BDE8084001F04AB9008000500090005078
:1037C00000A0005030B52B4D9DB009AC0FCD0FC4FB
:1037D00095E80F0084E80F004FF4613322220021A6
:1037E0000DF14A000B9301F0CAFC234B0124119305
:1037F000382313930523159306231793082319934E
:1038000007231B9303230E2200210DF116008DF8D0
:1038100049408DF8483001F0B2FC4FF4801C174B42
:103820001748CDE903C33E238DF814303F238DF8AC
:103830001530144B09AA069320230793124B03A9B2
:10384000009311AB8DF82140FFF796F8044618B1AC
:103850007C210E4801F05DF99DF822304FF4613073
:10386000002B0CBF0321002101F044F920461DB0BC
:1038700030BD00BFD45C00000000035A3400035A7E
:10388000B4140020A616002050140020785C00001C
:10389000014801F09FBA00BFB4140020024B034955
:1038A0001868FDF711BA00BF341000201410002072
:1038B0000149024800F072BBF45C0000FD5C0000AE
:1038C00038B50F4D0F4C41F28830FFF73FFD2A68A5
:1038D00020460D4900F09EFA2B68214601332B60EB
:1038E0000A4D0B4800F05AFB29462046102200F0F2
:1038F0001BF82946BDE83840064800F04FBB00BF22
:1039000050150020C6160020195D0000D6160020B4
:10391000235D00003C5D000011B90122014B1A70CB
:10392000704700BFE61600201346002213B50A4C6C
:1039300022700A4A00920A46014609480068FDF7CB
:10394000EDFA18B14521074801F0E3F82378002B80
:10395000FCD002B010BD00BFE616002019390000EF
:1039600034100020595D000053B94AB9002908BF3E
:1039700000281CBF4FF0FF314FF0FF3000F082B93C
:10398000ADF1080C6DE904CE00F006F8DDF804E0B6
:10399000DDE9022304B070472DE9F04F099D0C4684
:1039A000002B4DD18A420F4684469646B2FA82F3E6
:1039B00060D94BB102FA03FEC3F120029F4000FA26
:1039C00003FC20FA02F217434FEA1E461FFA8EF458
:1039D0004FEA1C42B7FBF6F106FB117701FB04F03E
:1039E00042EA0742904208D91EEB020201F1FF377A
:1039F00002D2904200F231813946121A1FFA8CFC31
:103A0000B2FBF6F006FB102200FB04F44CEA024C79
:103A1000644508D91EEB0C0C00F1FF3202D264455C
:103A200000F21E81104640EA0140ACEB040C00217C
:103A300025B12CFA03F30022C5E90032BDE8F08F6E
:103A40008B4205D90DB1C5E9000100210846F5E713
:103A5000B3FA83F100294DD1A342C0F0F380904224
:103A600080F0F080064623460846002DE6D0C5E9E2
:103A70000063E3E7002B40F0A3808A1A4FEA1E4759
:103A80001FFA8EF60121B2FBF7F407FB14204FEA70
:103A90001C4242EA004206FB04F090420FD91EEBA2
:103AA000020204F1FF382CBF4FF001094FF000096A
:103AB000904203D9B9F1000F00F0CC804446121AAD
:103AC0001FFA8CFCB2FBF7F007FB102200FB06F696
:103AD0004CEA024C664508D91EEB0C0C00F1FF3293
:103AE00002D2664500F2B3801046ACEB060C40EA09
:103AF00004409DE7C1F120068B4004FA01FE22FA42
:103B000006F720FA06FCF4408A401F434EEA0C03F5
:103B100000FA01FE4FEA17484FEA13491FFA87FCE3
:103B2000B4FBF8F008FB104449EA044400FB0CF92C
:103B3000A1450ED93C1900F1FF3A2CBF4FF0010B03
:103B40004FF0000BA14503D9BBF1000F00F08B80B3
:103B50005046A4EB09041FFA83F9B4FBF8F308FB01
:103B6000134403FB0CFC49EA0444A44506D93C1960
:103B700003F1FF3801D2A4457BD8434643EA004015
:103B8000A4EB0C04A0FB02984445CC46434602D368
:103B900006D1CE4504D20138B9EB020C68EB07031D
:103BA000002D6CD0BEEB0C0264EB030422FA01F38F
:103BB00004FA06F6CC4000211E43C5E900643DE747
:103BC00002FA03FEC3F1200104FA03F200FA03FC37
:103BD000CC404FEA1E4720FA01F11FFA8EF6B4FBE3
:103BE000F7F00A4307FB1044110C41EA044100FBC3
:103BF00006F48C420ED91EEB010100F1FF382CBFF8
:103C00004FF001094FF000098C4202D9B9F1000FC1
:103C10002CD04046091B92B2B1FBF7F407FB1411FC
:103C200042EA014204FB06F1914207D91EEB02026F
:103C300004F1FF3801D291421ED84446521A44EA98
:103C4000004120E7861A64EB030301200DE7F444EA
:103C500002384AE7023C724431E702397244CCE64A
:103C6000F4440238DFE602383C4472E7023871441B
:103C7000D0E7023B3C4481E7023C7244DEE7294640
:103C8000DCE600BF704700BF08B5064B044613B121
:103C90000021AFF30080044B1B6803B19847204616
:103CA00001F0D3F8000000008C1600202DE9F74346
:103CB0001D46574B04460E461F68904627B13B6A87
:103CC00013B9384600F052F9B8F1020F06D0B8F136
:103CD000010F00F29980002DC0F29680636ED90723
:103CE00005D4A3899A0502D4A06D01F051FA2146AA
:103CF000384601F0D5FB616B41B104F144039942B0
:103D000002D0384600F0AAF9002363630023A361C0
:103D10006360A3891B0603D52169384600F09EF92C
:103D2000A389B8F1020F23F44A6323F00303A381AC
:103D300060D001AB6A462146384601F06AF9A38992
:103D40001843A0812DBB009D284600F0E5FB0646E8
:103D5000002851D1DDF80090A9453FD14FF0FF3543
:103D6000B4F90C3043F00202A2810022A26004F1F7
:103D700047022260226101226261626ED60704D48A
:103D8000980502D4A06D01F004FA284603B0BDE8FE
:103D9000F083002ED8D03B6A13B9384600F0E6F81D
:103DA000B8F1010F266002BFA38943F00103A3818C
:103DB000B4F90C3013F00802C4E904651ED0D90729
:103DC00045BF00226D42A560A26048BFA561626E3A
:103DD000D20701D49B0513D50025D6E7484600F04D
:103DE0009BFB06460028B9D0A3894D4643F08003CB
:103DF000A381D0E70025B3E7A946F5E7A260E6E78F
:103E0000A06D01F0C6F9E7E74FF0FF35BDE700BF51
:103E1000441000200EB400B59CB06FF000411DAB03
:103E200002900690079104910848094953F8042B21
:103E3000059102A90068019300F05AF9029B002243
:103E40001A701CB05DF804EB03B0704744100020FA
:103E50000802FFFF002310B50446836081811946E4
:103E60004366C28108228361C0E90033C0E904339C
:103E70005C3001F084F90D4B246263620C4BA36249
:103E80000C4BE3620C4B23630C4B9C4206D003F1BA
:103E90006802944202D0D0339C4205D104F158000C
:103EA000BDE8104001F073B910BD00BFF15400002F
:103EB000135500004B5500006F55000054150020AD
:103EC000024A0349034801F086B800BF38100020B9
:103ED000A15400004810002041680C4B994210B5D5
:103EE000044601D001F0DCFAA168094B994202D0E6
:103EF000204601F0D5FAE168064B994204D02046ED
:103F0000BDE8104001F0CCBA10BD00BF5415002030
:103F1000BC1500202416002010B50B4B04210B4CBF
:103F20000B4A20461A600022FFF794FF04F1680054
:103F300001220921FFF78EFF04F1D0000222122195
:103F4000BDE81040FFF786BF8C16002054150020F6
:103F5000C13E0000014801F01BB900BFE816002077
:103F6000014801F016B900BFE816002010B504465C
:103F7000FFF7F0FF236A1BB1BDE81040FFF7F0BF69
:103F8000044B2362044B1B68002BF5D1FFF7C4FFE1
:103F9000F2E700BFD93E00008C1600200FB407B531
:103FA000064904AB086853F8042B8168019300F0BC
:103FB0009BF903B05DF804EB04B070474410002097
:103FC000024B0146186801F085B800BF441000207C
:103FD00038B50023064D0446084611462B6000F014
:103FE00035FF431C02D12B6803B1236038BD00BFED
:103FF0009816002038B50023054D044608462B606E
:1040000000F029FF431C02D12B6803B1236038BDA7
:104010009816002070B50D4D00260D4C641BA410A1
:10402000A64209D10B4D00260B4C01F049FB641B45
:10403000A410A64205D170BD55F8043B013698473F
:10404000EEE755F8043B01369847F2E79C10002054
:104050009C1000209C100020A010002038B50546C0
:10406000002941D051F8043C0C1F002BB8BFE418C4
:1040700000F020FC1D4A136833B9636014602846C1
:10408000BDE8384000F01CBCA34208D920682118C4
:104090008B4201BF19685B6809182160EDE71A4679
:1040A0005B680BB1A342FAD911685018A0420BD13A
:1040B00020680144501811608342E0D118685B68A1
:1040C000084453601060DAE702D90C232B60D6E76E
:1040D000206821188B4202BF19685B680918636069
:1040E00008BF21605460CAE738BD00BF94160020A5
:1040F0002DE9F04F98468B899DB007461B060D466B
:10410000144610D50B6973B9402100F02FFA2860CE
:10411000286130B90C233B604FF0FF301DB0BDE883
:10412000F08F40236B610023CDF80C804FF0010924
:10413000DFF8A081099320238DF8293030238DF8F2
:104140002A3023469A4613F8012B0AB1252AF9D1C1
:10415000BAEB040B0BD05B4622462946384601F0E9
:1041600026F8013000F0A780099A5A4409929AF87B
:104170000030002B00F09F8000234FF0FF320AF147
:10418000010A049307938DF853301A93CDE9052360
:10419000544605224F4814F8011B01F072FA049AA4
:1041A000D8B9D00644BF20238DF85330110744BF3F
:1041B0002B238DF853309AF800302A2B15D0079A0C
:1041C000544600204FF00A0C214611F8013B303BC9
:1041D000092B4BD9B0B1079214E0A0EB0803A2461B
:1041E00009FA03F313430493D2E7039B191D1B68D9
:1041F000002B0391BBBF5B4242F00202079307937F
:10420000B8BF049223782E2B0AD163782A2B32D19F
:10421000039B02341A1D1B6843EAE3730392059360
:10422000DFF8C0A003222178504601F02AFA38B105
:10423000A0EB0A004022049B013482401343049304
:1042400014F8011B062224488DF8281001F019FAF1
:10425000002836D0214B1BBB039B073323F00703F9
:1042600008330393099B334409936AE70CFB02323A
:104270000C460120A8E7002301344FF00A0C194630
:104280000593204610F8012B303A092A03D9002B58
:10429000C6D00591C4E70CFB012104460123F0E7D9
:1042A00003AB2A4604A9384600930D4BAFF30080B8
:1042B000421C0646D6D1AB895B063FF52DAF099867
:1042C0002CE703AB2A4604A938460093044B00F0C0
:1042D000C5F9EDE7965D0000A05D0000000000005C
:1042E000AF5100009C5D00002DE9F04F0D469DB0E0
:1042F00014469846064618B1036A0BB9FFF736FE16
:104300006B6ED90705D4AB899A0502D4A86D00F06D
:104310003FFFAB891B0701D52B699BB92946304666
:1043200000F0D4FA70B16B6EDC0704D54FF0FF30AB
:104330001DB0BDE8F08FAB899805F7D4A86D00F0EB
:1043400028FFF3E70023CDF80C804FF00109DFF8D8
:10435000B481099320238DF8293030238DF82A3039
:1043600023469A4613F8012B0AB1252AF9D1BAEB54
:10437000040B0BD05B4622462946304600F089FFED
:10438000013000F0A780099A5A4409929AF8003047
:10439000002B00F09F8000234FF0FF320AF1010A4A
:1043A000049307938DF853301A93CDE905235446AF
:1043B0000522544814F8011B01F063F9049AD8B996
:1043C000D10644BF20238DF85330130744BF2B235D
:1043D0008DF853309AF800302A2B15D0079A54469E
:1043E00000204FF00A0C214611F8013B303B092B0D
:1043F0004BD9B0B1079214E0A0EB0803A24609FA2A
:1044000003F313430493D2E7039B191D1B68002B8E
:104410000391BBBF5B4242F0020207930793B8BF10
:10442000049223782E2B0AD163782A2B32D1039B56
:1044300002341A1D1B6843EAE37303920593DFF805
:10444000D4A003222178504601F01BF938B1A0EB2B
:104450000A004022049B013482401343049314F861
:10446000011B062228488DF8281001F00AF90028BF
:104470003FD0264B1BBB039B073323F007030833B6
:104480000393099B3B4409936AE70CFB02320C46F9
:104490000120A8E7002301344FF00A0C19460593C8
:1044A000204610F8012B303A092A03D9002BC6D038
:1044B0000591C4E70CFB012104460123F0E703AB9F
:1044C0002A4604A930460093114BAFF300800746FB
:1044D000781CD6D16B6ED90705D4AB899A0502D466
:1044E000A86D00F056FEAB895B063FF51FAF09983B
:1044F0001EE703AB2A4604A930460093044B00F0A4
:10450000ADF8E4E7965D0000A05D0000000000004B
:10451000935200009C5D0000024B0146186800F0B9
:1045200025B800BF4410002070B50F4E0C4605465C
:10453000316811B900F054FA30602146284600F085
:104540004FFA431C03D14FF0FF34204670BDC41C0A
:1045500024F00304A042F8D0211A284600F040FAC3
:104560000130F2D1EFE700BF901600202DE9F041B5
:10457000CD1C064625F0030508350C2D38BF0C254B
:10458000002D01DBA94204D90C2333600020BDE8D3
:10459000F081314F00F08EF93B681C4644BB294640
:1045A0003046FFF7C1FF431C044650D13C6821460A
:1045B000002941D1002C44D02368304604EB030885
:1045C00000F00EFA80453CD1216830466D1A29462C
:1045D000FFF7AAFF013034D023682B4423603B68E7
:1045E000002B36D05A68A24229D100225A600EE030
:1045F0002268521B1DD40B2A16D96119A3422560CB
:1046000018BF5960636808BF396062514B6030461B
:1046100000F056F904F10B00231D20F00700C21A28
:10462000B5D01B1AA350B2E7A3426268DED13A604C
:10463000EDE723466468B1E70C464968B8E71346DE
:10464000CEE70C233046336000F03AF99EE7056070
:10465000DDE75B60FFDE00BF941600202DE9FF4719
:104660000F7E914680460C46782F9A460C9E01F1AB
:10467000430207D8622F0AD8002F00F0DD80582FA0
:1046800000F0C38004F1420684F842703AE0A7F1DA
:104690006303152BF6D801A151F823F0F54600006D
:1046A0000947000085460000854600008546000059
:1046B0008546000009470000854600008546000049
:1046C00085460000854600001F480000974700000F
:1046D000D74700008546000085460000414800009D
:1046E000854600009747000085460000854600008B
:1046F000DF47000033681A1D1B68326004F1420670
:1047000084F842300123A8E031682368081D306036
:104710001E0601D50D6803E05D06FBD5B1F900501A
:10472000002D616878DA2D200029A16084F843000B
:104730002DDA6D425D480A231646B5FBF3F103FB03
:104740001157C75D06F8017D2F460D46BB42F4D9CF
:10475000082B0BD12368DF0708D5236961689942CC
:10476000DEBF302306F8013C06F1FF36921B2261C2
:104770004B4603AA21464046CDF800A000F09BFD21
:1047800001306FD14FF0FF3004B0BDE8F08723F067
:1047900004032360CDE721683368080653F8045BFF
:1047A00002D4490648BFADB26F2F33603F4814BFF3
:1047B0000A230823002184F843106668002EA660AF
:1047C000BADB216821F004012160002DB4D1002E54
:1047D000B2D11646BCE7236843F020032360782754
:1047E0003348236884F845701F06316851F8045B2C
:1047F00002D45F0648BFADB23160D90744BF43F071
:10480000200323601DB11023D4E72848E9E723687B
:1048100023F020032360F6E724480A23CDE733681A
:104820002568181D616930602E061B6801D5196066
:1048300002E06806FBD5198000231646236197E73E
:10484000336800211A1D32601E686268304600F02D
:1048500018FF08B1801B606063682361002384F83F
:10486000433085E72369324649464046D047013008
:1048700088D023689B0714D4E068039B9842B8BF94
:10488000184681E70123324649464046D047013069
:104890003FF478AF0135E36803995B1AAB42F1DC72
:1048A000EAE7002504F11906F5E700BFA75D00005F
:1048B000B85D0000014800F06BBC00BFE7160020A7
:1048C000014800F066BC00BFE716002038B5294B50
:1048D00005460C46186818B1036A0BB9FFF746FB8A
:1048E000B4F90C30190722D4DA0607D409222A6059
:1048F00043F040034FF0FF30A38133E0580712D557
:10490000616B41B104F14403994202D02846FFF79C
:10491000A5FB00236363A38923F02403A381002361
:10492000636023692360A38943F00803A38123699B
:104930004BB9A38903F42073B3F5007F03D021465C
:10494000284600F08BFBB4F90C3013F001020AD0BA
:104950000022A26062695242A261226942B913F048
:104960008000C5D138BD990758BF6269A260F4E7DD
:104970000020F7E74410002038B50023054D044619
:1049800008462B6000F05FFA431C02D12B6803B18C
:10499000236038BD9816002038B50446064D0846F9
:1049A000114600222A601A4600F057FA431C02D131
:1049B0002B6803B1236038BD9816002038B5044633
:1049C000064D0846114600222A601A4600F047FAB2
:1049D000431C02D12B6803B1236038BD9816002018
:1049E00038B50023054D044608462B60FBF7C8FC8C
:1049F000431C02D12B6803B1236038BD98160020F8
:104A000038B50446064D0846114600222A601A466B
:104A1000FEF7A4F8431C02D12B6803B1236038BD14
:104A200098160020042208B5012311461846FDF708
:104A300031FC002008BDFFF7F5BF042208B5114680
:104A400000230120FDF726FC002008BD08B5012148
:104A50003A20FCF74BFC00F07DFABDE80840FBF77C
:104A600005BC01213A20FCF741BC70B50025064683
:104A70002C46052C20D8DFE804F003070B0F131792
:104A80005B210820FBF7B4FD0C210820FBF7B0FDEB
:104A9000D1210820FBF7ACFD80210820FBF7A8FD01
:104AA00000210820FBF7A4FD6C1C2946E4B2082075
:104AB0002546FBF79DFD0624A4F10E03012B05D826
:104AC0005A210820FBF794FD0134D2E7102C05D1C0
:104AD000BDE870405D210820FBF78ABDB31F195D5A
:104AE000EFE708B5082000F029F8BDE808400820E5
:104AF00000F02FB8012307B520F07F4040EA817015
:104B0000019068468DF80030FFF7AFFF03B05DF805
:104B100004FBFEE7FEE710B53AB1002350F823404E
:104B200041F8234001339A42F8D110BD002070476C
:104B30004FF4004070474FF47A7070474FF0604276
:104B40000123D2F8001E83400B430020C2F8003E30
:104B500070474FF060410122D1F8003E824023EAC5
:104B600002030020C1F8003E704710B588B00C4623
:104B70000E99009207910D99024606919DF830100A
:104B800005910B9904919DF8281003910021CDE91E
:104B9000013108462346FBF74DFD08B010BD10B5A6
:104BA00088B004460E98009207900D982246069011
:104BB0009DF8300005900B9804909DF82800039014
:104BC0000020CDE901300B460121FBF733FD08B091
:104BD00010BD08B5FBF788FCBDE808400021FCF7D4
:104BE0005FBB0029CCBF01210021FCF759BB02218A
:104BF0004FF42070FCF7A2BE10B5FBF763FC04462F
:104C0000FCF7B0F9C0F102012046FFF7EAFF0121ED
:104C10000020FCF7AFFFFCF723FFBDE81040FCF7D6
:104C20005BBCEFF3108072B6704700B962B6704794
:104C3000EFF31180302383F31188704780F31188DC
:104C4000704770477047C36C0B42FCD1704708B582
:104C500043680246DB0714D50A2350210363FFF79C
:104C6000F2FF136C9907FCD1936A012110469362FD
:104C7000FFF7E9FF136C1B0604D4012302F5005271
:104C8000536008BD536BF5E7036C5B06FCD5C1634D
:104C9000704770B5054614460E46FFF7C2FF2B68F5
:104CA0005C4034405C402C60BDE87040FFF7BDBF05
:104CB00070474FF0B0435A6812B19A6A002AFAD18D
:104CC000704783695A06FCD5C16383699B06FCD58E
:104CD000406AC0B2704770B50C46154610B9FDF772
:104CE0003FFE38B143682BB12A462146BDE87040EB
:104CF00000681847232070BDF7B50D4616461C46C0
:104D000048B103B901AC87685FB1234632462946F2
:104D10000068B84706E0FDF723FE04B901AC00289F
:104D2000F1D1232003B0F0BD10B50446826B136CA3
:104D30005906FCD50023616C1A4694F84000FDF733
:104D4000A9FA0023E16C1A4694F84800FDF7A2FA8C
:104D500094F86030DA0706D50023616D1A4694F89E
:104D60005000FDF797FA94F860309B0706D50023B2
:104D7000E16D1A4694F85800FDF78CFA0422A06BF6
:104D8000002100F500539A64FCF7BCFFE06B0021A2
:104D9000FCF7ACFA002010BD10B50446FFF741FF48
:104DA0000421A36BBDE810401A6C12F0800F03F5CC
:104DB000805204BF03F5005359644FF0040318BF39
:104DC00051649364FFF731BF08B5806BFFF75CFF58
:104DD000002008BD70B50468A06B436C5B0708D564
:104DE000042500F500535D64227E1AB99D640123F9
:104DF000237670BD627E002AFBD094F82D2002B38A
:104E00000026132184F83560FFF73EFFA36B03F5FE
:104E1000805295645B6BDBB2112B0DD1012384F8BA
:104E200034303022237A534303F1A04303F5802327
:104E3000DB6E013B2363DCE7132BDAD184F83460AB
:104E4000EFE79D64D5E700207047FEE74FF400537D
:104E500000204B607047012070470020704707B565
:104E6000002001AB0190FFF747FF0198002808BF21
:104E70004FF0FF3003B05DF804FB80F82C10704752
:104E800090F82C00704700230B707047F0B51F4658
:104E9000002387B00D46164604468DF81730A8B19A
:104EA000C3610DF11701FEF721FA9DF817207AB9B9
:104EB000BDF83430294602939DF830302046CDE9C4
:104EC00000733346FEF748F907B0F0BD2220FBE738
:104ED0000320F9E7002070474FF0B0439A6A1207A9
:104EE000FCD4186A704782074FF0B04200F001030B
:104EF000916948BF43F040030B439361704708B585
:104F00003E20FCF71DFA0346FFF7E4FF23FA00F00A
:104F100008BD08B5FEF72AFC00F031F800F03CF8B7
:104F200000F045F8BDE8084000F042B808B500F0D0
:104F300040F800F03FF800F03EF8BDE8084000F00F
:104F40003BB808B5FEF7B4FCBDE80840FEF7A6BBC9
:104F5000FEF7B6BCFFF771BD10B501213A20FCF792
:104F6000C5F90123022219461846FDF793F9BDE859
:104F700010400023042219460120FDF78BB908B523
:104F8000FBF7D6FAFFF7E8FFFBF7BEFDFEF786FC5E
:104F9000BDE80840FFF7A5BD08B5FFF74CFDFEF7DB
:104FA0003BF9FDF7EBFDBDE8084000F006B870479F
:104FB00070477047704770477047FEF703BCFEF7B5
:104FC00067BC08B5FFF7A5FFFFF7BBFFFFF7AEFF14
:104FD000FFF7BEFFFAE72DE9F84307468846144677
:104FE0000026D4E90195B9F1010905D52468002C02
:104FF000F7D13046BDE8F883AB89012B07D9B5F965
:105000000E30013303D029463846C0470643683581
:10501000E9E770B50C46B1F90E1096B015460029B7
:105020001E460CDAA389002113F0800F14BF402321
:105030004FF48063002031602B6016B070BD6A466B
:10504000FEF7C6FF0028EDDB019901F47041A1F5E0
:105050000053594259414FF48063EBE78B89F7B510
:105060009D0706460C4607D504F1470323602361DC
:105070000123636103B0F0BD01AB6A46FFF7C9FFCE
:10508000009F054630463946FFF770FA48B9B4F933
:105090000C309A05EED423F0030343F00203A381FE
:1050A000E2E7A389206043F08003A381019BC4E968
:1050B00004075BB1B4F90E103046FEF79BFF28B130
:1050C000A38923F0030343F00103A381A3891D43B4
:1050D000A581CFE7036A70B505460E4684680BB913
:1050E000FEF744FF636EDB0705D4A389980502D45D
:1050F000A06D00F04DF8A389190702D52369002B94
:1051000035D121462846FFF7E1FB80B34FF0FF354C
:10511000636EDA0705D4A3899B0502D4A06D00F065
:1051200038F8284670BD002B15DB23685A1C226016
:105130001970A36816F8011F013BA3600029F2D182
:10514000002B16DA22460A21284600F042FA0130E6
:10515000DCD00A25DCE7A2699A4201DC0A29E4D105
:105160002246284600F035FA0130E2D1CEE7013E72
:10517000DFE723685A1C22600A221A70E9E702441A
:105180000346934200D1704703F8011BF9E77047CB
:10519000704770470A44431E914200D1704710B5D2
:1051A00011F8014B914203F8014FF9D110BD2DE9DF
:1051B000F0471F468E6882460C46BE4290460B68FA
:1051C0002DD8B1F90C2012F4906F26D065690969C9
:1051D00005EB4505A3EB01097B1C05EBD5754B449D
:1051E0006D109D4238BF1D46530527D52946FFF750
:1051F000BDF9064660B34A462169FFF7CBFFA38994
:1052000023F4906343F08003A38126614E446561DB
:10521000A5EB090526603E46A560BE4200D93E4684
:1052200032464146206800F012FAA36800209B1B1A
:10523000A360236833442360BDE8F0872A4600F06A
:105240009AF906460028E0D121695046FEF706FF8C
:105250000C234FF0FF30CAF80030A38943F040031D
:10526000A381E9E79368013B002B936010B408DA4F
:105270009469A34201DB0A2903D15DF8044B00F0D5
:10528000A8B91368581C1060084619705DF8044BE3
:105290007047F8B506460F461446D518AC4201D102
:1052A000002007E03A4614F8011B3046FFF7DAFF0A
:1052B000431CF3D1F8BD2DE9F047164698468A689D
:1052C00007460B690C46DDF820909342B8BF1346A1
:1052D000336091F843200AB10133336023689906A3
:1052E00042BF336802333360256815F0060506D1E6
:1052F00004F1190AE36832689B1AAB422BDC94F87C
:1053000043302268003B18BF0123920630D404F1D9
:10531000430241463846C847013023D023681A3437
:1053200054F80A2C03F00603042B0ABF54F80E5C51
:10533000002533684FF0000608BFED1A54F8123C00
:1053400008BF25EAE5759342C4BF9B1AED18B54224
:105350001AD1002008E00123524641463846C8478A
:10536000013003D14FF0FF30BDE8F0870135C1E7D0
:10537000E1185A1C30200233224481F8430094F88B
:10538000451082F84310C2E70123224641463846C1
:10539000C8470130E6D00136D9E7B1F90C202DE934
:1053A000F041170705460C4656D44B68002B02DC2B
:1053B0000B6C002B3DDDE66A002E3AD0002312F480
:1053C00080522F68216A2B6025D0626DA38958070F
:1053D00005D56368D21A636B0BB1236CD21A216AAC
:1053E0000023E66A2846B047411C24D000236360AE
:1053F00023692360A389DA0400D56065616B2F609F
:10540000B9B104F14403994202D02846FEF726FEC2
:10541000002363630DE001232846B047461C024683
:10542000D4D12B68002BD1D01D2B01D0162B2AD123
:105430002F6000202EE02A68B4F90C3042B11D2AFA
:1054400001D0162A21D10023636023692360D5E7A8
:10545000626022692260CEE70F69002FE9D09307CE
:105460000E680F600CBF4B690023A6EB07088B602A
:10547000B8F1000FDDDD43463A46216A2846A66AA8
:10548000B047002808DCB4F90C3043F040034FF07B
:10549000FF30A381BDE8F0810744A8EB0008E7E7EF
:1054A00038B50B6905460C4613B90025284638BDAA
:1054B00018B1036A0BB9FEF759FDB4F90C30002B93
:1054C000F3D0626ED00704D4990502D4A06DFFF723
:1054D0005FFE28462146FFF760FF636E0546DA0748
:1054E000E4D4A3899B05E1D4A06DFFF752FEDDE76C
:1054F00010B50C46B1F90E10FFF760FA0028ABBFEB
:10550000636DA3891B1823F48053ACBF6365A3812B
:1055100010BD2DE9F0411F468B8905460C46DB0581
:10552000164605D502230022B1F90E10FFF734FA12
:10553000A3893246B4F90E10284623F48053A38180
:105540003B46BDE8F041FFF75BBA10B50C46B1F938
:105550000E10FFF721FA431CA38915BF606523F4E1
:10556000805343F48053A38118BFA38110BDB1F9C8
:105570000E10FFF701BA2DE9F041804615460C46A2
:1055800021B91146BDE8F041FEF7F0BF2AB9FEF798
:1055900065FD00242046BDE8F08100F080F88542DA
:1055A000064602D8B5EB500FF4D829464046FEF720
:1055B000DDFF07460028ECD0B5422A46214628BF29
:1055C0003246FFF7E7FD214640463C46FEF746FDE2
:1055D000E0E7F8B50E461446054618B1036A0BB964
:1055E000FEF7C4FCA369A360A3891A0701D5236948
:1055F00043B921462846FFF769F918B14FF0FF3744
:105600003846F8BD2368F6B222693746981A6369AE
:10561000834205DC21462846FFF742FF0028EDD1F2
:10562000A368013BA36023685A1C22601E70431CC0
:1056300062699A4204D0A389DB07E1D50A2EDFD143
:1056400021462846FFF72CFF0028D9D0D6E788420C
:1056500010B501EB020402D98442234607D8431E49
:10566000A14208D011F8012B03F8012FF8E70244FA
:1056700001468A4200D110BD13F8014D02F8014DD8
:10568000F7E7C9B20346024410B59342184601D168
:10569000002003E0047801338C42F6D110BD51F8AC
:1056A000043C181F002BBCBF0B58C01870470000EB
:1056B00000000000000000000000000000000000EA
:1056C000F8B500BFF8BC08BC9E467047F8B500BFEF
:1056D000F8BC08BC9E4670470000000000000000B7
:1056E00000000000000000000000000000000000BA
:1056F00000000000000000000000000000000000AA
:10570000050000000000000040420F0005010000FD
:105710000000000000000000000000001E00000368
:105720002F55736572732F78696E79652F53696D84
:10573000706C696369747953747564696F2F53442D
:105740004B732F6765636B6F5F73646B5F322F7092
:105750006C6174666F726D2F656D6472762F7370F5
:10576000696472762F7372632F7370696472762E18
:1057700063000000050000000000000040420F0030
:105780000501000000000000000000000000000013
:105790002F55736572732F78696E79652F53696D14
:1057A000706C696369747953747564696F2F5344BD
:1057B0004B732F6765636B6F5F73646B5F322F7022
:1057C0006C6174666F726D2F656D6C69622F737298
:1057D000632F656D5F636D752E63002F5573657262
:1057E000732F78696E79652F53696D706C69636981
:1057F000747953747564696F2F53444B732F6765C5
:10580000636B6F5F73646B5F322F706C6174666F74
:10581000726D2F656D6C69622F7372632F656D5F9A
:10582000636F72652E63002F55736572732F7869ED
:105830006E79652F53696D706C69636974795374FF
:105840007564696F2F53444B732F6765636B6F5F8C
:1058500073646B5F322F706C6174666F726D2F654D
:105860006D6C69622F7372632F656D5F656D752E48
:1058700063002F55736572732F78696E79652F53A6
:10588000696D706C696369747953747564696F2F9D
:1058900053444B732F6765636B6F5F73646B5F3249
:1058A0002F706C6174666F726D2F656D6C69622FFD
:1058B0007372632F656D5F6575736172742E63001B
:1058C0002F55736572732F78696E79652F53696DE3
:1058D000706C696369747953747564696F2F53448C
:1058E0004B732F6765636B6F5F73646B5F322F70F1
:1058F0006C6174666F726D2F656D6C69622F696E75
:10590000632F656D5F6275732E68002F5573657226
:10591000732F78696E79652F53696D706C6963694F
:10592000747953747564696F2F53444B732F676593
:10593000636B6F5F73646B5F322F706C6174666F43
:10594000726D2F656D6C69622F696E632F656D5F77
:105950006770696F2E68002F55736572732F7869B1
:105960006E79652F53696D706C69636974795374CE
:105970007564696F2F53444B732F6765636B6F5F5B
:1059800073646B5F322F706C6174666F726D2F651C
:105990006D6C69622F7372632F656D5F6770696FDD
:1059A0002E630000FF011F007F000F002F5573655D
:1059B00072732F78696E79652F53696D706C6963A6
:1059C00069747953747564696F2F53444B732F67EF
:1059D00065636B6F5F73646B5F322F706C617466AD
:1059E0006F726D2F656D6C69622F7372632F656DB9
:1059F0005F6C646D612E63002F55736572732F7831
:105A0000696E79652F53696D706C69636974795338
:105A1000747564696F2F53444B732F6765636B6FA5
:105A20005F73646B5F322F706C6174666F726D2F81
:105A3000656D6C69622F7372632F656D5F7274633D
:105A4000632E63002F55736572732F78696E7965C5
:105A50002F53696D706C69636974795374756469E7
:105A60006F2F53444B732F6765636B6F5F73646B6A
:105A70005F322F706C6174666F726D2F656D6C692B
:105A8000622F7372632F656D5F75736172742E631D
:105A90000001030401010109030000000B000000E4
:105AA0000B000000020000000000202000000000A9
:105AB000030000008C8C3C0000000000000000008F
:105AC00000000000012600000400000000000000AB
:105AD00000010000000000002F55736572732F78DD
