S00B0000746573742E73333729
S1130000001000202D320000CB990000CB99000095
S1130010CB990000CB990000CB990000CB9900004C
S1130020CB990000CB990000CB990000CB9900003C
S1130030CB990000CB990000CB990000CB9900002C
S1130040CB990000CB990000CB990000CB9900001C
S1130050CB990000CB990000CB990000CB9900000C
S1130060CB990000CB990000CB990000CB990000FC
S113007005640000CB990000CB990000CB990000E7
S1130080CB990000CB990000CB990000CB990000DC
S1130090CB990000ED380000CB990000CB9900000B
S11300A0CB990000113A0000ED390000CB99000013
S11300B0CB990000CB990000CB990000CB990000AC
S11300C0CB990000CB990000CB990000CB9900009C
S11300D0CB990000CB990000CB990000CB9900008C
S11300E0CB990000CB990000CB990000CB9900007C
S11300F0CB990000CB990000CB990000CB9900006C
S1130100CB990000CB990000CB990000CB9900005B
S1130110CB990000CB990000CB990000CB9900004B
S1130120CB990000CB990000CB990000CB9900003B
S1130130CB990000CB990000C5300000D99800008D
S1130140013800D0FCE770472DE9F04FC76997B03C
S11301508346209E08910C92129355EC104B8DED22
S1130160000B7FB9102007F059FE0246CBF81C00A3
S113017020B9A74BEF21A74808F0CAFAC0E90177D4
S11301800760C760DBF81C30196859B15A6801234D
S1130190584693404A608B6007F02EFFDBF81C3012
S11301A000221A602B1EB7BF23F000430023012254
S11301B00193A8BF3360019F974BB8BF3260BB4324
S11301C019D142F20F73129A1360C7F31303234336
S11301D000F0DB85219B53B9904B21E0904B0393B6
S11301E00833219A1360039817B0BDE8F08F8B4B46
S11301F003930333F5E79DED007B0022002351ECCC
S1130200170B8DED0A7B06F067FD804650B1012384
S1130210129A1360219B13B1824B219A1360824B73
S11302200393E0E7C7F30A5614AA15A958469DEDAF
S11302300A0B08F069F90290002E76D00B9BA6F207
S1130240FF36CDF84C80C3F3130343F07F53DDE94D
S11302500A0143F4401319460022744B06F01CF9BA
S113026065A3D3E9002306F0CFFA65A3D3E90023FD
S113027006F014F904460D46304606F05BFA62A314
S1130280D3E9002306F0C0FA02460B46204629466D
S113029006F004F904460D4608F09AFA00220746CF
S11302A000232046294606F021FD40B1384606F0D9
S11302B041FA22462B4606F00FFD00B9013F162FE6
S11302C052D85B4B03EBC703DDE90A01D3E90023F2
S11302D006F00CFD002849D0013F00231193149B24
S11302E09B1B5A1E4CBFC3F101030023079245BF59
S11302F00693002306930793002F39DB079B10977F
S11303003B44079300230993089B092B66D8052BCC
S1130310C5BF043B002401240893089B023B032B24
S113032067D8DFE803F02D3A3859DDE914631E4439
S113033006F23243202BC9BFC3F14003C3F12003AB
S11303409F4006F21243D8BF04FA03F006F1FF36C9
S1130350C4BF24FA03F347EA030006F0DBF90122E1
S1130360A1F1F873139276E70123B7E71190B6E78A
S1130370069BDB1B06937B42099300231093C3E780
S113038000230D930C9B002B56DC012399461A463F
S113039004930C920CE00123F3E700230D930C9BD0
S11303A0FB1803F1010904934B46012BB8BF012349
S11303B0DBF81C000021042202F114059D423FD900
S11303C04160584607F0D8FD039000283BD1194BF3
S11303D0024640F2AF11CEE60123DFE701240023F9
S11303E00D9408934FF0FF3300229946049312238F
S11303F0CFE701230D93F5E761436F63A787D23FEE
S1130400B3C8608B288AC63FFB799F501344D33FFF
S113041069B2000080B200000000F07F65B2000005
S11304205CB2000038B1000037B100000000F83FB2
S1130430A0B30000E1B200000C9B99460493B7E717
S113044001315200B8E7DBF81C30B9F10E0F039A02
S11304501A606FD8002C6DD0002F36DD07F00F0224
S1130460A04BF8054FEA271403EBC20393ED007B7E
S11304708DED0E7B17D59C4B04F00F044FF0030851
S1130480D3E90823DDE90A0106F0E8FACDE9000121
S1130490954D5CB9DDE90E23DDE9000106F0DEFAD5
S11304A0CDE900012BE04FF00208F1E7E10709D59F
S11304B008F10108DDE90E01D5E9002306F0A4F9ED
S11304C0CDE90E0164100835E3E700F007817C42B2
S11304D0844B854D4FF0020804F00F02241103EB06
S11304E0C203DDE90A01D3E9002306F08DF90023F4
S11304F0CDE90001002C40F0E580002BD0D1119B08
S1130500DDE90045002B00F04C810022774B2046AA
S1130510294606F0EBFB002800F04381B9F1000FF7
S113052000F03F81049B002B00F3E480DDE90A34F2
S1130530CDE90034159B002B02DB0E2F40F34282E1
S11305400D9A002A40F06782099C0025DDF8188086
S1130550B8F1000F0DD0079B002B0ADD4345069A26
S1130560A8BF4346D21AA8EB03080692079AD31AE7
S11305700793099B0BB30D9B002B00F0A682002C64
S113058000F0A18229462246584607F05FFE029AEF
S113059001460546584607F0AFFD029906465846FF
S11305A007F02AFD099B1B1B099300F09182099A0D
S11305B03146584607F04AFE02900121584607F09A
S11305C085FD109B0446002B00F084821A460146E8
S11305D0584607F03BFE089B0446012B03DC009BB6
S11305E0002B00F07C820026236904EB8303186946
S11305F009F06EFFC0F120001096079B184410F01C
S11306001F0000F09182C0F12003042B40F381828B
S1130610C0F11C00069B034480440693079B0344DB
S11306200793069B002B05DD1A460299584607F0EE
S113063067FE0290079B002B05DD21461A465846AB
S113064007F05EFE0446119B002B00F076822146E3
S1130650029809F08CFF002880F26F8200230A229E
S11306600299584607F0EAFC0D9B7E1E0290002B6F
S113067000F05C82002329460A22584607F0DEFC7B
S1130680049B0546002B03DC089B022B00F35E82CF
S1130690B8F1000F05DD29464246584607F030FE02
S11306A00546109B002B00F0D0826968584607F07D
S11306B063FC0746002840F07F820D4B024640F25F
S11306C0EF2158E5E20706D508F10108D5E9002332
S11306D006F09AF80123641008350BE74FF002087E
S11306E00DE700BFA0B3000078B300000000F03FA6
S11306F0E1B2000020460022AC4B294606F084F803
S11307007E1E08F10108049CCDE90001404606F074
S113071011F8DDE9002306F077F8A54B002205F077
S1130720BDFEA1F15073CDE90E010F93002C3BD116
S11307300022A04BDDE9000105F0AEFE02460B46A7
S1130740CDE90023DDE90E2306F0EEFA002840F09F
S11307505781DDE90E2101F10043DDE9000106F0D6
S1130760C5FA00283FF4E2AE002425460C9BDDF8D0
S11307700CA0DE434FF000082146584607F03CFC2D
S1130780002D00F0A980B8F1000F05D0A84503D0D2
S11307904146584607F030FC2946584607F02CFCE1
S11307A09AE03E464C46B1E7834B03EBC40353E95E
S11307B00201039B1C440D9B002B4AD002460B46AE
S11307C000207E4906F04AF9DDE90E2305F064FEB7
S11307D0DDF80CA0CDE90E01DDE9000107F0F8FF1A
S11307E0054605F0A7FF024630350B46DDE900015A
S11307F005F052FE0AF8015B02460B46CDE9000102
S1130800DDE90E0106F090FA002865D100206C495C
S1130810DDE9002305F040FE02460B46DDE90E014A
S113082006F082FA002840F00D81A24500F0EA802B
S113083000225E4BDDE90E0105F0E6FF00225B4B72
S1130840CDE90E01DDE9000105F0DEFFCDE900018F
S1130850C2E7DDE90E2305F0D7FFA046DDF80CA0C2
S1130860CDE90E01DDE9000107F0B2FF054605F010
S113087061FF024630350B46DDE9000105F00CFE50
S11308800AF8015B02460B46A245CDE900234FF06E
S1130890000223D1494BDDE90E0105F0FFFD0246BC
S11308A00B46DDE9000106F03FFA002840F0CA805B
S11308B000204249DDE90E2305F0EEFD02460B4619
S11308C0DDE9000106F012FA70B1C24608F1FF3802
S11308D01AF8013C302BF8D0374655E0334B05F07D
S11308E093FFCDE90001BDE7DDE90A34CDE9003429
S11308F0159B002BFFF628AE0E2F3FF725AE2E4B8F
S113090003EBC70393ED007B0C9B002B8DED047B65
S113091002DAB9F1000F64D0DDF80CA0DDE900457E
S1130920DDE904232046294606F098F807F050FF35
S1130930064605F0FFFEDDE9042305F065FF0246E7
S1130940204606F130040B46294605F0A5FD0AF8B9
S1130950014B039C02460B46AAEB0404A14540F05C
S1130960828005F09BFD04460D46DDE9042306F074
S1130970DBF9002865D120462946DDE9042306F089
S1130980ABF908B1F3075CD40299584607F034FB7D
S1130990002301378AF80030129B1F60219B002B33
S11309A03FF421ACC3F800A01DE400BF00002440C4
S11309B000001C4000001440A0B300000000E03F11
S11309C00000F03FA24B03EBC70393ED007B0C9BAD
S11309D0002B8DED047B9FDAB9F1000F9CDC7FF4D2
S11309E0C3AE00229B4BDDE9040105F00DFFDDE9F8
S11309F0002306F08FF9044600287FF4B5AE3E4686
S1130A002546B4E0DDE90A34CDE90034159B002B1A
S1130A1001DB0E2FD6DD089A012A36DC139A82B345
S1130A2003F23343099CDDF81880069A01215846E5
S1130A301A440692079A1A44079207F047FB0546A0
S1130A4086E53E4653469A4613F8012D392A06D1C7
S1130A50039A9A42F7D13022039901360A701A7820
S1130A6001321A7038E700227B4B05F0CDFE0022DC
S1130A70002304460D4606F02FF900283FF450AF3A
S1130A8082E7149BC3F13603CCE709F1FF34099BD9
S1130A90A34208DBB9F1000FA3EB04040EDBDDF87D
S1130AA018804B46C1E7099B109AE31A0994DDF8B4
S1130AB0188000241A444B461092B6E7069BA3EB19
S1130AC009080023B1E7029E71E5099A029970E5CD
S1130AD0029672E5089B012B17DC009BABB9019BC6
S1130AE0C3F313039BB9019B23F00046360D36056F
S1130AF036B1069B012601330693079B0133079306
S1130B00109B002B7FF470AD1096012075E5002634
S1130B10F6E73FF486AD1C33069A1A4498440692CD
S1130B20079A1A4407927CE50346F4E7049B002BDA
S1130B302BDC089B022B09DC27E0B9F1000F1DDC3C
S1130B40089B022B1ADD3E46CDF81090049B002B27
S1130B507FF40CAE21460522584607F06FFA014691
S1130B600446029809F003FD00287FF7FFADDDF885
S1130B700CA0312301360AF8013BFBE50D9B3E46F0
S1130B80CDF81090002B7FF483AD039F214602988B
S1130B9009F03DFB039B00F13009049A07F8019B1F
S1130BA0FB1A9A4240F3CB8000230A22029958464A
S1130BB007F044FA0290E9E72A6905F10C010C30C8
S1130BC00232920009F00EFB01223946584607F022
S1130BD097FB039BA846054603F1010ADDE90323BD
S1130BE013440793009B03F0010309930AF1FF33B5
S1130BF021460298049309F00AFB4146069000F14D
S1130C003009029809F0B3FC2A46214607465846A3
S1130C1007F0E2FBC268014602B3584607F0ECF95C
S1130C20002F3ADA01220299584607F069FB21465F
S1130C30029009F09CFC002803DC29D119F0010F73
S1130C4026D0B9F1390F1DD132E02846C1E700BFE3
S1130C50A0B3000000001440000024400A90029851
S1130C6009F085FC0A990C90584607F0C5F90C9ACE
S1130C705ABB089B53B9099B43B9B9F1390F17D033
S1130C80002F05DD069B03F1310901E0002F2ADA6C
S1130C90DDF810A00AF8019B6EE5089B3B4304D1E4
S1130CA0009B03F00103002BBCD0B9F1390F36D1FE
S1130CB0049F392307F8013BBA46013F1AF8013C67
S1130CC0392B5AD001333B7056E5002F06DB089BC5
S1130CD03B4306D1009B03F0010313B9002AA1DCB6
S1130CE0D6E7002AE1DC079B57460AF8019C5345E6
S1130CF02ED000230A220299584607F09FF9A845EE
S1130D0002904FF000034FF00A02414658460BD1BF
S1130D1007F094F9804605460AF1010A66E7DDF812
S1130D2010A009F10109B5E707F088F929468046C2
S1130D3000230A22584607F081F90546ECE7049B94
S1130D404FF00008002BCCBF1F460127039B1F4414
S1130D5001220299584607F0D3FA2146029009F07D
S1130D6006FC0028A8DC02D119F0010FA4D1BA4670
S1130D7017F8013D302BFAD0FEE4039BBB429BD114
S1130D803123039A01361370F6E4219B002B7FF480
S1130D9025AA014BFFF744BA5CB200000000000032
S1130DA051EC110B43422DE9F047034321F0004E6F
S1130DB0634E4EEAD373B34255EC104B3ED86342B4
S1130DC025F0004AA046A94623434AEAD373B34216
S1130DD034D85C4B02460B4403433ED08F175AEA87
S1130DE0080807F0020747EAD5772FD05EEA020227
S1130DF037D0B64544D0B24533D0AAEB0E0ABAF187
S1130E00747F4FEA2A5338DA00296ADA3C3368DA05
S1130E109FED3D0B012F50D0022F3DD0A7B151ECD7
S1130E20100B3BA3D3E9002305F036FB3AA3D3E927
S1130E30002305F031FB41EC100B05E022462B4664
S1130E4005F02CFB41EC100BBDE8F087022F0ED00F
S1130E50032FF9D19FED320BF6E7BDE8F04700F020
S1130E6077B8B9F1000F05DB9FED2F0BECE79FED91
S1130E702A0BE9E79FED2E0BE6E79FED2B0BC9E765
S1130E80F24507F1FF3721D0022F27D82E4B03EB71
S1130E90C70393ED000BD7E71DA3D3E9002351EC5F
S1130EA0100B05F0F9FA02460B461BA1D1E900012B
S1130EB005F0F2FA41EC100BC6E710EE901A53EC71
S1130EC0102B01F1004343EC102BBDE7022F15D882
S1130ED01E4B03EBC70393ED000BB5E79FED0A0B25
S1130EE0B2E702460B462046294605F0B7FD41EC21
S1130EF0100B07F0CBFC00F02BF88BE79FED0E0BEB
S1130F00A2E700BFAFF30080000000000000000073
S1130F10075C143326A6A13C182D4454FB21094038
S1130F20182D4454FB2109C0182D4454FB21F93FCA
S1130F30182D4454FB21F9BF182D4454FB21E93FDB
S1130F400000F07F000010C0B0B40000C8B400007E
S1130F502DE9F84F55EC104BC34B25F00046AA463B
S1130F609E4216D9C14B9E4201D80AD14CB12246A9
S1130F702B462046294605F091FA41EC100BBDE8BA
S1130F80F88FBAF1000F40F3BE809FED9B0BBDE8D4
S1130F90F88FB74B9E4200F2B980A3F1DE739E42F4
S1130FA040F2A0804FF0FF3B22462B4620462946C4
S1130FB005F02AFC02460B468046894605F024FCCF
S1130FC006460F468EA3D3E9002305F01DFC8EA32D
S1130FD0D3E9002305F062FA32463B4605F014FCDF
S1130FE08BA3D3E9002305F059FA32463B4605F0BA
S1130FF00BFC89A3D3E9002305F050FA32463B46A3
S113100005F002FC86A3D3E9002305F047FA324633
S11310103B4605F0F9FB84A3D3E9002305F03EFA2F
S113102042464B4605F0F0FB804689463046394639
S11310307FA3D3E9002305F0E7FB7FA3D3E90023D3
S113104005F02AFA32463B4605F0DEFB7CA3D3E9E1
S1131050002305F021FA32463B4605F0D5FB7AA37E
S1131060D3E9002305F018FA32463B4605F0CCFBE1
S113107077A3D3E9002305F00FFA32463B4605F087
S1131080C3FBBBF1FF3F02460B464046494661D0D5
S1131090784E05F003FA22462B4605F0B5FB764B55
S11310A006EBCB064FEACB0B5B44D3E9002305F0F8
S11310B0F3F922462B4605F0EFF902460B46D6E932
S11310C0000105F0E9F9BAF1000F41EC100BBFF68D
S11310D056AF10EE901A024601F1004343EC102B78
S11310E0BDE8F88F5CA3D3E900232046294605F028
S11310F0D5F90022614B05F017FE00283FF452AFEA
S113110045EC104B3BE79FED560B38E707F0BEFB71
S11311105B4B9E4255EC104B2CD8A3F550239E42BA
S113112055D90022554B2046294605F0B5F94FF014
S1131130010B06460F462046294600224F4B05F078
S1131140ADF902460B463046394605F087FC0446A5
S11311500D4629E705F0A2F922462B4605F054FB7B
S113116002460B462046294605F096F941EC100B41
S1131170BDE8F88F434B9E421ED20022424B2046CC
S1131180294605F089F902460B46204629461446AD
S11311901D4600223C4B4FF0020B05F035FB0022AC
S11311A0364B05F07BF902460B462046294605F0EE
S11311B055FC04460D46F7E622462B4600203349EB
S11311C005F04CFC4FF0030B04460D46ECE62246BA
S11311D02B462046294605F061F90022274B4FF0A3
S11311E0000B05F059F9002206460F462046294611
S11311F04FF08043A3E700BF182D4454FB21F93F6F
S113120011DA22E33AAD903FEB0D76244B7BA93FF4
S1131210513DD0A0660DB13F6E204CC5CD45B73FC2
S1131220FF8300922449C23F0D5555555555D53F6E
S11312302F6C6A2C44B4A2BF9AFDDE522DDEAD3F62
S11312406D9A74AFF2B0B33F711623FEC671BC3F02
S1131250C4EB98999999C93F9C7500883CE4377E02
S1131260182D4454FB21F9BFFFFF0F440000F07F09
S1131270FFFFDB3F00B50000E0B400000000F03FDA
S1131280FFFFF23F008003400000F83F0000F0BF82
S11312900348044B834202D0034B03B11847704701
S11312A0E8120020E812002000000000064B074965
S11312B0C91A891048BF0131491003D0044B0BB13E
S11312C001481847704700BFE8120020E8120020C8
S11312D00000000010B5064C237843B9FFF7D8FF8F
S11312E0044B13B10448AFF300800123237010BDF5
S11312F01A2900200000000020B5000008B5054BA5
S11313001BB105490548AFF30080BDE80840FFF76D
S1131310CDBF00BF00000000E812002020B500008F
S1131320A3F5803A704700BF174B002B08BF134B3F
S11313309D46FFF7F5FF00218B460F461348144ADC
S1131340121A08F036FF0E4B002B00D098470D4BB5
S1131350002B00D098470020002104000D000D4808
S1131360002802D00C48AFF3008006F0D1FB200027
S1131370290007F0A0FB05F0C1FE00BF0000080033
S1131380000000000000000000100020E81200200F
S113139048290020000000000000000008B51346A2
S11313A00A4601460548006802F000FD28B1BDE880
S11313B008404621024808F01CBB08BDF810002074
S11313C0C0A700000422014B1A64704700E00350D8
S11313D00422014B1A64704700D003500122014BD0
S11313E01A64704700D003500122014B1A647047FD
S11313F000E00350014B1868704700BF0013002041
S11314000022024B01201A60704700BF0013002025
S113141000B1FEE70123034A1360034AC2F82034F3
S1131420704700BF0013002000E0035013B502F022
S1131430B3FA0020084902F0C7FA01240023214628
S11314401A462046CDE9004403F046FE034BC3F898
S1131450244402B010BD00BF1114000000D003509A
S11314600149024806F014BBD0A70000D9A7000028
S113147007B501A800F012FB10214FF4F872019B8C
S1131480C3E90112134A14491A62144A99625A624E
S113149040F2FF321A65124A12499A61124AD9621D
S11314A0126812495A6101221963596310499A64F6
S11314B0C3F8B0100F4983F84C20C3F8B4100E4998
S11314C01A64C3F8B8100D4983F8C220D96303B075
S11314D05DF804FB00401C4600007AC4C3F5E83FF5
S11314E00024744B00007A44081300200080A244B6
S11314F000002041000048420000FA43CDCC4C3E9D
S113150080B596B00024012508F09DF900F0FCFF99
S11315104FF0011307A8CDE909550B93CDE9074412
S113152008F091F80223CDE90D3304230CA88DF8BB
S1131530305010930F9407F03AFE354B01A8CDE9D3
S11315400234019507F070FE2A464FF0FF31284619
S113155008F0F8F84FF0FF3008F00CF92A462D494E
S1131560204608F0EFF84FF0FF3008F003F92C2381
S11315701193072311A81293CDE91444139408F08E
S113158029F9254B254D0593254B294604A8069397
S1131590049401F0B5FB286805F0DEF802460B461A
S11315A0204806F075FAFFF763FF4FF480611E4888
S11315B000F0F2FA1D4807F071FA2146204600F0C7
S11315C077FADFF864801A4DFFF714FF0028FBD088
S11315D0FFF716FF4FF480630024404611A91193CE
S11315E0114E00F0B9FCDFF84CA0DDF844904C45F6
S11315F0EAD02F6856F8040B7B1C2B6005F0ACF87E
S113160002460B465046394606F042FA0134EEE7EC
S1131610000001010082000200007A440813002047
S11316200024744BF5A700000C130020A0860100D1
S11316300413002004A80000F8B50D462DED028B1C
S1131640044600269FED0C8A0C4FAE4202D1BDEC3D
S1131650028BF8BD208897ED090A44F8040BB96C95
S113166000F0B2FE97ED167AC0EE077A67EE887A3C
S1131670013644ED017AE8E700007A4410100020B6
S113168030B5584B93F8C21093F8C440D3F8A02057
S1131690002972D093ED0A7AD3ED0B7AB4EEE77A8F
S11316A0F1EE10FAC4BF002183F8C010012C12D04F
S11316B0022C26D05CBBDFED4C7A93ED0C7ADFED87
S11316C04B6A37EE677AC7EE267AFCEEE77A012199
S11316D0C3ED2F7A19E0996BB2EB510F17D30221A6
S11316E0DFED417A93ED0D7ADFED406A37EE677AEC
S11316F0C7EE267AFCEEE77A83F8C410C3ED2F7A9E
S113170005E0996B914202D8052183F8C41093F83F
S1131710C1100132C3F8A02093ED2B7AD3ED297ABE
S113172093F8C020002953D01AB1D3ED2A6A77EE7A
S1131730E67A37EE677A002283F8C120D3F8BC201A
S113174083ED2B7A910107EE901AF8EE677A77EE23
S1131750877AFCEEE77A17EE903A994240F6FF71E9
S113176088BF03F1FF333F2A28BF3F228B4228BFA3
S11317700B4643EA0233036030BD93F8C010042CD7
S1131780C5D801A555F824F0B71600009D17000030
S1131790A5170000C117000003170000996BB2EBF6
S11317A0910F9BE79C6BC4F35D049442AFD8B1FAEC
S11317B081F10324490983F8C44083F8C010A6E7E3
S11317C0996B01EB4101B2EB910FA0D3042187E7A0
S11317D01AB137EE877A0122AEE7D3ED2A6A77EEA3
S11317E0E67AF6E710100020000048439988094281
S11317F02DE9F04F9D4C8BB0D4ED0A6AD4ED0B7AF1
S113180077EEE67A94ED2E6A37EEA77AC7EE067A7B
S1131810FCEEE77A94F8C22017EE903AC4ED0E7A03
S113182012B95B00023BA363A36BB3F57F7F03D9BB
S11318308F4806F03FF9FEE794F888008D490128A7
S113184037D1A56E0B60A368E26F5B1B9B1A0F2B4D
S113185040F30881DFED887AD4ED2D5A85EEA77A1E
S1131860B5EEC07A854D083BDB102B60A56FF1EE19
S113187010FA2A44824D84ED297A2A6002EB83020D
S1131880804BC6EE275A1A604FF0000386EEA77A03
S11318907D4AC4ED2A5A1360D4BF1A46012284ED4E
S11318A02B7A84F8C430C4F8A030784B84F8C02074
S11318B018700D68002D69D0704BDFF8CC81D3F817
S11318C000902B464D4528BF4B460193EB1A0B6005
S11318D0D8F80030002B5DD1694B1F684FF0000B26
S11318E03B466A4E019A96F800A0013A5A4553D8ED
S11318F04D4507EB820B7FD805A8FFF7C1FE059B7A
S1131900BAF1000F23F07F4343F0484306934FF0AE
S11319100A030CBF4FF073424FF07A420BF10406F6
S1131920079326F07F4323F48023134343F4802357
S11319300893574B0422584606A9099307F0E3FC81
S11319400023CDE9063308934FF0014304223046C7
S113195006A9099307F0D7FCD8F80030B3FA83F34B
S11319605B09C8F8003094F888307BB100234D45FA
S113197084F8883071D8002304224648C4E92472CC
S1131980C4F88C3084F8983007F0D1FC00200BB0F8
S1131990BDE8F08F3B4BA0E71A1D05A8CDE9022353
S11319A0FFF76EFE059ABAF1000F22F07F4242F073
S11319B0484206924FF00A020CBF4FF073414FF0B9
S11319C07A41029B079223F07F4222F480220A4349
S11319D042F48022039B08922D4A1846099206A9D4
S11319E0042207F090FC33780BF1010BB3FA83F374
S11319F05B093370029B75E7D8F800305BBB214B61
S1131A001B6805A80193FFF73BFE059ABAF1000F86
S1131A1022F07F4242F0484206924FF00A020792B7
S1131A200CBF4FF073424FF07A42019B584623F0AB
S1131A307F4323F48023134343F480230893164BFA
S1131A40042206A9099307F05EFC3378B3FA83F302
S1131A505B09337080E70A4BD2E7FFF7C9FE002821
S1131A6089D094E76FF0070091E700BF10100020C1
S1131A7014A800001C2300209988093F1823002083
S1131A8014230020102300200C230020DC1200204B
S1131A90010000C79C100020010000A718B1034BEF
S1131AA00360002070476FF00100704710100020A1
S1131AB000B593B0032847D8DFE800F0024D595E23
S1131AC00A2007F0ADFE0A285DD8304B93F8542065
S1131AD0002A3DD093F8C420052A39D093ED056A35
S1131AE0D3ED0F7ADFED2A6A66EE275A0320002130
S1131AF085EEA67A0122BCEEC77ACDE90001022167
S1131B00B7EE005ACDE90212049117EE101A93EDC4
S1131B102C7AC5EE075A9FED1F7A55EE877A27EE89
S1131B20867AC7EE267AFCEEE77A17EE903A013908
S1131B30043B68468DF844200B920F9109920D9353
S1131B400A920E9307F02DFC002013B05DF804FBFD
S1131B506FF06300F9E70A2007F062FE0A2812D842
S1131B60002007F0BDFC002007F0BAFCECE70122DE
S1131B70064B83F8C320E7E700210120FFF798FF15
S1131B8000F0B4FDE0E76FF00800DEE7101000207D
S1131B9000007A440000FA432DE9F04F0546ADB049
S1131BA00A20894607F03CFE0A2800F2CA81012275
S1131BB04FF08073CDE905230023B14C05A80793AA
S1131BC007F032FB94F854301BB12378012B40F01A
S1131BD00481002D00F0B881B9F1000F00F0B48148
S1131BE0236C0DF13008002B40F05E81636CA3651B
S1131BF00023E36500264946284684F8546000F033
S1131C004BFA012000F068FA31469E4807F063F869
S1131C109D4B08A80893013B09938DF82960ADF802
S1131C202A608DF82C6007F088F894ED0C7ADFEDCB
S1131C30977A032337EE677ADFED956A189340F2BB
S1131C400113C7EE267AADF86830236CD4ED0A6A26
S1131C50B3429FED907AFCEEE77A179342F2342375
S1131C6018BF1423199317EE903AC6EE877AFDEE47
S1131C70E77A17EE902A4FF002094FF0140A4FF456
S1131C80807B9BB24046ADF84C3002EB8313ADF839
S1131C904A30CDE91596CDE90C66CDE90E66CDE95D
S1131CA010A61496ADF848B007F0DDF944211BA83E
S1131CB006F06BFF21231B93A36C01271D9394F85B
S1131CC04C301BA81E930A23CDF87090CDE91F3623
S1131CD08DF88C702197ADF8887007F052FA4FF0A8
S1131CE0014000F0C3F9304600F0F6F904A903A856
S1131CF000F0E6F90546002840F01F815146664889
S1131D0006F043FF049BA2689A4240F21481032226
S1131D102266626860486266039AA366226784F852
S1131D206C7007F004FBD4ED066A94ED077A94F81E
S1131D304C30C6EE877A1D930A2341461BA8CDE991
S1131D401E35CDED227ACDE91B7700F077FA3846BF
S1131D5000F0C2F9042007F01BFB3946802006F08E
S1131D60BAFF4FF4C86000F081F93946584606F0CE
S1131D70B2FF0C9820F0404000F078F929464FF467
S1131D80C07006F0A8FF284607F002FB07F03BFDF1
S1131D9008A904A800F094F90546304600F09CF91F
S1131DA0002D40F0CA8051463C4806F0EEFEA16E7C
S1131DB0089AA3688818984280F0BD80636E3748FB
S1131DC00B44A367049BC4F87490C4F88430E2679E
S1131DD084F8807007F0ABFA25700021084607F0FC
S1131DE011FA00231E93236D01261F9302231BA8BF
S1131DF0CDE91C338DF86C6007F0D9F94FF0FF3052
S1131E0007F0B8FC84F88860FFF7F2FC0546002868
S1131E1040F0938084F86C001F4807F088FA30463D
S1131E2007F055FA206E07F065FA4FF400410120DF
S1131E3007F0A5FC0028F8D000264FF4004007F076
S1131E4099FC164884F8806007F071FA144884F805
S1131E50986007F06CFA304607F039FA314642F2DE
S1131E60640000F0DDFA012007F031FAFFF7C8FA48
S1131E700321304606F05BFF012384F854305CE014
S1131E8010100020E0FF3900010101000000484368
S1131E90998809429988093F701000208410002015
S1131EA09C1000200000003A1BA8382106F06DFEAB
S1131EB0D4ED077AB5EE007AF3EE066A27EE877A58
S1131EC0CDED1E7AC7EE267A1FED0A7A67EE877A81
S1131ED0B0EE087A00230122A16967EE877A1D918A
S1131EE00921CDE9232328928DF89C20226ACDE98B
S1131EF025131C92226C41461BA8CDE92123CDED6C
S1131F001B7A1F938DF8803000F00AFC98E80300D8
S1131F100F4B83E803000C9804F01EFC06460D9852
S1131F200F4604F019FC3246CDE900013B4609484E
S1131F3005F0AEFD5EE66FF0070528462DB0BDE85E
S1131F40F08F6FF00805F8E76FF00105F5E700BFC3
S1131F50681000205EA80000F8B504460A200E466A
S1131F6007F05EFC0A2846D8002007F047FC002052
S1131F70306007F015FC820505461CD415F0007787
S1131F8022D007F04AF901460546204606F059FEDC
S1131F904FF0007007F0EEFB184B93F8C330012BA1
S1131FA002D1002007F09CFA29462046FFF744FBA3
S1131FB03560002007E04FF4007007F0DBFBFFF70B
S1131FC017FC0028DAD0F8BD2B04F2D507F025F968
S1131FD005464FF4004007F0CDFB2946204606F0A5
S1131FE030FE29462046FFF727FB3946356001209D
S1131FF0FFF75EFDDDE76FF00800E4E71010002056
S11320000A4B30B5D3E903240023C0F387009A4276
S113201002D16FF0060005E014F82350854202D186
S113202000200B6030BD0133F1E700BF2023002006
S11320300D4B30B55A69DC685D681444A5420ED96D
S11320401C698008251F1D6104F8040C54F8040C55
S1132050013261F31F2044F8040C5A6130BD6FF063
S113206003029A61FAE700BF20230020094B10B550
S1132070D9685A695C680A44944295BF6FF00302B8
S11320809A689A6142F8210082BFDA680132DA6004
S113209010BD00BF2023002001290DD90022074BC9
S11320A0C3E9011001F180410139C3E9052200EBC4
S11320B081001861DA601A70704700BF2023002085
S11320C0044B08B19A68026009B1DA680A60986939
S11320D0704700BF20230020034B18B100220120C9
S11320E0DA609A61187070472023002030B5C36805
S11320F00446012B0D4687B020D10368022B33D14F
S11321000522234B18681B7902908DF80C30214B63
S113211018681B7904908DF814300DF107032079A9
S113212002A906F0D5FC78B301209DF807301833D6
S11321306B4413F8083C2B7007B030BD23BB036815
S1132140022BDDD1144B1A889B78ADF808208DF84A
S11321500A30124B1A889B78ADF810208DF8123093
S113216003220DF10703DAE70D4B062218689B885A
S11321700290ADF80C300B4B18689B880490ADF8B6
S113218014300DF10703CAE700202870D4E700BF1C
S11321906AA8000070A8000076A800007AA80000D1
S11321A07EA8000085A8000030B5C3680446012B52
S11321B00D4687B01CD10368022B28D140F60733A3
S11321C0ADF8083040F20A530222ADF810300DF198
S11321D00703207902A906F07BFC40B301209DF897
S11321E0073018336B4413F8083C2B7007B030BD2C
S11321F0EBB90268022AE1D140F60933ADF80830A0
S113220040F60F23ADF810300DF10703E1E7094B59
S1132210062218689B880290ADF80C30064B1868AB
S11322209B880490ADF814300DF10703D1E700202A
S11322302870DBE78CA8000093A80000F0B5844662
S113224000240F469BB05F4D0DAE0FCD0FC60FCDD2
S11322500FC60FCD0FC655F8043B0294336003AE8E
S113226095E80F0086E80F003C60644634B3DCF860
S11322700C300B2B22D8DCF80820022A1ED8DCF8FC
S1132280101003291AD8DCF80000042814D8DFE859
S113229000F00317327349001422DCF804309CED7B
S11322A0077A534307EE903AF8EE677A67EE877A37
S11322B0FCEEE77ACDED027A029B3B601BB0F0BDE9
S11322C01421DCF80430DCED076A4B431AA901EB56
S11322D0820252F85C2C28335343143307EE903AAD
S11322E0B6EE007AF8EE677A07EEA67ABCEEC77A05
S11322F08DED027AE0E71AA901EB8303DCF80420F0
S113230053F8343C604602FB033301220133CCE929
S1132310002302A9FFF792FF02232360029B0F33DD
S11323200293C9E79CF8181007A80A910DF1060159
S1132330CDE90723FFF7DAFE054618B19DF80650EC
S1132340013DEDB20DF1070107A8FFF72DFF20B104
S11323509DF80730013B2B44DDB202232360636800
S113236020462B44636002A9FFF768FF042323601F
S113237063685B1B63609FE7DCF81430032B09D8A8
S1132380DFE803F00F0D021600232360204602A9A4
S1132390FFF754FF03232360029B1933C0E7012393
S11323A0F3E79CF81930002B0CBF04230223ECE75D
S11323B001231944CCF80030DCF804308B40CCF80D
S11323C00430E3E75CA90000A0F5004007EE900AA2
S11323D00139F8EEE77A03290CD8DFE801F00207A7
S11323E01619B7EE087AC7EE877A03E0B6EE007ADC
S11323F067EE877A67EE807A9FED077A9FED070A8A
S113240067EE877A27EE800A7047B5EE007AEFE729
S1132410B2EE027AE7E700BF00000038110E813FF8
S1132420F7B5274F04463B780E46012B26D1B0F56D
S1132430085F04D36FF00403BB6103B0F0BD01A9CE
S1132440FFF7DEFDA50505F0FE4526F07F431D439D
S113245045F0004568B9019A3B6953F8221066F3C8
S11324601F2143F82210284603B0BDE8F040FFF7CF
S1132470FDBD31462046FFF7DBFDF4E7FEF7A2FF82
S1132480202006F050FB204606F02FFBFEF7A0FFAD
S1132490FEF798FF2D2006F046FB42F21403A4F544
S11324A08054A4B29C4207D8304606F02EFB03B0F9
S11324B0BDE8F040FEF78CBFB0B206F016FBF6E7BD
S11324C02023002037B50F4D04462B78012B14D15F
S11324D001A9FFF795FD48B1204606F02FFB014600
S11324E02046FFF7A5FD084603B030BD2B69019ACD
S11324F053F82210C1F31721F5E703B0BDE83040CB
S113250006F01CBB2023002030B500249DB07022AF
S11325102049684607F066FE1F4B6D46C3E9054433
S1132520DC601C70FEF754FF696828880134FFF7EB
S113253077FF0E2C05F10805F6D140F20440FFF7B1
S1132540C1FFA0F5AA43013B012B014606D9B0F512
S1132550AA4F1CD0114805F09BFAFEE70123104C4A
S11325601048237005F0A6FA21780F4A0F4B104843
S113257000290CBF1146194605F08AFA01230222EC
S113258000210C481DB0BDE8304005F081BA00239D
S1132590E5E700BF08AA000020230020A0A800004F
S11325A01B290020D2A800009DA800009AA80000C2
S11325B0DFA80000FCA800001FB5074B6846009385
S11325C0013B01930123029300238DF80C3006F0A4
S11325D0B4FB05B05DF804FB010101000A29FFB456
S11325E005460B4627D8022909D90831C9001143E9
S11325F01DB342F2F40004B0F0BCFFF711BF6E4605
S11326000F4C04F1080C374620686168083403C78E
S113261064453E46F7D12068A1793860A088042A31
S1132620B880B97107D803EB830310336B441344A8
S113263013F8101CDAE7F821D9E742F2F800DAE7D8
S113264078AA0000F5EE400A124B1B78012B0CBF50
S11326501E221A22F1EE10FA1AD00123934007EE3B
S1132660903AF8EEE77A27EE800AB6EE007AC0EEEA
S1132670207A77EE877AFCEEE77A1A2A064817EE74
S1132680903A18BF6FF07F40984228BF18467047B1
S1132690002070471B290020FFFF0F0010B50446DF
S11326A0042007F067F801210F4806F014FB01200D
S11326B006F0F4F90421012007F061F850B14FF459
S11326C00250FFF7FFFE04460021074806F003FB13
S11326D0204610BD23685A1CE9D0013B2360002B1F
S11326E0E5D11C46F0E700BF0001010000B595B03C
S11326F001A80D2106F049FA3C2105A806F045FA87
S113270001A806F01AFB05A806F0ADFC034807F083
S113271075F815B05DF804EB07F075B8E5470A00E5
S11327202DE9F04F2DED028B0446E7B0AD4E6C223F
S113273089462EA8AC4909AD07F054FD0FCE0FC54C
S113274033682B60002C00F0D78294ED018AB5EE3B
S1132750408AF1EE10FA00F0CC82A3695A1E192ABD
S113276000F2C782B9F1000F00F0C68294ED037A3B
S1132770DFED9E7AB4EEE77AF1EE10FA66AA02EB88
S1132780830318EE100ACCBF0126002653F8E07C20
S113279003F0E2FF0022964B04F036F882463846F6
S11327A08B4603F0B7FF0B4602465946504604F0E9
S11327B055F904F0C3FA9FED8F7A06EE900AC6EE3F
S11327C0877ADFED8D6A67EEA67A77EEA77AFCEE5C
S11327D0E77A17EE905A40F2165301356D089D4280
S11327E028BF1D4607EE105A9FED846AB8EEC77ADB
S11327F027EE067A87EE266ADFED816A07EE907A85
S113280078EE266AF8EE677A86EE267A27EE277A3D
S1132810C7EE276A9FED7B6A66EE886AC6EE267A63
S1132820F2EE026AF4EEE67AF1EE10FAD4ED008AE2
S113283080F2A381F1EE005AF4EEE57AF1EE10FA9B
S113284080F29E81F0EE005AF4EEE57AF1EE10FA91
S113285080F29981F7EE085AF4EEE57AF1EE10FA77
S1132860ACBF4FF0010B4FF0000BC6EE077AF4EE4D
S1132870E67AF1EE10FA80F28981B1EE007AF4EE94
S1132880C77AF1EE10FA80F28481B0EE007AF4EEA9
S1132890C77AF1EE10FA80F27F81B7EE087AF4EE8F
S11328A0C77AF1EE10FAACBF4FF0010A4FF0000AFC
S11328B009AB03EB8A0103EB8B0291ED007AD2EDB5
S11328C0007A4FF4005087EE278AFFF7FBFD019052
S11328D043F20C00FFF7F6FD012206218046104664
S11328E006F030FF4FF0FF3006F044FF0021464869
S11328F006F0F1F9FFF760FE44211DA806F045F942
S1132900032201272292626AA06A2192226AE16A62
S1132910209228AA03C2206B86F0010610601DA82D
S11329202396ADF890708DF8947006F02AFC3C2143
S11329300EA806F02AF922690026111E1692E269F1
S113294018BF01211A9240F20112ADF8702004223E
S1132950CDE90E1711211892A269CDE91216199228
S1132960227D2A49BA4214BF4FF4A0724FF4B072C8
S1132970149120210EA81B92ADF85410CDE91077C4
S1132980179606F070FB742149A806F0FEF8226938
S11329900521B2420CBF3A4602225D924FF01F025B
S11329A060924FF00B02CDE96221CDE964214FF032
S11329B0FF02F5EE408A4F9214BF812241224FF468
S11329C00070CDE94927F1EE10FA4FF41062CDE919
S11329D04D66CDE94B028DF884615E9640F0DF8050
S11329E016E000BF60AB0000F4AA00000050C34B27
S11329F0000099400080094500E0FF440000FA44CB
S1132A000000C84200803B45E0FF39000001000897
S1132A104FF0FF3249A807925C955096ADF8446197
S1132A2006F08AFA05F5006006F098FA39464FF484
S1132A30994006F050F949A8499706F0D3F94FF4A4
S1132A407A7006F02BF8242214211DA8CDE91D214B
S1132A50CDF87CB006F011FB322006F01FF807A871
S1132A60FFF71CFE07462069CDF87CA0B0420BBFDF
S1132A700225032521202220CDE91D051DA806F0ED
S1132A80FCFA322006F00AF807A8FFF707FE05460D
S1132A902069B04214BF81204120499049A806F022
S1132AA0A1F94FF47A7005F0F9FF242214211DA82E
S1132AB0CDE91D21CDF87CB006F0DFFA322005F017
S1132AC0EDFF07A8FFF7EAFD2369C01BB3420BBF64
S1132AD00222032221232223CDE903061DA8CDE9E6
S1132AE01D32CDF87CA006F0C8FA322005F0D6FFDE
S1132AF007A8FFF7D3FD401BCDE90506069B03A9F4
S1132B005B420693049B05A85B42049306F041F8DC
S1132B1094ED017AC7EE087A27EE800A67EEA07A70
S1132B20636B8DED070ACDED087A002B40F0D6805B
S1132B3089ED000AC9ED017A18F0020203D10221DD
S1132B40012006F0FFFD18F0040203D10421012046
S1132B5006F0F8FD00244FF400500199FFF760FCE3
S1132B6049A8CDE94944CDE94B4406F03BF9204658
S1132B7067B0BDEC028BBDE8F08F4FF0040B74E638
S1132B804FF0030B71E64FF0020B6EE64FF0040AB0
S1132B908EE64FF0030A8BE64FF0020A88E6D4ED86
S1132BA0020A94ED000A5995FFF74CFD022558904E
S1132BB049A8CDE95A665C965095ADF8446106F093
S1132BC0BBF9284606F0D6FD39464FF4406006F0BE
S1132BD082F8642005F062FF242214211DA8CDE9A7
S1132BE01D21CDF87CB006F048FA39464FF48140F7
S1132BF006F071F8192005F051FF39464FF40140F1
S1132C0006F069F80221012006F0B9FD0028F9D088
S1132C1000214CF2801006F05EF8022006F0AAFDB6
S1132C2042F27800FFF74EFC0390064642F27C0025
S1132C30FFF748FC23690490002B0BBF02220322F8
S1132C402123222305461DA8CDE91D32CDF87CA001
S1132C5006F013FA01214FF4814006F03CF81920E4
S1132C6005F01CFF01214FF4014006F034F8022165
S1132C70012006F084FD0028F9D000214CF28010D8
S1132C8006F029F8022006F075FD42F27800FFF7FD
S1132C9019FC0746059042F27C00FFF713FCB303CE
S1132CA042BF6FEA86366FEA96360396A90342BF9F
S1132CB06FEA85356FEA95350495BA0342BF6FEA2A
S1132CC087376FEA97370597830344BF6FEA8033EA
S1132CD06FEA9333069048BF06930FE707A805F001
S1132CE07BFF07A889ED000A05F08EFF89ED010A34
S1132CF022E76FF001003BE76FF0020038E700BF06
S1132D002DE9F0412DED028B0E4604469EB00028BD
S1132D1000F0E180002900F0DE8090ED017AF7EE0A
S1132D20007AB4EEE77AF1EE10FA00F1D78004A845
S1132D3006F0B2FA43F20C00FFF7C4FB01220125AE
S1132D4000274FF400418046104606F0FBFC4FF08C
S1132D50FF3006F00FFD01A8CDE90155039706F0F9
S1132D6063FA604B07A80B932368079708930995A8
S1132D708DF8285006F0DBFA236807A82B44089343
S1132D80594BB6EE008A0B93079506F0D0FA94EDF2
S1132D90017ADFED567A07EE278A0423BCEEC88A4F
S1132DA0199318EE103A053B159303231A934FF029
S1132DB0FF330CA81693CDE90D758DF874700C953E
S1132DC006F0EFFA4FF4004006F0D4FC284606F073
S1132DD087FB4FF40041012006F0D1FC0028F8D015
S1132DE006F0DBFA0746002006F07AFB04220020F6
S1132DF0114606F089FB236807A8013308930223D0
S1132E0009933B4B0B9306F092FA012006F05FFA0C
S1132E104FF4004006F0AEFC012006F061FB4FF4D5
S1132E200041012006F0ABFC0028F8D006F0B5FA0A
S1132E3005464FF40041002006F0A1FC002006F0F6
S1132E404FFB04A806F0F0F9C8F3C0324FF4004178
S1132E50012006F077FCED1B4FF4004006F08AFCDD
S1132E602946244804F014FE18EE101A224804F0EF
S1132E700FFE07EE905AB8EE488AF8EE678AD4ED52
S1132E80027A68EE277AC7EEA87A17EE900A03F062
S1132E9063FC02460B46194804F0FAFDD4ED027AAD
S1132EA068EE277AC7EEA87A17EE900A03F054FC6E
S1132EB002460B46124804F0EBFDD4ED027A28EEEC
S1132EC0278AC8EE287A0020C6ED007A1EB0BDEC31
S1132ED0028BBDE8F0816FF00200F7E76FF00100AC
S1132EE0F4E700BF58A9000054A900000000004204
S1132EF04CA9000019A900002CA9000038A9000061
S1132F0041A9000010B5234C01F0F4FA01F0E2FCF1
S1132F10236F23F0070343F00303236706F0DFFD69
S1132F201D4B00209B6A9B075EBF01221B4B9A62CC
S1132F30D4F8203123F0030343F00203C4F8203112
S1132F40D4F8243123F0070343F00203C4F82431F6
S1132F50D4F8403123F0030343F00203C4F84031B2
S1132F60D4F8603123F0030343F00203C4F8603162
S1132F70D4F8403223F0030343F00203C4F8403290
S1132F80D4F8003223F0070343F00203C4F80032FC
S1132F9010BD00BF0080005000C0005000E0005091
S1132FA008B502F009FB01280ED1104B04205A6E1B
S1132FB04FF480230E49520358BF0E4A4B6601F565
S1132FC01041086258BF536602F032FC06F0A5FCBB
S1132FD002F0BCFB02F016FC02F0DAFBFFF792FFF2
S1132FE002F0C4FBBDE8084006F08CBC0080005031
S1132FF00090005000A0005030B52B4D9DB009AC9E
S11330000FCD0FC495E80F0084E80F004FF461332F
S1133010222200210DF14A000B9307F0CAF8234B3A
S1133020012411933823139305231593062317932F
S11330300823199307231B9303230E2200210DF168
S113304016008DF849408DF8483007F0B2F84FF477
S1133050801C174B1748CDE903C33E238DF8143069
S11330603F238DF81530144B09AA069320230793A8
S1133070124B03A9009311AB8DF8214002F00EFC12
S1133080044618B17C210E4806F0B3FC9DF82230AA
S11330904FF46130002B0CBF0321002106F086FCA5
S11330A020461DB030BD00BFA4AB00000000035A91
S11330B03400035AA02300201C2900203C230020B4
S11330C074AB0000014806F0F8BD00BFA023002047
S11330D0024B0349186800F03FBD00BFF810002000
S11330E0D81000201022014B1A61704700D0035001
S11330F01022014B1A61704700E00350F0B5404DB7
S113310089B001AC0FCD0FC495E8070084E807002F
S1133110012401213A2001F033F83A4F01212820FB
S113312001F02EF8384B384601A903938DF812406C
S113313002F0A6FA234604220021022002F03CF801
S1133140224621460023022002F036F802212346BB
S11331500846042202F030F80422234611460020D7
S113316002F02AF84FF00213284D0226C5F8303633
S1133170A3F58033C5F82C361C23C5F834664FF408
S11331804870C5F81C3603F057F91420FFF7B0FF58
S113319003F052F92320FFF7A5FF03F04DF9B921FD
S11331A03846FFF7A5FF06F0FFFCFFF79BFF00235F
S11331B030461A46194601F0FFFF002321461A46FD
S11331C0304601F0F9FF234631463046002201F033
S11331D0F3FF002223461046042101F0EDFF384698
S11331E002F016FA00212820C5F83016C5F82C166E
S11331F0C5F83416C5F81C1600F0C2FF09B0F0BDBE
S1133200C4AB000000C0055000127A0000C0035097
S11332100348044A0449121A921006F0D7BB00BFAF
S11332201CB800001CB800004829002008B500F0B4
S11332302FF8FFF7EDFF124B12498B4212D30020F7
S1133240114B12498B4218D3FEF76EF8186850F8E8
S11332502240586840F82240013298688242F5D3EF
S11332600C33EAE70022F8E71C6844F82200013234
S11332705C68A242F8D30833E4E70022F8E700BF11
S113328028B5000034B5000034B5000034B50000A2
S11332904FF400414FF0FF30124B134A10B59A60BF
S11332A0D3F8882042F47002C3F888200F4A91664C
S11332B001F1884101F5005210664FF6DF70506647
S11332C00220C3F8D000BFF34F8FBFF36F8F0824E1
S11332D04FF440330648C0F88041D36004600B616A
S11332E010BD00BF00ED00E00000000000900050A1
S11332F000E100E0014B1868704700BF0011002096
S1133300084B1B6F03F00703022B04D0032B05D0DB
S1133310012B05D0FEE7044B18687047034BFBE70D
S1133320034870470080005000110020081100205D
S1133330002D310108B5FFF7E3FF054B1B6FC3F305
S113334003330133B0FBF3F0024B186008BD00BF38
S113335000800050FC1000200048704700B4C404F2
S1133360014B1868704700BF08110020054B186016
S1133370054B1B6F03F00703032B01D1FFF7DABFE3
S1133380704700BF081100200080005000487047BB
S1133390002D3101014B1868704700BF0411002053
S11333A00346054A0549106803448B428CBF4FF01D
S11333B0FF301360704700BF0C1100200080002014
S11333C008B501213A2000F0DBFE03210123042289
S11333D0002001F0F1FE002006F0DDFB0122214B6C
S11333E04FF46070C3F8442400F0F4FE1E4B00F563
S11333F0D520D3F8F02000F2FC4042F00102C3F8DB
S1133400F020D3F8FC2042F08072C3F8FC20174A65
S1133410A3F55D431A60164B0222B0FBF3F0154B83
S113342001381861C3F8F0204FF48072C3F8042304
S11334304FF06043104A0020C3F8B02F0F4AC3F87E
S1133440802ED3F8002E42F48072C3F8002EFF229F
S113345083F82020D3F8002E22F48072C3F8002EC3
S113346008BD00BF00D0035000ED00E0FF030040A2
S1133470F8590D00000004E055CEACC50900010068
S11334804FF06043D3F8802E30B5D20715D5012410
S11334900B4D8440D5F8FC2042F08072C5F8FC2026
S11334A0D3F8002E2243C3F8002E53F82020002A1C
S11334B0F0D003F82010002030BD1120FCE700BF3D
S11334C000ED00E02DE9F04F9A46564B85B01B788D
S11334D006460F461546DDF83C909DF844B0DDF8ED
S11334E05080002B00F09780072A00F296800E9BF4
S11334F0002B00F09280B9F1000F00F08E80129B37
S1133500B3F5006F00F38980012803D1109B002BD1
S113351000F08380444B03EB05131B7B002B7ED010
S1133520424C10220021684606F043FE04EB451489
S11335301022A7BB3946204606F03BFE43F2100397
S11335406380BBF1000F03D1E37843F00303E3701E
S1133550364A0E9B02EB451CCCE90193129B690190
S1133560581E9DF84C30C0F30A0003F003039B0679
S113357043EA001E53582E48012E00EA03004EEA87
S11335800003CDF800A0535017D0B8F1000F2ED18E
S11335909CF8023068F304138CF8023027E0002111
S11335A0204606F006FE4FF444736380BBF1000F1F
S11335B0CED1E37843F03003C9E713230CF1100EA6
S11335C0CCF80C309CE80F008EE80F006FF003017C
S11335D0DCF81C20109B61F39F02012FCCF81C2007
S11335E0CCF8143003D1CCF81890CCF80430002770
S11335F00D4A290102EB051342F80180159A284669
S11336005A60694622469F605E7301F0A5FE384603
S113361005B0BDE8F08F0748FAE70748F8E7074820
S1133620F6E700BF3C2900203C2500203C24002074
S11336300F80FFF3028000F0018000F0078000F0AB
S113364038B5124B05461B78DBB1E0B106F063FADE
S11336500F4A00231146147B54B92B6001251A012B
S113366001EB03131D738C5006F05BFA204638BD42
S11336700133082B02F11002EDD106F052FA05488D
S1133680F5E70548F3E70548F1E700BF3C290020CA
S11336903C250020048000F0028000F0018000F04E
S11336A038B506F038FA002305460B4A147B6CB98A
S11336B00133082B02F11002F8D101F0C5FD074BCC
S11336C028461C7006F02DFA204603E0284606F032
S11336D028FA034838BD00BF3C2500203C290020BF
S11336E0058000F00D4B10B51B78044693B10728F4
S11336F012D806F010FA0A4B03EB04131A7B2AB112
S113370000241C7306F00DFA204610BD06F009FAD9
S11337100448FAE70448F8E70448F6E73C2900209F
S11337203C250020068000F0028000F0018000F0BB
S1133730154B13B51868002301908DF8043006F07A
S1133740EAF9124B1C7824B106F0EBF9104802B0E8
S113375010BD01221A7006F0E4F90E4B01A81C7387
S11337601C7783F82C4083F83C4083F84C4083F862
S11337705C4083F86C4083F87C4008238DF8073064
S113378001F0A0FD2046E2E7E0AB00003C29002068
S1133790038000F03C2500200A4A08B512785AB18B
S11337A007280BD8084A02EB00131B7B43B1002106
S11337B001F068FD002008BD0448FCE70448FAE76E
S11337C00448F8E73C2900203C250020028000F052
S11337D0018000F0078000F00A4A08B512785AB157
S11337E007280BD8084A02EB00131B7B43B10121C5
S11337F001F048FD002008BD0448FCE70448FAE74E
S11338000448F8E73C2900203C250020028000F011
S1133810018000F0078000F00A4A08B5127852B11E
S113382007280AD8084A02EB00131B7B3BB101F0BE
S113383013FE002008BD0548FCE70548FAE70548E3
S1133840F8E700BF3C2900203C250020028000F05E
S1133850018000F0078000F00D4B1B7893B107281E
S113386012D889B10B4B03EB00131B7B73B10A4BCA
S11338701A6D01238340134214BF01230023002047
S11338800B707047054870470548704705487047F6
S11338903C2900203C25002000000450028000F058
S11338A0018000F0078000F00B4A10B512780C4636
S11338B062B107280CD859B1084A02EB00131B7BEC
S11338C043B101F0E5FD2070002010BD0448FCE781
S11338D00448FAE70448F8E73C2900203C25002086
S11338E0028000F0018000F0078000F0184B2DE901
S11338F0F0411F6D5B6D1F4000D5FEE701260025DA
S1133900144CDFF85880374218D02368C8F8506048
S1133910A3B1A168284601316268A1609847637B1E
S1133920012B0BD150B90C4B03EB45131A7B60F3FD
S113393041021A731A7F60F341021A770135082D88
S11339404FEA460604F11004DDD1BDE8F08100BF62
S1133950000004503C2500203C240020002004509A
S113396070B5044601250B4E04B970BD94FAA4F059
S1133970B0FA80F005FA00F306EB001224EA03041F
S11339805368002BF0D0117B11B191689847EBE795
S11339909847E9E7BC25002008B5192000F0CEFFC0
S11339A028B14FF00072074BC3F880211A601A2027
S11339B000F0C4FF28B14FF08062024BC3F88021AD
S11339C01A6008BD00E100E038B505460C4606F073
S11339D0A2F80022044B03EB05135C601A73BDE8E4
S11339E0384006F09EB800BFBC250020074BD3F832
S11339F02404D3F8202403F50053104000F055307C
S1133A0020F05020C3F82004FFF7AABF00C00350E1
S1133A10074BD3F82404D3F8202403F500531040B3
S1133A2000F0AA3020F0A020C3F82004FFF798BFCC
S1133A3000C0035038B5144606F06DF80023A364A3
S1133A4084F84C302364237F0546012B03D104F111
S1133A50600002F069FB636B1BB100212046E26B3E
S1133A609847284606F05DF8A36D002B03DCBB21C4
S1133A70034805F0BEFFA36D0120013BA36538BDDB
S1133A80E4AB000038B50546B0B1B9B1B2B1B2F596
S1133A90006F13DC06F03FF895F84C3003F0FF0498
S1133AA01BB106F03EF8064838BD012385F84C30BA
S1133AB006F037F82046F7E70248F5E70248F3E74F
S1133AC0032000F0012000F0022000F02DE9F04373
S1133AD01E46002387B080F8543090F85C700E9B2B
S1133AE004468846C66343633FBB4FF4406305689E
S1133AF06B614369092B23D905F12C034435012754
S1133B004FF00109A16D0131A16512490494CDE979
S1133B1002710196CDF80090216BA06A05F09BFF1D
S1133B200023CDE90167CDE90333CDF80090434686
S1133B302A46E16A606A05F074FF07B0BDE8F083C5
S1133B4003D105F120033835D9E705F124033C35C9
S1133B50D6E700BF353A00002DE9F04304468A4F0A
S1133B6089B001AE0D460FCF0FC697E8070086E86F
S1133B700700002C00F006811DB9844809B0BDE897
S1133B80F08384220021204606F013FB2B68804A30
S1133B90934200F0B68002F580429342EDD1292091
S1133BA04FF4A0224FF001087A4926462F46C4E973
S1133BB00B12206546F8043B0FCF0FC697E80F00A1
S1133BC086E80F006B7E012B08BF8DF81230AB7EA8
S1133BD033B1012B40F09C804FF40073ADF81430E6
S1133BE02B7E0121012B03BF00238DF811304FF4EC
S1133BF0E133EB683A20039300F0C2FA0121206D0F
S1133C0000F0BEFA2B691A1F0C2AB6D8033B2868A9
S1133C1001A98DF8103001F033FDAB6923F47F0363
S1133C2023F47F4323B92268936843F48033936079
S1133C302B7A2879697940EA03406B7AAA7941EAB8
S1133C400341AB7AEE7E42EA0342534B4FEA4818F3
S1133C504344002E67D11D26C3F81C66C3F83406FE
S1133C60C3F82C16C3F83026E97AEA7942EA01420D
S1133C70C3F82026E37BE27A277F207A94F8098030
S1133C80A57A217B94F80D90A67B84F8442084F8CF
S1133C904530002F51D13B46042201F08DFA3B46BA
S1133CA001224946404601F087FAA37F0422012BF2
S1133CB094BF3B4601233146284601F07DFAE37F59
S1133CC03BB90123042294F8451094F8440001F010
S1133CD073FA05F020FF314B1A78002A47D10122EC
S1133CE01A7005F01EFF02F0E5F9FFF721FD00212F
S1133CF004F12400FFF7A4FC014600283AD0284828
S1133D003CE728204FF480224FF0000825494CE777
S1133D10022B02D14FF4807360E7032B7FF42DAFA5
S1133D204FF440735AE71C25C3F81C56C3F83406F5
S1133D30C3F82C16C3F830269CE70023012201F0B7
S1133D403BFA002304224946404601F035FAA37F9A
S1133D500222012B94BF002301233146284601F09F
S1133D602BFAE37F002BB4D101230222ABE705F049
S1133D70D8FEBAE704F12800FFF762FC00283FF4FC
S1133D80FDAEBCE70848F9E638AC0000022000F0BC
S1133D9000C005500200050000C003503D2900206A
S1133DA0092000F002000400012000F0F7B51E46CF
S1133DB0037F0446012B0F46154612D03246FFF707
S1133DC061FE60B97DB1094B2A463946204600930D
S1133DD03346FFF77BFE204605F05CFEA06C03B083
S1133DE0F0BD0348FBE70348F9E700BF8B9A0000E6
S1133DF0082000F0022000F0044BD3F88420D206FF
S1133E00FBD4D3F88400C0F3811070470040005005
S1133E1038B5104B0546D3F820310C4603F00303A4
S1133E20022B0BD0032B0DD0012B0FD1FFF762FA1D
S1133E30052305B1286004B1236038BDFFF790FA6B
S1133E400323F6E7FFF7A2FA0223F2E70123002097
S1133E50EFE700BF00800050F7B50027114B019732
S1133E60D3F88041064604F00304012C0D4608D023
S1133E70022C12D041F2B1310B4805F0BAFD3C4698
S1133E8004E0394601A8FFF7C3FF0F240EB1019BDC
S1133E90336005B12C6003B0F0BDFFF777FA0190F1
S1133EA0F4E700BF0080005054AC000038B51A4B52
S1133EB00546D3F824010C4600F00700062821D853
S1133EC0DFE800F0280410181C0C1400FFF712FAA5
S1133ED0052305B1286004B1236038BDFFF70AFA51
S1133EE00623F6E7FFF73CFA0323F2E7FFF738FA75
S1133EF00423EEE7FFF74AFA0223EAE705F071FD2F
S1133F000723E6E7054840F6A87105F072FD002393
S1133F101846DEE70123DCE70080005054AC0000C3
S1133F2038B5104B0546D3F840310C4603F0030373
S1133F30022B0BD0032B0DD0012B0FD105F053FD19
S1133F40092305B1286004B1236038BDFFF722FAC4
S1133F500823F6E705F04AFD0B23F2E701230020CE
S1133F60EFE700BF0080005038B5164B0546D3F884
S1133F7000020C4600F00700042819D8DFE800F01E
S1133F8020030B0F130005F02EFD092305B1286053
S1133F9004B1236038BDFFF7FDF90823F6E705F007
S1133FA025FD0B23F2E7FFF7C5F90E23800AEDE7A1
S1133FB0054841F26F4105F01CFD00231846E5E772
S1133FC00123E3E70080005054AC000038B5124BE5
S1133FD00546D3F840320C4603F00303022B0BD002
S1133FE0032B0DD0012B0FD105F0FDFC092305B1E6
S1133FF0286004B1236038BDFFF7CCF90823F6E745
S113400005F0F4FC0B23F2E7044841F2FA3105F021
S1134010F0FC00231846EAE70080005054AC00008E
S113402038B5104B0546D3F860310C4603F0030352
S1134030022B0BD0032B0DD0012B0FD105F0D3FC99
S1134040092305B1286004B1236038BDFFF7A2F944
S11340500823F6E705F0CAFC0B23F2E7012300204E
S1134060EFE700BF0080005010B40F4C0B46D4F8AB
S1134070204204F00304012C0ED0022C10D008B10D
S1134080002101600BB100221A6040F6D27107488A
S11340905DF8044B05F0ADBC5DF8044BFFF7B8BE0A
S11340A05DF8044BFFF73CBF0080005054AC0000A7
S11340B0B0F5207F10B534D009D8B0F5007F2AD0F0
S11340C003D898B1B0F5C07F10D0002421E0B0F53A
S11340D0607FFAD1154BD3F88030C3F301149B06EB
S11340E017D5032C15D040F295210FE00F4B1C6F10
S11340F0230B13F00E0FC4F303340AD0072C08D09B
S11341000F2C06D0032C04D040F28521084805F07A
S113411070FC601C10BD054BD3F89040C4F30464DC
S1134120F7E7024B1C6FC4F38024F2E700800050D1
S113413054AC00004FF400320E4B10B504469A669E
S11341400020FFF7B5FF604341F671320A4C0B4B78
S1134150A04294BF00200120D969DA639A6822F44E
S1134160401242EA00529A60CA0344BF0022DA6352
S113417010BD00BF00900050005A620200000350BE
S113418070B5460904460D460ED140F22F310D4854
S113419005F02FFC334604F01F047DB103F5805372
S11341A00122A2401A6070BD012E05D0064B074AB9
S11341B0022E18BF1346EEE7054BECE703F5005358
S11341C0EEE700BF54AC00006880005060820050ED
S11341D064800050002330B5802885B004460193E4
S11341E074D02AD8002877D0A0F12004412C32D8EA
S11341F0412C30D8DFE804F07073707388888888A5
S11342007373923FA8653F7373732F2F2F2F2F2F34
S11342108D57737373B2AD732F2F2F2F2F2F2F2F13
S11342202F2F2F2F2F702F707070882F2F2F2F2F3D
S11342302F2F2F2F2F2F2F2F7070B0F5806F63D05B
S113424024D8B0F5007F55D00BD8B0F5807F6AD064
S1134250B0F5C07F40D040F29441434805F0C9FB1B
S113426037E0B0F5607F45D0F5D8B0F5207F36D083
S1134270B0F5407FEFD1FFF75DF804464FF42070AE
S1134280FFF716FFB4FBF0F4640831E0B0F5C06F3B
S11342905AD00DD8B0F5A06F3BD0B0F5B06F3DD07B
S11342A0B0F5906FD7D1002101A8FFF7FFFD10E012
S11342B0B0F5E06F4DD0B0F5F06F4FD0B0F5D06FE2
S11342C0C9D1002101A8FFF74FFE02E0FFF718F85B
S11342D00190019805B030BDFFF72CF8F8E7FFF71F
S11342E029F804464FF42070FFF7E2FEB4FBF0F423
S11342F00194EEE7FFF704F805462046FFF7D8FEE1
S1134300B5FBF0F50195E4E7002101A8FFF780FD76
S1134310DFE7002101A8FFF7A7FEDAE7002101A8E3
S1134320FFF79AFDD5E702934FF0E0231B695B0783
S113433005D5FEF7FFFF0290029B0193C9E703A98D
S113434002A8FFF7EDFDF7E7002101A8FFF7E8FD5C
S1134350BFE7002101A8FFF739FEBAE7002101A851
S1134360FFF75EFEB5E700BF54AC000008B580203F
S1134370FFF730FF034B98429EBF4FF48032024B4D
S11343801A6708BD005A620200A000501FB500233E
S1134390B0F5807F01937FD027D8382800F09C8027
S11343A00BD82438092810D809280ED8DFE800F0E3
S11343B06F6F6F6F0D0D670D3685522867D007D864
S11343C03D283AD03E2800F08C8040F2795152E0EA
S11343D08028FAD1454B1B6F03F00703013B032BE5
S11343E047D8DFE803F044413F75B0F5D06F64D09F
S11343F019D8B0F5A06F6FD00AD8B0F5806F46D049
S1134400B0F5906FE1D1002001A9FFF74FFD3AE02C
S1134410B0F5B06F33D0B0F5C06FD6D1002001A98C
S1134420FFF77EFD2FE0B0F5006FECD00AD8B0F5B1
S1134430E06F56D0B0F5F06FC7D1002001A9FFF7A7
S1134440EFFD20E0B0F5086FBFD1284BD3F8003161
S113445003F00303022B35D0032B37D0012B39D1C2
S1134460FEF77EFF032300E0052301930BE0022304
S1134470FBE740F2C6411E4805F0BBFA03E000200A
S113448001A9FFF7E9FC019805B05DF804FB0020E1
S113449001A9FFF7BDFCF6E702934FF0E0231B6987
S11344A05B0705D5FEF746FF0C230393039BDCE76C
S11344B003A902A8FFF734FDF8E7002001A9FFF7DC
S11344C053FDE0E7FEF766FF0823CEE705F089FA1F
S11344D00723CAE70123C8E7002001A9FFF7C4FDA9
S11344E0D1E7002001A9FFF771FDCCE7008000505F
S11344F054AC00004FF40022034B5A66012203F52A
S113450080439A62704700BF00900050F8B503687A
S113451004460F2B04D940F66D316C4805F069FA56
S113452063680F2B04D94FF43761684805F061FACA
S1134530A3680F2B04D940F67331644805F059FA87
S1134540237B0F2B04D940F67631604805F051FAED
S1134550637B0F2B04D940F679315C4805F049FAA6
S1134560A37B3F2B04D940F67C31584805F041FA2F
S1134570E37B3F2B04D940F67F31544805F039FAE8
S11345802369032B04D940F68231504805F031FAEF
S11345906369032B04D940F685314C4805F029FAA8
S11345A0E369012B04D940F68831484805F021FA23
S11345B08020FFF7EBFE032800F087804FF40022F1
S11345C0434B02215A6645F60E03424AC2F8803034
S11345D0414B9962012103F580539962936DD9038C
S11345E0FCD4D4E900131B0543EA0163E17B94F88E
S11345F020500B43217BE77E43EA0143617B6D013D
S113460043EA0133A17B43EA811313619169D4E93D
S113461004031B0643EA806301F000410B43A17EBF
S113462094F823000B43217E43EA0143617E43EA6D
S113463001239361136AE66923F00D0394F82210B1
S113464043EA8703002E2DD11362966A94F8213031
S113465045EA031326F033052B4343F00103936229
S11346601E4D1C4B9A6D35EA0202FBD102221A4DF3
S1134670AA621A659A6D5200FCD41A69A56822F4DC
S1134680700242EA05521A614FF00042124B9A61DD
S113469019B9022203F580539A6278B90122104BAA
S11346A09A620BE0334343F008031362936A23F0E6
S11346B0330303432B4343EA4103936294F82430C6
S11346C01BB1044B074AC3F88020F8BD54AC00006A
S11346D00090005000C0005000D000500300014082
S11346E000E00050F1A7FFFF014B93F90000704771
S11346F03E290020436810B5072B044604D940F630
S1134700B3512A4805F075F9A368032B04D940F680
S1134710B551264805F06DF92378032B04D940F6EA
S1134720B751224805F065F994F90130002B04DAF9
S113473040F6B9511D4805F05CF94FF480011C4A5C
S1134740637851664FF4D151022002F5B8325162B8
S113475018494F2B48604FF0010028BF4F2301F543
S1134760805148601169C903FCD4217843EA0123CC
S11347705361D4E901131B0143EA0123617B0B4319
S1134780217B43EA41039360E37BA17B1B0143EA62
S11347904113617C0B43217C43EA41035360A37CB6
S11347A013B16FF4D153536210BD00BF54AC000079
S11347B00090005000100250014B1880704700BF59
S11347C0DA120020014B1880704700BFD812002075
S11347D0B0F5207F10B565D00ED8B0F5007F4FD06E
S11347E003D800B3B0F5C07F1DD040F21231BDE84C
S11347F01040344805F0FDB8B0F5607FF5D14C1E8B
S1134800012C06D9042904D04FF43D712D4805F03C
S1134810F0F82D4AD2F8803023F0300343EA041331
S1134820C2F8803010BD4C1E012C0AD9102903D8BF
S1134830264BCB40DB0704D440F2C721214805F0C6
S1134840D8F805F039F905F045F94FF48031204BDB
S11348501D4A1967136F23F4704343EA0433136743
S1134860FEF768FD0446FFF7C7FAC0F102012046CF
S113487005F02AF900F03EF8BDE81040FFF776BDD8
S11348804C1E1F2C04D940F206310E4805F0B1F835
S11348900D4AD2F8903023F0F85343EA0463C2F887
S11348A09030BFE74C1E012C04D94FF443710548E6
S11348B005F09FF8044A136F23F4806343EA8423CA
S11348C01367AFE754AC00000080005010010100F2
S11348D00090005008B50121022000F089F805F08D
S11348E0EBF805F0F7F84FF48032014B1A6708BD76
S11348F00090005008B54FF4C070FFF76BFCBDE8A2
S113490008400449884294BF012102214FF42070D9
S1134910FFF75EBF80F0FA020028ABBF00F16040F1
S1134920054B00F5614000F00F00ACBF90F80003A8
S1134930185C0009704700BF14ED00E0C3B23F2BC0
S113494010B5044604D94FF44D71074805F051F8E9
S1134950064B620953F8220004F01F04E040C043F0
S113496000F0010010BD00BF9FAC000000E100E0BA
S113497000F10C03DBB24B2B10B5044604D940F212
S1134980C221144805F035F8EFF31083DB0702D594
S11349900122104610BD2046FFF7D0FF0246002832
S11349A0F6D12046FFF7B8FF0146EFF3118313B1A8
S11349B0B0EB131FECD2084B5B68C3F30803002B66
S11349C0E7D0103B58B2FFF7A7FF88428CBF002204
S11349D00122DEE79FAC000000ED00E0034A01790C
S11349E0D36E23F030030B43D3667047004000506E
S11349F0F8B50446244BD3F88420D006FBD4D3F86E
S1134A008430C3F381139C423CD0FEF779FC012C23
S1134A1005460BD11D4B984204D940F292711C48B3
S1134A2004F0E7FF0121284605F04EF805F06CF884
S1134A304FF00072174B07465A66204605F074F88B
S1134A404FF48063104E621E93403367736E9A0175
S1134A5003D4D6F884309B060AD5384605F058F8B6
S1134A60022C0FD12846BDE8F840002105F02CB8EF
S1134A70D6F884309906E9D54FF4F461044804F07B
S1134A80B8FFE3E7F8BD00BF00400050005A6202DF
S1134A90EBAC00000060005010B50C4608B9FEF7FE
S1134AA02FFC074B21461B783BB1064B984204D898
S1134AB00120BDE81040FFF79BBF0220F9E700BFCB
S1134AC03F290020005A62024FF0004238B5264BBD
S1134AD026495A6601224A604AF6CD3103F50B2372
S1134AE05D6C1964154030BB9968C9070BD4002468
S1134AF001221F4B5A6015B11E4B1F4A1A6405F060
S1134B0014F8204638BD1A498A601C4AD96ACC0771
S1134B1005D4904201D10724EAE70130F6E7904238
S1134B20E5D1F8E70132DC6A14F0080406D08A42C1
S1134B30F8D10724DFE700221049F4E78A42F8D0CD
S1134B4020220B4B0B495A620122A3F580539A6031
S1134B5023460A4A486A800603D49342E9D00133C3
S1134B60F8E79342C7D1E4E70090005000500950A1
S1134B7000600950004009503254FFFF40420F00CA
S1134B804FF0004238B5174B174C5A66012203F513
S1134B900C235A604AF6CD33656C23644378934002
S1134BA01343124AD363C3788178A2689B0043EA13
S1134BB0011322F074021343A3600279837943EA58
S1134BC0022323614279C37943EA022363610078B3
S1134BD0FFF77AFFEB0744BF054B236404F0A5FFFE
S1134BE0012038BD009000500040095000400050A2
S1134BF03254FFFF10B5044604F09CFF002341F239
S1134C0002020849E360A360226104F50052E361F3
S1134C106361A36123626362E362A3645164A36278
S1134C2010BD00BF7F370C0138B5154B04469842C0
S1134C300D4604D04FF4B371124804F0DAFE25B9DE
S1134C402046BDE8384004F075BF012204F58053C6
S1134C505A6040F2FF71204605F00F0204F066FF2F
S1134C602263782104F062FF05F001036A0748BF5C
S1134C7043F00203226C02F003029A42FAD138BDD7
S1134C800000035A36AD0000F8B506460C4615463A
S1134C9022B94FF40971434804F0ABFE424B9E42E3
S1134CA002D184B938240AE040F227213D4804F0B7
S1134CB0A0FE44B940F276313A4804F09AFE204608
S1134CC0FFF788FA04467368012B04D040F2592197
S1134CD0344804F08EFEB36803F0E003402B42D066
S1134CE009D893B1202B1AD040F29B21BDE8F8409B
S1134CF02C4804F07EBE602B42D0802BF4D105EB0F
S1134D004503A34247D801230DE0B5EB141F04D992
S1134D1040F28121234804F06CFE102303E0B5EB3C
S1134D20D40F1AD808236B436401B4FBF3F41F4F68
S1134D30203CB7EBC40F4FEAC40504D240F2A621CD
S1134D40184804F056FE30463D40012104F0EEFEC2
S1134D50B562BDE8F84004F0E9BE40F2862111488E
S1134D6004F047FEDEE70623B4FBF3F3AB4201D3C2
S1134D700623D8E740F28B210A4804F03AFEF7E70D
S1134D80B5EB940F01D80423CDE74FF42471054803
S1134D9004F02FFEF7E740F29521024804F029FEC3
S1134DA0B1E700BF36AD00000000035AF8FF7F00F2
S1134DB0436870B504460D4616461BB140F2FF71B8
S1134DC004F0B4FE2046FFF715FFE9896B7B2269E6
S1134DD00B43298A22F44C520B4322F0030213435F
S1134DE02361A2682B7B297E22F0804222F0E2021A
S1134DF00B4313436A691343A360AB681BB9A368ED
S1134E0043F00043A360EB69002B57D0987A1A7AD9
S1134E104004A16840EA82503F4A0A4010439A88FD
S1134E2002F4C04210435A7840EA82005A7B40EAB6
S1134E30C2009A7B40EA02109A7840EA8220A0607D
S1134E40E168D3E9042021F4D81121F4C0610243BC
S1134E500A43997942EA8122D97942EA4122E260FD
S1134E601A78012A05D1E26842F00402E2602B4A72
S1134E7006E0032A3ED1E26842F00402E260284AD6
S1134E800121C2F8C0105A7A04F580510A621AB19D
S1134E90E26842F40062E260DA7A4AB1E2682149E7
S1134EA042F40042E2601A7B02F00F02C1F8802053
S1134EB0E269DB7B22F003021343E36136B196F827
S1134EC0203004F58051CBB101238B6105212046AC
S1134ED0FFF7AAFEAA681AB120466968FFF7D4FE54
S1134EE020462978FFF7A0FE236CDB4313F4405FD0
S1134EF0FAD170BD023A012AC1D9B8E7626996F8BD
S1134F00223096F8210022F009020343134343F0B0
S1134F1001034B61DAE700BFE39BBDFF00E40350EC
S1134F2000D403500090035038B5294B05469842ED
S1134F300C463FD119B98C21264804F05AFD38207B
S1134F40FFF724FA083808283DD8234B0341DB0730
S1134F5039D4637B032B03D9AA211E4804F049FDED
S1134F60237B802B03D0AC211A4804F042FD6369F3
S1134F70B3F1804F03D0AE21164804F03AFD238AE2
S1134F8023F400539BB2B3F5805F03D0B0211148E2
S1134F9004F02FFDA368013BB3F5165F03D3B221E0
S1134FA00C4804F026FD21462846BDE8384000227E
S1134FB0FFF7FEBE8A21074804F01BFD1CB98C21B3
S1134FC0044804F016FD9E21024804F012FDC0E7D7
S1134FD00000035A36AD0000F4FEFFFF38B5114B54
S1134FE0054698420C4603D070210F4804F001FD99
S1134FF01CB972210C4804F0FCFC237B802B03D1E8
S11350007621094804F0F5FC637B032B03D979214D
S1135010054804F0EEFC21462846BDE8384000224D
S1135020FFF7C6BE0000035A36AD00001F2970B555
S113503004460D46164603D99121064804F0D9FCCE
S11350402EB104F580540123AB40236070BD04F5F8
S11350500054F8E784AD0000032838B504460D4633
S113506005D80B4B33F81030CB40DB0704D440F2A7
S11350702D41084804F0BDFC30220123544341F281
S1135080100204F1A044AB4004F57034A35038BDC1
S11350906AAE0000D0AD0000032838B504460D46C2
S11350A005D80B4B33F81030CB40DB0704D440F267
S11350B0FE31084804F09DFC30220123544342F29F
S11350C0100204F1A044AB4004F57034A35038BD81
S11350D06AAE0000D0AD00002DE9F84F0328074662
S11350E00E46144698469DF828A09DF82C9005D8A5
S11350F0274B33F81030CB40DB0703D4BF212548BE
S113510004F077FC86EA0403032B03D9C121214868
S113511004F06FFC072C4FF0030506F0030625D8B6
S11351204FEA840B05FA0BF529461B4807FA0BF2E4
S113513004F022FD2946194806FA0BF204F01CFD7E
S1135140424621461648FFF771FF5246214615484C
S1135150FFF76CFF0123144AA340C2F82034214610
S11351604A46BDE8F84F1148FFF760BFA4F1080BA9
S11351704FEA8B0B05FA0BF529460D4807FA0BF29B
S113518004F0FAFC29460B4806FA0BF2D6E700BFF6
S11351906AAE00001DAE000000C4035008C40350F2
S11351A010C4035014C4035000E0035024C403503B
S11351B004C403500CC403500328F8B504460D4638
S11351C016461F4605D81C4B33F81030CB40DB077E
S11351D004D44FF4B071194804F00BFC26B12946ED
S11351E02046CFB1FFF738FF04EB4403072D4FF0FF
S11351F00F014FEA031312D8A80006FA00F2814007
S11352000F48184404F0B8FCAEB92946204677B1DB
S1135210BDE8F840FFF720BFFFF73EFFE4E7A5F144
S11352200800800006FA00F281400648E9E7BDE87C
S1135230F840FFF731BFF8BD6AAE00001DAE0000B4
S113524004C003500CC003504FF400120B4B10B5B4
S1135250C3F88020BFF34F8FBFF36F8F0024FF226A
S1135260074B21465C6520209A625C60FEF788FF4C
S11352702146BDE810402120FEF782BF00E100E096
S113528000000450072838B504460D4603DD772195
S1135290084804F0AEFB1F2C03D99121064804F002
S11352A0A8FB064A064B002D08BF13460122A24064
S11352B01A6038BD72AE000084AD00004010045086
S11352C04020045010B5044618B991211F4804F039
S11352D090FB23781B0613F0604F03D092211B48E8
S11352E004F087FBE3780F2B03D9A321174804F0BC
S11352F080FB01212020FEF743FF01212120FEF73E
S11353003FFF0122124B5A60227812069A6061789C
S1135310A27842EA01429A61FF229A6200229A63C9
S11353201A644FF000425A654FF0FF324FF40011F7
S113533003F500531A65074AC2F88011E3781B018C
S1135340DBB282F81533116010BD00BF72AE0000ED
S11353500000045000E100E02DE9F0410126C3B251
S1135360072805460C46904606FA03F603DDEC21B1
S1135370354804F03EFB1CB9ED21334804F039FBF9
S1135380236823F47C1323F00F031BB1F0212E4870
S113539004F02FFBA37A1B0413F47C0F04D040F217
S11353A00911294804F025FBE37A1B0513F07E6FED
S11353B004D040F20B11244804F01BFB237B5B0553
S11353C013F0FE5F04D040F20D111F4804F011FBEE
S11353D01E4B1F4F1E65226803F5005343F825201A
S11353E0302202FB0575637B2B66E37AA27A1B05E8
S11353F043EA0243227B43EA4253EB6528F003036A
S11354002B6704F088FB7B6D33437B65237A13B1F0
S11354103B6C33433B64637A13B1BB6B3343BB6371
S11354202279A37943EA0243084A93616179E379D3
S113543043EA014307498B61054B56639E64BDE80B
S1135440F04104F06EBB00BF72AE000000200450B7
S1135450000004500010045010B50124C3B2072802
S113546004FA03F404DD40F29711074804F0C1FA8A
S113547004F051FB054B5A6D22EA04025A659C6202
S1135480BDE8104004F04DBB72AE000000000450B3
S113549010B50124C3B2072804FA03F404DD40F272
S11354A0B5110A4804F0A5FA04F035FB084BDA6A92
S11354B0224208D15B6B9C430CBF0124002404F0FE
S11354C030FB204610BD0024F9E700BF72AE000097
S11354D000000450022838B505460C4603D94C2177
S11354E00C4804F086FAE378627821785B0143EA99
S11354F0820322790B4343EA02130C226A4302F12A
S1135500B0421363012902BFA278034B43F825205C
S113551038BD00BFBEAE0000E880035008B54FF0B0
S1135520B0435A686AB958B15B680BB104F034FBF4
S113553001210D4B596004F02FFB4FF0B043D960AB
S113554008BD5B680BB104F027FB0028F0D104F020
S113555023FB4FF0B0430222DA6004F01DFB01226A
S1135560024B5A60ECE700BF0010005800200058BE
S11355704FF0B0414B6810B50BB104F00DFB0122A4
S11355800B4BC4785A608378934043EA840344788D
S11355902343047943EA0413447943EAC4038B6044
S11355A0044B5A600378C3F10203CB6010BD00BF03
S11355B00020005800100058024B1868C0F3074040
S11355C0704700BF0080E00F70B506460C461546D4
S11355D022B940F28E210C4804F00BFA24B94FF49E
S11355E02070FEF7F7FD04466D00013CB4FBF5F4B2
S11355F0064B250213EA042304D040F2B3210248E7
S113560004F0F7F9F56170BD0AAF0000070080FFF0
S1135610174B10B59842044608D003F580439842CE
S113562004D040F24241134804F0E3F9012204F5A6
S113563080535A6040F6AA6341F205026361002375
S11356400D49A360E365E26004F500522361E36160
S1135650E36491640649A3658C4203D12365002366
S1135660636502E005498C42F8D00123536010BD04
S113567000C005500AAF0000FFFF01000000065003
S113568038B52F4B044698420D4608D003F58043A5
S1135690984204D040F269312A4804F0AAF920461D
S11356A0FFF7B6FF012204F580535A602B8AA268E3
S11356B043F001031343AA7B43EA8223A360A36854
S11356C02A7D43EA4273A360AB7C5BB11C4AEB7C4A
S11356D094422DD1A2F51032C2F88C31E36D43F01F
S11356E08003E3652B7B2046D5E9011243F4805304
S11356F0E360FFF769FF6B7B0BB1102363616B7D84
S11357001BB1A36843F48033A360AB7D1BB1A368D2
S113571043F40043A360EB7D2A7E1B07120503F0CC
S1135720E04302F4E0021343A3652B78636138BDC0
S1135730054A944204BFA2F52032C2F89C31CDE759
S113574000C005500AAF00000000065007B56B46C4
S1135750054A1068516803C36846FFF711FA002030
S113576003B05DF804FB00BF57AF000013B500247D
S1135770064A6846536F43F00103536700948DF85B
S11357800440FFF72BF9204602B010BD0040005042
S113579030B58BB06C46184D0FCD0FC40FCD0FC470
S11357A095E8030084E80300144BD3F84C2112035A
S11357B01DD5A3F5FE431C884FF6FF739C4208BF1A
S11357C08C248DF81940FEF78FFF204480F30800E5
S11357D08DF818000A48FDF7C9FD6846FEF796FEE5
S11357E04FF4FA70FEF7EEFF00200BB030BDD3F893
S11357F05041E4B2E5E700BF60AF00000080E00F75
S113580000F0490230B5094D87B001AC0FCD0FC48B
S11358102B6801A823603F238DF80530FEF76AFF4B
S11358203220FEF7C9FF002007B030BD88AF00006A
S11358306FF00403502110B50A480B4C13F0800F8D
S113584003F1010207D12344402A83F800131346CD
S1135850F4D1002010BD03F00F03043B0344197678
S11358601346EBE700ED00E000E100E010B504466C
S113587004F04AF9024B1C6004F04AF9002010BD00
S1135880BC27002010B504F03FF9034B1C6804F05A
S11358903FF9204610BD00BFBC2700202DE9F0438E
S11358A08DB01C4606AB0646894618469046002134
S11358B01822149D04F07DFC227903460AB18DF868
S11358C01820C8F81C3063790127C3F10203DBB246
S11358D0CDE90333644B30460293644B4A4601934B
S11358E0002329460093624B8DF81E7000F0E2FA03
S11358F00646002840F09280A3683946EB63A3690A
S11359003A20EB64237DDFF8749185F848302369ED
S11359106B64237B85F84030236A6B65237F85F8AD
S11359205030A36AEB6594F8243085F85830236826
S1135930AB63FEF725FC3B4604222169207BFFF77D
S11359403BFC3B460222A169207DFFF735FC88F829
S1135950006085F860603946A068FEF711FC637941
S1135960394633BB4FF4C060FEF70AFCD9F8203245
S1135970414623F0030343F002032068C9F82032B0
S1135980FFF7D2FA02223B4B2169C3F8C020227BE5
S113599042EA0142C3F8D020A169227D42EA0142D1
S11359A0C3F8CC202379032B5BD8DFE803F02E194E
S11359B03B544FF48060FEF7E3FBD9F820324146B4
S11359C023F0030343F00103C9F820322068FFF7F2
S11359D005FB95F8603043F0040385F86030D1E7A7
S11359E0002795F8603043F0010385F86030022207
S11359F00023216A207FFFF7DFFB226A237F43EA2B
S1135A0002431D4AC2F8C43097B90422AB6B052186
S1135A1003F5805320689A64FFF706F930460DB009
S1135A20BDE8F08395F8603043F0020385F86030F8
S1135A3000230422A16A94F82400FFF7BDFB01238C
S1135A400D4AA16AC2F8C03094F8243043EA0143F5
S1135A50C2F8C830D9E795F86030012743F0030352
S1135A60C3E72326DAE700BF0F9C00007F9C0000F9
S1135A70AF9C000000C4035000D4035000800050C9
S1135A8010B50020144604F099F8022804D018B187
S1135A90C321024803F0ADFF204610BD9CAF0000B7
S1135AA0034B0222186800238068194601F098BE4F
S1135AB01C110020302238B5037A0446534303F105
S1135AC0A04303F58023DD6ED0E9032313449D42F4
S1135AD001D8AA4204D94FF43E71054803F089FF66
S1135AE0D4E9030303449D4218BF284638BD00BFD0
S1135AF006B0000030B51446054687B01046FFF7DF
S1135B00D9FF6369024683423CBFD4E903315B1881
S1135B101B1AABB11249049403910021CDE9013160
S1135B20012300932846D4E9001303F094FF20B125
S1135B304FF434710B4803F05CFF002007B030BD14
S1135B400122627694F82D20002AF6D084F83530AC
S1135B501321E369204698472046636A9847ECE797
S1135B60F55A000006B000002DE9F04788B004465D
S1135B700F461646984603F0CEFF8146002E00F0ED
S1135B80AD80237E03F0FF02002B00F0E08020466E
S1135B90FFF790FF63698246984206D1637E23B97A
S1135BA040F27F316B4803F024FF6569AA459DBF2D
S1135BB0D4E903329B185D1BAAEB0505B54228BF47
S1135BC0354603F0A8FF94F82D308246002B40F0B0
S1135BD096802A463846616904F004FB63692E46C0
S1135BE02B4463612CE06069037803F0FD01112903
S1135BF040F08280216B884205D1A3F111014B4210
S1135C004B4184F83430013E6369216B01328B428D
S1135C1003F1010308BF236363619542E3D1D4E92F
S1135C200323216B1344994208BF2263216B8A42E8
S1135C3001D88B4204D84FF46D71464803F0D9FE65
S1135C40D4E9032361691344994208BF626161691D
S1135C508A4201D88B4204D84FF471713D4803F055
S1135C60C8FE0023207A6376FDF796FD20B140F24A
S1135C701131384803F0BDFE2046FFF71BFF63696E
S1135C8083423FD10023E568237694F82D30656183
S1135C9003B125632046636A98472F4B049403930A
S1135CA00023029323692A46019301230093636826
S1135CB02168207A03F0CFFE20B140F22D3125482F
S1135CC003F097FE207AFDF787FD20B140F25131B1
S1135CD0204803F08EFE504603F023FF4846C8F8E0
S1135CE0006003F01EFFD8F80030002B0CBF1B200F
